:020000040800F2
:1000000000800120BD1501081F9D0008259D0008E6
:100010002B9D0008319D0008379D0008000000005E
:1000200000000000000000000000000065700008F3
:100030003D9D00080000000021700008516F00087D
:100040000D1601080D1601080D1601080D16010800
:100050000D1601080D1601080D1601080D160108F0
:100060000D1601080D1601080D1601084B9D00081C
:10007000891F00080D1601080D1601080D1601084C
:10008000599D0008679D0008759D00080D16010820
:100090000D1601080D1601080D1601080D160108B0
:1000A0000D160108859D00080D1601080D160108A2
:1000B0000D1601080D1601080D1601080D16010890
:1000C0000D1601080D1601080D1601080D16010880
:1000D0000D1601080D1601080D1601080D16010870
:1000E0000D1601080D1601080D1601080D16010860
:1000F0000D1601080D1601080D1601080D16010850
:100100000D1601080D1601080D1601080D1601083F
:100110000D1601080D1601080D1601080D1601082F
:100120000D1601080D1601080D1601080D1601081F
:100130000D1601080D1601080D1601080D1601080F
:100140000D1601080D1601080D160108999D0008ED
:100150000D1601080D1601080D1601080D160108EF
:100160000D1601080D1601080D1601080D160108DF
:100170000D1601080D1601080D16010800000000FB
:080180000D1601080D1601081F
:1001880081F0004102E000BF83F0004330B54FEA40
:1001980041044FEA430594EA050F08BF90EA020FAD
:1001A8001FBF54EA000C55EA020C7FEA645C7FEA40
:1001B800655C00F0E2804FEA5454D4EB5555B8BF63
:1001C8006D420CDD2C4480EA020281EA030382EAD4
:1001D800000083EA010180EA020281EA0303362D66
:1001E80088BF30BD11F0004F4FEA01314FF4801C39
:1001F8004CEA113102D0404261EB410113F0004F4B
:100208004FEA03334CEA133302D0524263EB430301
:1002180094EA050F00F0A780A4F10104D5F1200E9F
:100228000DDB02FA0EFC22FA05F2801841F10001FA
:1002380003FA0EF2801843FA05F359410EE0A5F1CE
:1002480020050EF1200E012A03FA0EFC28BF4CF0FF
:10025800020C43FA05F3C01851EBE37101F00045B5
:1002680007D54FF0000EDCF1000C7EEB00006EEBC2
:100278000101B1F5801F1BD3B1F5001F0CD349084C
:100288005FEA30004FEA3C0C04F101044FEA4452A3
:1002980012F5800F80F09A80BCF1004F08BF5FEA2A
:1002A800500C50F1000041EB045141EA050130BD0A
:1002B8005FEA4C0C404141EB0101013C28BFB1F51C
:1002C800801FE9D291F0000F04BF01460020B1FA67
:1002D80081F308BF2033A3F10B03B3F120020CDA3A
:1002E8000C3208DD02F1140CC2F10C0201FA0CF018
:1002F80021FA02F10CE002F11402D8BFC2F1200C7D
:1003080001FA02F120FA0CFCDCBF41EA0C01904032
:10031800E41AA2BF01EB0451294330BD6FEA04047B
:100328001F3C1CDA0C340EDC04F11404C4F1200266
:1003380020FA04F001FA02F340EA030021FA04F378
:1003480045EA030130BDC4F10C04C4F1200220FACF
:1003580002F001FA04F340EA0300294630BD21FA0D
:1003680004F0294630BD94F0000F83F4801306BFD3
:1003780081F480110134013D4EE77FEA645C18BFC7
:100388007FEA655C29D094EA050F08BF90EA020F5E
:1003980005D054EA000C04BF1946104630BD91EA56
:1003A800030F1EBF0021002030BD5FEA545C05D159
:1003B8004000494128BF41F0004130BD14F5800498
:1003C8003CBF01F5801130BD01F0004545F0FE410C
:1003D80041F470014FF0000030BD7FEA645C1ABF41
:1003E800194610467FEA655C1CBF0B46024650EA78
:1003F800013406BF52EA033591EA030F41F40021A4
:1004080030BD00BF90F0000F04BF0021704730B529
:100418004FF4806404F132044FF000054FF00001FE
:1004280050E700BF90F0000F04BF0021704730B5BF
:100438004FF4806404F1320410F0004548BF404294
:100448004FF000013EE700BF42004FEAE2014FEAE9
:1004580031014FEA02701FBF12F07F4393F07F4FC4
:1004680081F06051704732F07F4208BF704793F0C7
:100478007F4F04BF41F40021704730B54FF46074DA
:1004880001F0004521F000411CE700BF50EA0102DD
:1004980008BF704730B54FF000050AE050EA010286
:1004A80008BF704730B511F0004502D5404261EBF6
:1004B80041014FF4806404F132045FEA915C3FF437
:1004C800D8AE4FF003025FEADC0C18BF03325FEAD4
:1004D800DC0C18BF033202EBDC02C2F1200300FA85
:1004E80003FC20FA02F001FA03FE40EA0E0021FAAA
:1004F80002F11444BDE600BF70B54FF0FF0C4CF498
:10050800E06C1CEA11541DBF1CEA135594EA0C0F49
:1005180095EA0C0F00F0DEF82C4481EA030621EA84
:100528004C5123EA4C5350EA013518BF52EA0335BF
:1005380041F4801143F4801338D0A0FB02CE4FF071
:100548000005E1FB02E506F00042E0FB03E54FF0A1
:100558000006E1FB03569CF0000F18BF4EF0010E99
:10056800A4F1FF04B6F5007F64F5407404D25FEA95
:100578004E0E6D4146EB060642EAC62141EA555148
:100588004FEAC52040EA5E504FEACE2EB4F1FD0C8A
:1005980088BFBCF5E06F1ED8BEF1004F08BF5FEA08
:1005A800500E50F1000041EB045170BD06F00046BA
:1005B80046EA010140EA020081EA0301B4EB5C0467
:1005C800C2BFD4EB0C0541EA045170BD41F480115F
:1005D8004FF0000E013C00F3AB8014F1360FDEBF84
:1005E800002001F0004170BDC4F10004203C35DA60
:1005F8000C341BDC04F11404C4F1200500FA05F3E3
:1006080020FA04F001FA05F240EA020001F0004283
:1006180021F0004110EBD37021FA04F642EB0601F9
:100628005EEA430E08BF20EAD37070BDC4F10C0423
:10063800C4F1200500FA04F320FA05F001FA04F2E7
:1006480040EA020001F0004110EBD37041F10001D3
:100658005EEA430E08BF20EAD37070BDC4F12005DE
:1006680000FA05F24EEA020E20FA04F301FA05F246
:1006780043EA020321FA04F001F0004121FA04F2EE
:1006880020EA020000EBD3705EEA430E08BF20EABE
:10069800D37070BD94F0000F0FD101F000464000F8
:1006A80041EB010111F4801F08BF013CF7D041EA7A
:1006B800060195F0000F18BF704703F0004652007E
:1006C80043EB030313F4801F08BF013DF7D043EA4F
:1006D8000603704794EA0C0F0CEA135518BF95EA05
:1006E8000C0F0CD050EA410618BF52EA4306D1D18C
:1006F80081EA030101F000414FF0000070BD50EAAB
:10070800410606BF1046194652EA430619D094EA34
:100718000C0F02D150EA013613D195EA0C0F05D11E
:1007280052EA03361CBF104619460AD181EA030172
:1007380001F0004141F0FE4141F470014FF000002A
:1007480070BD41F0FE4141F4780170BD70B54FF0C5
:10075800FF0C4CF4E06C1CEA11541DBF1CEA135545
:1007680094EA0C0F95EA0C0F00F0A7F8A4EB050427
:1007780081EA030E52EA03354FEA013100F088801E
:100788004FEA03334FF0805545EA131343EA1263E7
:100798004FEA022245EA111545EA10654FEA00269C
:1007A8000EF000419D4208BF964244F1FD0404F555
:1007B800407402D25B084FEA3202B61A65EB0305B1
:1007C8005B084FEA32024FF480104FF4002CB6EB6E
:1007D800020E75EB030E22BFB61A754640EA0C00EE
:1007E8005B084FEA3202B6EB020E75EB030E22BF2E
:1007F800B61A754640EA5C005B084FEA3202B6EB6F
:10080800020E75EB030E22BFB61A754640EA9C002D
:100818005B084FEA3202B6EB020E75EB030E22BFFD
:10082800B61A754640EADC0055EA060E18D04FEABB
:10083800051545EA16754FEA06164FEAC30343EA5B
:1008480052734FEAC2025FEA1C1CC0D111F4801F28
:100858000BD141EA00014FF000004FF0004CB6E721
:1008680011F4801F04BF01430020B4F1FD0C88BFC0
:10087800BCF5E06F3FF6AFAEB5EB030C04BFB6EBCB
:10088800020C5FEA500C50F1000041EB045170BDBE
:100898000EF0004E4EEA113114EB5C04C2BFD4EBEB
:1008A8000C0541EA045170BD41F480114FF0000E6F
:1008B800013C90E645EA060E8DE60CEA135594EAEB
:1008C8000C0F08BF95EA0C0F3FF43BAF94EA0C0FEE
:1008D8000AD150EA01347FF434AF95EA0C0F7FF463
:1008E80025AF104619462CE795EA0C0F06D152EAB7
:1008F80003353FF4FDAE1046194622E750EA41069B
:1009080018BF52EA43067FF4C5AE50EA41047FF4AB
:100918000DAF52EA43057FF4EBAE12E74FF0FF3C10
:1009280006E000BF4FF0010C02E000BF4FF0010CE1
:100938004DF804CD4FEA410C7FEA6C5C4FEA430C5A
:1009480018BF7FEA6C5C1BD001B050EA410C0CBFA9
:1009580052EA430C91EA030F02BF90EA020F00200B
:10096800704710F1000F91EA030F58BF994208BF72
:1009780090422CBFD8176FEAE37040F0010070472F
:100988004FEA410C7FEA6C5C02D150EA013C07D186
:100998004FEA430C7FEA6C5CD6D152EA033CD3D0D1
:1009A8005DF8040B704700BF8446104662468C46CB
:1009B8001946634600E000BF01B5FFF7B7FF0028FE
:1009C80048BF10F1000F01BD4DF808EDFFF7F4FF27
:1009D8000CBF012000205DF808FB00BF4DF808EDB2
:1009E800FFF7EAFF34BF012000205DF808FB00BFD5
:1009F8004DF808EDFFF7E0FF94BF012000205DF8F7
:100A080008FB00BF4DF808EDFFF7CEFF94BF0120AB
:100A180000205DF808FB00BF4DF808EDFFF7C4FFA4
:100A280034BF012000205DF808FB00BF4FEA410CED
:100A38007FEA6C5C02D150EA013C0AD14FEA430CD0
:100A48007FEA6C5C02D152EA033C02D14FF000000D
:100A580070474FF0010070474A0011D212F500129A
:100A680011D20DD56FF47873B3EB62520ED44FEAFE
:100A7800C12343F0004343EA505323FA02F070477E
:100A88004FF00000704750EA013002D14FF0FF30BC
:100A980070474FF0000070470348044B834202D070
:100AA800034B03B118477047A0020020A0020020A2
:100AB800000000000548064B1B1AD90F01EBA301E3
:100AC800491002D0034B03B118477047A002002019
:100AD800A00200200000000010B5064C237843B99E
:100AE800FFF7DAFF044B13B10448AFF3008001238A
:100AF800237010BDA002002000000000EC1B0108BC
:100B080008B5054B1BB105490548AFF30080BDE8A2
:100B18000840FFF7CFBF00BF00000000A40200207C
:100B2800EC1B010880B485B000AF78607B681B6857
:100B380003F06003FB60FB68002B04D17B681B6833
:100B480003F01003FB60FB6818461437BD465DF8D8
:100B5800047B704780B483B000AF78607B681B6B00
:100B680018460C37BD465DF8047B704780B483B0E7
:100B780000AF786039607B681A6A3B681A437B6803
:100B88001A6200BF0C37BD465DF8047B704780B41D
:100B980083B000AF786039607B681A6A3B68DB43D2
:100BA8001A407B681A6200BF0C37BD465DF8047BAB
:100BB800704780B483B000AF78607B685B6C43F4A7
:100BC80000427B685A6400BF0C37BD465DF8047B61
:100BD800704780B483B000AF78607B68DB6843F00F
:100BE80001027B68DA6000BF0C37BD465DF8047B04
:100BF800704780B483B000AF78607B68DB6823F00F
:100C080001027B68DA6000BF0C37BD465DF8047BE3
:100C1800704780B483B000AF78607B68DB6803F00E
:100C28000103012B01D1012300E0002318460C37F2
:100C3800BD465DF8047B704780B483B000AF786030
:100C48007B68DB6843F002027B68DA6000BF0C3720
:100C5800BD465DF8047B704780B483B000AF786010
:100C68007B68DB6823F002027B68DA6000BF0C3720
:100C7800BD465DF8047B704780B483B000AF7860F0
:100C88007B68DB6803F00203022B01D1012300E03B
:100C9800002318460C37BD465DF8047B704780B4C6
:100CA80083B000AF78607B68DB6843F004027B6840
:100CB800DA6000BF0C37BD465DF8047B704780B42E
:100CC80083B000AF78607B68DB6823F004027B6840
:100CD800DA6000BF0C37BD465DF8047B704780B40E
:100CE80083B000AF78607B68DB6803F00403042BF3
:100CF80001D1012300E0002318460C37BD465DF8FA
:100D0800047B704780B483B000AF78607B68DB6891
:100D180043F008027B68DA6000BF0C37BD465DF817
:100D2800047B704780B483B000AF78607B68DB6871
:100D380023F008027B68DA6000BF0C37BD465DF817
:100D4800047B704780B483B000AF78607B68DB6851
:100D580003F00803082B01D1012300E00023184603
:100D68000C37BD465DF8047B704780B483B000AF94
:100D780078607B68DB6843F010027B68DA6000BF4C
:100D88000C37BD465DF8047B704780B483B000AF74
:100D980078607B68DB6823F010027B68DA6000BF4C
:100DA8000C37BD465DF8047B704780B483B000AF54
:100DB80078607B68DB6803F01003102B01D10123F6
:100DC80000E0002318460C37BD465DF8047B7047E9
:100DD80080B483B000AF78607B68DB6843F02002A2
:100DE8007B68DA6000BF0C37BD465DF8047B70474E
:100DF80080B483B000AF78607B68DB6823F02002A2
:100E08007B68DA6000BF0C37BD465DF8047B70472D
:100E180080B483B000AF78607B68DB6803F02003A0
:100E2800202B01D1012300E0002318460C37BD46D2
:100E38005DF8047B704780B483B000AF78607B684E
:100E4800DB6843F040027B68DA6000BF0C37BD46C0
:100E58005DF8047B704780B483B000AF78607B682E
:100E6800DB6823F040027B68DA6000BF0C37BD46C0
:100E78005DF8047B704780B483B000AF78607B680E
:100E8800DB6803F04003402B01D1012300E000237D
:100E980018460C37BD465DF8047B704780B483B0B4
:100EA80000AF78607B68DB6843F080027B68DA60BB
:100EB80000BF0C37BD465DF8047B704780B483B033
:100EC80000AF78607B68DB6823F080027B68DA60BB
:100ED80000BF0C37BD465DF8047B704780B483B013
:100EE80000AF78607B68DB6803F08003802B01D15A
:100EF800012300E0002318460C37BD465DF8047B4B
:100F0800704780B582B000AF78600B467B807B88E5
:100F180003F00103002B0CD07B681B681846FFF711
:100F2800AAFF0346012B04D07B681B681846FFF70D
:100F380082FF7B8803F00203002B0CD07B681B68C0
:100F48001846FFF799FE0346012B04D07B681B68FF
:100F58001846FFF771FE7B8803F00403002B0CD0C2
:100F68007B681B681846FFF7BAFE0346012B04D0BE
:100F78007B681B681846FFF792FE7B8803F008031E
:100F8800002B0CD07B681B681846FFF7DBFE034676
:100F9800012B04D07B681B681846FFF7B3FE7B88DB
:100FA80003F01003002B0CD07B681B681846FFF772
:100FB800FCFE0346012B04D07B681B681846FFF72C
:100FC800D4FE7B8803F02003002B0CD07B681B68C1
:100FD8001846FFF71EFE0346012B04D07B681B68EA
:100FE8001846FFF7F6FD7B8803F04003002B0CD072
:100FF8007B681B681846FFF771FF0346012B04D076
:101008007B681B681846FFF749FF7B8803F080035D
:10101800002B0CD07B681B681846FFF7F9FE0346C7
:10102800012B04D07B681B681846FFF7D1FE00BF70
:101038000837BD4680BD80B582B000AF78600B46EA
:101048007B807B8803F00103002B0CD07B681B6836
:101058001846FFF710FF0346012B04D17B681B6875
:101068001846FFF7F8FE7B8803F00203002B0CD02C
:101078007B681B681846FFF7FFFD0346012B04D168
:101088007B681B681846FFF7E7FD7B8803F00403BD
:10109800002B0CD07B681B681846FFF720FE034620
:1010A800012B04D17B681B681846FFF708FE7B8874
:1010B80003F00803002B0CD07B681B681846FFF769
:1010C80041FE0346012B04D17B681B681846FFF7D5
:1010D80029FE7B8803F01003002B0CD07B681B686B
:1010E8001846FFF762FE0346012B04D17B681B6894
:1010F8001846FFF74AFE7B8803F02003002B0CD02C
:101108007B681B681846FFF784FD0346012B04D053
:101118007B681B681846FFF76CFD7B8803F040036B
:10112800002B0CD07B681B681846FFF7D7FE0346D8
:10113800012B04D17B681B681846FFF7BFFE7B882C
:1011480003F08003002B0CD07B681B681846FFF760
:101158005FFE0346012B04D17B681B681846FFF726
:1011680047FE00BF0837BD4680BD000080B582B08D
:1011780000AF78600B46FB70FB78022B06D17B68CA
:101188001B6801211846FFF7F1FC31E07B681B68FA
:10119800194A934213D07B681B68184A93420ED0B1
:1011A8007B681B68164A934209D07B681B68154AFE
:1011B800934204D07B681B68134A934218D1FB788A
:1011C800032B06D17B681B6804211846FFF7CEFC69
:1011D8000EE0FB78042B0BD17B681B6801211846B5
:1011E800FFF7C4FC7B681B6804211846FFF7BEFCA8
:1011F80000BF0837BD4680BD002C014000340140C7
:1012080000400140004401400048014080B582B0E0
:1012180000AF78600B46FB70FB78022B06D17B6829
:101228001B6801211846FFF7B2FC31E07B681B6898
:10123800194A934213D07B681B68184A93420ED010
:101248007B681B68164A934209D07B681B68154A5D
:10125800934204D07B681B68134A934218D1FB78E9
:10126800032B06D17B681B6804211846FFF78FFC07
:101278000EE0FB78042B0BD17B681B680121184614
:10128800FFF785FC7B681B6804211846FFF77FFC85
:1012980000BF0837BD4680BD002C01400034014026
:1012A80000400140004401400048014080B582B040
:1012B80000AF78600B46FB70FB78022B06D17B6889
:1012C8001B6810211846FFF751FC31E07B681B684A
:1012D800194A934213D07B681B68184A93420ED070
:1012E8007B681B68164A934209D07B681B68154ABD
:1012F800934204D07B681B68134A934218D1FB7849
:10130800032B06D17B681B6840211846FFF72EFC8B
:101318000EE0FB78042B0BD17B681B681021184664
:10132800FFF724FC7B681B6840211846FFF71EFC6A
:1013380000BF0837BD4680BD002C01400034014085
:1013480000400140004401400048014080B582B09F
:1013580000AF78600B46FB70FB78022B06D17B68E8
:101368001B6810211846FFF712FC31E07B681B68E8
:10137800194A934213D07B681B68184A93420ED0CF
:101388007B681B68164A934209D07B681B68154A1C
:10139800934204D07B681B68134A934218D1FB78A8
:1013A800032B06D17B681B6840211846FFF7EFFB2B
:1013B8000EE0FB78042B0BD17B681B6810211846C4
:1013C800FFF7E5FB7B681B6840211846FFF7DFFB4A
:1013D80000BF0837BD4680BD002C014000340140E5
:1013E80000400140004401400048014080B582B0FF
:1013F80000AF78600B46FB70FB78022B07D17B6847
:101408001B684FF480711846FFF7B0FB34E07B6827
:101418001B681B4A934213D07B681B68194A934286
:101428000ED07B681B68184A934209D07B681B68FA
:10143800164A934204D07B681B68154A93421BD115
:10144800FB78032B07D17B681B684FF48061184633
:10145800FFF78CFB10E0FB78042B0DD17B681B6831
:101468004FF480711846FFF781FB7B681B684FF4C7
:1014780080611846FFF77AFB00BF0837BD4680BD7C
:10148800002C01400034014000400140004401406C
:101498000048014080B582B000AF78600B46FB7011
:1014A800FB78022B07D17B681B684FF480711846C4
:1014B800FFF76DFB34E07B681B681B4A934213D02F
:1014C8007B681B68194A93420ED07B681B68184AD0
:1014D800934209D07B681B68164A934204D07B6804
:1014E8001B68154A93421BD1FB78032B07D17B68F5
:1014F8001B684FF480611846FFF749FB10E0FB7842
:10150800042B0DD17B681B684FF480711846FFF7D8
:101518003EFB7B681B684FF480611846FFF737FB7A
:1015280000BF0837BD4680BD002C01400034014093
:1015380000400140004401400048014080B582B0AD
:1015480000AF78600B46FB70FB78022B06D17B68F6
:101558001B684FF480511846FFF708FB00BF083797
:10156800BD4680BD80B582B000AF78600B46FB7089
:10157800FB78022B06D17B681B684FF48051184614
:10158800FFF705FB00BF0837BD4680BD80B584B0B6
:1015980000AF78600023FB607B681B68304A934289
:1015A80001D1304BFB607B681A68FB681A60FB68E6
:1015B8001B681846FFF7B6FAB860BB68002B06D060
:1015C800BB68102B03D0FB6801221A7102E0FB688C
:1015D80000221A71FB681B68234A934213D0FB68E8
:1015E8001B68224A93420ED0FB681B68204A93422C
:1015F80009D0FB681B681F4A934204D0FB681B682C
:101608001D4A934204D1FB681B681846FFF7D1FABC
:10161800FB681B68144A934213D0FB681B68134A83
:1016280093420ED0FB681B68114A934209D0FB68AD
:101638001B68104A934204D0FB681B680E4A934209
:1016480008D17B681B681846FFF784FA0346DAB2AC
:10165800FB685A71FB6818461037BD4680BD00BF4D
:1016680000040040BC020020002C0140003401406E
:1016780000400140004401400048014080B485B06A
:1016880000AF786039603B68002B03D17B6840333A
:10169800FB6001E0044BFB60FB6818461437BD464D
:1016A8005DF8047B704700BF0C03045080B483B01E
:1016B80000AF78607B68DB6803F44063002B01D1DE
:1016C800012300E0002318460C37BD465DF8047B73
:1016D800704780B483B000AF786039607B681B6B5B
:1016E80023F00F023B681A437B681A6300BF0C376C
:1016F800BD465DF8047B704780B483B000AF786066
:1017080039607B68DB6823F003023B681A437B6817
:10171800DA6000BF0C37BD465DF8047B704780B4C3
:1017280083B000AF78607B68DB6C03F0C003002BEC
:1017380001D1012300E0002318460C37BD465DF8AF
:10174800047B704780B483B000AF78607B689B6887
:1017580023F0004323F03F0343F001027B689A60C3
:1017680000BF0C37BD465DF8047B704780B483B07A
:1017780000AF78607B689B6823F0004323F03F0349
:1017880043F002027B689A6000BF0C37BD465DF8E3
:10179800047B704780B483B000AF78607B689B6837
:1017A80003F00103012B01D1012300E000231846B7
:1017B8000C37BD465DF8047B704780B483B000AF3A
:1017C800786039607B689B6823F0404323F03F03CF
:1017D8003A6802F08042134343F000427B689A6003
:1017E80000BF0C37BD465DF8047B704780B483B0FA
:1017F80000AF78607B689B6803F00043B3F1004F4B
:1018080001D1012300E0002318460C37BD465DF8DE
:10181800047B704780B483B000AF78607B689B68B6
:1018280023F0004323F03F0343F004027B689A60EF
:1018380000BF0C37BD465DF8047B704780B483B0A9
:1018480000AF78607B689B6823F0004323F03F0378
:1018580043F008027B689A6000BF0C37BD465DF80C
:10186800047B704780B483B000AF78607B681B68E6
:1018780003F00803082B01D1012300E000231846D8
:101888000C37BD465DF8047B704780B483B000AF69
:1018980078607B681B6803F01003102B01D10123CB
:1018A80000E0002318460C37BD465DF8047B7047FE
:1018B80080B483B000AF78607B6810221A6000BFE4
:1018C8000C37BD465DF8047B704780B483B000AF29
:1018D80078607B685B6843F008027B685A6000BFE9
:1018E8000C37BD465DF8047B704780B483B000AF09
:1018F80078607B685B6843F040027B685A6000BF91
:101908000C37BD465DF8047B704780B483B000AFE8
:1019180078607B685B6823F008027B685A6000BFC8
:101928000C37BD465DF8047B704780B483B000AFC8
:1019380078607B685B6823F010027B685A6000BFA0
:101948000C37BD465DF8047B704780B483B000AFA8
:1019580078607B685B6823F040027B685A6000BF50
:101968000C37BD465DF8047B704780B483B000AF88
:1019780078607B685B6823F080027B685A6000BFF0
:101988000C37BD465DF8047B704780B483B000AF68
:1019980078607B685B6803F01003102B01D101238A
:1019A80000E0002318460C37BD465DF8047B7047FD
:1019B80080B483B000AF78607B685B6803F0800315
:1019C800802B01D1012300E0002318460C37BD46C7
:1019D8005DF8047B7047000080B485B000AF786084
:1019E80039607B68FB600C4A3B6813441B781A46D5
:1019F800FB6813441B6808493A680A441278114680
:101A0800FA680A4443F00103136000BF1437BD4667
:101A18005DF8047B704700BF701C010880B485B076
:101A280000AF786039607B68FB600C4A3B68134400
:101A38001B781A46FB6813441B6808493A680A442D
:101A480012781146FA680A4423F00103136000BFB4
:101A58001437BD465DF8047B704700BF701C010851
:101A680080B485B000AF786039607B68FB60084A55
:101A78003B6813441B781A46FB6813441B6803F041
:101A8800200318461437BD465DF8047B704700BF35
:101A9800701C010880B487B000AFF860B9607A6044
:101AA800FB687B610D4ABB6813441B781A467B6947
:101AB80013445B681B0C1B040849BA680A44127873
:101AC80011467A690A4411467A6813434B6000BF8D
:101AD8001C37BD465DF8047B704700BF701C0108C9
:101AE80080B487B000AFF860B9607A603B60FB688B
:101AF8007B613B6A102B14D1174ABB6813441B78CF
:101B08001A467B6913441A467B68D360124ABB683D
:101B180013441B781A467B6913441A463B68936042
:101B280013E00D4ABB6813441B781A467B691344BB
:101B38001A467B689360084ABB6813441B781A46A8
:101B48007B6913441A463B68D36000BF1C37BD4607
:101B58005DF8047B704700BF701C010880B487B033
:101B680000AFF860B9607A60FB687B61074ABB68C0
:101B780013441B781A467B6913441A467B689360A2
:101B880000BF1C37BD465DF8047B7047701C010818
:101B980080B483B000AF78607B681B6803F02003D3
:101BA800202B01D1012300E0002318460C37BD4645
:101BB8005DF8047B704780B483B000AF78607B68C1
:101BC80020225A6000BF0C37BD465DF8047B704781
:101BD80080B485B000AF786039607B68FB600C4AE0
:101BE8003B6813441B781A46FB6813441B68084972
:101BF8003A680A4412781146FA680A4443F0020324
:101C0800136000BF1437BD465DF8047B704700BF02
:101C1800701C010880B485B000AF786039607B68BB
:101C2800FB600C4A3B6813441B781A46FB68134454
:101C38001B6808493A680A4412781146FA680A4447
:101C480043F00803136000BF1437BD465DF8047BFA
:101C5800704700BF701C010880B485B000AF786081
:101C680039607B68FB600C4A3B6813441B781A4652
:101C7800FB6813441B6808493A680A4412781146FD
:101C8800FA680A4423F00203136000BF1437BD4604
:101C98005DF8047B704700BF701C010880B485B0F4
:101CA80000AF786039607B68FB600C4A3B6813447E
:101CB8001B781A46FB6813441B6808493A680A44AB
:101CC80012781146FA680A4423F00403136000BF2F
:101CD8001437BD465DF8047B704700BF701C0108CF
:101CE80080B485B000AF786039607B68FB600C4ACF
:101CF8003B6813441B781A46FB6813441B68084961
:101D08003A680A4412781146FA680A4423F008032C
:101D1800136000BF1437BD465DF8047B704700BFF1
:101D2800701C010880B485B000AF786039607B68AA
:101D3800FB600A4A3B6813441B781A46FB68134445
:101D48001B6803F00203022B01D1012300E00023EA
:101D580018461437BD465DF8047B7047701C0108AF
:101D680080B584B000AF78600123FB817B681B6974
:101D78001846FFF79BFC0346002B2FD07B685B7A45
:101D8800DBB2022B11D07B685B7ADBB2042B0CD060
:101D98007B685B7ADBB2082B07D07B681B69184627
:101DA800FFF760FD0346012B18D1786800F0F8F8BA
:101DB8000346002B12D17B685B7ADBB2082B03D178
:101DC8007B6801225A7202E07B6820225A727B6883
:101DD8001B691846FFF71EFD0023FB81FB89184687
:101DE8001037BD4680BD80B586B002AFF860B960D7
:101DF8007A603B600021F868FFF740FC03461A460A
:101E08007968B868FFF7AAFE0021F868FFF736FC82
:101E180002463B68002100917968B868FFF760FEC8
:101E2800BA697968B868FFF735FE7968B868FFF766
:101E3800CFFE7968B868FFF7EDFE7968B868FFF7F4
:101E4800CBFD00BF1037BD4680BD80B584B000AF64
:101E5800F860B9607A607968B868FFF7DFFD79687B
:101E6800B868FFF71BFF7968B868FFF739FF79682A
:101E7800B868FFF7F1FE00227968B868FFF70AFE34
:101E880000BF1037BD4680BD80B584B000AF786014
:101E980039600223FB737B68DB79012B0FD17B68E8
:101EA800DA687B681B685B00D118FB7B7A6812686C
:101EB80002FB03F31A4638680FF086FE0AE07B68D7
:101EC800D968FB7B7A68126802FB03F31A46386804
:101ED8000FF07AFE00BF1037BD4680BD80B586B0D2
:101EE80000AFF860B9607A60FB685A69FB689B7953
:101EF80019461046FFF716FF0346DBB2012B37D110
:101F0800FB685A69BB68104698470346012B2FD1D6
:101F1800FB6804225A72FB685A697B681046984726
:101F2800FB685A69FB689B7919461046FFF798FDCC
:101F38000346002B19D1FB685A69FB689B7919463F
:101F48001046FFF76BFDFB685869FB689B791946DB
:101F5800FB681B681A46FFF79DFDFB685A69FB681A
:101F68009B7919461046FFF737FD0123FB7501E001
:101F78000023FB75FB7D18461837BD4680BD000061
:101F880080B500AF034A04490448FFF7A7FF00BF24
:101F980080BD00BFBF1B0008991B00084803002034
:101FA80080B582B000AF78607B681B691846FFF780
:101FB8006CFC0346DBB2012B07D17B681B69184612
:101FC800FFF776FC7B6810225A727B685B7ADBB27B
:101FD800102B0CBF01230023DBB218460837BD467F
:101FE80080BD80B582B000AF78600B46FB70FB788F
:101FF800012B0DD17B681B691846FFF757FB034679
:10200800012B12D07B681B691846FFF703FC0CE014
:102018007B681B691846FFF782FB0346012B04D037
:102028007B681B691846FFF709FC00BF0837BD46E7
:1020380080BD000090B589B002AFF860084611462F
:102048001A4603467B810B463B811346FB800023DF
:102058007B61FB681B693C4A934201D13B4B7B6126
:102068007B69002B6BD0FB681A697B691A617B69F5
:102078000022DA71FB88012B61D03B89002B47D005
:102088007B695B7ADBB2082B42D0FB68DA687B6934
:10209800DA60FB681A687B691A60FB685A697B69B1
:1020A8005A61FB689A797B699A71FB681A797B692E
:1020B8001A717B691B69B96A1846FFF70AFB7B89A5
:1020C800012B21D07B89042B16D17B691B69032145
:1020D8001846FFF711FB7B6918697B6959697B69A9
:1020E8009B791C467B69DA687B691B6800931346F9
:1020F8002246FFF778FE07E07B89022B04D17B6933
:102108001B691846FFF7E1FB7B6908225A7216E043
:102118003B89002B13D17B699B7ADBB2082B0ED04D
:10212800FB685A797B695A717B89022B04D17B69D8
:102138001B691846FFF7D9FB7B6908229A727B69ED
:1021480018461C37BD4690BD0001045048030020C6
:1021580080B582B000AF78607B681B691846FFF7CE
:1021680019FB0346002B04D17B681B691846FFF74F
:10217800E9FA00BF0837BD4680BD80B586B000AF1C
:10218800F8600B467A607B810123FB82FB681B6940
:10219800002B46D07B89012B05D1F868FFF7E0FDBD
:1021A8000346FB823DE07B89042B1FD1FB681B693A
:1021B8001846FFF77BFA0346002B32D0FB68012252
:1021C8005A72FB681B691846FFF724FB00BFFB68BF
:1021D8005B7ADBB2042BFAD17968F868FFF754FE12
:1021E800FB6808225A720023FB821AE07B89022BC3
:1021F80017D1FB685B7ADBB2202B09D0FB685B7ACE
:10220800DBB2042B04D0FB685B7ADBB2102B08D15D
:10221800FB6808225A727968F868FFF735FE0023D0
:10222800FB82FB8A18461837BD4680BD80B582B050
:1022380000AF78600B467B8013463B807B681B6948
:102248001846FFF7A7FA0346002B04D07B681B69E2
:102258001846FFF78BFA7B681B691846FFF7A8FB3F
:102268000346002B04D07B681B691846FFF77DFBEB
:102278007B681B691846FFF788FB0346002B04D0D0
:102288007B681B691846FFF750FB3B88002B35D04D
:102298007B88012B1AD07B88022B05D17B681B69B0
:1022A8001846FFF732FB11E07B88042B0ED17B68C0
:1022B80018697B6859697B689B791A46FFF7C5FDE1
:1022C8007B681B6900211846FFF716FA7B68002215
:1022D800DA607B6800221A607B6800225A617B689A
:1022E80000229A717B6800221A717B681A697B68E0
:1022F8001B7919461046FFF7ECF90AE07B680022C3
:102308005A717B88022B04D17B681B691846FFF73A
:102318001CFB00BF0837BD4680BD000080B584B0F7
:1023280000AF78600B46FB707B681B691846FFF7A7
:1023380031FA0346FB7397F90F30012B04D17B6800
:102348001B691846FFF712FAFB78002B0FD17B6840
:102358001B697F211846FFF730FA00BF7B681B69AD
:102368001846FFF743FA0346012BF7D040E0FB7805
:10237800012B0FD17B681B692C491846FFF71DFA02
:1023880000BF7B681B691846FFF730FA0346012B2C
:10239800F7D02DE07B681B697F211846FFF70DFAFF
:1023A80000BF7B681B691846FFF720FA0346012B1C
:1023B800F7D00023BB8107E000BFBB891BB29BB2EB
:1023C80001339BB21BB2BB81BB891BB29BB2032BEF
:1023D800F2D97B681B6915491846FFF7EEF900BF6B
:1023E8007B681B691846FFF701FA0346012BF7D0F3
:1023F8000023BB8107E000BFBB891BB29BB201333E
:102408009BB21BB2BB81BB891BB29BB2032BF2D917
:1024180097F90F30012B04D17B681B691846FFF729
:1024280091F900BF1037BD4680BD00BF00007F4056
:1024380080B483B000AF78607B681B6843F001020A
:102448007B681A6000BF0C37BD465DF8047B704797
:1024580080B483B000AF78607B681B6823F001020A
:102468007B681A6000BF0C37BD465DF8047B704777
:1024780080B483B000AF786039607B681B6823F054
:1024880004023B681A437B681A6000BF0C37BD46DC
:102498005DF8047B704780B483B000AF78607B68D8
:1024A8001B6803F0040318460C37BD465DF8047B2F
:1024B800704780B483B000AF78607B68DB6A1846E9
:1024C8000C37BD465DF8047B704780B483B000AF1D
:1024D800786039607B683A681A6300BF0C37BD467C
:1024E8005DF8047B704780B483B000AF78603960D2
:1024F8007B683A685A6300BF0C37BD465DF8047BB9
:10250800704780B483B000AF786039607B683A6800
:102518009A6300BF0C37BD465DF8047B704780B4F2
:1025280083B000AF786039607B683A68DA6300BFCF
:102538000C37BD465DF8047B704780B483B000AFAC
:10254800786039607B683A681A6400BF0C37BD460A
:102558005DF8047B704780B483B000AF78607B6817
:102568005B6B18460C37BD465DF8047B704780B43A
:1025780083B000AF78607B689B6B18460C37BD460C
:102588005DF8047B704780B483B000AF78607B68E7
:10259800DB6B18460C37BD465DF8047B704780B48A
:1025A80083B000AF78607B681B6C18460C37BD465B
:1025B8005DF8047B704780B483B000AF78607B68B7
:1025C8005B6943F001027B685A6100BF0C37BD4666
:1025D8005DF8047B704780B483B000AF78607B6897
:1025E8001B6918460C37BD465DF8047B704780B4FC
:1025F80083B000AF786039607B683A689A6100BF41
:102608000C37BD465DF8047B704780B483B000AFDB
:10261800786039607B683A689A6200BF0C37BD46BB
:102628005DF8047B7047000080B584B000AF786027
:1026380087ED000AD7ED007AF5EEC07AF1EE10FAD0
:1026480003D54FF000033B600AE0D7ED007A9FED19
:10265800167AF4EEC77AF1EE10FA01DD134B3B60FF
:102668007B681B681846FFF724FFF8607B681B79B6
:10267800002B0CBF01230023DBB21A46FB6813446E
:1026880007EE903AB8EE677AD7ED007A27EE277A08
:10269800DFED056AC7EE267AFCEEE77A17EE903A88
:1026A80018461037BD4680BD0000C8420000C84229
:1026B80080B582B000AF786039607B681B681846C7
:1026C800FFF749FF02463B68934205D07B681B68C9
:1026D80039681846FFF707FF00BF0837BD4680BDB9
:1026E80080B582B000AF786039607B681B68184697
:1026F800FFF73DFF02463B68934205D07B681B68A5
:1027080039681846FFF7FDFE00BF0837BD4680BD93
:1027180080B582B000AF786039607B681B68184666
:10272800FFF731FF02463B68934205D07B681B6880
:1027380039681846FFF7F3FE00BF0837BD4680BD6D
:1027480080B582B000AF786039607B681B68184636
:10275800FFF725FF02463B68934205D07B681B685C
:1027680039681846FFF7E9FE00BF0837BD4680BD47
:1027780080B584B000AF786087ED000A97ED000A55
:102788007868FFF751FFF860F9687868FFF790FFFD
:1027980000BF1037BD4680BD80B584B000AF7860FB
:1027A80087ED000A97ED000A7868FFF73DFFF860AB
:1027B800F9687868FFF794FF00BF1037BD4680BD01
:1027C80080B584B000AF786087ED000A97ED000A05
:1027D8007868FFF729FFF860F9687868FFF798FFCD
:1027E80000BF1037BD4680BD80B584B000AF7860AB
:1027F80087ED000A97ED000A7868FFF715FFF86083
:10280800F9687868FFF79CFF00BF1037BD4680BDA8
:1028180080B485B000AF78607B681B689A68074B06
:102828001340FB60FB68062B0CBF01230023DBB2BF
:1028380018461437BD465DF8047B70470700010051
:1028480080B584B000AF78600B46FB707B681B686E
:102858001846FFF720FEF860FB78002B1ED07B6837
:102868001B68324A934213D07B681B68304A9342F4
:102878000ED07B681B682F4A934209D07B681B687F
:102888002D4A934204D07B681B682C4A934205D199
:102898007B681B6800211846FFF717FEFB68042BAE
:1028A80011D07B681B6804211846FFF7E1FD7B689F
:1028B8001B681846FFF77FFE7B681B68F968184697
:1028C800FFF7D6FD04E07B681B681846FFF773FE28
:1028D8007B681B681846FFF7ABFDFB78002B20D000
:1028E8007B681B68114A934213D07B681B68104AA7
:1028F80093420ED07B681B680E4A934209D07B68CE
:102908001B680D4A934204D07B681B680B4A9342AC
:1029180007D17B681A687B685B7919461046FFF710
:10292800D4FD00BF1037BD4680BD00BF002C01405C
:10293800003401400040014000440140004801408B
:1029480080B582B000AF78607B681B681846FFF7D7
:102958007FFD00BF0837BD4680BD0000B0B5A6B0FA
:1029680000AF87ED080B87ED061B78613961FA60C7
:10297800BB6087ED002B3B69DB007A6913447B66FB
:10298800D7F8A830002B0ED1BB68002B0BD1D7E9A4
:102998000623D7E90801FEF73FF80346002B02D0CB
:1029A800D7E900234DE2D7E90623D7E90801FEF766
:1029B8001FF80346002B02D0D7E9002341E2BB6889
:1029C800DB007A6E1344D3E90023D7E90801FEF748
:1029D8000FF80346002B00F0938097F8AC30002BDB
:1029E80006D0BB68DB007A691344D3E9002328E2E8
:1029F800BB6801337B673B69013BBA689A4201D1E6
:102A080000237B67BB68DB007A6E1344D3E900239D
:102A1800C7E920237B6FDB007A6E1344D3E90023D8
:102A2800C7E91623BB68DB007A691344D3E900239E
:102A3800C7E91E237B6FDB007A691344D3E90023BF
:102A4800C7E91423D7E92023D7E91601FDF7BCFF0E
:102A58000346002B12D0D7E91623D7E90801FDF762
:102A6800D1FF0346002B04D0D7E91423C7E922235A
:102A780043E0D7E91E23C7E922233EE0D7E908232C
:102A8800D7E91601FDF780FB02460B4614461D46A2
:102A9800D7E92023D7E91601FDF776FB02460B4656
:102AA80020462946FDF752FE02460B46C7E90C238D
:102AB800D7E90C234FF000009C49FDF765FB02465F
:102AC8000B46C7E90A23D7E91E23D7E90C01FDF70E
:102AD80013FD02460B4614461D46D7E91423D7E9D1
:102AE8000A01FDF709FD02460B4620462946FDF777
:102AF8004DFB02460B46C7E92223D7E92223A0E172
:102B080097F8B030002B22D0D7F8A830002B10D07F
:102B1800FB681B68D7F8A8209A4204D1FB681B6899
:102B28005A1EFB681A60D7F8A830013BC7F8A830CE
:102B38000DE0FB681B68D7F8A8209A4203D13B69CF
:102B48005A1EFB681A603B69013BC7F8A830FB684E
:102B58001B68C7F89430D7F89430DB007A6E1344BA
:102B6800D3E90023D7E90801FDF756FF0346002BF8
:102B780022D012E0D7F89420D7F8A8309A4244D04F
:102B88003B69013BD7F894209A4203DAD7F894308E
:102B9800013300E00023C7F89430D7F89430DB0005
:102BA8007A6E1344D3E90023D7E90801FDF734FF0F
:102BB8000346002BDED129E00BE0D7F89430002B38
:102BC80003DDD7F89430013B01E03B69013BC7F8CE
:102BD8009430D7F89430DB007A6E1344D3E900239D
:102BE800D7E90801FDF704FF0346002BE5D13B694F
:102BF800013BD7F894209A4203DAD7F8943001338E
:102C080000E00023C7F8943000E000BFFB68D7F865
:102C180094201A6097F8AC30002B6CD04FF000026B
:102C2800434BC7E90E23D7F89430DB007A6E134480
:102C3800D3E90023144623F0004522462B46D7E962
:102C48000E01FDF759FC02460B46C7E91A23D7E9DE
:102C58001A23D7E90E01FDF7DFFE0346002B03D048
:102C6800D7E90E23C7E91A234FF000024FF080433B
:102C7800D7E91A01FDF76AFD02460B46C7E91A2390
:102C8800D7F89430DB007A6E1344D3E90001D7E912
:102C98001A23FDF779FA02460B46D7E90801FDF732
:102CA800B1FE0346002B09D0D7F89430DB007A69CF
:102CB8001344D3E90023C7E92223C0E0D7F89430AE
:102CC800002B0BD13B6903F10053013BDB007A6910
:102CD8001344D3E90023C7E92223B0E0D7F894309E
:102CE80003F10053013BDB007A691344D3E9002365
:102CF800C7E92223A3E0D7F89430002B1AD13B6907
:102D080003F10053013BDB007A6E1344D3E900233F
:102D1800C7E920233B6903F10053013BDB007A69D3
:102D28001344D3E90023C7E91E231BE00000F03F4A
:102D38000000203DD7F8943003F10053013BDB003D
:102D48007A6E1344D3E90023C7E92023D7F89430D7
:102D580003F10053013BDB007A691344D3E90023F4
:102D6800C7E91E23D7F89430DB007A6E1344D3E901
:102D78000023C7E91623D7F89430DB007A69134497
:102D8800D3E90023C7E91423D7E92023D7E916019B
:102D9800FDF71AFE0346002B12D0D7E91623D7E910
:102DA8000801FDF72FFE0346002B04D0D7E91423B2
:102DB800C7E9222343E0D7E91E23C7E922233EE0DF
:102DC800D7E90823D7E91601FDF7DEF902460B46D5
:102DD80014461D46D7E92023D7E91601FDF7D4F993
:102DE80002460B4620462946FDF7B0FC02460B4634
:102DF800C7E91223D7E912234FF000001549FDF760
:102E0800C3F902460B46C7E91023D7E91E23D7E9C1
:102E18001201FDF771FB02460B4614461D46D7E921
:102E28001423D7E91001FDF767FB02460B4620463D
:102E38002946FDF7ABF902460B46C7E92223D7E935
:102E4800222343EC172BB0EE470AF0EE670A9837B7
:102E5800BD46B0BD0000F03F80B483B000AF7860DD
:102E6800084B93F82631002B0CBF01230023DAB25C
:102E78007B6802331A7000BF0C37BD465DF8047BCF
:102E8800704700BF705F002080B400AF0A4B93F812
:102E980026210132D2B283F82621074B93F8263136
:102EA800032B03D9044B002283F8262100BFBD461B
:102EB8005DF8047B704700BF705F002080B485B068
:102EC80000AF786039607B68012283F8D8203B68BE
:102ED800D3E900237968C1E902237B6801221A60DB
:102EE8000023FB600CE07B68D3E902237868F9686B
:102EF8000231C9000144C1E90023FB680133FB60CA
:102F0800FB68182BEFDD00BF00BF1437BD465DF826
:102F1800047B704780B586B000AF87ED040BF8607E
:102F2800B9607A60BB68D3E902017B68D3E9002302
:102F3800FDF74AFD0346002B05D17B68D3E9002342
:102F4800B968C1E90223F868BB681033C82219467A
:102F58000EF03AFEF968D7E90423C1E93223FB6889
:102F680003F1D000BB681033C02219460EF02CFEC6
:102F7800BB6803F11000FB68C833C82219460EF07D
:102F880023FE00BF1837BD4680BD80B485B000AFB2
:102F9800786039607B68012283F860203B68D3E958
:102FA80000237968C1E902237B6801221A600023A3
:102FB800FB600CE07B68D3E902237868F96802318A
:102FC800C9000144C1E90023FB680133FB60FB68C9
:102FD800092BEFDD00BF00BF1437BD465DF8047B49
:102FE800704780B586B000AF87ED040BF860B96014
:102FF8007A60BB68D3E902017B68D3E90023FDF757
:10300800E3FC0346002B05D17B68D3E90023B968AC
:10301800C1E90223F868BB681033502219460EF044
:10302800D3FDF968D7E90423C1E91423FB6803F148
:103038005800BB681033482219460EF0C5FDBB681E
:1030480003F11000FB685033502219460EF0BCFD06
:1030580000BF1837BD4680BD80B584B000AF87ED8E
:10306800000B38687B6823F000414FF000022C4BBE
:10307800FDF7B4FC0346002B42D04FF00002294B69
:10308800D7E90001FDF7BEFC0346002B13D04FF033
:103098000002244BD7E90001FDF778F802460B46F9
:1030A80043EC172BB0EE470AF0EE670A0EF090FBE0
:1030B80087ED020B28E04FF000021B4BD7E9000117
:1030C800FDF7AAFC0346002B06D04FF000024FF094
:1030D8000003C7E9022317E04FF00002114BD7E9BC
:1030E8000001FDF751F802460B4643EC172BB0EEF2
:1030F800470AF0EE670A0EF0E3FA87ED020B03E0E9
:10310800D7E90023C7E90223D7E9022343EC172BA9
:10311800B0EE470AF0EE670A1037BD4680BD00BF23
:10312800000030430000E03F0000E0BF80B487B0FB
:1031380000AF78607B681B78002B00F08980B94B62
:1031480003F58043B3F88030C3F3C213DBB2013B0D
:10315800052B69D801A252F823F000BF7D31000881
:1031680093310008B9310008D7310008F53100085B
:1031780013320008AB4B03F580431A46B2F880308F
:103188006FF3C913A2F880304EE0A74B002283F8F2
:103198005720A54B002283F85820A24B03F5804303
:1031A8001A46B2F880306FF3C913A2F880303BE0BA
:1031B8009D4B002283F857209A4B03F580431A460B
:1031C800B2F880306FF3C913A2F880302CE0964B28
:1031D800002283F85820934B03F580431A46B2F82F
:1031E80080306FF3C913A2F880301DE08E4B0022A7
:1031F80083F857208B4B03F580431A46B2F880308A
:103208006FF3C913A2F880300EE0874B002283F8D1
:103218005820844B03F580431A46B2F880306FF388
:10322800C913A2F8803000BF7F4B322283F85520A3
:103238007D4B322283F854207A4B03F580431A469B
:1032480092F88030042161F3061382F8803021E37C
:103258000023FB720023BB72724B03F58043B3F863
:103268008030C3F3C213DBB2013B042B00F282822D
:1032780001A252F823F000BF95320008E733000896
:10328800E9340008CD350008B1360008654B03F570
:103298008043B3F88430C833FB60624B03F5804346
:1032A800B3F88430C833B3F5803F02D34FF6FF73C9
:1032B800FB605D4B5B891A46FB689A4213DD5A4BEB
:1032C8005A2283F85520584B5A2283F85420554BDC
:1032D80003F580431A46B2F88030062161F3C9131A
:1032E800A2F88030A8E24F4B03F58043B3F8A03032
:1032F800C833FB604B4B03F58043B3F8A030C833A9
:10330800B3F5803F02D34FF6FF73FB60454B03F5DF
:103318008043B3F8A230C8333B61424B03F5804386
:10332800B3F8A230C833B3F5803F02D34FF6FF732A
:103338003B613D4B1B881A46FB689A4205DB3A4BBA
:10334800DB891A463B699A4213DA374B5A2283F8CB
:103358005520354B5A2283F85420324B03F58043CD
:103368001A46B2F88030022161F3C913A2F88030FE
:1033780062E22C4B03F58043B3F88630C833FB6018
:10338800284B03F58043B3F88630C833B3F5803F44
:1033980002D34FF6FF73FB60234B9B881A46FB68EA
:1033A8009A4213DD204B5A2283F855201E4B5A228D
:1033B80083F854201B4B03F580431A46B2F880303B
:1033C800052161F3C913A2F8803035E2164B5A2261
:1033D80083F85520144B5A2283F854202CE2124BC0
:1033E8001A89104B03F58043B3F88C309A421DD2EA
:1033F8000D4B002283F857200B4B002283F85820EE
:10340800084B03F58043002283F8C520054B03F5DC
:1034180080431A46B2F88030032161F3C913A2F839
:10342800803009E218150020D8030020AF4B5A88D5
:10343800AF4B03F58043B3F88A309A4208D3AB4BBD
:103448009A89AB4B03F58043B3F888309A4213D27C
:10345800A64B002283F85720A44B002283F858205B
:10346800A34B03F580431A46B2F88030012161F37B
:10347800C913A2F88030DFE19C4BDA889C4B03F536
:103488008043B3F88E309A4219D2984B002283F8C1
:103498005720964B002283F85820954B03F580431C
:1034A800002283F8C520924B03F580431A46B2F8F0
:1034B8008030042161F3C913A2F88030BCE18B4B42
:1034C800012283F85720894B012283F85820874B23
:1034D800282283F85520854B282283F85420ABE115
:1034E800834B03F5804393F8C530052B66D97F4B92
:1034F8005A887F4B03F58043B3F88A309A4208D341
:103508007A4B9A897A4B03F58043B3F888309A420C
:103518000FD2764B002283F85720754B03F5804372
:103528001A46B2F88030012161F3C913A2F880303D
:1035380047E06F4B03F58043B3F88A30C833FB602C
:103548006B4B03F58043B3F88A30C833B3F5803F3B
:1035580002D34FF6FF73FB60654B03F58043B3F866
:103568008830C8333B61624B03F58043B3F8883039
:10357800C833B3F5803F02D34FF6FF733B615B4B13
:103588005B881A46FB689A4215DD584B9B891A4698
:103598003B699A420FDA554B002283F85720544B67
:1035A80003F580431A46B2F88030022161F3C9134B
:1035B800A2F8803005E00123FB723DE10123FB7294
:1035C8003AE139E14A4B03F5804393F8C530052BBE
:1035D80066D9464B5A88464B03F58043B3F88A3080
:1035E8009A4208D3414B9A89414B03F58043B3F87B
:1035F80088309A420FD23D4B002283F858203C4B2A
:1036080003F580431A46B2F88030012161F3C913EB
:10361800A2F8803047E0364B03F58043B3F88A3090
:10362800C833FB60324B03F58043B3F88A30C833A4
:10363800B3F5803F02D34FF6FF73FB602C4B03F5C5
:103648008043B3F88830C8333B61294B03F5804386
:10365800B3F88830C833B3F5803F02D34FF6FF7311
:103668003B61224B5B881A46FB689A4215DD1F4B6B
:103678009B891A463B699A420FDA1C4B002283F851
:1036880058201B4B03F580431A46B2F880300221BC
:1036980061F3C913A2F8803005E00123BB72CBE0C7
:1036A8000123BB72C8E0C7E0104B9A88104B03F5A2
:1036B8008043B3F886309A421CD20C4B5A890C4B83
:1036C80003F58043B3F884309A4213D2074B0022A3
:1036D80083F85720064B03F580431A46B2F880302A
:1036E800012161F3C913A2F88030A5E0D8030020B6
:1036F800181500206A4B5A896A4B03F58043B3F8C2
:1037080084309A420FD9664B002283F85720654BC4
:1037180003F580431A46B2F88030062161F3C913D5
:10372800A2F8803088E05E4B012283F857205C4B7A
:1037380093F9553002337B61594B93F955307D2B02
:1037480001DD7F237B617B695AB2554B83F8552095
:10375800534B93F9543003337B61514B93F95430F5
:103768007C2B01DD7F237B617B695AB24C4B83F84C
:10377800542061E04A4B5A894A4B03F58043B3F819
:1037880084309A4218D2464B9A88464B03F58043B8
:10379800B3F886309A420FD2414B002283F8582062
:1037A800404B03F580431A46B2F88030012161F39B
:1037B800C913A2F880303EE0394B9A88394B03F59B
:1037C8008043B3F886309A420FD9354B002283F8EC
:1037D8005820344B03F580431A46B2F8803005214F
:1037E80061F3C913A2F8803025E02D4B012283F83C
:1037F80058202B4B93F9553003337B61284B93F9B1
:1038080055307C2B01DD7F237B617B695AB2244BC9
:1038180083F85520224B93F9543002337B61204BB7
:1038280093F954307D2B01DD7F237B617B695AB28C
:103838001B4B83F8542000BFBB7A002B13D0184BC6
:10384800AB2283F85520164B552283F85420144B8D
:1038580093F85830002B0CBF01230023DBB21A4623
:103868000F4B83F85820FB7A002B13D00C4B5522B2
:1038780083F855200A4BAB2283F85420084B93F861
:103888005730002B0CBF01230023DBB21A46044B30
:1038980083F8572000BF1C37BD465DF8047B70478E
:1038A800D80300201815002080B58CB002AF7860CE
:1038B8007B6800221A727B6801225A607B68103389
:1038C800BB6100237B741A4BFB611A4B3B620123DB
:1038D800BB74002387F82430022387F82530092396
:1038E800FB6009233B7407F10C00082300930423B1
:1038F80001220421FEF79EFB02467B68DA607B68A2
:10390800DB6802211846FEF709FD7B68DB6818466C
:10391800FEF71EFC7B68DB6801211846FEF761FB99
:103928007B6801221A7200BF2837BD4680BD00BFE0
:10393800000104500000024080B5A6B000AF7860D6
:103948001A4BBB6000233B7300237B7307F108030A
:103958001846FDF71BFE02467B68DA607B68DB6869
:1039680000211846FDF7CDFA7B68DB68022118466E
:10397800FDF7FCFB7B68DB6802211846FDF796FC27
:103988007B68DB681846FEF743FF034687F89730E5
:1039980097F89730002B05D17B68DB680021184623
:1039A800FEF74EFF00BF9837BD4680BD00040040BB
:1039B80080B5A6B000AF78601A4BBB6000233B739C
:1039C80000237B7307F108031846FDF7DFFD024665
:1039D8007B68DA607B68DB6800211846FDF791FA9E
:1039E8007B68DB6802211846FDF700FD7B68DB6811
:1039F80002211846FDF7A2FD7B68DB681846FEF732
:103A080007FF034687F8973097F89730002B05D1C2
:103A18007B68DB6800211846FEF712FF00BF983765
:103A2800BD4680BD0004004090B591B004AFFFF7DB
:103A38002BFA0023FB620CE09F4AFB6A1344002226
:103A48001A709E4AFB6A002122F81310FB6A0133A0
:103A5800FB62FB6A072BEFDD994B00221A60994B3A
:103A680000221A60984BBB62984BD3F82831D3E9EF
:103A78000023C7E90823964BD3E900014FF0000261
:103A8800944BFCF739FD02460B46D7E90801FCF7D1
:103A98007BFB02460B46C7E90623BB6A18688E4BB8
:103AA80003F58043996C8C4B03F58043DA6B8A4BA2
:103AB80003F580431B6C864C94ED047B0024029430
:103AC800012401940093B0EE472AF0EE672A1346CA
:103AD800824A9FED771B97ED060BFEF73FFF87EDB8
:103AE800040B7B4BD3E906017B4B03F58043703312
:103AF800D3E90023FCF748FB02460B467849C1E9A5
:103B08000A23784BFB60724BD3E902014FF00002A5
:103B18004FF00003FCF758FF0346002B03D14FF486
:103B28000073FB6201E00023FB62FB6A1946F86838
:103B3800FEF75DFDFB6ADB4303F400731946F86882
:103B4800FEF763FD674BFB60614BD3E902014FF061
:103B580000024FF00003FCF737FF0346002B03D1A8
:103B68004FF48043FB6201E00023FB62FB6A1946C5
:103B7800F868FEF73CFDFB6ADB4303F48043194613
:103B8800F868FEF742FD574BFB604FF000024FF01C
:103B98000003D7E90401FCF717FF0346002B03D104
:103BA8004FF48073FB6201E00023FB62FB6A194655
:103BB800F868FEF71CFDFB6ADB4303F480731946C3
:103BC800F868FEF722FD474BFB604FF000024FF00C
:103BD8000003D7E90401FCF7F7FE0346002B03D1E5
:103BE8004FF40043FB6201E00023FB62FB6A1946C5
:103BF800F868FEF7FCFCFB6ADB4303F40043194654
:103C0800F868FEF702FD374BFB60354BD3E90A0134
:103C18004FF000024FF00003FCF7D6FE0346002BDE
:103C280003D14FF48053FB6201E00023FB62FB6A7F
:103C38001946F868FEF7DBFCFB6ADB4303F48053A4
:103C48001946F868FEF7E1FC274BFB60204BD3E9E7
:103C580002014FF000024FF00003FCF7B5FE0346E7
:103C6800002B03D14FF48053FB6201E00023FB6279
:103C7800FB6A1946F868FEF7BAFCFB6ADB4303F4F3
:103C880080531946F868FEF7C0FC164BFB60104BD2
:103C9800D3E902014FF000024FF00003FCF794FE55
:103CA8000346002B22D14FF40053FB6220E000BFF3
:103CB8000000000000000000D00300208403002062
:103CC8007C0300208003002090550020705F0020B6
:103CD800000000200000E03F181500205C5500207F
:103CE800D803002000100048000400480023FB62AD
:103CF800FB6A1946F868FEF77AFCFB6ADB4303F4B3
:103D080000531946F868FEF780FC764BFB60764B4B
:103D1800D3E90A014FF000024FF00003FCF754FE0C
:103D28000346002B03D14FF40063FB6201E000233C
:103D3800FB62FB6A1946F868FEF759FCFB6ADB432D
:103D480003F400631946F868FEF75FFC674BFB60F5
:103D5800674BD3E90A014FF000024FF00003FCF76C
:103D680033FE0346002B02D18023FB6201E00023CF
:103D7800FB62FB6A1946F868FEF739FCFB6ADB430D
:103D880003F080031946F868FEF73FFC594BFB60C7
:103D9800574BD3E90C014FF000024FF00003FCF73A
:103DA80013FE0346002B02D10823FB6201E0002327
:103DB800FB62FB6A1946F868FEF719FCFB6ADB43ED
:103DC80003F008031946F868FEF71FFC02F0C8FC68
:103DD80002F0DCFD484BBB60484BD3F82831D3E9EF
:103DE8000023C7E90023464B03F580431A6C444B74
:103DF80003F580439B6C013B9A4205DA404B03F57F
:103E080080431B6C013300E000233D4A02F58042E9
:103E180013643B4B03F580431A6C394B03F580431D
:103E2800DB6B9A4215D1364B03F58043DA6B344B82
:103E380003F580439B6C013B9A4205DA304B03F54E
:103E48008043DB6B013300E000232D4A02F58042FA
:103E5800D363BB681A682A4B03F580439B6C1946E9
:103E6800274B03F580431B6C0B44DB00D118D7E9C3
:103E78000023C1E90023BB681A68214B03F580437E
:103E88001B6CDB00D118184BD3E90A23C1E90023C6
:103E9800154BD3E90A011A4B03F580437033C3E984
:103EA8000001164BD3F810210132C3F81021D3F8C2
:103EB80010311846FCF7A6FA104BD3E946230F4CED
:103EC800D4F82841FCF718FB02460B46C4E9002346
:103ED8000A4BD3F820210132C3F8202100BF343720
:103EE800BD4690BD00100048D8030020000C0048D3
:103EF800000000200004004890550020705F00205A
:103F08001815002000000000B0B5AEB000AF8A4B15
:103F180003F580435B69894A04211846FEF72DF9A9
:103F2800864BDB89864A1380844B1B88844AD3815D
:103F3800824B9B89824A5380804B5B88804A93815D
:103F48007E4B5B897E4A93807C4B9B887C4A53815D
:103F58007A4B1B897A4AD380784BDB88784A13815D
:103F68000023C7F8943011E0754AD7F8943032F836
:103F780013007349D7F8943003F10802034621F877
:103F88001230D7F894300133C7F89430D7F894300A
:103F9800072BE9DD6A4B1B8A1846FCF733FA0446FF
:103FA8000D46684A6849694845EC104BFEF7B2FF70
:103FB800634B03F5D463D3E900236149C1E90C23BA
:103FC8000023C7F894301EE0D7F8943001335C4AD8
:103FD800D433DB001344D3E90023C7E92223584B29
:103FE800D3E90C23D7E92201FCF716FD0346002B81
:103FF80004D05349D7E92223C1E90C23D7F89430D8
:104008000133C7F89430D7F89430172BDCDD4C4BCC
:104018005B8A1846FCF7F6F904460D464C4A4D49AA
:104028004D4845EC104BFEF7DCFF454B03F54E635E
:10403800D3E900234249C1E90E230023C7F894308D
:104048001FE0D7F8943001333D4A03F5CE73DB0007
:104058001344D3E90023C7E92223394BD3E90E23BC
:10406800D7E92201FCF7D8FC0346002B04D03449D9
:10407800D7E92223C1E90E23D7F894300133C7F8D2
:104088009430D7F89430082BDBDD2D4B93ED0E7B65
:10409800324A33493348B0EE470AF0EE670AFEF772
:1040A80039FF274B03F57B63D3E900232449C1E992
:1040B80010230023C7F894301FE0D7F89430013359
:1040C8001F4A03F5FB73DB001344D3E90023C7E958
:1040D80022231B4BD3E91023D7E92201FCF77EFCEE
:1040E8000346002B04D01649D7E92223C1E910233F
:1040F800D7F894300133C7F89430D7F89430172B99
:10410800DBDD0F4B9B8A1846FCF77CF904460D460D
:10411800154A1649164845EC104BFEF7FBFE084BAE
:1041280003F50363D3E900230549C1E90E230023FE
:10413800C7F894303EE000BF181500209403002013
:10414800D80300208000002060590020780A002051
:10415800A0000020E05C0020B8100020B80000207B
:10416800905E00208813002088000020405A00201C
:10417800080C0020D7F8943001338D4A03F5837377
:10418800DB001344D3E90023C7E92223884BD3E992
:104198000E23D7E92201FCF73FFC0346002B04D08D
:1041A8008349D7E92223C1E90E23D7F89430013394
:1041B800C7F89430D7F89430172BDBDD7C4BDB8ABB
:1041C8001846FCF71FF904460D467A4A7A497B4897
:1041D80045EC104BFEF79EFE754B03F5A263D3E941
:1041E80000237349C1E912230023C7F894301EE065
:1041F800D7F8943001336E4AA233DB001344D3E975
:104208000023C7E922236A4BD3E91223D7E9220105
:10421800FCF702FC0346002B04D06549D7E92223AA
:10422800C1E91223D7F894300133C7F89430D7F88E
:104238009430172BDCDD5E4B1B8B1846FCF7E2F83D
:1042480004460D465E4A5F495F4845EC104BFEF751
:1042580061FE574BD3E9E023C7E92C230023C7F8B5
:1042680094301CE0D7F894300133514A7033DB00A6
:104278001344D3E90023C7E92223D7E92223D7E946
:104288002C01FCF7ABFB0346002B03D0D7E9222314
:10429800C7E92C23D7F894300133C7F89430D7F8FE
:1042A8009430172BDEDD424B5B8B1846FCF7AAF8DF
:1042B80004460D46454A4649464845EC104BFEF72C
:1042C80029FE3B4BD3E97C23C7E92A230023C7F8FF
:1042D80094301CE0D7F894300133354A3E33DB0084
:1042E8001344D3E90023C7E92223D7E92223D7E9D6
:1042F8002A01FCF773FB0346002B03D0D7E92223DE
:10430800C7E92A23D7F894300133C7F89430D7F88F
:104318009430172BDEDD264B9B8B1846FCF772F882
:1043280004460D462C4A2D492D4845EC104BFEF706
:1043380058FE1F4B03F55863D3E90023C7E9282328
:104348000023C7F894301DE0D7F894300133184A99
:1043580003F5D873DB001344D3E90023C7E922230C
:10436800D7E92223D7E92801FCF738FB0346002BBD
:1043780003D0D7E92223C7E92823D7F8943001339B
:10438800C7F89430D7F89430082BDDDD154A164964
:10439800164897ED280BFEF7BDFD054B03F5626344
:1043A800D3E90023C7E926230023C7F894303DE06A
:1043B800D80300207800002080580020E80800205A
:1043C80070000020A0570020580700206800002037
:1043D800C0560020C8050020A8000020485D002025
:1043E80058110020B0000020B05D0020F811002016
:1043F800D7F894300133BA4A03F5E273DB0013446B
:10440800D3E90023C7E92223D7E92223D7E92601E4
:10441800FCF702FB0346002B03D0D7E92223C7E9A8
:104428002623D7F894300133C7F89430D7F894305E
:10443800172BDDDDAA4BDB8B1846FBF7E3FF0446A1
:104448000D46A84AA849A94845EC104BFEF762FD5D
:10445800A34BD3E91823C7E928230023C7F89430CE
:104468001CE0D7F8943001339D4A0C33DB00134429
:10447800D3E90023C7E92223D7E92223D7E9280172
:10448800FCF7ACFA0346002B03D0D7E92223C7E98F
:104498002823D7F894300133C7F89430D7F89430EC
:1044A800172BDEDD8E4B93ED0C7BB0EE470AF0EE5A
:1044B800670A0DF08DF9B0EE407AF0EE607A9FED64
:1044C800861BB0EE470AF0EE670A0DF0C3F887EDD9
:1044D800220B4FF000024FF00003D7E92201FCF74E
:1044E8007DFA0346002B10D0D7F88830BB67D7F881
:1044F8008C3083F00043FB67D7E91E01FCF7ACFA68
:1045080003469BB25B429BB205E0D7E92201FCF768
:10451800A3FA03469BB2764A1380714B93ED107B46
:10452800B0EE470AF0EE670A0DF052F9B0EE407AA5
:10453800F0EE607A9FED681BB0EE470AF0EE670A6E
:104548000DF088F887ED220B4FF000024FF00003C2
:10455800D7E92201FCF742FA0346002B10D0D7F81E
:1045680088303B67D7F88C3083F000437B67D7E906
:104578001C01FCF771FA03469BB25B429BB205E053
:10458800D7E92201FCF768FA03469BB2584A5380E0
:10459800534B93ED0E7BB0EE470AF0EE670A0DF031
:1045A80017F9B0EE407AF0EE607A9FED4B1BB0EE53
:1045B800470AF0EE670A0DF04DF887ED220B4FF031
:1045C80000024FF00003D7E92201FCF707FA03467F
:1045D800002B10D0D7F88830BB66D7F88C3083F022
:1045E8000043FB66D7E91A01FCF736FA03469BB28B
:1045F8005B429BB205E0D7E92201FCF72DFA03469E
:104608009BB23B4A9380364B93ED127BB0EE470A40
:10461800F0EE670A0DF0DCF8B0EE407AF0EE607A62
:104628009FED2D1BB0EE470AF0EE670A0DF012F869
:1046380087ED220B4FF000024FF00003D7E922016B
:10464800FCF7CCF90346002B10D0D7F888303B662E
:10465800D7F88C3083F000437B66D7E91801FCF764
:10466800FBF903469BB25B429BB205E0D7E9220106
:10467800FCF7F2F903469BB21D4AD38097ED2C0B49
:104688000DF0A6F8B0EE407AF0EE607A9FED121BBE
:10469800B0EE470AF0EE670A0CF0DCFF87ED220B5C
:1046A8004FF000024FF00003D7E92201FCF796F91A
:1046B8000346002B1ED0D7F88830BB65D7F88C305E
:1046C80083F00043FB65D7E91601FCF7C5F90346FB
:1046D8009BB25B429BB213E0000000000000F04078
:1046E800D803002060000020E05500203804002096
:1046F800A8030020D7E92201FCF7AEF903469BB2D4
:10470800A94A138197ED2A0B0DF062F8B0EE407AB2
:10471800F0EE607A9FEDA21BB0EE470AF0EE670A52
:104728000CF098FF87ED220B4FF000024FF00003CA
:10473800D7E92201FCF752F90346002B10D0D7F82D
:1047480088303B65D7F88C3083F000437B65D7E928
:104758001401FCF781F903469BB25B429BB205E06A
:10476800D7E92201FCF778F903469BB28E4A5381B8
:1047780097ED260B0DF02CF8B0EE407AF0EE607A4B
:104788009FED871BB0EE470AF0EE670A0CF062FF58
:1047980087ED220B4FF000024FF00003D7E922010A
:1047A800FCF71CF90346002B10D0D7F88830BB64FF
:1047B800D7F88C3083F00043FB64D7E91201FCF78B
:1047C8004BF903469BB25B429BB205E0D7E9220155
:1047D800FCF742F903469BB2734A938197ED280B85
:1047E8000CF0F6FFB0EE407AF0EE607A9FED6C1BAD
:1047F800B0EE470AF0EE670A0CF02CFF87ED220BAB
:104808004FF000024FF00003D7E92201FCF7E6F869
:104818000346002B10D0D7F888303B64D7F88C308B
:1048280083F000437B64D7E91001FCF715F90346D0
:104838009BB25B429BB205E0D7E92201FCF70CF979
:1048480003469BB2584AD381584BB3F84A30564A6C
:104858001382574B03F5D463D3E900235449C1E9C4
:1048680010230023C7F894301EE0D7F894300133A2
:104878004F4AD433DB001344D3E90023C7E922238A
:104888004B4BD3E91023D7E92201FCF7A7F80346DD
:10489800002B04D04649D7E92223C1E91023D7F8D1
:1048A80094300133C7F89430D7F89430172BDCDDF7
:1048B8003F4B5B8A1846FBF7A5FD04460D463D4A6B
:1048C8003D493E4845EC104BFEF724FB384B03F5B9
:1048D8003563D3E90023C7E926230023C7F89430BA
:1048E8001DE0D7F894300133314A03F5B573DB0086
:1048F8001344D3E90023C7E92223D7E92223D7E9C0
:104908002601FCF789F80346002B03D0D7E92223B8
:10491800C7E92623D7F894300133C7F89430D7F87D
:104928009430172BDDDD224B03F50363D3E9002315
:104938001F49C1E90E230023C7F894301FE0D7F8B8
:10494800943001331A4A03F58373DB001344D3E927
:104958000023C7E92223164BD3E90E23D7E9220106
:10496800FCF73CF80346002B04D01149D7E9222371
:10497800C1E90E23D7F894300133C7F89430D7F83B
:104988009430172BDBDD0A4B03F5A263D3E9002330
:104998000749C1E912230023C7F894302FE000BF6C
:1049A800000000000000F040A803002000000020E4
:1049B800D803002098000020005C0020280F002069
:1049C800D7F894300133A44AA233DB001344D3E967
:1049D8000023C7E92223A04BD3E91223D7E92201F8
:1049E800FBF7FCFF0346002B04D09B49D7E92223A1
:1049F800C1E91223D7F894300133C7F89430D7F8B7
:104A08009430172BDCDD944BD3E9E023C7E92C2342
:104A18000023C7F894301CE0D7F8943001338E4A4D
:104A28007033DB001344D3E90023C7E92223D7E915
:104A38002223D7E92C01FBF7EFFF0346002B03D015
:104A4800D7E92223C7E92C23D7F894300133C7F8D4
:104A58009430D7F89430172BDEDD7F4BD3E97C23D5
:104A6800C7E92A230023C7F894301CE0D7F894300C
:104A78000133794A3E33DB001344D3E90023C7E905
:104A88002223D7E92223D7E92A01FBF7C5FF0346EA
:104A9800002B03D0D7E92223C7E92A23D7F894307B
:104AA8000133C7F89430D7F89430172BDEDD6A4B02
:104AB8009B8B1846FBF7A6FC04460D46674A6849D7
:104AC800684845EC104BFEF725FA634B03F51C6369
:104AD800D3E90023C7E928230023C7F894301DE051
:104AE800D7F8943001335C4A03F59C73DB00134418
:104AF800D3E90023C7E92223D7E92223D7E92801EC
:104B0800FBF78AFF0346002B03D0D7E92223C7E926
:104B18002823D7F894300133C7F89430D7F8943065
:104B2800172BDDDD4C4BD3E918234B49C1E90C2386
:104B38000023C7F894301EE0D7F894300133464A72
:104B48000C33DB001344D3E90023C7E92223424B8B
:104B5800D3E90C23D7E92201FBF740FF0346002BDA
:104B680004D03D49D7E92223C1E90C23D7F8943072
:104B78000133C7F89430D7F89430172BDCDD364B67
:104B880093ED107BB0EE470AF0EE670A0CF020FEBA
:104B9800B0EE407AF0EE607A9FED2D1BB0EE470A3A
:104BA800F0EE670A0CF056FD87ED220B4FF000027D
:104BB8004FF00003D7E92201FBF710FF0346002B53
:104BC80010D0D7F88830BB63D7F88C3083F0004317
:104BD800FB63D7E90E01FBF73FFF03469BB25B423D
:104BE8009BB205E0D7E92201FBF736FF03469BB2EB
:104BF8001D4A138097ED260B0CF0EAFDB0EE407AC3
:104C0800F0EE607A9FED121BB0EE470AF0EE670AED
:104C18000CF020FD87ED220B4FF000024FF000034F
:104C2800D7E92201FBF7DAFE0346002B1ED0D7F89E
:104C380088303B63D7F88C3083F000437B63D7E937
:104C48000C01FBF709FF03469BB25B429BB213E0E2
:104C5800000000000000F040D80300209000002071
:104C6800205B0020980D0020BC030020D7E922011A
:104C7800FBF7F2FE03469BB2A94A5380A94B93ED7A
:104C88000E7BB0EE470AF0EE670A0CF0A1FDB0EE1D
:104C9800407AF0EE607A9FEDA01BB0EE470AF0EE86
:104CA800670A0CF0D7FC87ED220B4FF000024FF09B
:104CB8000003D7E92201FBF791FE0346002B10D031
:104CC800D7F88830BB62D7F88C3083F00043FB629A
:104CD800D7E90A01FBF7C0FE03469BB25B429BB2D1
:104CE80005E0D7E92201FBF7B7FE03469BB28C4AE1
:104CF80093808C4B93ED127BB0EE470AF0EE670A77
:104D08000CF066FDB0EE407AF0EE607A9FED821B03
:104D1800B0EE470AF0EE670A0CF09CFC87ED220B18
:104D28004FF000024FF00003D7E92201FBF756FECF
:104D38000346002B10D0D7F888303B62D7F88C3068
:104D480083F000437B62D7E90801FBF785FE034641
:104D58009BB25B429BB205E0D7E92201FBF77CFEE0
:104D680003469BB26E4AD38097ED2C0B0CF030FDB6
:104D7800B0EE407AF0EE607A9FED671BB0EE470A1E
:104D8800F0EE670A0CF066FC87ED220B4FF000028C
:104D98004FF00003D7E92201FBF720FE0346002B62
:104DA80010D0D7F88830BB61D7F88C3083F0004337
:104DB800FB61D7E90601FBF74FFE03469BB25B4256
:104DC8009BB205E0D7E92201FBF746FE03469BB2FA
:104DD800534A138197ED2A0B0CF0FAFCB0EE407A97
:104DE800F0EE607A9FED4C1BB0EE470AF0EE670AD2
:104DF8000CF030FC87ED220B4FF000024FF000035F
:104E0800D7E92201FBF7EAFD0346002B10D0D7F8BB
:104E180088303B61D7F88C3083F000437B61D7E959
:104E28000401FBF719FE03469BB25B429BB205E007
:104E3800D7E92201FBF710FE03469BB2384A53819B
:104E480097ED280B0CF0C4FCB0EE407AF0EE607AD7
:104E58009FED311BB0EE470AF0EE670A0CF0FAFB43
:104E680087ED220B4FF000024FF00003D7E9220133
:104E7800FBF7B4FD0346002B10D0D7F88830BB6091
:104E8800D7F88C3083F00043FB60D7E90201FBF7C9
:104E9800E3FD03469BB25B429BB205E0D7E92201E2
:104EA800FBF7DAFD03469BB21D4A93811D4B93ED38
:104EB8000C7BB0EE470AF0EE670A0CF089FCB0EE06
:104EC800407AF0EE607A9FED141BB0EE470AF0EEE0
:104ED800670A0CF0BFFB87ED220B4FF000024FF082
:104EE8000003D7E92201FBF779FD0346002B1BD00D
:104EF800D7F888303B60D7F88C3083F000437B606C
:104F0800D7E90001FBF7A8FD03469BB25B429BB2C1
:104F180010E000BFAFF30080000000000000F04088
:104F2800BC030020D8030020D7E92201FBF794FD39
:104F380003469BB2494AD381494BB3F84C20474BAF
:104F48001A824848FDF747FBC7F89000D7F8903019
:104F580003F04003002B0CBF01230023DBB287F8CA
:104F680085304148FDF737FBC7F89000D7F89030F7
:104F780003F00403002B0CBF01230023DBB287F8E6
:104F880087303A4B03F5804393F8C5303E2B0BD856
:104F9800364B03F5804393F8C5300133DAB2334B0F
:104FA80003F5804383F8C520304B03F5804393F81D
:104FB800813003F00403DBB2002B16D12B4B03F531
:104FC80080431A4692F8813043F0040382F8813016
:104FD800264B03F580431A4692F88030042161F38A
:104FE800061382F8803000F09ABE204B03F5804308
:104FF80093F88030C3F30213DBB2032B00F0D6859D
:10500800032B00F3D985012B04D0022B00F0F48484
:1050180000F0D2BD97F88730002B00F00882134BC0
:1050280003F5804393F88030C3F30303DBB2013BFD
:10503800072B00F2E48101A252F823F0795000080E
:1050480007540008075400080754000807540008CC
:1050580087530008AD530008E1530008BC03002043
:105068000000002000100048000400481815002027
:10507800D64B03F58043B3F8AC301A46D34B03F54F
:105088008043B3F8B0301344C7F89030D7F8903065
:10509800B3F5803F03D34FF6FF73C7F89030CB4B7F
:1050A80003F58043B3F8AE301A46D7F8903013446E
:1050B800C7F89030D7F89030B3F5803F03D34FF658
:1050C800FF73C7F89030C14B03F58043B3F8A430A1
:1050D8001A46D7F890301344C7F89030D7F8903074
:1050E800B3F5803F03D34FF6FF73C7F89030D7F876
:1050F8009000FBF787F94FF00002B54BFBF7FCF97E
:1051080002460B4643EC172BB0EE470AF0EE670A4F
:10511800FDF7A2FF53EC102B10461946FBF79CFC39
:1051280003469AB2A94B03F58043A3F88820A74BFE
:1051380003F58043B3F8B2301A46A44B03F5804315
:10514800B3F8B4301344C7F89030D7F89030B3F5BB
:10515800803F03D34FF6FF73C7F890309B4B03F59E
:105168008043B3F8B6301A46D7F890301344C7F8DE
:105178009030D7F89030B3F5803F03D34FF6FF73E4
:10518800C7F89030914B03F58043B3F8A6301A4620
:10519800D7F890301344C7F89030D7F89030B3F56B
:1051A800803F03D34FF6FF73C7F89030D7F89000CD
:1051B800FBF728F94FF00002854BFBF79DF90246F3
:1051C8000B4643EC172BB0EE470AF0EE670AFDF7E3
:1051D80043FF53EC102B10461946FBF73DFC0346E2
:1051E8009AB27A4B03F58043A3F88A20774B03F5EC
:1051F8008043B3F8B8301A46744B03F58043B3F8CC
:10520800BA301344C7F89030D7F89030B3F5803FE0
:1052180003D34FF6FF73C7F890306C4B03F5804308
:10522800B3F8BC301A46D7F890301344C7F890301A
:10523800D7F89030B3F5803F03D34FF6FF73C7F824
:105248009030624B03F58043B3F8A8301A46D7F87C
:1052580090301344C7F89030D7F89030B3F5803FBA
:1052680003D34FF6FF73C7F89030D7F89000FBF7D9
:10527800C9F84FF00002564BFBF73EF902460B46C1
:1052880043EC172BB0EE470AF0EE670AFDF7E4FE91
:1052980053EC102B10461946FBF7DEFB03469AB277
:1052A8004A4B03F58043A3F88C20484B03F5804311
:1052B800B3F8BE301A46454B03F58043B3F8C03007
:1052C8001344C7F89030D7F89030B3F5803F03D334
:1052D8004FF6FF73C7F890303C4B03F58043B3F8A3
:1052E800C2301A46D7F890301344C7F89030D7F830
:1052F8009030B3F5803F03D34FF6FF73C7F8903073
:10530800324B03F58043B3F8AA301A46D7F89030E9
:105318001344C7F89030D7F89030B3F5803F03D3E3
:105328004FF6FF73C7F89030D7F89000FBF76AF88C
:105338004FF00002264BFBF7DFF802460B4643EC22
:10534800172BB0EE470AF0EE670AFDF785FE53EC1F
:10535800102B10461946FBF77FFB03469AB21B4BEE
:1053680003F58043A3F88E20184B03F580431A46B3
:1053780092F880306FF3030382F880304AE0154BCF
:10538800282283F85520134B282283F854200F4BEA
:1053980003F580431A4692F880306FF3030382F8CE
:1053A800803037E00B4B282283F85520094B282200
:1053B80083F85420054B03F580431A4692F8803051
:1053C8006FF3030382F8803024E000BF1815002033
:1053D8000000D03FD8030020234B282283F8552013
:1053E800214B282283F85420204B03F580431A468A
:1053F80092F880306FF3030382F880300AE01B4B89
:1054080003F580431A4692F880306FF3030382F85D
:10541800803000BF154B03F580431A4692F8803060
:10542800042161F3061382F8803000F078BC0F4B3A
:1054380003F5804393F88030C3F30303DBB2013BE9
:10544800062B00F28E8201A252F823F0795400084C
:1054580073570008B7570008ED570008315800087F
:1054680075580008F1580008D803002018150020C6
:10547800D94B03F58043B3F8AC301A46D64B03F545
:105488008043B3F8B0301344C7F89030D7F8903061
:10549800B3F5803F03D34FF6FF73C7F89030CE4B78
:1054A80003F58043B3F8AE301A46D7F8903013446A
:1054B800C7F89030D7F89030B3F5803F03D34FF654
:1054C800FF73C7F89030C44B03F58043B3F8A4309A
:1054D8001A46D7F890301344C7F89030D7F8903070
:1054E800B3F5803F03D34FF6FF73C7F89030D7F872
:1054F8009000FAF787FF4FF00002B84BFAF7FCFF6D
:1055080002460B4643EC172BB0EE470AF0EE670A4B
:10551800FDF7A2FD53EC102B10461946FBF79CFA39
:1055280003469AB2AC4B03F58043A3F88820AA4BF4
:1055380003F58043B3F8B2301A46A74B03F580430E
:10554800B3F8B4301344C7F89030D7F89030B3F5B7
:10555800803F03D34FF6FF73C7F890309E4B03F597
:105568008043B3F8B6301A46D7F890301344C7F8DA
:105578009030D7F89030B3F5803F03D34FF6FF73E0
:10558800C7F89030944B03F58043B3F8A6301A4619
:10559800D7F890301344C7F89030D7F89030B3F567
:1055A800803F03D34FF6FF73C7F89030D7F89000C9
:1055B800FAF728FF4FF00002884BFAF79DFF0246E2
:1055C8000B4643EC172BB0EE470AF0EE670AFDF7DF
:1055D80043FD53EC102B10461946FBF73DFA0346E2
:1055E8009AB27D4B03F58043A3F88A207A4B03F5E2
:1055F8008043B3F8B8301A46774B03F58043B3F8C5
:10560800BA301344C7F89030D7F89030B3F5803FDC
:1056180003D34FF6FF73C7F890306F4B03F5804301
:10562800B3F8BC301A46D7F890301344C7F8903016
:10563800D7F89030B3F5803F03D34FF6FF73C7F820
:105648009030654B03F58043B3F8A8301A46D7F875
:1056580090301344C7F89030D7F89030B3F5803FB6
:1056680003D34FF6FF73C7F89030D7F89000FAF7D6
:10567800C9FE4FF00002594BFAF73EFF02460B46AF
:1056880043EC172BB0EE470AF0EE670AFDF7E4FC8F
:1056980053EC102B10461946FBF7DEF903469AB275
:1056A8004D4B03F58043A3F88C204B4B03F5804307
:1056B800B3F8BE301A46484B03F58043B3F8C03000
:1056C8001344C7F89030D7F89030B3F5803F03D330
:1056D8004FF6FF73C7F890303F4B03F58043B3F89C
:1056E800C2301A46D7F890301344C7F89030D7F82C
:1056F8009030B3F5803F03D34FF6FF73C7F890306F
:10570800354B03F58043B3F8AA301A46D7F89030E2
:105718001344C7F89030D7F89030B3F5803F03D3DF
:105728004FF6FF73C7F89030D7F89000FAF76AFE83
:105738004FF00002294BFAF7DFFE02460B4643EC16
:10574800172BB0EE470AF0EE670AFDF785FC53EC1D
:10575800102B10461946FBF77FF903469AB21E4BE9
:1057680003F58043A3F88E2045E11B4B03F58043E6
:1057780093F8C530312B40F23181174B03F5804344
:10578800002283F8C520144B03F580431A4692F88B
:105798008030062161F3030382F88030104B5522D4
:1057A80083F855200E4BAB2283F8542016E10A4BA0
:1057B80003F5804393F8C530132B40F21181064B53
:1057C80003F580431A4692F88030012161F3030300
:1057D80082F8803004E100BF181500200000D03F97
:1057E800D8030020AE4B03F5804393F8C530132B44
:1057F80040F2F880AA4B03F58043002283F8C520C5
:10580800A74B03F580431A4692F88030072161F3CD
:10581800030382F88030A34B552283F85520A14B0F
:10582800AB2283F85420DDE09D4B03F5804393F8C9
:10583800C530132B40F2D880994B03F580430022E2
:1058480083F8C520964B03F580431A4692F88030BA
:10585800082161F3030382F88030924B552283F8C4
:105868005520904BAB2283F85420BDE08C4B03F5B8
:10587800804393F8C530052B40F2B880894B282225
:1058880083F85520874B282283F85420844B03F54E
:105898008043002283F8C520814B03F580431A46D4
:1058A80092F88030042161F3030382F880307D4B45
:1058B8009A897B4B03F58043A3F8B020794B5A882B
:1058C800774B03F58043A3F8B420764B1A89744BC1
:1058D80003F58043A3F8BA20724BDA88704B03F5BE
:1058E8008043A3F8C02081E06D4B03F5804393F813
:1058F800C530052B7CD96B4B282283F85520694B82
:10590800282283F85420664B03F58043002283F84D
:10591800C520634B03F580431A4692F88030052171
:1059280061F3030382F880305E4B9A895C4B03F580
:105938008043A3F8AE205B4B5A88594B03F580434C
:10594800A3F8B620574B1A89554B03F58043A3F8A3
:10595800BC20544BDA88524B03F58043A3F8C2208D
:1059680046E04F4B03F5804393F8C530052B41D9EA
:105978004C4B282283F855204A4B282283F8542080
:10598800474B03F58043002283F8C520444B03F5B9
:1059980080431A4692F88030032161F3030382F8AA
:1059A8008030404B9A893E4B03F58043A3F8A420EE
:1059B8003C4B5A883A4B03F58043A3F8A620394B51
:1059C8001A89374B03F58043A3F8A820354BDA88AA
:1059D800334B03F58043A3F8AA200BE000BF9EE1F8
:1059E80000BF9CE100BF9AE100BF98E100BF96E1CB
:1059F80000BF94E100BF92E1294B03F5804393F87F
:105A0800C530312B50D9264B03F580431A4692F8FE
:105A18008030012161F3061382F88030214B322255
:105A280083F855201F4B322283F854201D4B012246
:105A380083F857201B4B012283F85620194B01226B
:105A480083F85820164B03F58043002283F8C520BD
:105A5800134B03F580431A4692F88030022161F314
:105A6800030382F880300F4B9A890D4B03F580436E
:105A7800A3F8AC200B4B5A88094B03F58043A3F8D5
:105A8800B220084B1A89064B03F58043A3F8B820C7
:105A9800044BDA88024B03F58043A3F8BE203DE1AE
:105AA80018150020D8030020AB4B03F58043B3F84A
:105AB8009220AA4B9B899A4206D9A84B9A89A64B51
:105AC80003F58043A3F89220A34B03F58043B3F872
