:020000040800F2
:100000000080012005F300085B7A0008617A00088F
:10001000677A00086D7A0008737A00080000000013
:10002000000000000000000000000000A14D0008DA
:10003000797A0008000000005D4D00088D4C000832
:1000400055F3000855F3000855F3000855F3000870
:1000500055F3000855F3000855F3000855F3000860
:1000600055F3000855F3000855F30008877A000897
:10007000751F000855F3000855F3000855F30008F4
:10008000957A0008A37A0008B17A000855F30008B1
:1000900055F3000855F3000855F3000855F3000820
:1000A00055F30008C17A000855F3000855F300081D
:1000B00055F3000855F3000855F3000855F3000800
:1000C00055F3000855F3000855F3000855F30008F0
:1000D00055F3000855F3000855F3000855F30008E0
:1000E00055F3000855F3000855F3000855F30008D0
:1000F00055F3000855F3000855F3000855F30008C0
:1001000055F3000855F3000855F3000855F30008AF
:1001100055F3000855F3000855F3000855F300089F
:1001200055F3000855F3000855F3000855F300088F
:1001300055F3000855F3000855F3000855F300087F
:1001400055F3000855F3000855F30008D57A000868
:1001500055F3000855F3000855F3000855F300085F
:1001600055F3000855F3000855F3000855F300084F
:1001700055F3000855F3000855F30008000000008F
:0801800055F3000855F30008D7
:1001880010B5054C237833B9044B13B10448AFF3C9
:1001980000800123237010BD8802002000000000A9
:1001A80080F8000808B5034B1BB103490348AFF3B7
:1001B800008008BD000000008C02002080F80008C4
:1001C80081F0004102E000BF83F0004330B54FEA00
:1001D80041044FEA430594EA050F08BF90EA020F6D
:1001E8001FBF54EA000C55EA020C7FEA645C7FEA00
:1001F800655C00F0E2804FEA5454D4EB5555B8BF23
:100208006D420CDD2C4480EA020281EA030382EA93
:10021800000083EA010180EA020281EA0303362D25
:1002280088BF30BD11F0004F4FEA01314FF4801CF8
:100238004CEA113102D0404261EB410113F0004F0A
:100248004FEA03334CEA133302D0524263EB4303C1
:1002580094EA050F00F0A780A4F10104D5F1200E5F
:100268000DDB02FA0EFC22FA05F2801841F10001BA
:1002780003FA0EF2801843FA05F359410EE0A5F18E
:1002880020050EF1200E012A03FA0EFC28BF4CF0BF
:10029800020C43FA05F3C01851EBE37101F0004575
:1002A80007D54FF0000EDCF1000C7EEB00006EEB82
:1002B8000101B1F5801F1BD3B1F5001F0CD349080C
:1002C8005FEA30004FEA3C0C04F101044FEA445263
:1002D80012F5800F80F09A80BCF1004F08BF5FEAEA
:1002E800500C50F1000041EB045141EA050130BDCA
:1002F8005FEA4C0C404141EB0101013C28BFB1F5DC
:10030800801FE9D291F0000F04BF01460020B1FA26
:1003180081F308BF2033A3F10B03B3F120020CDAF9
:100328000C3208DD02F1140CC2F10C0201FA0CF0D7
:1003380021FA02F10CE002F11402D8BFC2F1200C3C
:1003480001FA02F120FA0CFCDCBF41EA0C019040F2
:10035800E41AA2BF01EB0451294330BD6FEA04043B
:100368001F3C1CDA0C340EDC04F11404C4F1200226
:1003780020FA04F001FA02F340EA030021FA04F338
:1003880045EA030130BDC4F10C04C4F1200220FA8F
:1003980002F001FA04F340EA0300294630BD21FACD
:1003A80004F0294630BD94F0000F83F4801306BF93
:1003B80081F480110134013D4EE77FEA645C18BF87
:1003C8007FEA655C29D094EA050F08BF90EA020F1E
:1003D80005D054EA000C04BF1946104630BD91EA16
:1003E800030F1EBF0021002030BD5FEA545C05D119
:1003F8004000494128BF41F0004130BD14F5800458
:100408003CBF01F5801130BD01F0004545F0FE41CB
:1004180041F470014FF0000030BD7FEA645C1ABF00
:10042800194610467FEA655C1CBF0B46024650EA37
:10043800013406BF52EA033591EA030F41F4002163
:1004480030BD00BF90F0000F04BF0021704730B5E9
:100458004FF4806404F132044FF000054FF00001BE
:1004680050E700BF90F0000F04BF0021704730B57F
:100478004FF4806404F1320410F0004548BF404254
:100488004FF000013EE700BF42004FEAE2014FEAA9
:1004980031014FEA02701FBF12F07F4393F07F4F84
:1004A80081F06051704732F07F4208BF704793F087
:1004B8007F4F04BF41F40021704730B54FF460749A
:1004C80001F0004521F000411CE700BF50EA01029D
:1004D80008BF704730B54FF000050AE050EA010246
:1004E80008BF704730B511F0004502D5404261EBB6
:1004F80041014FF4806404F132045FEA915C3FF4F7
:10050800D8AE4FF003025FEADC0C18BF03325FEA93
:10051800DC0C18BF033202EBDC02C2F1200300FA44
:1005280003FC20FA02F001FA03FE40EA0E0021FA69
:1005380002F11444BDE600BF70B54FF0FF0C4CF457
:10054800E06C1CEA11541DBF1CEA135594EA0C0F09
:1005580095EA0C0F00F0DEF82C4481EA030621EA44
:100568004C5123EA4C5350EA013518BF52EA03357F
:1005780041F4801143F4801338D0A0FB02CE4FF031
:100588000005E1FB02E506F00042E0FB03E54FF061
:100598000006E1FB03569CF0000F18BF4EF0010E59
:1005A800A4F1FF04B6F5007F64F5407404D25FEA55
:1005B8004E0E6D4146EB060642EAC62141EA555108
:1005C8004FEAC52040EA5E504FEACE2EB4F1FD0C4A
:1005D80088BFBCF5E06F1ED8BEF1004F08BF5FEAC8
:1005E800500E50F1000041EB045170BD06F000467A
:1005F80046EA010140EA020081EA0301B4EB5C0427
:10060800C2BFD4EB0C0541EA045170BD41F480111E
:100618004FF0000E013C00F3AB8014F1360FDEBF43
:10062800002001F0004170BDC4F10004203C35DA1F
:100638000C341BDC04F11404C4F1200500FA05F3A2
:1006480020FA04F001FA05F240EA020001F0004243
:1006580021F0004110EBD37021FA04F642EB0601B9
:100668005EEA430E08BF20EAD37070BDC4F10C04E3
:10067800C4F1200500FA04F320FA05F001FA04F2A7
:1006880040EA020001F0004110EBD37041F1000193
:100698005EEA430E08BF20EAD37070BDC4F120059E
:1006A80000FA05F24EEA020E20FA04F301FA05F206
:1006B80043EA020321FA04F001F0004121FA04F2AE
:1006C80020EA020000EBD3705EEA430E08BF20EA7E
:1006D800D37070BD94F0000F0FD101F000464000B8
:1006E80041EB010111F4801F08BF013CF7D041EA3A
:1006F800060195F0000F18BF704703F0004652003E
:1007080043EB030313F4801F08BF013DF7D043EA0E
:100718000603704794EA0C0F0CEA135518BF95EAC4
:100728000C0F0CD050EA410618BF52EA4306D1D14B
:1007380081EA030101F000414FF0000070BD50EA6A
:10074800410606BF1046194652EA430619D094EAF4
:100758000C0F02D150EA013613D195EA0C0F05D1DE
:1007680052EA03361CBF104619460AD181EA030132
:1007780001F0004141F0FE4141F470014FF00000EA
:1007880070BD41F0FE4141F4780170BD70B54FF085
:10079800FF0C4CF4E06C1CEA11541DBF1CEA135505
:1007A80094EA0C0F95EA0C0F00F0A7F8A4EB0504E7
:1007B80081EA030E52EA03354FEA013100F08880DE
:1007C8004FEA03334FF0805545EA131343EA1263A7
:1007D8004FEA022245EA111545EA10654FEA00265C
:1007E8000EF000419D4208BF964244F1FD0404F515
:1007F800407402D25B084FEA3202B61A65EB030571
:100808005B084FEA32024FF480104FF4002CB6EB2D
:10081800020E75EB030E22BFB61A754640EA0C00AD
:100828005B084FEA3202B6EB020E75EB030E22BFED
:10083800B61A754640EA5C005B084FEA3202B6EB2E
:10084800020E75EB030E22BFB61A754640EA9C00ED
:100858005B084FEA3202B6EB020E75EB030E22BFBD
:10086800B61A754640EADC0055EA060E18D04FEA7B
:10087800051545EA16754FEA06164FEAC30343EA1B
:1008880052734FEAC2025FEA1C1CC0D111F4801FE8
:100898000BD141EA00014FF000004FF0004CB6E7E1
:1008A80011F4801F04BF01430020B4F1FD0C88BF80
:1008B800BCF5E06F3FF6AFAEB5EB030C04BFB6EB8B
:1008C800020C5FEA500C50F1000041EB045170BD7E
:1008D8000EF0004E4EEA113114EB5C04C2BFD4EBAB
:1008E8000C0541EA045170BD41F480114FF0000E2F
:1008F800013C90E645EA060E8DE60CEA135594EAAB
:100908000C0F08BF95EA0C0F3FF43BAF94EA0C0FAD
:100918000AD150EA01347FF434AF95EA0C0F7FF422
:1009280025AF104619462CE795EA0C0F06D152EA76
:1009380003353FF4FDAE1046194622E750EA41065A
:1009480018BF52EA43067FF4C5AE50EA41047FF46B
:100958000DAF52EA43057FF4EBAE12E74FF0FF3CD0
:1009680006E000BF4FF0010C02E000BF4FF0010CA1
:100978004DF804CD4FEA410C7FEA6C5C4FEA430C1A
:1009880018BF7FEA6C5C1BD001B050EA410C0CBF69
:1009980052EA430C91EA030F02BF90EA020F0020CB
:1009A800704710F1000F91EA030F58BF994208BF32
:1009B80090422CBFD8176FEAE37040F001007047EF
:1009C8004FEA410C7FEA6C5C02D150EA013C07D146
:1009D8004FEA430C7FEA6C5CD6D152EA033CD3D091
:1009E8005DF8040B704700BF8446104662468C468B
:1009F8001946634600E000BF01B5FFF7B7FF0028BE
:100A080048BF10F1000F01BD4DF808EDFFF7F4FFE6
:100A18000CBF012000205DF808FB00BF4DF808ED71
:100A2800FFF7EAFF34BF012000205DF808FB00BF94
:100A38004DF808EDFFF7E0FF94BF012000205DF8B6
:100A480008FB00BF4DF808EDFFF7CEFF94BF01206B
:100A580000205DF808FB00BF4DF808EDFFF7C4FF64
:100A680034BF012000205DF808FB00BF4FEA410CAD
:100A78007FEA6C5C02D150EA013C0AD14FEA430C90
:100A88007FEA6C5C02D152EA033C02D14FF00000CD
:100A980070474FF0010070474A0011D212F500125A
:100AA80011D20DD56FF47873B3EB62520ED44FEABE
:100AB800C12343F0004343EA505323FA02F070473E
:100AC8004FF00000704750EA013002D14FF0FF307C
:100AD80070474FF00000704780B485B000AF786071
:100AE8007B681B6803F06003FB60FB68002B04D184
:100AF8007B681B6803F01003FB60FB68184614371B
:100B0800BD465DF8047B704780B483B000AF786061
:100B18007B681B6B18460C37BD465DF8047B704735
:100B280080B483B000AF786039607B681A6A3B682C
:100B38001A437B681A6200BF0C37BD465DF8047B18
:100B4800704780B483B000AF786039607B681A6AF8
:100B58003B68DB431A407B681A6200BF0C37BD460E
:100B68005DF8047B704780B483B000AF78607B6821
:100B78005B6C43F400427B685A6400BF0C37BD4687
:100B88005DF8047B704780B483B000AF78607B6801
:100B9800DB6843F001027B68DA6000BF0C37BD46B2
:100BA8005DF8047B704780B483B000AF78607B68E1
:100BB800DB6823F001027B68DA6000BF0C37BD46B2
:100BC8005DF8047B704780B483B000AF78607B68C1
:100BD800DB6803F00103012B01D1012300E00023AE
:100BE80018460C37BD465DF8047B704780B483B067
:100BF80000AF78607B68DB6843F002027B68DA60EC
:100C080000BF0C37BD465DF8047B704780B483B0E5
:100C180000AF78607B68DB6823F002027B68DA60EB
:100C280000BF0C37BD465DF8047B704780B483B0C5
:100C380000AF78607B68DB6803F00203022B01D108
:100C4800012300E0002318460C37BD465DF8047BFD
:100C5800704780B483B000AF78607B68DB6843F08E
:100C680004027B68DA6000BF0C37BD465DF8047B80
:100C7800704780B483B000AF78607B68DB6823F08E
:100C880004027B68DA6000BF0C37BD465DF8047B60
:100C9800704780B483B000AF78607B68DB6803F08E
:100CA8000403042B01D1012300E0002318460C376C
:100CB800BD465DF8047B704780B483B000AF7860B0
:100CC8007B68DB6843F008027B68DA6000BF0C379A
:100CD800BD465DF8047B704780B483B000AF786090
:100CE8007B68DB6823F008027B68DA6000BF0C379A
:100CF800BD465DF8047B704780B483B000AF786070
:100D08007B68DB6803F00803082B01D1012300E0AE
:100D1800002318460C37BD465DF8047B704780B445
:100D280083B000AF78607B68DB6843F010027B68B3
:100D3800DA6000BF0C37BD465DF8047B704780B4AD
:100D480083B000AF78607B68DB6823F010027B68B3
:100D5800DA6000BF0C37BD465DF8047B704780B48D
:100D680083B000AF78607B68DB6803F01003102B5A
:100D780001D1012300E0002318460C37BD465DF879
:100D8800047B704780B483B000AF78607B68DB6811
:100D980043F020027B68DA6000BF0C37BD465DF87F
:100DA800047B704780B483B000AF78607B68DB68F1
:100DB80023F020027B68DA6000BF0C37BD465DF87F
:100DC800047B704780B483B000AF78607B68DB68D1
:100DD80003F02003202B01D1012300E00023184653
:100DE8000C37BD465DF8047B704780B483B000AF14
:100DF80078607B68DB6843F040027B68DA6000BF9C
:100E08000C37BD465DF8047B704780B483B000AFF3
:100E180078607B68DB6823F040027B68DA6000BF9B
:100E28000C37BD465DF8047B704780B483B000AFD3
:100E380078607B68DB6803F04003402B01D1012315
:100E480000E0002318460C37BD465DF8047B704768
:100E580080B483B000AF78607B68DB6843F08002C1
:100E68007B68DA6000BF0C37BD465DF8047B7047CD
:100E780080B483B000AF78607B68DB6823F08002C1
:100E88007B68DA6000BF0C37BD465DF8047B7047AD
:100E980080B483B000AF78607B68DB6803F08003C0
:100EA800802B01D1012300E0002318460C37BD46F2
:100EB8005DF8047B704780B582B000AF78600B4660
:100EC8007B807B8803F00103002B0CD07B681B68B8
:100ED8001846FFF7AAFF0346012B04D07B681B685E
:100EE8001846FFF782FF7B8803F00203002B0CD023
:100EF8007B681B681846FFF799FE0346012B04D050
:100F08007B681B681846FFF771FE7B8803F00403B3
:100F1800002B0CD07B681B681846FFF7BAFE034607
:100F2800012B04D07B681B681846FFF792FE7B886C
:100F380003F00803002B0CD07B681B681846FFF7EA
:100F4800DBFE0346012B04D07B681B681846FFF7BD
:100F5800B3FE7B8803F01003002B0CD07B681B6862
:100F68001846FFF7FCFE0346012B04D07B681B687C
:100F78001846FFF7D4FE7B8803F02003002B0CD023
:100F88007B681B681846FFF71EFE0346012B04D03A
:100F98007B681B681846FFF7F6FD7B8803F0400363
:100FA800002B0CD07B681B681846FFF771FF0346BF
:100FB800012B04D07B681B681846FFF749FF7B8824
:100FC80003F08003002B0CD07B681B681846FFF7E2
:100FD800F9FE0346012B04D07B681B681846FFF70F
:100FE800D1FE00BF0837BD4680BD80B582B000AFD6
:100FF80078600B467B807B8803F00103002B0CD0C4
:101008007B681B681846FFF710FF0346012B04D1C5
:101018007B681B681846FFF7F8FE7B8803F002031D
:10102800002B0CD07B681B681846FFF7FFFD0346B2
:10103800012B04D17B681B681846FFF7E7FD7B8806
:1010480003F00403002B0CD07B681B681846FFF7DD
:1010580020FE0346012B04D17B681B681846FFF766
:1010680008FE7B8803F00803002B0CD07B681B6804
:101078001846FFF741FE0346012B04D17B681B6825
:101088001846FFF729FE7B8803F01003002B0CD0CD
:101098007B681B681846FFF762FE0346012B04D1E4
:1010A8007B681B681846FFF74AFE7B8803F020031D
:1010B800002B0CD07B681B681846FFF784FD03469D
:1010C800012B04D07B681B681846FFF76CFD7B88F2
:1010D80003F04003002B0CD07B681B681846FFF711
:1010E800D7FE0346012B04D17B681B681846FFF71F
:1010F800BFFE7B8803F08003002B0CD07B681B6845
:101108001846FFF75FFE0346012B04D17B681B6876
:101118001846FFF747FE00BF0837BD4680BD0000F0
:1011280080B582B000AF78600B46FB70FB78022B6D
:1011380006D17B681B6801211846FFF7F1FC31E0F6
:101148007B681B68194A934213D07B681B68184A4E
:1011580093420ED07B681B68164A934209D07B687D
:101168001B68154A934204D07B681B68134A934254
:1011780018D1FB78032B06D17B681B68042118461D
:10118800FFF7CEFC0EE0FB78042B0BD17B681B68C5
:1011980001211846FFF7C4FC7B681B680421184628
:1011A800FFF7BEFC00BF0837BD4680BD002C0140DC
:1011B8000034014000400140004401400048014023
:1011C80080B582B000AF78600B46FB70FB78022BCD
:1011D80006D17B681B6801211846FFF7B2FC31E095
:1011E8007B681B68194A934213D07B681B68184AAE
:1011F80093420ED07B681B68164A934209D07B68DD
:101208001B68154A934204D07B681B68134A9342B3
:1012180018D1FB78032B06D17B681B68042118467C
:10122800FFF78FFC0EE0FB78042B0BD17B681B6863
:1012380001211846FFF785FC7B681B6804211846C6
:10124800FFF77FFC00BF0837BD4680BD002C01407A
:101258000034014000400140004401400048014082
:1012680080B582B000AF78600B46FB70FB78022B2C
:1012780006D17B681B6810211846FFF751FC31E046
:101288007B681B68194A934213D07B681B68184A0D
:1012980093420ED07B681B68164A934209D07B683C
:1012A8001B68154A934204D07B681B68134A934213
:1012B80018D1FB78032B06D17B681B6840211846A0
:1012C800FFF72EFC0EE0FB78042B0BD17B681B6824
:1012D80010211846FFF724FC7B681B68402118463C
:1012E800FFF71EFC00BF0837BD4680BD002C01403B
:1012F80000340140004001400044014000480140E2
:1013080080B582B000AF78600B46FB70FB78022B8B
:1013180006D17B681B6810211846FFF712FC31E0E4
:101328007B681B68194A934213D07B681B68184A6C
:1013380093420ED07B681B68164A934209D07B689B
:101348001B68154A934204D07B681B68134A934272
:1013580018D1FB78032B06D17B681B6840211846FF
:10136800FFF7EFFB0EE0FB78042B0BD17B681B68C3
:1013780010211846FFF7E5FB7B681B6840211846DB
:10138800FFF7DFFB00BF0837BD4680BD002C0140DA
:101398000034014000400140004401400048014041
:1013A80080B582B000AF78600B46FB70FB78022BEB
:1013B80007D17B681B684FF480711846FFF7B0FBB4
:1013C80034E07B681B681B4A934213D07B681B6818
:1013D800194A93420ED07B681B68184A934209D079
:1013E8007B681B68164A934204D07B681B68154AC1
:1013F80093421BD1FB78032B07D17B681B684FF402
:1014080080611846FFF78CFB10E0FB78042B0DD1A8
:101418007B681B684FF480711846FFF781FB7B6877
:101428001B684FF480611846FFF77AFB00BF083746
:10143800BD4680BD002C0140003401400040014001
:10144800004401400048014080B582B000AF786098
:101458000B46FB70FB78022B07D17B681B684FF4A7
:1014680080711846FFF76DFB34E07B681B681B4AE8
:10147800934213D07B681B68194A93420ED07B684D
:101488001B68184A934209D07B681B68164A934226
:1014980004D07B681B68154A93421BD1FB78032B49
:1014A80007D17B681B684FF480611846FFF749FB3A
:1014B80010E0FB78042B0DD17B681B684FF480711A
:1014C8001846FFF73EFB7B681B684FF4806118469F
:1014D800FFF737FB00BF0837BD4680BD002C014031
:1014E80000340140004001400044014000480140F0
:1014F80080B582B000AF78600B46FB70FB78022B9A
:1015080006D17B681B684FF480511846FFF708FB2B
:1015180000BF0837BD4680BD80B582B000AF786097
:101528000B46FB70FB78022B06D17B681B684FF4D7
:1015380080511846FFF705FB00BF0837BD4680BD40
:1015480080B584B000AF78600023FB607B681B68BF
:10155800304A934201D1304BFB607B681A68FB68C4
:101568001A60FB681B681846FFF7B6FAB860BB68D4
:10157800002B06D0BB68102B03D0FB6801221A7120
:1015880002E0FB6800221A71FB681B68234A934239
:1015980013D0FB681B68224A93420ED0FB681B6875
:1015A800204A934209D0FB681B681F4A934204D023
:1015B800FB681B681D4A934204D1FB681B681846E8
:1015C800FFF7D1FAFB681B68144A934213D0FB68F3
:1015D8001B68134A93420ED0FB681B68114A93425A
:1015E80009D0FB681B68104A934204D0FB681B684B
:1015F8000E4A934208D17B681B681846FFF784FAA5
:101608000346DAB2FB685A71FB6818461037BD46C4
:1016180080BD00BF00040040E0040020002C014011
:1016280000340140004001400044014000480140AE
:1016380080B485B000AF786039603B68FB603B6878
:10164800B3F5803F0CD37B681B68B3F1804F07D09C
:101658007B681B68064A934202D04FF6FF73FB6013
:10166800FB6818461437BD465DF8047B704700BF19
:10167800000C004080B485B000AF786039603B68EA
:10168800002B03D17B684033FB6001E0044BFB6017
:10169800FB6818461437BD465DF8047B704700BFE9
:1016A8000C03045080B483B000AF78607B68DB68BB
:1016B80003F44063002B01D1012300E00023184606
:1016C8000C37BD465DF8047B704780B483B000AF2B
:1016D800786039607B681B6B23F00F023B681A4304
:1016E8007B681A6300BF0C37BD465DF8047B704702
:1016F80080B483B000AF786039607B68DB6823F022
:1017080003023B681A437B68DA6000BF0C37BD46AA
:101718005DF8047B704780B483B000AF78607B6865
:10172800DB6C03F0C003002B01D1012300E0002390
:1017380018460C37BD465DF8047B704780B483B00B
:1017480000AF78607B689B6823F0004323F03F0379
:1017580043F001027B689A6000BF0C37BD465DF814
:10176800047B704780B483B000AF78607B689B6867
:1017780023F0004323F03F0343F002027B689A60A2
:1017880000BF0C37BD465DF8047B704780B483B05A
:1017980000AF78607B689B6803F00103012B01D1DF
:1017A800012300E0002318460C37BD465DF8047B92
:1017B800704780B483B000AF786039607B689B68FD
:1017C80023F0404323F03F033A6802F0804213437A
:1017D80043F000427B689A6000BF0C37BD465DF855
:1017E800047B704780B483B000AF78607B689B68E7
:1017F80003F00043B3F1004F01D1012300E00023BF
:1018080018460C37BD465DF8047B704780B483B03A
:1018180000AF78607B689B6823F0004323F03F03A8
:1018280043F004027B689A6000BF0C37BD465DF840
:10183800047B704780B483B000AF78607B689B6896
:1018480023F0004323F03F0343F008027B689A60CB
:1018580000BF0C37BD465DF8047B704780B483B089
:1018680000AF78607B681B6803F00803082B01D180
:10187800012300E0002318460C37BD465DF8047BC1
:10188800704780B483B000AF78607B681B6803F052
:101898001003102B01D1012300E0002318460C3758
:1018A800BD465DF8047B704780B483B000AF7860B4
:1018B8007B6810221A6000BF0C37BD465DF8047BB8
:1018C800704780B483B000AF78607B685B6843F092
:1018D80008027B685A6000BF0C37BD465DF8047B80
:1018E800704780B483B000AF78607B685B6843F072
:1018F80040027B685A6000BF0C37BD465DF8047B28
:10190800704780B483B000AF78607B685B6823F071
:1019180008027B685A6000BF0C37BD465DF8047B3F
:10192800704780B483B000AF78607B685B6823F051
:1019380010027B685A6000BF0C37BD465DF8047B17
:10194800704780B483B000AF78607B685B6823F031
:1019580040027B685A6000BF0C37BD465DF8047BC7
:10196800704780B483B000AF78607B685B6823F011
:1019780080027B685A6000BF0C37BD465DF8047B67
:10198800704780B483B000AF78607B685B6803F011
:101998001003102B01D1012300E0002318460C3757
:1019A800BD465DF8047B704780B483B000AF7860B3
:1019B8007B685B6803F08003802B01D1012300E082
:1019C800002318460C37BD465DF8047B70470000BD
:1019D80080B485B000AF786039607B68FB600C4AE2
:1019E8003B6813441B781A46FB6813441B68084974
:1019F8003A680A4412781146FA680A4443F0010327
:101A0800136000BF1437BD465DF8047B704700BF04
:101A1800ECF8000880B485B000AF786039607B6866
:101A2800FB600C4A3B6813441B781A46FB68134456
:101A38001B6808493A680A4412781146FA680A4449
:101A480023F00103136000BF1437BD465DF8047B23
:101A5800704700BFECF8000880B485B000AF78602C
:101A680039607B68FB60084A3B6813441B781A4658
:101A7800FB6813441B6803F0200318461437BD465F
:101A88005DF8047B704700BFECF8000880B487B0AD
:101A980000AFF860B9607A60FB687B610D4ABB688B
:101AA80013441B781A467B6913445B681B0C1B04A0
:101AB8000849BA680A44127811467A690A441146F4
:101AC8007A6813434B6000BF1C37BD465DF8047B42
:101AD800704700BFECF8000880B487B000AFF8602A
:101AE800B9607A603B60FB687B613B6A102B14D15C
:101AF800174ABB6813441B781A467B6913441A4675
:101B08007B68D360124ABB6813441B781A467B690A
:101B180013441A463B68936013E00D4ABB681344AC
:101B28001B781A467B6913441A467B689360084AF7
:101B3800BB6813441B781A467B6913441A463B68F2
:101B4800D36000BF1C37BD465DF8047B704700BFFB
:101B5800ECF8000880B487B000AFF860B9607A602C
:101B6800FB687B61074ABB6813441B781A467B698C
:101B780013441A467B68936000BF1C37BD465DF866
:101B8800047B7047ECF8000880B483B000AF78603D
:101B98007B681B6803F02003202B01D1012300E0A0
:101BA800002318460C37BD465DF8047B704780B4A7
:101BB80083B000AF78607B6820225A6000BF0C3782
:101BC800BD465DF8047B704780B485B000AF78608F
:101BD80039607B68FB600C4A3B6813441B781A46E3
:101BE800FB6813441B6808493A680A44127811468E
:101BF800FA680A4443F00203136000BF1437BD4675
:101C08005DF8047B704700BFECF8000880B485B02D
:101C180000AF786039607B68FB600C4A3B6813440E
:101C28001B781A46FB6813441B6808493A680A443B
:101C380012781146FA680A4443F00803136000BF9B
:101C48001437BD465DF8047B704700BFECF8000808
:101C580080B485B000AF786039607B68FB600C4A5F
:101C68003B6813441B781A46FB6813441B680849F1
:101C78003A680A4412781146FA680A4423F00203C3
:101C8800136000BF1437BD465DF8047B704700BF82
:101C9800ECF8000880B485B000AF786039607B68E4
:101CA800FB600C4A3B6813441B781A46FB681344D4
:101CB8001B6808493A680A4412781146FA680A44C7
:101CC80023F00403136000BF1437BD465DF8047B9E
:101CD800704700BFECF8000880B485B000AF7860AA
:101CE80039607B68FB600C4A3B6813441B781A46D2
:101CF800FB6813441B6808493A680A44127811467D
:101D0800FA680A4423F00803136000BF1437BD467D
:101D18005DF8047B704700BFECF8000880B485B01C
:101D280000AF786039607B68FB600A4A3B681344FF
:101D38001B781A46FB6813441B6803F00203022B46
:101D480001D1012300E0002318461437BD465DF891
:101D5800047B7047ECF8000880B584B000AF786069
:101D68000123FB817B681B691846FFF79BFC034630
:101D7800002B2FD07B685B7ADBB2022B11D07B68FB
:101D88005B7ADBB2042B0CD07B685B7ADBB2082B66
:101D980007D07B681B691846FFF760FD0346012BD7
:101DA80018D1786800F0F2F80346002B12D17B684E
:101DB8005B7ADBB2082B03D17B6801225A7202E0FE
:101DC8007B6820225A727B681B691846FFF71EFD44
:101DD8000023FB81FB8918461037BD4680BD80B5BE
:101DE80086B002AFF860B9607A603B600021F8689D
:101DF800FFF740FC03461A467968B868FFF7AAFE61
:101E08000021F868FFF736FC02463B680021009184
:101E18007968B868FFF760FEBA697968B868FFF74B
:101E280035FE7968B868FFF7CFFE7968B868FFF7BC
:101E3800EDFE7968B868FFF7CBFD00BF1037BD46E7
:101E480080BD80B584B000AFF860B9607A60796809
:101E5800B868FFF7DFFD7968B868FFF71BFF796896
:101E6800B868FFF739FF7968B868FFF7F1FE002214
:101E78007968B868FFF70AFE00BF1037BD4680BD15
:101E880080B582B000AF786039607B68DB79012B60
:101E98000DD17B68DA687B681B685B00D1187B68AA
:101EA8001B685B001A4638680DF0D0FC08E07B68B8
:101EB800D9687B681B685B001A4638680DF0C6FC59
:101EC80000BF0837BD4680BD80B586B000AFF8605A
:101ED800B9607A60FB685A69FB689B7919461046B5
:101EE800FFF71CFF0346DBB2012B37D1FB685A69A9
:101EF800BB68104698470346012B2FD1FB68042284
:101F08005A72FB685A697B6810469847FB685A6999
:101F1800FB689B7919461046FFF79EFD0346002B88
:101F280019D1FB685A69FB689B7919461046FFF777
:101F380071FDFB685869FB689B791946FB681B684B
:101F48001A46FFF7A3FDFB685A69FB689B79194697
:101F58001046FFF73DFD0123FB7501E00023FB75EB
:101F6800FB7D18461837BD4680BD000080B500AF20
:101F7800034A04490448FFF7A7FF00BF80BD00BF1C
:101F8800B71B0008911B00086C05002080B582B0C3
:101F980000AF78607B681B691846FFF772FC034640
:101FA800DBB2012B07D17B681B691846FFF77CFC65
:101FB8007B6810225A727B685B7ADBB2102B0CBFED
:101FC80001230023DBB218460837BD4680BD80B523
:101FD80082B000AF78600B46FB70FB78012B0DD107
:101FE8007B681B691846FFF75DFB0346012B12D07F
:101FF8007B681B691846FFF709FC0CE07B681B69C6
:102008001846FFF788FB0346012B04D07B681B6941
:102018001846FFF70FFC00BF0837BD4680BD00001B
:1020280090B589B002AFF860084611461A460346D3
:102038007B810B463B811346FB8000237B61FB6859
:102048001B693C4A934201D13B4B7B617B69002B66
:102058006BD0FB681A697B691A617B690022DA71A7
:10206800FB88012B61D03B89002B47D07B695B7AC9
:10207800DBB2082B42D0FB68DA687B69DA60FB6860
:102088001A687B691A60FB685A697B695A61FB6840
:102098009A797B699A71FB681A797B691A717B69ED
:1020A8001B69B96A1846FFF710FB7B89012B21D001
:1020B8007B89042B16D17B691B6903211846FFF71E
:1020C80017FB7B6918697B6959697B699B791C4691
:1020D8007B69DA687B691B68009313462246FFF721
:1020E8007EFE07E07B89022B04D17B691B691846B9
:1020F800FFF7E7FB7B6908225A7216E03B89002B41
:1021080013D17B699B7ADBB2082B0ED0FB685A7916
:102118007B695A717B89022B04D17B691B6918463C
:10212800FFF7DFFB7B6908229A727B6918461C3728
:10213800BD4690BD000104506C05002080B582B0FA
:1021480000AF78607B681B691846FFF71FFB0346E2
:10215800002B04D17B681B691846FFF7EFFA00BF14
:102168000837BD4680BD80B586B000AFF8600B4625
:102178007A607B810123FB82FB681B69002B46D0B8
:102188007B89012B05D1F868FFF7E6FD0346FB8242
:102198003DE07B89042B1FD1FB681B691846FFF7BC
:1021A80081FA0346002B32D0FB6801225A72FB6881
:1021B8001B691846FFF72AFB00BFFB685B7ADBB296
:1021C800042BFAD17968F868FFF75AFEFB680822F1
:1021D8005A720023FB821AE07B89022B17D1FB6815
:1021E8005B7ADBB2202B09D0FB685B7ADBB2042B6D
:1021F80004D0FB685B7ADBB2102B08D1FB6808229D
:102208005A727968F868FFF73BFE0023FB82FB8A65
:1022180018461837BD4680BD80B582B000AF7860DB
:102228000B467B8013463B807B681B691846FFF78B
:10223800ADFA0346002B04D07B681B691846FFF7EC
:1022480091FA7B681B691846FFF7AEFB0346002B23
:1022580004D07B681B691846FFF783FB7B681B6902
:102268001846FFF78EFB0346002B04D07B681B69DA
:102278001846FFF756FB3B88002B35D07B680022B9
:10228800DA607B6800221A607B6800225A617B68EA
:1022980000229A717B6800221A717B681A697B6830
:1022A8001B7919461046FFF710FA7B88012B26D0B8
:1022B8007B88022B05D17B681B691846FFF721FB39
:1022C8001DE07B88042B1AD17B6818697B685969E3
:1022D8007B689B791A46FFF7B4FD7B681B69002170
:1022E8001846FFF705FA0AE07B6800225A717B88D6
:1022F800022B04D17B681B691846FFF722FB00BF3D
:102308000837BD4680BD000080B584B000AF786056
:102318000B46FB707B681B691846FFF737FA0346C4
:10232800FB7397F90F30012B04D17B681B691846A2
:10233800FFF718FAFB78002B0FD17B681B697F2108
:102348001846FFF736FA00BF7B681B691846FFF787
:1023580049FA0346012BF7D040E0FB78012B0FD157
:102368007B681B692C491846FFF723FA00BF7B6876
:102378001B691846FFF736FA0346012BF7D02DE004
:102388007B681B697F211846FFF713FA00BF7B683B
:102398001B691846FFF726FA0346012BF7D00023DE
:1023A800BB8107E000BFBB891BB29BB201339BB264
:1023B8001BB2BB81BB891BB29BB2032BF2D97B68D2
:1023C8001B6915491846FFF7F4F900BF7B681B69BC
:1023D8001846FFF707FA0346012BF7D00023BB8105
:1023E80007E000BFBB891BB29BB201339BB21BB293
:1023F800BB81BB891BB29BB2032BF2D997F90F3073
:10240800012B04D17B681B691846FFF797F900BFB9
:102418001037BD4680BD00BF00007F4080B483B048
:1024280000AF78607B681B6843F001027B681A6024
:1024380000BF0C37BD465DF8047B704780B483B09D
:1024480000AF78607B681B6823F001027B681A6024
:1024580000BF0C37BD465DF8047B704780B483B07D
:1024680000AF786039607B681B6823F004023B6822
:102478001A437B681A6000BF0C37BD465DF8047BC1
:10248800704780B483B000AF78607B681B6803F046
:10249800040318460C37BD465DF8047B704780B4CA
:1024A80083B000AF786039607B683A681A6300BF10
:1024B8000C37BD465DF8047B704780B483B000AF2D
:1024C800786039607B683A685A6300BF0C37BD464C
:1024D8005DF8047B704780B483B000AF78603960E2
:1024E8007B683A689A6300BF0C37BD465DF8047B89
:1024F800704780B483B000AF786039607B683A6811
:10250800DA6300BF0C37BD465DF8047B704780B4C2
:1025180083B000AF786039607B683A681A6400BF9E
:102528000C37BD465DF8047B704780B483B000AFBC
:1025380078607B685B6B18460C37BD465DF8047B9A
:10254800704780B483B000AF78607B689B6B184697
:102558000C37BD465DF8047B704780B483B000AF8C
:1025680078607B68DB6B18460C37BD465DF8047BEA
:10257800704780B483B000AF78607B681B6C1846E6
:102588000C37BD465DF8047B704780B483B000AF5C
:1025980078607B685B6943F001027B685A6100BF21
:1025A8000C37BD465DF8047B704780B483B000AF3C
:1025B80078607B681B6918460C37BD465DF8047B5C
:1025C800704780B483B000AF786039607B683A6840
:1025D8009A6100BF0C37BD465DF8047B704780B434
:1025E80083B000AF786039607B683A689A6200BF50
:1025F8000C37BD465DF8047B704780B582B000AFEC
:10260800786039607B681B681846FFF78EFF0246C2
:102618003B68934205D07B681B6839681846FFF70A
:102628004CFF00BF0837BD4680BD80B582B000AF03
:10263800786039607B681B681846FFF782FF02469E
:102648003B68934205D07B681B6839681846FFF7DA
:1026580042FF00BF0837BD4680BD80B582B000AFDD
:10266800786039607B681B681846FFF776FF02467A
:102678003B68934205D07B681B6839681846FFF7AA
:1026880038FF00BF0837BD4680BD80B582B000AFB7
:10269800786039607B681B681846FFF76AFF024656
:1026A8003B68934205D07B681B6839681846FFF77A
:1026B8002EFF00BF0837BD4680BD000080B485B03E
:1026C80000AF78607B681B689A68074B1340FB6013
:1026D800FB68062B0CBF01230023DBB21846143716
:1026E800BD465DF8047B70470700010080B584B0E3
:1026F80000AF78600B46FB707B681B681846FFF7D5
:10270800C0FEF860FB78002B1ED07B681B68324A3D
:10271800934213D07B681B68304A93420ED07B6883
:102728001B682F4A934209D07B681B682D4A934245
:1027380004D07B681B682C4A934205D17B681B68D0
:1027480000211846FFF7ABFEFB68042B11D07B680D
:102758001B6804211846FFF781FE7B681B68184632
:10276800FFF713FF7B681B68F9681846FFF776FECA
:1027780004E07B681B681846FFF707FF7B681B6847
:102788001846FFF74BFEFB78002B20D07B681B68B0
:10279800114A934213D07B681B68104A93420ED0AB
:1027A8007B681B680E4A934209D07B681B680D4AF8
:1027B800934204D07B681B680B4A934207D17B681D
:1027C8001A687B685B7919461046FFF768FE00BFF8
:1027D8001037BD4680BD00BF002C014000340140C9
:1027E80000400140004401400048014080B582B0EB
:1027F80000AF78607B681B681846FFF71FFE00BFB4
:102808000837BD4680BD80B485B000AF78603960B8
:102818007B68012283F8D8203B68D3E900237968D4
:10282800C1E902237B6801221A600023FB600CE0E7
:102838007B68D3E902237868F9680231C90001444A
:10284800C1E90023FB680133FB60FB68182BEFDD4F
:1028580000BF00BF1437BD465DF8047B704780B5E4
:1028680086B000AF87ED040BF860B9607A60BB688A
:10287800D3E902017B68D3E90023FEF7C5F80346D4
:10288800002B05D17B68D3E90023B968C1E902238D
:10289800F868BB681033C82219460CF0D7FFF968EE
:1028A800D7E90423C1E93223FB6803F1D000BB68F0
:1028B8001033C02219460CF0C9FFBB6803F11000A1
:1028C800FB68C833C82219460CF0C0FF00BF183790
:1028D800BD4680BD80B485B000AF786039607B6844
:1028E800012283F860203B68D3E900237968C1E9B5
:1028F80002237B6801221A600023FB600CE07B68DE
:10290800D3E902237868F9680231C9000144C1E9B2
:102918000023FB680133FB60FB68092BEFDD00BF78
:1029280000BF1437BD465DF8047B704780B586B09C
:1029380000AF87ED040BF860B9607A60BB68D3E933
:1029480002017B68D3E90023FEF75EF80346002BFB
:1029580005D17B68D3E90023B968C1E90223F86887
:10296800BB681033502219460CF070FFF968D7E99C
:102978000423C1E91423FB6803F15800BB68103332
:10298800482219460CF062FFBB6803F11000FB688F
:102998005033502219460CF059FF00BF1837BD4676
:1029A80080BD000080B58CB002AF78607B680022E3
:1029B8001A727B6801225A600123BB731B4BFB61AF
:1029C8007B6810337B611A4BBB6100237B7309233F
:1029D800BB600423FB840423BB8408233B620923D4
:1029E8003B73BA8CF98C07F108003B6A00931346D5
:1029F8000122FFF715FB02467B68DA607B68DB681B
:102A080002211846FFF780FC7B68DB681846FFF751
:102A180095FB7B68DB6801211846FFF7D8FA7B68CD
:102A280001221A7200BF2837BD4680BD000002404F
:102A38000001045080B5A6B000AF78607B68012221
:102A48005A60214BBB6000233B7300237B7307F163
:102A580008031846FEF774FD02467B68DA607B6857
:102A6800DB6800211846FEF726FA022387F897301C
:102A78007B68DB6897F8972011461846FEF790FCAC
:102A8800022387F897307B68DB6897F89720114610
:102A98001846FEF72DFD7B68DB681846FFF70EFE2B
:102AA800034687F8963097F89630002B05D17B6857
:102AB800DB6800211846FFF719FE7B6801221A72AD
:102AC80000BF9837BD4680BD0004004080B5A6B061
:102AD80000AF78607B6801225A60214BBB600023FD
:102AE8003B7300237B7307F108031846FEF728FDA4
:102AF80002467B68DA607B68DB6800211846FEF7CF
:102B0800DAF9022387F897307B68DB6897F8972013
:102B180011461846FEF704FB022387F897307B68B6
:102B2800DB6897F8972011461846FEF799FB7B68F3
:102B3800DB681846FFF7C2FD034687F8963097F81A
:102B48009630002B05D17B68DB6800211846FFF71B
:102B5800CDFD7B6801221A7200BF9837BD4680BD43
:102B68000004004000000000B0B5ACB000AF002386
:102B7800C7F88C3010E0974AD7F88C301A440023F5
:102B880013709549D7F88C20002321F81230D7F814
:102B98008C300133C7F88C30D7F88C30072BEADD3E
:102BA8008E4A002313608E4A002313600423A7F87B
:102BB8008A308C4BD868B7F88A308B4A1946FFF7A9
:102BC800D2FA894BDB89894AA2F84030864B1B88A8
:102BD800864AA2F84E30844B9B89844AA2F8423038
:102BE800814B5B88814AA2F84C307F4B5B897F4AD6
:102BF800A2F844307C4B9B887C4AA2F84A307A4B36
:102C08001B897A4AA2F84630774BDB88774AA2F8C4
:102C180048300023C7F88C3014E0744AD7F88C3059
:102C2800203332F813301846FDF70CFC6F4AD7F8FA
:102C38008C30DB001344C3E90001D7F88C30013332
:102C4800C7F88C30D7F88C30072BE6DD674B93ED4F
:102C5800007B674A67496848B0EE470AF0EE670AA2
:102C6800FFF7FDFD614B03F5D963D3E900235F4905
:102C7800C1E914230023C7F88C301EE0D7F88C3044
:102C880001335A4AD933DB001344D3E90023C7E997
:102C98002023564BD3E91423D7E92001FDF7DCFEA6
:102CA8000346002B04D05149D7E92023C1E9142356
:102CB800D7F88C300133C7F88C30D7F88C30172B05
:102CC800DCDD4A4B93ED027B4C4A4D494D48B0EE52
:102CD800470AF0EE670AFFF729FE444B03F608534C
:102CE800D3E90023C7E92A230023C7F88C301DE065
:102CF800D7F88C3001333D4A03F2A113DB001344AB
:102D0800D3E90023C7E92023D7E92023D7E92A01FB
:102D1800FDF784FE0346002B03D0D7E92023C7E93B
:102D28002A23D7F88C300133C7F88C30D7F88C3089
:102D3800082BDDDD344A3549354897ED2A0BFFF776
:102D48008EFD2A4B03F6D873D3E900232749C1E93E
:102D580016230023C7F88C301FE0D7F88C300133D6
:102D6800224A03F2FB13DB001344D3E90023C7E92B
:102D780020231E4BD3E91623D7E92001FDF74EFE89
:102D88000346002B04D01949D7E92023C1E91623AB
:102D9800D7F88C300133C7F88C30D7F88C30172B24
:102DA800DBDD124B93ED047B1A4A1B491B48B0EE3E
:102DB800470AF0EE670AFFF752FD0C4B03F658037B
:102DC800D3E900230949C1E918230023C7F88C3047
:102DD80046E000BF182100209C050020AC0500201B
:102DE800202100202817002024210020C0050020D1
:102DF80050000020081B0020880C002070000020D4
:102E0800881E0020C81200208800002038200020DA
:102E18009815002058000020E81B0020180E0020FC
:102E2800D7F88C300133A84A03F20B13DB001344A4
:102E3800D3E90023C7E92023A34BD3E91823D7E913
:102E48002001FDF709FE0346002B04D09E49D7E96F
:102E58002023C1E91823D7F88C300133C7F88C3008
:102E6800D7F88C30172BDBDD974B93ED067B974A11
:102E780097499848B0EE470AF0EE670AFFF7EFFC6B
:102E8800914B03F5A763D3E900238F49C1E91A23BE
:102E98000023C7F88C301EE0D7F88C3001338A4AFB
:102EA800A733DB001344D3E90023C7E92023864B6B
:102EB800D3E91A23D7E92001FDF7CEFD0346002BFD
:102EC80004D08149D7E92023C1E91A23D7F88C30E7
:102ED8000133C7F88C30D7F88C30172BDCDD7A4BF0
:102EE80093ED087B7C4A7D497D48B0EE470AF0EEB9
:102EF800670AFFF7B4FC744BD3E9EA237249C1E9C6
:102F08001C230023C7F88C301EE0D7F88C3001331F
:102F18006D4A7533DB001344D3E90023C7E9202346
:102F2800694BD3E91C23D7E92001FDF795FD03463A
:102F3800002B04D06449D7E92023C1E91C23D7F822
:102F48008C300133C7F88C30D7F88C30172BDCDD88
:102F58005D4B93ED0A7B634A63496448B0EE470AC8
:102F6800F0EE670AFFF77BFC574BD3E986235649F7
:102F7800C1E91E230023C7F88C301EE0D7F88C3037
:102F88000133514A4333DB001344D3E90023C7E933
:102F980020234D4BD3E91E23D7E92001FDF75CFD23
:102FA8000346002B04D04849D7E92023C1E91E2352
:102FB800D7F88C300133C7F88C30D7F88C30172B02
:102FC800DCDD414B93ED0C7B494A4A494A48B0EE57
:102FD800470AF0EE670AFFF7A9FC3B4B03F6A85334
:102FE800D3E90023C7E928230023C7F88C301DE064
:102FF800D7F88C300133344A03F2B513DB0013449D
:10300800D3E90023C7E92023D7E92023D7E92801FA
:10301800FDF704FD0346002B03D0D7E92023C7E9B9
:103028002823D7F88C300133C7F88C30D7F88C3088
:10303800082BDDDD314A3249324897ED280BFFF77E
:103048000EFC214B03F64863D3E90023C7E9242388
:103058000023C7F88C301DE0D7F88C3001331A4AAA
:1030680003F2C913DB001344D3E90023C7E9202383
:10307800D7E92023D7E92401FDF7EEFC0346002B0E
:1030880003D0D7E92023C7E92423D7F88C300133AC
:10309800C7F88C30D7F88C30172BDDDD0A4B93ED51
:1030A8000E7B194A19491A48B0EE470AF0EE670A2A
:1030B800FFF7D5FB044BD3E92223C7E926230023D6
:1030C800C7F88C3043E000BFC0050020480000204E
:1030D800281A0020F80A0020400000204819002083
:1030E800680900203800002068180020D807002050
:1030F80078000020F01E00206813002080000020C7
:10310800581F0020081400203000002088170020D5
:1031180048060020D7F88C300133BD4A1133DB0054
:103128001344D3E90023C7E92023D7E92023D7E9AB
:103138002601FDF773FC0346002B03D0D7E92023B3
:10314800C7E92623D7F88C300133C7F88C30D7F875
:103158008C30172BDEDDAE4B93ED147BB0EE470AB7
:10316800F0EE670A0CF040F9B0EE407AF0EE607AC3
:103178009FEDA51BB0EE470AF0EE670A0CF0B8F910
:1031880087ED200B4FF000024FF00003D7E9200134
:10319800FDF744FC0346002B0ED0D7F88040D7F843
:1031A800843083F0004520462946FDF775FC034628
:1031B8009BB25B429BB205E0D7E92001FDF76CFCAE
:1031C80003469BB2934A1380914B93ED167BB0EE66
:1031D800470AF0EE670A0CF007F9B0EE407AF0EE15
:1031E800607A9FED891BB0EE470AF0EE670A0CF093
:1031F8007FF987ED200B4FF000024FF00003D7E96D
:103208002001FDF70BFC0346002B10D0D7F88030C7
:103218003B67D7F8843083F000437B67D7E91C010C
:10322800FDF73AFC03469BB25B429BB205E0D7E947
:103238002001FDF731FC03469BB2764A5380744B5C
:1032480093ED187BB0EE470AF0EE670A0CF0CCF865
:10325800B0EE407AF0EE607A9FED6B1BB0EE470A55
:10326800F0EE670A0CF044F987ED200B4FF00002EE
:103278004FF00003D7E92001FDF7D0FB0346002BF0
:1032880010D0D7F88030BB66D7F8843083F000437D
:10329800FB66D7E91A01FDF7FFFB03469BB25B42C9
:1032A8009BB205E0D7E92001FDF7F6FB03469BB288
:1032B800584A9380564B93ED1A7BB0EE470AF0EECE
:1032C800670A0CF091F8B0EE407AF0EE607A9FED64
:1032D8004E1BB0EE470AF0EE670A0CF009F987EDCD
:1032E800200B4FF000024FF00003D7E92001FDF753
:1032F80095FB0346002B10D0D7F880303B66D7F8F3
:10330800843083F000437B66D7E91801FDF7C4FBDE
:1033180003469BB25B429BB205E0D7E92001FDF76B
:10332800BBFB03469BB23B4AD380394B93ED1C7BD6
:10333800B0EE470AF0EE670A0CF056F8B0EE407AA5
:10334800F0EE607A9FED301BB0EE470AF0EE670AA8
:103358000CF0CEF887ED200B4FF000024FF0000381
:10336800D7E92001FDF75AFB0346002B10D0D7F808
:103378008030BB65D7F8843083F00043FB65D7E91C
:103388001601FDF789FB03469BB25B429BB205E041
:10339800D7E92001FDF780FB03469BB21D4A138144
:1033A8001B4B93ED1E7BB0EE470AF0EE670A0CF05C
:1033B8001BF8B0EE407AF0EE607A9FED131BB0EE8A
:1033C800470AF0EE670A0CF093F887ED200B4FF0F0
:1033D80000024FF00003D7E92001FDF71FFB034669
:1033E800002B19D0D7F880303B65D7F8843083F0AC
:1033F80000437B65D7E91401FDF74EFB03469BB2FA
:103408005B429BB20EE000BF000000000000F040ED
:10341800C005002088050020D7E92001FDF73CFB06
:1034280003469BB2A44A538197ED240B0BF0DCFFB3
:10343800B0EE407AF0EE607A9FED9D1BB0EE470A41
:10344800F0EE670A0CF054F887ED200B4FF00002FD
:103458004FF00003D7E92001FDF7E0FA0346002BFF
:1034680010D0D7F88030BB64D7F8843083F000439D
:10347800FB64D7E91201FDF70FFB03469BB25B42E1
:103488009BB205E0D7E92001FDF706FB03469BB296
:10349800894A938197ED260B0BF0A6FFB0EE407A90
:1034A800F0EE607A9FED821BB0EE470AF0EE670AF5
:1034B8000CF01EF887ED200B4FF000024FF00003D0
:1034C800D7E92001FDF7AAFA0346002B10D0D7F858
:1034D80080303B64D7F8843083F000437B64D7E9BD
:1034E8001001FDF7D9FA03469BB25B429BB205E097
:1034F800D7E92001FDF7D0FA03469BB26E4AD38183
:103508006E4B5B8C6C4A13826D4B03F5D963D3E920
:1035180000236B49C1E916230023C7F88C301EE04D
:10352800D7F88C300133664AD933DB001344D3E92A
:103538000023C7E92023624BD3E91623D7E92001EA
:10354800FDF76CFA0346002B04D05D49D7E9202328
:10355800C1E91623D7F88C300133C7F88C30D7F877
:103568008C30172BDCDD564B93ED027B554A5649C0
:103578005648B0EE470AF0EE670AFFF770F9504B6D
:1035880003F67833D3E90023C7E924230023C7F8D7
:103598008C301DE0D7F88C300133494A03F26F13A1
:1035A800DB001344D3E90023C7E92023D7E920230C
:1035B800D7E92401FDF750FA0346002B03D0D7E9D9
:1035C8002023C7E92423D7F88C300133C7F88C307F
:1035D800D7F88C30172BDDDD394B03F65803D3E9C8
:1035E80000233749C1E918230023C7F88C301FE0AE
:1035F800D7F88C300133324A03F20B13DB00134443
:10360800D3E90023C7E920232D4BD3E91823D7E9B1
:103618002001FDF703FA0346002B04D02849D7E917
:103628002023C1E91823D7F88C300133C7F88C3030
:10363800D7F88C30172BDBDD214B03F5A763D3E9D3
:1036480000231F49C1E91A230023C7F88C301EE064
:10365800D7F88C3001331A4AA733DB001344D3E977
:103668000023C7E92023164BD3E91A23D7E9200101
:10367800FDF7D4F90346002B04D01149D7E92023DC
:10368800C1E91A23D7F88C300133C7F88C30D7F842
:103698008C30172BDCDD0A4BD3E9EA230849C1E952
:1036A8001C230023C7F88C3031E000BFAFF3008043
:1036B800000000000000F040880500200000002005
:1036C800C005002068000020A81D00203811002037
:1036D800D7F88C300133AE4A7533DB001344D3E995
:1036E8000023C7E92023AA4BD3E91C23D7E92001EB
:1036F800FDF794F90346002B04D0A549D7E9202308
:10370800C1E91C23D7F88C300133C7F88C30D7F8BF
:103718008C30172BDCDD9E4BD3E986239C49C1E90D
:103728001E230023C7F88C301EE0D7F88C300133F5
:10373800974A4333DB001344D3E90023C7E9202326
:10374800934BD3E91E23D7E92001FDF767F9034618
:10375800002B04D08E49D7E92023C1E91E23D7F8CE
:103768008C300133C7F88C30D7F88C30172BDCDD60
:10377800874B93ED0C7B874A87498848B0EE470A08
:10378800F0EE670AFFF76BF8814B03F6E813D3E90D
:103798000023C7E926230023C7F88C301DE0D7F89B
:1037A8008C3001337A4A03F23D13DB001344D3E92A
:1037B8000023C7E92023D7E92023D7E92601FDF70D
:1037C8004BF90346002B03D0D7E92023C7E926236A
:1037D800D7F88C300133C7F88C30D7F88C30172BDA
:1037E800DDDD6B4BD3E922236949C1E914230023AA
:1037F800C7F88C301EE0D7F88C300133644A113397
:10380800DB001344D3E90023C7E92023604BD3E945
:103818001423D7E92001FDF701F90346002B04D052
:103828005B49D7E92023C1E91423D7F88C30013349
:10383800C7F88C30D7F88C30172BDCDD544B93ED60
:10384800167BB0EE470AF0EE670A0BF0CDFDB0EE3E
:10385800407AF0EE607A9FED4C1BB0EE470AF0EE2E
:10386800670A0BF045FE87ED200B4FF000024FF082
:103878000003D7E92001FDF7D1F80346002B10D04B
:10388800D7F88030BB63D7F8843083F00043FB63FC
:10389800D7E90E01FDF700F903469BB25B429BB2E4
:1038A80005E0D7E92001FDF7F7F803469BB23C4A4B
:1038B800138097ED240B0BF097FDB0EE407AF0EEF5
:1038C800607A9FED311BB0EE470AF0EE670A0BF005
:1038D8000FFE87ED200B4FF000024FF00003D7E9F1
:1038E8002001FDF79BF80346002B10D0D7F8803055
:1038F8003B63D7F8843083F000437B63D7E90C013E
:10390800FDF7CAF803469BB25B429BB205E0D7E9D4
:103918002001FDF7C1F803469BB2214A53801C4B96
:1039280093ED187BB0EE470AF0EE670A0BF05CFDEA
:10393800B0EE407AF0EE607A9FED131BB0EE470AC6
:10394800F0EE670A0BF0D4FD87ED200B4FF0000274
:103958004FF00003D7E92001FDF760F80346002B7C
:1039680020D0D7F88030BB62D7F8843083F000438A
:10397800FB62D7E90A01FDF78FF803469BB25B4269
:103988009BB215E0AFF30080000000000000F0409B
:10399800C005002060000020C81C0020A80F0020DF
:1039A80044210020D7E92001FDF776F803469BB2B1
:1039B8008F4A93808F4B93ED1A7BB0EE470AF0EE57
:1039C800670A0BF011FDB0EE407AF0EE607A9FEDD9
:1039D800861BB0EE470AF0EE670A0BF089FD87ED0B
:1039E800200B4FF000024FF00003D7E92001FDF74C
:1039F80015F80346002B10D0D7F880303B62D7F873
:103A0800843083F000437B62D7E90801FDF744F86E
:103A180003469BB25B429BB205E0D7E92001FDF764
:103A28003BF803469BB2724AD380724B93ED1C7BE2
:103A3800B0EE470AF0EE670A0BF0D6FCB0EE407A1B
:103A4800F0EE607A9FED681BB0EE470AF0EE670A69
:103A58000BF04EFD87ED200B4FF000024FF00003F6
:103A6800D7E92001FCF7DAFF0346002B10D0D7F87E
:103A78008030BB61D7F8843083F00043FB61D7E91D
:103A88000601FDF709F803469BB25B429BB205E0CD
:103A9800D7E92001FDF700F803469BB2544A138189
:103AA800544B93ED1E7BB0EE470AF0EE670A0BF01D
:103AB8009BFCB0EE407AF0EE607A9FED4B1BB0EEC7
:103AC800470AF0EE670A0BF013FD87ED200B4FF065
:103AD80000024FF00003D7E92001FCF79FFF0346DF
:103AE800002B10D0D7F880303B61D7F8843083F0B2
:103AF80000437B61D7E90401FCF7CEFF03469BB284
:103B08005B429BB205E0D7E92001FCF7C5FF0346FD
:103B18009BB2374A538197ED260B0BF065FCB0EE4C
:103B2800407AF0EE607A9FED301BB0EE470AF0EE77
:103B3800670A0BF0DDFC87ED200B4FF000024FF019
:103B48000003D7E92001FCF769FF0346002B10D0DA
:103B5800D7F88030BB60D7F8843083F00043FB602F
:103B6800D7E90201FCF798FF03469BB25B429BB280
:103B780005E0D7E92001FCF78FFF03469BB21C4AFA
:103B880093811C4B93ED147BB0EE470AF0EE670A65
:103B98000BF02AFCB0EE407AF0EE607A9FED121B33
:103BA800B0EE470AF0EE670A0BF0A2FC87ED200B97
:103BB8004FF000024FF00003D7E92001FCF72EFF79
:103BC8000346002B18D0D7F880303B60D7F88430F4
:103BD80083F000437B60D7E90001FCF75DFF0346F3
:103BE8009BB25B429BB20DE0000000000000F04079
:103BF80044210020C0050020D7E92001FCF74CFF34
:103C080003469BB2A94AD381A94B9A8CA74B1A8227
:103C1800A84BFB670021F86FFEF7D3FC4FF4007147
:103C2800F86FFEF7DCFCA34BFB670021F86FFEF78B
:103C3800C8FC4FF48041F86FFEF7D1FC9D4BFB6741
:103C48000021F86FFEF7BDFC4FF48071F86FFEF7A6
:103C5800C6FC984BFB670021F86FFEF7B2FC4FF4E7
:103C68000041F86FFEF7BBFC924BFB670021F86F31
:103C7800FEF7A7FC4FF48051F86FFEF7B0FC8E4BAF
:103C8800FB670021F86FFEF79CFC4FF48051F86F3A
:103C9800FEF7A5FC874BFB670021F86FFEF791FC48
:103CA8004FF40051F86FFEF79AFC824BFB67002136
:103CB800F86FFEF786FC4FF40061F86FFEF78FFC93
:103CC8007E4B93F85830062B07D87C4B93F8583026
:103CD8000133DAB2794B83F85820784B93F8543093
:103CE80003F01003DBB2002B0ED1744A92F8543063
:103CF80043F0100382F85430704A92F8543043F07D
:103D0800030382F8543046E06C4B93F85430C3F305
:103D18000103DBB2012B02D0022B39D02BE0674B19
:103D280093F8543003F00C03DBB2042B11D1634B2E
:103D380093F85830042B2DD9604A92F85430022158
:103D480061F3830382F854305C4B002283F85820D7
:103D580020E05A4B93F85830042B1BD9574A92F855
:103D68005430012161F3830382F85430534B00220D
:103D780083F858200EE0524B93F88030002B0CBF8C
:103D880001230023DBB21A464D4B83F8802002E062
:103D980000BF00E000BF4B4BFB67454BD3E9000178
:103DA8004FF000024FF00003FCF72EFE0346002BF5
:103DB80003D18023C7F88C3002E00023C7F88C3089
:103DC800D7F88C301946F86FFEF7FBFBD7F88C3024
:103DD800DB4303F080031946F86FFEF700FC374B0E
:103DE8001B6D00211846FDF723FCB867334B1B6D8C
:103DF800B96F1846FEF731FC304B1B6D0021184691
:103E0800FDF716FCB8672D4B1B6DB96F1846FEF70A
:103E18003CFC2A4B1B6C00211846FDF709FCB867CF
:103E2800264B1B6CB96F1846FEF7E7FB234B1B6C40
:103E380000211846FDF7FCFBB867204B1B6CB96FD7
:103E48001846FEF7F2FB204BFB670021F86FFEF7E0
:103E5800B8FB4FF40051F86FFEF7C1FB1A4BFB6734
:103E68000021F86FFEF7ADFB4FF48041F86FFEF7C5
:103E7800B6FB154BFB670021F86FFEF7A2FB4FF46A
:103E88000041F86FFEF7ABFB0B4BFB67084BD3E920
:103E980002014FF000024FF00003FCF7B5FD0346A6
:103EA800002B13D10823C7F88C3012E044210020DE
:103EB80000000020001000480004004828170020D7
:103EC800C0050020000C0048000800480023C7F87F
:103ED8008C30D7F88C301946F86FFEF772FBD7F89C
:103EE8008C30DB4303F008031946F86FFEF777FBC5
:103EF800084BFB67F86FFEF758FB074BFB67F86F3B
:103F0800FEF753FB00F0CAFA00F0DEFB00BFB03743
:103F1800BD46B0BD001000480004004880B582B01E
:103F280000AF00237B6010E0504B93F82C10504AF0
:103F38007B6813440A461A704C4B198C4D4A7B68AF
:103F480022F813107B6801337B607B68072BEBDD5D
:103F5800464B1B69484A1360444B5B69474A1360E8
:103F680000237B6014E0414BD98C454A7B6822F8DA
:103F780013103E4B198D434A7B6822F813103B4BB4
:103F8800598D414A7B6822F813107B6801337B60A6
:103F98007B68082BE7DD354B9B693C4A1360334B44
:103FA800DB693B4A1360314B9B69384A53602F4B9E
:103FB800DB69374A53602D4B9B69344A93602B4B1E
:103FC800DB69334A936000F0FDFA324B00225A60F5
:103FD800304B00221A702F48FEF7E4FC2E492F4878
:103FE800FEF711FC2E492F48FEF774FC2E492F4886
:103FF800FEF709FC2E492F48FEF705FC2E492F48ED
:10400800FEF701FC2E492F48FEF7FDFB2E492F48ED
:10401800FEF7F9FB2E492F48FEF75CFC2E492F4886
:10402800FEF7F1FB2E492F48FEF7EDFB2E492F48EE
:10403800FEF7E9FB2E492F48FEF7E5FB154B00225A
:104048009A64144B002283F844202B48FEF7F2FCB4
:10405800104B00229A630F4B002283F83420274824
:10406800FEF734FD00BF0837BD4680BD00000020C4
:10407800182100209C050020AC05002020210020EC
:104088002421002088050020442100203821002018
:10409800B00500202817002050000020081B002031
:1040A80070000020881E0020880000203820002092
:1040B80058000020E81B002048000020281A002093
:1040C800400000204819002038000020681800200F
:1040D80078000020F01E002080000020581F0020DB
:1040E800300000208817002068000020A81D00204C
:1040F80060000020C81C00206C1700205C170020FE
:1041080080B582B000AF3D4B1B78002B13D13B4BE1
:1041180001221A70394B5B68012B0CD1374B1B7A83
:10412800002B08D00423FB80344BDB68F98801227C
:104138001846FEF771F8314B93F84430002B29D11B
:104148002E4B012283F844202C4B9B6C012B21D150
:104158002A4B93F84C30002B1CD0284B1B6D18466B
:10416800FEF744FB254B1B6D00211846FCF73DFF6D
:1041780002237B71214B1B6D7A7911461846FDF796
:1041880063F902237B711D4B1B6D7A791146184622
:10419800FDF7C2F9194B93F83430002B29D1174B8E
:1041A800012283F83420154B9B6B012B21D1134B33
:1041B80093F83C30002B1CD0104B1B6C1846FEF7B4
:1041C80015FB0E4B1B6C00211846FCF70EFF022353
:1041D8007B710A4B1B6C7A7911461846FCF7F0FF85
:1041E80002237B71054B1B6C7A7911461846FDF743
:1041F80087F800BF0837BD4680BD00BF28170020DC
:1042080080B489B000AFF860B9607A60FB68BB61C0
:104218000023FB61BB689B087B611B4B1B68B3F5E4
:10422800C87F2AD00023FB6122E0174B1B6817497F
:104238007A6841F82320FB699B00BA691A44124B3B
:104248001B681268114903F5C87341F823200E4B07
:104258001B680F4A12680D4903F5487341F823207B
:10426800094B1B680133084A1360FB690133FB6182
:10427800FA697B699A42D8D300E000BF2437BD466B
:104288005DF8047B704700BFA80200206021002071
:104298005C21002080B584B000AF786072B600BFA2
:1042A80000F060FC0346FB6007F10C037A68042108
:1042B8001846FFF7A5FF62B600BF00BF1037BD461E
:1042C80080BD000080B500AF124B1B785A1CD1B2DC
:1042D800104A1170002B09D00F4B01221A600D4BA8
:1042E8001B78013BDAB20B4B1A7011E062B600BFC3
:1042F80002200BF062F8FEF737FC02200BF068F89A
:1043080072B600BF034B1B78013BDAB2014B1A703F
:1043180080BD00BFB0020020AC02002080B584B090
:1043280000AF78603960374BFB60374BBB60374B69
:1043380000221A70364B00221A7001DF06F026FBA5
:1043480000F0E0FE00F02EFF00F08EFF01F054FFB9
:1043580001F072FB02F09EF901F0BEFF02F04AFA8A
:1043680001F00EFD02F00EFD02F066FC294B1B6801
:1043780000221A6001200BF020F8FFF7CFFD012082
:104388000BF026F872B600BF97ED030A00F08AFC1E
:10439800204B1B681B68002B0CBF01230023DBB2DA
:1043A8001A461B4B1A7062B600BF62B600BF15E012
:1043B800184B1B681B68002B14BF01230023DBB2BA
:1043C8001A46124B1A70114B1B78DBB2002B05D022
:1043D800114B1B68104A23F0010313600C4B1B7828
:1043E800DBB2002BE4D103200AF0E7FFFFF788FED9
:1043F80003200AF0EDFF72B600BF002318461037FD
:10440800BD4680BDCDCCCC3D0000A042203400206C
:1044180058210020F4F8000810E000E080B485B0CE
:1044280000AF0346FB80B7F90630002B02DBFB88A0
:10443800FB8101E0FB88FB81B7F90E301846143781
:10444800BD465DF8047B704780B588B004AF03466D
:104458000A46FB711346BB71FB799BB25B009BB2AA
:10446800013399B2BB799AB24FF0FF33029302231A
:10447800019307F10C0300930123074806F078FE27
:104488003B7B1B021AB27B7B1BB213431BB29BB252
:1044980018461037BD4680BD5434002080B500AFA3
:1044A8003B216920FFF7D0FF03461846FFF7B6FF08
:1044B80003461A4613469B0013445B0007EE903AE6
:1044C800B8EEE77ADFED3B6AC7EE267A3A4BC3EDE2
:1044D800007A3D216920FFF7B7FF03461846FFF72A
:1044E8009DFF03461A4613469B0013445B0007EEE4
:1044F800903AB8EEE77ADFED2F6AC7EE267A2E4BB0
:10450800C3ED017A3F216920FFF79EFF0346184655
:10451800FFF784FF03461A4613469B0013445B00CB
:1045280007EE903AB8EEE77ADFED226AC7EE267A10
:10453800214BC3ED027A43216920FFF785FF03462B
:104548001846FFF76BFF034607EE903AB8EEE77A96
:10455800DFED1A6AC7EE267A194BC3ED007A4521BA
:104568006920FFF771FF03461846FFF757FF034618
:1045780007EE903AB8EEE77ADFED106AC7EE267AD2
:104588000F4BC3ED017A47216920FFF75DFF034612
:104598001846FFF743FF034607EE903AB8EEE77A6E
:1045A800DFED066AC7EE267A054BC3ED027A00BF37
:1045B80080BD00BF00008046382100200000034372
:1045C800B005002080B586B004AF0023FB714FF022
:1045D800FF33029301230193FB1D009301236B22F8
:1045E800D2211D4806F0B0FC4FF0FF33029301239F
:1045F80001930723009301231922D221164806F0BC
:10460800A3FC4FF0FF33029301230193002300938F
:1046180001231C22D221104806F096FC4FF0FF33EC
:104628000293012301930023009301231B22D2212B
:10463800094806F089FC4FF0FF33029301230193E8
:10464800064B009301237522D321034806F090FD01
:1046580000BF0837BD4680BD543400202A340020EE
:1046680080B582B000AF00237B600FE07B68432BEE
:1046780008D07B68052B05D07B685BB2184607F02D
:10468800E5FA00E000BF7B6801337B607B68EF2BB5
:10469800ECD900BF00BF0837BD4680BD80B582B0E9
:1046A80000AF00237B6007E07B685BB2184607F029
:1046B800BFFA7B6801337B607B68EF2BF4D900BFBE
:1046C80000BF0837BD4680BD80B500AF4021B44863
:1046D80006F092FB0346002B14BF01230023DAB235
:1046E800B04B1A700421B04806F086FB0346002B35
:1046F80014BF01230023DAB2AA4B5A704FF40051B9
:10470800AA4806F079FB0346002B14BF01230023B7
:10471800DAB2A74B1A704FF48041A44806F06CFB3C
:104728000346002B14BF01230023DAB2A04B5A70B2
:104738004FF400419D4806F05FFB0346002B14BF71
:1047480001230023DAB29A4B9A704FF480519648AD
:1047580006F052FB0346002B14BF01230023DAB2F4
:10476800944B1A704FF480718D4806F045FB034650
:10477800002B14BF01230023DAB28E4B5A704FF47A
:104788000071874806F038FB0346002B14BF01234D
:104798000023DAB2874B9A704FF48051804806F0B4
:1047A8002BFB0346002B14BF01230023DAB2814BF5
:1047B800DA704FF400617A4806F01EFB0346002BBE
:1047C80014BF01230023DAB27A4B1A714FF48041E7
:1047D800734806F011FB0346002B14BF0123002386
:1047E800DAB2744B5A714FF400416D4806F004FB7D
:1047F8000346002B14BF01230023DAB26D4B9A71D4
:104808004FF40051664806F0F7FA0346002B14BF30
:1048180001230023DAB2674BDA71674B5B6B9AB2FC
:10482800664B1A80644B9B6B9AB2644B5A80624BFE
:10483800DB6B9AB2624B1A805F4B1B6C9AB2604B6F
:104848005A80FFF70DFF08E04FF400714FF09040D9
:1048580006F0D2FA0346012B07D10321594803F089
:10486800C1F80346002BEFD10AE000BF08E04FF47F
:1048780000714FF0904006F0BFFA0346012B07D1B4
:104888000221484803F0AEF80346002BEFD10AE0B6
:1048980000BF08E04FF400714FF0904006F0ACFA0A
:1048A8000346012B07D10321414803F09BF8034637
:1048B800002BEFD10AE000BF08E04FF400714FF081
:1048C800904006F099FA0346012B07D10C213E4887
:1048D80003F088F80346002BEFD10AE000BF08E098
:1048E8004FF400714FF0904006F086FA0346012B12
:1048F80007D10C21354803F075F80346002BEFD19A
:104908000AE000BF08E04FF400714FF0904006F055
:1049180073FA0346012B07D112212D4803F062F8E0
:104928000346002BEFD10AE000BF08E04FF4007106
:104938004FF0904006F060FA0346012B07D1122190
:10494800244803F04FF80346002BEFD10AE000BFDC
:1049580008E04FF400714FF0904006F04DFA03461E
:10496800012B07D112211C4803F03CF80346002B09
:10497800EFD10AE000BF08E04FF400714FF090401B
:1049880006F03AFA0346012B07D10821094803F03B
:1049980029F80346002BEFD129E000BF27E000BF2C
:1049A8000010004834340020000400480008004883
:1049B800403400203834002000040040B8020020B1
:1049C800B402002098F8000838210020B005002023
:1049D8002421002088050020442100204FF4007184
:1049E8004FF0904006F008FA0346012B07D1042146
:1049F800484802F0F7FF0346002BEFD10AE000BF5A
:104A080008E04FF400714FF0904006F0F5F90346C6
:104A1800012B07D10421404802F0E4FF0346002B94
:104A2800EFD10AE000BF08E04FF400714FF090406A
:104A380006F0E2F90346012B07D10421374802F0BA
:104A4800D1FF0346002BEFD10AE000BF08E04FF486
:104A580000714FF0904006F0CFF90346012B07D1C3
:104A680008212F4802F0BEFF0346002BEFD10AE0D1
:104A780000BF08E04FF400714FF0904006F0BCF919
:104A88000346012B07D11021264802F0ABFF03464D
:104A9800002BEFD10AE000BF08E04FF400714FF09F
:104AA800904006F0A9F90346012B07D104211E48BE
:104AB80002F098FF0346002BEFD10AE000BF08E0A0
:104AC8004FF400714FF0904006F096F90346012B21
:104AD80007D10421154802F085FF0346002BEFD1CA
:104AE8000AE000BF08E04FF400714FF0904006F074
:104AF80083F90346012B07D104210D4802F072FF08
:104B08000346002BEFD100E000BFFFF7C7FD00BF51
:104B180080BD00BF44340020B4020020B802002049
:104B2800182100209C05002020210020AC05002031
:104B38009CF8000880B584B000AF786005F052FF9B
:104B4800F8607B68BB6000BF05F04CFF0246FB685D
:104B5800D31ABA689A42F7D800BF00BF1037BD46CB
:104B680080BD000010B50E4C82B0636A019305F059
:104B780039FF0090626A019B9A4207D30098019B13
:104B88004FF47A7202FB003002B010BD05F02AFF24
:104B9800636A4FF47A7202FB003002B010BD00BFA6
:104BA800002C014080B483B000AF03463960FB712C
:104BB80097F90730002B0ADB3B68DAB20C4997F902
:104BC80007301201D2B20B4483F800230AE03B6895
:104BD800DAB20849FB7903F00F03043B1201D2B2A1
:104BE8000B441A7600BF0C37BD465DF8047B70474E
:104BF80000E100E000ED00E080B582B000AF786031
:104C08007B68013BB3F1807F01D301230FE00A4A9F
:104C18007B68013B53600F214FF0FF30FFF7C2FF65
:104C2800054B00229A60044B07221A60002318469D
:104C38000837BD4680BD00BF10E000E080B500AF7A
:104C4800BFF34F8F00BFBFF36F8F00BF0B4B1A68C6
:104C58000B4B1B689A4202D3084B00221A60074B81
:104C68001B685A1C05490A60002B05D172B600BFA3
:104C7800FFF728FB62B600BF00BF80BD4C340020A0
:104C88004834002080B400AF054B5B68044A43F009
:104C98008053536000BFBD465DF8047B704700BF7A
:104CA80000ED00E080B584B000AF87ED010A234B2A
:104CB8001B6807EE903AB8EE677AD7ED017A67EE8F
:104CC800277AFCEEE77A17EE903AFB60FB68B3F1BF
:104CD800807F18D3FB6807EE903AB8EE677ADFED6D
:104CE800186AC7EE267AFCEEE77A17EE903A013397
:104CF800144A1360134B1B68FA68B2FBF3F31846A7
:104D0800FFF77AFF05E00F4B00221A60F868FFF7FB
:104D180073FF0D4B00221A600C4A0D4B1A600F21CD
:104D28006FF00400FFF73EFF0F216FF00100FFF75F
:104D380039FF00BF1037BD4680BD00BF1C020020F0
:104D4800FFFF7F4B483400204C340020454C0008BE
:104D580050340020EFF3008001B5EFF3118003B465
:104D68001EF0100F08BFB0EE400A0A48006803B4EE
:104D780088B004A006904FF0807007906FF006008E
:104D88008646704703BC8047BFF36F8F00DFFEE79E
:104D980000BF0000503400201EF0100F08BFB0EE16
:104DA800400A1EF0040F0CBFEFF30880EFF30980F0
:104DB800816911F8020C10B101280DD00BE01EF02A
:104DC800100F0CBF1AB008B003BC80F3118803BCE5
:104DD80080F300880847FEE74EF61451CEF2000132
:104DE8000A6842F001020A607047F4E700BF00BF9A
:104DF80080B400AF054B1B68044A43F400231360DA
:104E080000BFBD465DF8047B704700BF001002403C
:104E180080B400AF054B1B68044A43F48033136029
:104E280000BFBD465DF8047B704700BF001002401C
:104E380080B400AF074B1B6803F40033B3F5003FA1
:104E480001D1012300E000231846BD465DF8047B2C
:104E5800704700BF0010024080B483B000AF786094
:104E6800064B9B6823F0030204497B6813438B605D
:104E780000BF0C37BD465DF8047B70470010024048
:104E880080B400AF044B9B6803F00C031846BD4682
:104E98005DF8047B704700BF0010024080B483B007
:104EA80000AF7860064B9B6823F0F00204497B68EA
:104EB80013438B6000BF0C37BD465DF8047B704719
:104EC8000010024080B483B000AF7860064B9B6846
:104ED80023F4E06204497B6813438B6000BF0C37FE
:104EE800BD465DF8047B70470010024080B483B073
:104EF80000AF7860064B9B6823F4605204497B68D6
:104F080013438B6000BF0C37BD465DF8047B7047C8
:104F18000010024080B400AF054B1B68044A43F000
:104F28008073136000BFBD465DF8047B704700BF07
:104F38000010024080B400AF074B1B6803F00073F9
:104F4800B3F1007F01D1012300E000231846BD46DC
:104F58005DF8047B704700BF0010024080B485B044
:104F680000AFF860B9607A603B600A4BDA680A4BB8
:104F78001340F968BA6811437A68120211433A6813
:104F88000A4304491343CB6000BF1437BD465DF89C
:104F9800047B7047001002408C80FFF980B400AF9A
:104FA800054BDB68044A43F08073D36000BFBD46FD
:104FB8005DF8047B704700BF0010024080B400AF6A
:104FC800054B1B68044A43F08063136000BFBD466D
:104FD8005DF8047B704700BF0010024080B400AF4A
:104FE800074B1B6803F00063B3F1006F01D1012385
:104FF80000E000231846BD465DF8047B704700BFFB
:105008000010024080B485B000AFF860B9607A60E3
:105018003B600E4BDB6823F07302F968BB680B43F7
:105028000A491343CB60094B1B6923F4C00323F4DB
:10503800FE437A6811023A680A43044913430B6134
:1050480000BF1437BD465DF8047B7047001002406E
:1050580080B400AF054B1B69044A43F48013136105
:1050680000BFBD465DF8047B704700BF00100240DA
:1050780080B483B000AF7860064B1B6823F007024A
:1050880004497B6813430B6000BF0C37BD465DF8CD
:10509800047B70470020024080B400AF044B1B68BB
:1050A80003F007031846BD465DF8047B704700BF50
:1050B8000020024080B483B000AF7860064B1B68C4
:1050C80023F4C06204497B6813430B6000BF0C37AC
:1050D800BD465DF8047B70470070004080B400AFA7
:1050E800074B5B6903F48063B3F5806F01D101233B
:1050F80000E000231846BD465DF8047B704700BFFA
:105108000070004080B500AF0420FFF7B1FF00BF7A
:10511800FFF7C2FF0346042BFAD14FF40070FFF7E4
:10512800C9FF00BFFFF7DAFF0346002BFAD1FFF7EC
:105138006FFE00BFFFF77CFE0346012BFAD1FFF795
:1051480057FE0023142200210320FFF707FFFFF773
:1051580025FFFFF7DFFE00BFFFF7ECFE0346012B3C
:10516800FAD10320FFF778FE00BFFFF789FE034658
:105178000C2BFAD10020FFF791FE0020FFF7A2FECA
:105188000020FFF7B3FE064802F03CFD0F2002F0B6
:10519800CBFC0346002B01D000F02CF800BF80BDEB
:1051A80000B4C40480B500AF00230C220021032002
:1051B800FFF728FFFFF74CFFFFF700FF00BFFFF7DF
:1051C8000DFF0346012BFAD100BF00BF80BD0000D0
:1051D80080B582B000AF78607B681B68044A934250
:1051E80001D105F0EBFB00BF0837BD4680BD00BF0D
:1051F800002C014080B400AF72B600BFFEE700008B
:1052080080B485B000AF7860084BDA6C07497B68DA
:105218001343CB64054BDA6C7B681340FB60FB6877
:1052280000BF1437BD465DF8047B7047001002408C
:1052380080B483B000AF786039607B683A689A615F
:1052480000BF0C37BD465DF8047B704780B483B05F
:1052580000AF786039607B683A689A6200BF0C37A3
:10526800BD465DF8047B704780B586B000AF3B460D
:1052780000221A605A609A60DA601A615A61102036
:10528800FFF7BEFF0420FFF7BBFF8020FFF7B8FF42
:105298000120FFF7B5FF0220FFF7B2FF0820FFF754
:1052A800AFFF4FF400516348FFF7C2FF4FF440418E
:1052B8006048FFF7CBFF4FF47B415F48FFF7C6FF1D
:1052C80041F208015D48FFF7C1FF80215C48FFF704
:1052D800BDFF40F2BF433B6003237B6000233B617B
:1052E8003B461946544802F0E8FD40233B60002342
:1052F8007B6001233B613B4619464F4802F0DDFDC8
:105308004FF460433B6001237B600023BB600023B4
:10531800FB6000233B613B461946464802F0CDFD41
:1053280041F60F433B6003237B6000233B613B4610
:105338001946404802F0C1FD48F207533B60032379
:105348007B6000233B613B4619464FF0904002F0DA
:10535800B4FD04233B6000237B6001233B613B4693
:105368001946364802F0A9FD4FF47B433B60012300
:105378007B600323BB600023FB6000233B613B464B
:1053880019462D4802F099FD4FF480533B600123E4
:105398007B600323BB600023FB6000233B613B462B
:1053A8001946264802F089FD4EF2D0333B600323AC
:1053B8007B6000233B613B461946204802F07DFD97
:1053C8004FF61F733B6003237B6000233B613B4622
:1053D80019461B4802F071FD80233B6001237B6066
:1053E8000023BB600023FB6000233B613B4619465A
:1053F800134802F062FD08233B6001237B60002311
:10540800BB600023FB6000233B613B4619460B4809
:1054180002F053FD20233B6000237B6000233B61A7
:105428003B461946054802F048FD00BF1837BD46FF
:1054380080BD00BF00080048001000480004004874
:10544800000C004880B400AF044BDB681B0A03F073
:1054580007031846BD465DF8047B704700ED00E081
:1054680080B483B000AF0346FB7197F90730002B77
:105478000BDBFB7903F01F02074997F907305B093B
:10548800012000FA02F241F8232000BF0C37BD4684
:105498005DF8047B704700BF00E100E080B483B092
:1054A80000AF03463960FB7197F90730002B0ADB20
:1054B8003B68DAB20C4997F907301201D2B20B44B3
:1054C80083F800230AE03B68DAB20849FB7903F065
:1054D8000F03043B1201D2B20B441A7600BF0C37FB
:1054E800BD465DF8047B704700E100E000ED00E098
:1054F80080B489B000AFF860B9607A60FB6803F0E7
:105508000703FB61FB69C3F10703042B28BF0423CE
:10551800BB61FB690433062B02D9FB69033B00E03E
:1055280000237B614FF0FF32BB6902FA03F3DA43D1
:10553800BB681A407B699A404FF0FF317B6901FADA
:1055480003F3D9437B680B40134318462437BD4601
:105558005DF8047B704780B483B000AF7860396031
:105568007B689B6823F0E0723B681A437B689A600B
:1055780000BF0C37BD465DF8047B704780B487B028
:1055880000AFF860B9607A60FB6830331A46BB68D0
:105598001B0A9B0003F00C0313447B617B691A68A8
:1055A800BB6803F01F031F2101FA03F3DB431A4012
:1055B8007B689B0E03F01F01BB6803F01F0301FA11
:1055C80003F31A437B691A6000BF1C37BD465DF8B8
:1055D800047B704780B487B000AFF860B9607A6028
:1055E800FB6814331A46BB685B0E9B0003F0040388
:1055F80013447B617B691A68BB681B0D03F01F03AA
:10560800072101FA03F3DB431A40BB681B0D03F0C3
:105618001F03796801FA03F31A437B691A6000BF14
:105628001C37BD465DF8047B7047000080B485B028
:1056380000AFF860B9607A60FB68D3F8B020BB6847
:10564800C3F31203DB431A407B6803F018030849CD
:10565800D940BB680B40C3F312031A43FB68C3F875
:10566800B02000BF1437BD465DF8047B704700BF0B
:10567800FFFF070080B483B000AF786039607B68B3
:105688001B6923F4806323F003033A681A437B6899
:105698001A6100BF0C37BD465DF8047B704780B4C3
:1056A80083B000AF786039607B681B6923F40072AF
:1056B8003B681A437B681A6100BF0C37BD465DF82A
:1056C800047B704780B485B000AFF860B9607A6039
:1056D800FB681B6923F4FE727968BB680B431A43A5
:1056E800FB681A6100BF1437BD465DF8047B70473C
:1056F80080B483B000AF78607B689B6823F0204358
:1057080023F03F037A68936000BF0C37BD465DF80D
:10571800047B704780B483B000AF78607B689B6877
:1057280023F0104323F03F0343F080527B689A60D4
:1057380000BF0C37BD465DF8047B704780B487B066
:1057480000AFF860B9607A60FB687B610E4ABB689D
:1057580013441B781A467B6913441B6823F480435F
:1057680023F010030849BA680A44127811467A6986
:105778000A4411467A6813430B6000BF1C37BD46C4
:105788005DF8047B704700BFF8F8000880B487B064
:1057980000AFF860B9607A60FB687B610D4ABB684E
:1057A80013441B781A467B6913441B6823F02002B4
:1057B8000849BB680B441B7819467B690B4419469A
:1057C8007B6813430B6000BF1C37BD465DF8047B44
:1057D800704700BFF8F8000880B487B000AFF860E1
:1057E800B9607A60FB687B610D4ABB6813441B781B
:1057F8001A467B6913441B6823F040020849BB68BA
:105808000B441B7819467B690B4419467B68134384
:105818000B6000BF1C37BD465DF8047B704700BFB6
:10582800F8F8000880B487B000AFF860B9607A6013
:10583800FB687B610D4ABB6813441B781A467B6979
:1058480013441B6823F080020849BB680B441B788B
:1058580019467B690B4419467B6813430B6000BFEC
:105868001C37BD465DF8047B704700BFF8F8000898
:1058780080B487B000AFF860B9607A60FB687B617C
:105888000D4ABB6813441B781A467B6913441B688E
:1058980023F440720849BB680B441B7819467B699E
:1058A8000B4419467B6813430B6000BF1C37BD4689
:1058B8005DF8047B704700BFF8F8000880B487B033
:1058C80000AFF860B9607A60FB687B610D4ABB681D
:1058D80013441B781A467B6913441B6823F44062FF
:1058E8000849BB680B441B7819467B690B44194669
:1058F8007B6813430B6000BF1C37BD465DF8047B13
:10590800704700BFF8F8000880B487B000AFF860AF
:10591800B9607A60FB687B610D4ABB6813441B78E9
:105928001A467B6913441B6823F440520849BB6834
:105938000B441B7819467B690B4419467B68134353
:105948000B6000BF1C37BD465DF8047B704700BF85
:10595800F8F8000880B489B000AFF860B9607A60E0
:10596800FB68A8331A68BB689B000F2101FA03F390
:10597800DB431A40BB689B000F2101FA03F3BB61AC
:10598800BB6993FAA3F37B617B69FB61FB69002B1D
:1059980001D1202303E0FB69B3FA83F3DBB2194694
:1059A8007B688B40F968A83113430B6000BF24372C
:1059B800BD465DF8047B704780B483B000AF786063
:1059C800074BD3F8883023F0405205497B681343CE
:1059D800C1F8883000BF0C37BD465DF8047B7047BE
:1059E8000010024080B485B000AF7860084BDA6CD4
:1059F80007497B681343CB64054BDA6C7B6813401B
:105A0800FB60FB6800BF1437BD465DF8047B704738
:105A18000010024080B483B000AF786039607B68C2
:105A2800DA6A3B681A437B68DA6200BF0C37BD4606
:105A38005DF8047B7047000080B594B000AF07F1B3
:105A4800400300221A605A609A6007F12803002276
:105A58001A605A609A60DA601A615A6107F118038D
:105A680000221A605A609A60DA603B4600221A6087
:105A78005A609A60DA601A615A614FF04050FFF735
:105A88009BFF4FF40050FFF7ADFF0120FFF7AAFF7F
:105A98000420FFF7A7FF0220FFF7A4FFF8233B60CD
:105AA80003237B6000233B613B4619464FF090403F
:105AB80002F003FA30233B6003237B6000233B6141
:105AC8003B4619469D4802F0F8F903233B6003233F
