:020000040800F2
:100000000080012015030108778A00087D8A000816
:10001000838A0008898A00088F8A0008000000008F
:10002000000000000000000000000000BD5D0008AE
:10003000958A000800000000795D0008A95C0008AE
:1000400065030108650301086503010865030108EC
:1000500065030108650301086503010865030108DC
:10006000650301086503010865030108A38A000808
:10007000891F00086503010865030108650301087D
:10008000B18A0008BF8A0008CD8A0008650301080C
:10009000650301086503010865030108650301089C
:1000A00065030108DD8A000865030108650301088E
:1000B000650301086503010865030108650301087C
:1000C000650301086503010865030108650301086C
:1000D000650301086503010865030108650301085C
:1000E000650301086503010865030108650301084C
:1000F000650301086503010865030108650301083C
:10010000650301086503010865030108650301082B
:10011000650301086503010865030108650301081B
:10012000650301086503010865030108650301080B
:1001300065030108650301086503010865030108FB
:10014000650301086503010865030108F18A0008D9
:1001500065030108650301086503010865030108DB
:1001600065030108650301086503010865030108CB
:10017000650301086503010865030108000000002C
:08018000650301086503010895
:1001880081F0004102E000BF83F0004330B54FEA40
:1001980041044FEA430594EA050F08BF90EA020FAD
:1001A8001FBF54EA000C55EA020C7FEA645C7FEA40
:1001B800655C00F0E2804FEA5454D4EB5555B8BF63
:1001C8006D420CDD2C4480EA020281EA030382EAD4
:1001D800000083EA010180EA020281EA0303362D66
:1001E80088BF30BD11F0004F4FEA01314FF4801C39
:1001F8004CEA113102D0404261EB410113F0004F4B
:100208004FEA03334CEA133302D0524263EB430301
:1002180094EA050F00F0A780A4F10104D5F1200E9F
:100228000DDB02FA0EFC22FA05F2801841F10001FA
:1002380003FA0EF2801843FA05F359410EE0A5F1CE
:1002480020050EF1200E012A03FA0EFC28BF4CF0FF
:10025800020C43FA05F3C01851EBE37101F00045B5
:1002680007D54FF0000EDCF1000C7EEB00006EEBC2
:100278000101B1F5801F1BD3B1F5001F0CD349084C
:100288005FEA30004FEA3C0C04F101044FEA4452A3
:1002980012F5800F80F09A80BCF1004F08BF5FEA2A
:1002A800500C50F1000041EB045141EA050130BD0A
:1002B8005FEA4C0C404141EB0101013C28BFB1F51C
:1002C800801FE9D291F0000F04BF01460020B1FA67
:1002D80081F308BF2033A3F10B03B3F120020CDA3A
:1002E8000C3208DD02F1140CC2F10C0201FA0CF018
:1002F80021FA02F10CE002F11402D8BFC2F1200C7D
:1003080001FA02F120FA0CFCDCBF41EA0C01904032
:10031800E41AA2BF01EB0451294330BD6FEA04047B
:100328001F3C1CDA0C340EDC04F11404C4F1200266
:1003380020FA04F001FA02F340EA030021FA04F378
:1003480045EA030130BDC4F10C04C4F1200220FACF
:1003580002F001FA04F340EA0300294630BD21FA0D
:1003680004F0294630BD94F0000F83F4801306BFD3
:1003780081F480110134013D4EE77FEA645C18BFC7
:100388007FEA655C29D094EA050F08BF90EA020F5E
:1003980005D054EA000C04BF1946104630BD91EA56
:1003A800030F1EBF0021002030BD5FEA545C05D159
:1003B8004000494128BF41F0004130BD14F5800498
:1003C8003CBF01F5801130BD01F0004545F0FE410C
:1003D80041F470014FF0000030BD7FEA645C1ABF41
:1003E800194610467FEA655C1CBF0B46024650EA78
:1003F800013406BF52EA033591EA030F41F40021A4
:1004080030BD00BF90F0000F04BF0021704730B529
:100418004FF4806404F132044FF000054FF00001FE
:1004280050E700BF90F0000F04BF0021704730B5BF
:100438004FF4806404F1320410F0004548BF404294
:100448004FF000013EE700BF42004FEAE2014FEAE9
:1004580031014FEA02701FBF12F07F4393F07F4FC4
:1004680081F06051704732F07F4208BF704793F0C7
:100478007F4F04BF41F40021704730B54FF46074DA
:1004880001F0004521F000411CE700BF50EA0102DD
:1004980008BF704730B54FF000050AE050EA010286
:1004A80008BF704730B511F0004502D5404261EBF6
:1004B80041014FF4806404F132045FEA915C3FF437
:1004C800D8AE4FF003025FEADC0C18BF03325FEAD4
:1004D800DC0C18BF033202EBDC02C2F1200300FA85
:1004E80003FC20FA02F001FA03FE40EA0E0021FAAA
:1004F80002F11444BDE600BF70B54FF0FF0C4CF498
:10050800E06C1CEA11541DBF1CEA135594EA0C0F49
:1005180095EA0C0F00F0DEF82C4481EA030621EA84
:100528004C5123EA4C5350EA013518BF52EA0335BF
:1005380041F4801143F4801338D0A0FB02CE4FF071
:100548000005E1FB02E506F00042E0FB03E54FF0A1
:100558000006E1FB03569CF0000F18BF4EF0010E99
:10056800A4F1FF04B6F5007F64F5407404D25FEA95
:100578004E0E6D4146EB060642EAC62141EA555148
:100588004FEAC52040EA5E504FEACE2EB4F1FD0C8A
:1005980088BFBCF5E06F1ED8BEF1004F08BF5FEA08
:1005A800500E50F1000041EB045170BD06F00046BA
:1005B80046EA010140EA020081EA0301B4EB5C0467
:1005C800C2BFD4EB0C0541EA045170BD41F480115F
:1005D8004FF0000E013C00F3AB8014F1360FDEBF84
:1005E800002001F0004170BDC4F10004203C35DA60
:1005F8000C341BDC04F11404C4F1200500FA05F3E3
:1006080020FA04F001FA05F240EA020001F0004283
:1006180021F0004110EBD37021FA04F642EB0601F9
:100628005EEA430E08BF20EAD37070BDC4F10C0423
:10063800C4F1200500FA04F320FA05F001FA04F2E7
:1006480040EA020001F0004110EBD37041F10001D3
:100658005EEA430E08BF20EAD37070BDC4F12005DE
:1006680000FA05F24EEA020E20FA04F301FA05F246
:1006780043EA020321FA04F001F0004121FA04F2EE
:1006880020EA020000EBD3705EEA430E08BF20EABE
:10069800D37070BD94F0000F0FD101F000464000F8
:1006A80041EB010111F4801F08BF013CF7D041EA7A
:1006B800060195F0000F18BF704703F0004652007E
:1006C80043EB030313F4801F08BF013DF7D043EA4F
:1006D8000603704794EA0C0F0CEA135518BF95EA05
:1006E8000C0F0CD050EA410618BF52EA4306D1D18C
:1006F80081EA030101F000414FF0000070BD50EAAB
:10070800410606BF1046194652EA430619D094EA34
:100718000C0F02D150EA013613D195EA0C0F05D11E
:1007280052EA03361CBF104619460AD181EA030172
:1007380001F0004141F0FE4141F470014FF000002A
:1007480070BD41F0FE4141F4780170BD70B54FF0C5
:10075800FF0C4CF4E06C1CEA11541DBF1CEA135545
:1007680094EA0C0F95EA0C0F00F0A7F8A4EB050427
:1007780081EA030E52EA03354FEA013100F088801E
:100788004FEA03334FF0805545EA131343EA1263E7
:100798004FEA022245EA111545EA10654FEA00269C
:1007A8000EF000419D4208BF964244F1FD0404F555
:1007B800407402D25B084FEA3202B61A65EB0305B1
:1007C8005B084FEA32024FF480104FF4002CB6EB6E
:1007D800020E75EB030E22BFB61A754640EA0C00EE
:1007E8005B084FEA3202B6EB020E75EB030E22BF2E
:1007F800B61A754640EA5C005B084FEA3202B6EB6F
:10080800020E75EB030E22BFB61A754640EA9C002D
:100818005B084FEA3202B6EB020E75EB030E22BFFD
:10082800B61A754640EADC0055EA060E18D04FEABB
:10083800051545EA16754FEA06164FEAC30343EA5B
:1008480052734FEAC2025FEA1C1CC0D111F4801F28
:100858000BD141EA00014FF000004FF0004CB6E721
:1008680011F4801F04BF01430020B4F1FD0C88BFC0
:10087800BCF5E06F3FF6AFAEB5EB030C04BFB6EBCB
:10088800020C5FEA500C50F1000041EB045170BDBE
:100898000EF0004E4EEA113114EB5C04C2BFD4EBEB
:1008A8000C0541EA045170BD41F480114FF0000E6F
:1008B800013C90E645EA060E8DE60CEA135594EAEB
:1008C8000C0F08BF95EA0C0F3FF43BAF94EA0C0FEE
:1008D8000AD150EA01347FF434AF95EA0C0F7FF463
:1008E80025AF104619462CE795EA0C0F06D152EAB7
:1008F80003353FF4FDAE1046194622E750EA41069B
:1009080018BF52EA43067FF4C5AE50EA41047FF4AB
:100918000DAF52EA43057FF4EBAE12E74FF0FF3C10
:1009280006E000BF4FF0010C02E000BF4FF0010CE1
:100938004DF804CD4FEA410C7FEA6C5C4FEA430C5A
:1009480018BF7FEA6C5C1BD001B050EA410C0CBFA9
:1009580052EA430C91EA030F02BF90EA020F00200B
:10096800704710F1000F91EA030F58BF994208BF72
:1009780090422CBFD8176FEAE37040F0010070472F
:100988004FEA410C7FEA6C5C02D150EA013C07D186
:100998004FEA430C7FEA6C5CD6D152EA033CD3D0D1
:1009A8005DF8040B704700BF8446104662468C46CB
:1009B8001946634600E000BF01B5FFF7B7FF0028FE
:1009C80048BF10F1000F01BD4DF808EDFFF7F4FF27
:1009D8000CBF012000205DF808FB00BF4DF808EDB2
:1009E800FFF7EAFF34BF012000205DF808FB00BFD5
:1009F8004DF808EDFFF7E0FF94BF012000205DF8F7
:100A080008FB00BF4DF808EDFFF7CEFF94BF0120AB
:100A180000205DF808FB00BF4DF808EDFFF7C4FFA4
:100A280034BF012000205DF808FB00BF4FEA410CED
:100A38007FEA6C5C02D150EA013C0AD14FEA430CD0
:100A48007FEA6C5C02D152EA033C02D14FF000000D
:100A580070474FF0010070474A0011D212F500129A
:100A680011D20DD56FF47873B3EB62520ED44FEAFE
:100A7800C12343F0004343EA505323FA02F070477E
:100A88004FF00000704750EA013002D14FF0FF30BC
:100A980070474FF0000070470348044B834202D070
:100AA800034B03B1184770479802002098020020B2
:100AB800000000000548064B1B1AD90F01EBA301E3
:100AC800491002D0034B03B1184770479802002021
:100AD800980200200000000010B5064C237843B9A6
:100AE800FFF7DAFF044B13B10448AFF3008001238A
:100AF800237010BD9802002000000000340801088F
:100B080008B5054B1BB105490548AFF30080BDE8A2
:100B18000840FFF7CFBF00BF000000009C02002084
:100B28003408010880B485B000AF78607B681B6822
:100B380003F06003FB60FB68002B04D17B681B6833
:100B480003F01003FB60FB6818461437BD465DF8D8
:100B5800047B704780B483B000AF78607B681B6B00
:100B680018460C37BD465DF8047B704780B483B0E7
:100B780000AF786039607B681A6A3B681A437B6803
:100B88001A6200BF0C37BD465DF8047B704780B41D
:100B980083B000AF786039607B681A6A3B68DB43D2
:100BA8001A407B681A6200BF0C37BD465DF8047BAB
:100BB800704780B483B000AF78607B685B6C43F4A7
:100BC80000427B685A6400BF0C37BD465DF8047B61
:100BD800704780B483B000AF78607B68DB6843F00F
:100BE80001027B68DA6000BF0C37BD465DF8047B04
:100BF800704780B483B000AF78607B68DB6823F00F
:100C080001027B68DA6000BF0C37BD465DF8047BE3
:100C1800704780B483B000AF78607B68DB6803F00E
:100C28000103012B01D1012300E0002318460C37F2
:100C3800BD465DF8047B704780B483B000AF786030
:100C48007B68DB6843F002027B68DA6000BF0C3720
:100C5800BD465DF8047B704780B483B000AF786010
:100C68007B68DB6823F002027B68DA6000BF0C3720
:100C7800BD465DF8047B704780B483B000AF7860F0
:100C88007B68DB6803F00203022B01D1012300E03B
:100C9800002318460C37BD465DF8047B704780B4C6
:100CA80083B000AF78607B68DB6843F004027B6840
:100CB800DA6000BF0C37BD465DF8047B704780B42E
:100CC80083B000AF78607B68DB6823F004027B6840
:100CD800DA6000BF0C37BD465DF8047B704780B40E
:100CE80083B000AF78607B68DB6803F00403042BF3
:100CF80001D1012300E0002318460C37BD465DF8FA
:100D0800047B704780B483B000AF78607B68DB6891
:100D180043F008027B68DA6000BF0C37BD465DF817
:100D2800047B704780B483B000AF78607B68DB6871
:100D380023F008027B68DA6000BF0C37BD465DF817
:100D4800047B704780B483B000AF78607B68DB6851
:100D580003F00803082B01D1012300E00023184603
:100D68000C37BD465DF8047B704780B483B000AF94
:100D780078607B68DB6843F010027B68DA6000BF4C
:100D88000C37BD465DF8047B704780B483B000AF74
:100D980078607B68DB6823F010027B68DA6000BF4C
:100DA8000C37BD465DF8047B704780B483B000AF54
:100DB80078607B68DB6803F01003102B01D10123F6
:100DC80000E0002318460C37BD465DF8047B7047E9
:100DD80080B483B000AF78607B68DB6843F02002A2
:100DE8007B68DA6000BF0C37BD465DF8047B70474E
:100DF80080B483B000AF78607B68DB6823F02002A2
:100E08007B68DA6000BF0C37BD465DF8047B70472D
:100E180080B483B000AF78607B68DB6803F02003A0
:100E2800202B01D1012300E0002318460C37BD46D2
:100E38005DF8047B704780B483B000AF78607B684E
:100E4800DB6843F040027B68DA6000BF0C37BD46C0
:100E58005DF8047B704780B483B000AF78607B682E
:100E6800DB6823F040027B68DA6000BF0C37BD46C0
:100E78005DF8047B704780B483B000AF78607B680E
:100E8800DB6803F04003402B01D1012300E000237D
:100E980018460C37BD465DF8047B704780B483B0B4
:100EA80000AF78607B68DB6843F080027B68DA60BB
:100EB80000BF0C37BD465DF8047B704780B483B033
:100EC80000AF78607B68DB6823F080027B68DA60BB
:100ED80000BF0C37BD465DF8047B704780B483B013
:100EE80000AF78607B68DB6803F08003802B01D15A
:100EF800012300E0002318460C37BD465DF8047B4B
:100F0800704780B582B000AF78600B467B807B88E5
:100F180003F00103002B0CD07B681B681846FFF711
:100F2800AAFF0346012B04D07B681B681846FFF70D
:100F380082FF7B8803F00203002B0CD07B681B68C0
:100F48001846FFF799FE0346012B04D07B681B68FF
:100F58001846FFF771FE7B8803F00403002B0CD0C2
:100F68007B681B681846FFF7BAFE0346012B04D0BE
:100F78007B681B681846FFF792FE7B8803F008031E
:100F8800002B0CD07B681B681846FFF7DBFE034676
:100F9800012B04D07B681B681846FFF7B3FE7B88DB
:100FA80003F01003002B0CD07B681B681846FFF772
:100FB800FCFE0346012B04D07B681B681846FFF72C
:100FC800D4FE7B8803F02003002B0CD07B681B68C1
:100FD8001846FFF71EFE0346012B04D07B681B68EA
:100FE8001846FFF7F6FD7B8803F04003002B0CD072
:100FF8007B681B681846FFF771FF0346012B04D076
:101008007B681B681846FFF749FF7B8803F080035D
:10101800002B0CD07B681B681846FFF7F9FE0346C7
:10102800012B04D07B681B681846FFF7D1FE00BF70
:101038000837BD4680BD80B582B000AF78600B46EA
:101048007B807B8803F00103002B0CD07B681B6836
:101058001846FFF710FF0346012B04D17B681B6875
:101068001846FFF7F8FE7B8803F00203002B0CD02C
:101078007B681B681846FFF7FFFD0346012B04D168
:101088007B681B681846FFF7E7FD7B8803F00403BD
:10109800002B0CD07B681B681846FFF720FE034620
:1010A800012B04D17B681B681846FFF708FE7B8874
:1010B80003F00803002B0CD07B681B681846FFF769
:1010C80041FE0346012B04D17B681B681846FFF7D5
:1010D80029FE7B8803F01003002B0CD07B681B686B
:1010E8001846FFF762FE0346012B04D17B681B6894
:1010F8001846FFF74AFE7B8803F02003002B0CD02C
:101108007B681B681846FFF784FD0346012B04D053
:101118007B681B681846FFF76CFD7B8803F040036B
:10112800002B0CD07B681B681846FFF7D7FE0346D8
:10113800012B04D17B681B681846FFF7BFFE7B882C
:1011480003F08003002B0CD07B681B681846FFF760
:101158005FFE0346012B04D17B681B681846FFF726
:1011680047FE00BF0837BD4680BD000080B582B08D
:1011780000AF78600B46FB70FB78022B06D17B68CA
:101188001B6801211846FFF7F1FC31E07B681B68FA
:10119800194A934213D07B681B68184A93420ED0B1
:1011A8007B681B68164A934209D07B681B68154AFE
:1011B800934204D07B681B68134A934218D1FB788A
:1011C800032B06D17B681B6804211846FFF7CEFC69
:1011D8000EE0FB78042B0BD17B681B6801211846B5
:1011E800FFF7C4FC7B681B6804211846FFF7BEFCA8
:1011F80000BF0837BD4680BD002C014000340140C7
:1012080000400140004401400048014080B582B0E0
:1012180000AF78600B46FB70FB78022B06D17B6829
:101228001B6801211846FFF7B2FC31E07B681B6898
:10123800194A934213D07B681B68184A93420ED010
:101248007B681B68164A934209D07B681B68154A5D
:10125800934204D07B681B68134A934218D1FB78E9
:10126800032B06D17B681B6804211846FFF78FFC07
:101278000EE0FB78042B0BD17B681B680121184614
:10128800FFF785FC7B681B6804211846FFF77FFC85
:1012980000BF0837BD4680BD002C01400034014026
:1012A80000400140004401400048014080B582B040
:1012B80000AF78600B46FB70FB78022B06D17B6889
:1012C8001B6810211846FFF751FC31E07B681B684A
:1012D800194A934213D07B681B68184A93420ED070
:1012E8007B681B68164A934209D07B681B68154ABD
:1012F800934204D07B681B68134A934218D1FB7849
:10130800032B06D17B681B6840211846FFF72EFC8B
:101318000EE0FB78042B0BD17B681B681021184664
:10132800FFF724FC7B681B6840211846FFF71EFC6A
:1013380000BF0837BD4680BD002C01400034014085
:1013480000400140004401400048014080B582B09F
:1013580000AF78600B46FB70FB78022B06D17B68E8
:101368001B6810211846FFF712FC31E07B681B68E8
:10137800194A934213D07B681B68184A93420ED0CF
:101388007B681B68164A934209D07B681B68154A1C
:10139800934204D07B681B68134A934218D1FB78A8
:1013A800032B06D17B681B6840211846FFF7EFFB2B
:1013B8000EE0FB78042B0BD17B681B6810211846C4
:1013C800FFF7E5FB7B681B6840211846FFF7DFFB4A
:1013D80000BF0837BD4680BD002C014000340140E5
:1013E80000400140004401400048014080B582B0FF
:1013F80000AF78600B46FB70FB78022B07D17B6847
:101408001B684FF480711846FFF7B0FB34E07B6827
:101418001B681B4A934213D07B681B68194A934286
:101428000ED07B681B68184A934209D07B681B68FA
:10143800164A934204D07B681B68154A93421BD115
:10144800FB78032B07D17B681B684FF48061184633
:10145800FFF78CFB10E0FB78042B0DD17B681B6831
:101468004FF480711846FFF781FB7B681B684FF4C7
:1014780080611846FFF77AFB00BF0837BD4680BD7C
:10148800002C01400034014000400140004401406C
:101498000048014080B582B000AF78600B46FB7011
:1014A800FB78022B07D17B681B684FF480711846C4
:1014B800FFF76DFB34E07B681B681B4A934213D02F
:1014C8007B681B68194A93420ED07B681B68184AD0
:1014D800934209D07B681B68164A934204D07B6804
:1014E8001B68154A93421BD1FB78032B07D17B68F5
:1014F8001B684FF480611846FFF749FB10E0FB7842
:10150800042B0DD17B681B684FF480711846FFF7D8
:101518003EFB7B681B684FF480611846FFF737FB7A
:1015280000BF0837BD4680BD002C01400034014093
:1015380000400140004401400048014080B582B0AD
:1015480000AF78600B46FB70FB78022B06D17B68F6
:101558001B684FF480511846FFF708FB00BF083797
:10156800BD4680BD80B582B000AF78600B46FB7089
:10157800FB78022B06D17B681B684FF48051184614
:10158800FFF705FB00BF0837BD4680BD80B584B0B6
:1015980000AF78600023FB607B681B68304A934289
:1015A80001D1304BFB607B681A68FB681A60FB68E6
:1015B8001B681846FFF7B6FAB860BB68002B06D060
:1015C800BB68102B03D0FB6801221A7102E0FB688C
:1015D80000221A71FB681B68234A934213D0FB68E8
:1015E8001B68224A93420ED0FB681B68204A93422C
:1015F80009D0FB681B681F4A934204D0FB681B682C
:101608001D4A934204D1FB681B681846FFF7D1FABC
:10161800FB681B68144A934213D0FB681B68134A83
:1016280093420ED0FB681B68114A934209D0FB68AD
:101638001B68104A934204D0FB681B680E4A934209
:1016480008D17B681B681846FFF784FA0346DAB2AC
:10165800FB685A71FB6818461037BD4680BD00BF4D
:1016680000040040B4020020002C01400034014076
:1016780000400140004401400048014080B485B06A
:1016880000AF786039603B68002B03D17B6840333A
:10169800FB6001E0044BFB60FB6818461437BD464D
:1016A8005DF8047B704700BF0C03045080B483B01E
:1016B80000AF78607B68DB6803F44063002B01D1DE
:1016C800012300E0002318460C37BD465DF8047B73
:1016D800704780B483B000AF786039607B681B6B5B
:1016E80023F00F023B681A437B681A6300BF0C376C
:1016F800BD465DF8047B704780B483B000AF786066
:1017080039607B68DB6823F003023B681A437B6817
:10171800DA6000BF0C37BD465DF8047B704780B4C3
:1017280083B000AF78607B68DB6C03F0C003002BEC
:1017380001D1012300E0002318460C37BD465DF8AF
:10174800047B704780B483B000AF78607B689B6887
:1017580023F0004323F03F0343F001027B689A60C3
:1017680000BF0C37BD465DF8047B704780B483B07A
:1017780000AF78607B689B6823F0004323F03F0349
:1017880043F002027B689A6000BF0C37BD465DF8E3
:10179800047B704780B483B000AF78607B689B6837
:1017A80003F00103012B01D1012300E000231846B7
:1017B8000C37BD465DF8047B704780B483B000AF3A
:1017C800786039607B689B6823F0404323F03F03CF
:1017D8003A6802F08042134343F000427B689A6003
:1017E80000BF0C37BD465DF8047B704780B483B0FA
:1017F80000AF78607B689B6803F00043B3F1004F4B
:1018080001D1012300E0002318460C37BD465DF8DE
:10181800047B704780B483B000AF78607B689B68B6
:1018280023F0004323F03F0343F004027B689A60EF
:1018380000BF0C37BD465DF8047B704780B483B0A9
:1018480000AF78607B689B6823F0004323F03F0378
:1018580043F008027B689A6000BF0C37BD465DF80C
:10186800047B704780B483B000AF78607B681B68E6
:1018780003F00803082B01D1012300E000231846D8
:101888000C37BD465DF8047B704780B483B000AF69
:1018980078607B681B6803F01003102B01D10123CB
:1018A80000E0002318460C37BD465DF8047B7047FE
:1018B80080B483B000AF78607B6810221A6000BFE4
:1018C8000C37BD465DF8047B704780B483B000AF29
:1018D80078607B685B6843F008027B685A6000BFE9
:1018E8000C37BD465DF8047B704780B483B000AF09
:1018F80078607B685B6843F040027B685A6000BF91
:101908000C37BD465DF8047B704780B483B000AFE8
:1019180078607B685B6823F008027B685A6000BFC8
:101928000C37BD465DF8047B704780B483B000AFC8
:1019380078607B685B6823F010027B685A6000BFA0
:101948000C37BD465DF8047B704780B483B000AFA8
:1019580078607B685B6823F040027B685A6000BF50
:101968000C37BD465DF8047B704780B483B000AF88
:1019780078607B685B6823F080027B685A6000BFF0
:101988000C37BD465DF8047B704780B483B000AF68
:1019980078607B685B6803F01003102B01D101238A
:1019A80000E0002318460C37BD465DF8047B7047FD
:1019B80080B483B000AF78607B685B6803F0800315
:1019C800802B01D1012300E0002318460C37BD46C7
:1019D8005DF8047B7047000080B485B000AF786084
:1019E80039607B68FB600C4A3B6813441B781A46D5
:1019F800FB6813441B6808493A680A441278114680
:101A0800FA680A4443F00103136000BF1437BD4667
:101A18005DF8047B704700BFB808010880B485B042
:101A280000AF786039607B68FB600C4A3B68134400
:101A38001B781A46FB6813441B6808493A680A442D
:101A480012781146FA680A4423F00103136000BFB4
:101A58001437BD465DF8047B704700BFB80801081D
:101A680080B485B000AF786039607B68FB60084A55
:101A78003B6813441B781A46FB6813441B6803F041
:101A8800200318461437BD465DF8047B704700BF35
:101A9800B808010880B487B000AFF860B9607A6010
:101AA800FB687B610D4ABB6813441B781A467B6947
:101AB80013445B681B0C1B040849BA680A44127873
:101AC80011467A690A4411467A6813434B6000BF8D
:101AD8001C37BD465DF8047B704700BFB808010895
:101AE80080B487B000AFF860B9607A603B60FB688B
:101AF8007B613B6A102B14D1174ABB6813441B78CF
:101B08001A467B6913441A467B68D360124ABB683D
:101B180013441B781A467B6913441A463B68936042
:101B280013E00D4ABB6813441B781A467B691344BB
:101B38001A467B689360084ABB6813441B781A46A8
:101B48007B6913441A463B68D36000BF1C37BD4607
:101B58005DF8047B704700BFB808010880B487B0FF
:101B680000AFF860B9607A60FB687B61074ABB68C0
:101B780013441B781A467B6913441A467B689360A2
:101B880000BF1C37BD465DF8047B7047B8080108E4
:101B980080B483B000AF78607B681B6803F02003D3
:101BA800202B01D1012300E0002318460C37BD4645
:101BB8005DF8047B704780B483B000AF78607B68C1
:101BC80020225A6000BF0C37BD465DF8047B704781
:101BD80080B485B000AF786039607B68FB600C4AE0
:101BE8003B6813441B781A46FB6813441B68084972
:101BF8003A680A4412781146FA680A4443F0020324
:101C0800136000BF1437BD465DF8047B704700BF02
:101C1800B808010880B485B000AF786039607B6887
:101C2800FB600C4A3B6813441B781A46FB68134454
:101C38001B6808493A680A4412781146FA680A4447
:101C480043F00803136000BF1437BD465DF8047BFA
:101C5800704700BFB808010880B485B000AF78604D
:101C680039607B68FB600C4A3B6813441B781A4652
:101C7800FB6813441B6808493A680A4412781146FD
:101C8800FA680A4423F00203136000BF1437BD4604
:101C98005DF8047B704700BFB808010880B485B0C0
:101CA80000AF786039607B68FB600C4A3B6813447E
:101CB8001B781A46FB6813441B6808493A680A44AB
:101CC80012781146FA680A4423F00403136000BF2F
:101CD8001437BD465DF8047B704700BFB80801089B
:101CE80080B485B000AF786039607B68FB600C4ACF
:101CF8003B6813441B781A46FB6813441B68084961
:101D08003A680A4412781146FA680A4423F008032C
:101D1800136000BF1437BD465DF8047B704700BFF1
:101D2800B808010880B485B000AF786039607B6876
:101D3800FB600A4A3B6813441B781A46FB68134445
:101D48001B6803F00203022B01D1012300E00023EA
:101D580018461437BD465DF8047B7047B80801087B
:101D680080B584B000AF78600123FB817B681B6974
:101D78001846FFF79BFC0346002B2FD07B685B7A45
:101D8800DBB2022B11D07B685B7ADBB2042B0CD060
:101D98007B685B7ADBB2082B07D07B681B69184627
:101DA800FFF760FD0346012B18D1786800F0F8F8BA
:101DB8000346002B12D17B685B7ADBB2082B03D178
:101DC8007B6801225A7202E07B6820225A727B6883
:101DD8001B691846FFF71EFD0023FB81FB89184687
:101DE8001037BD4680BD80B586B002AFF860B960D7
:101DF8007A603B600021F868FFF740FC03461A460A
:101E08007968B868FFF7AAFE0021F868FFF736FC82
:101E180002463B68002100917968B868FFF760FEC8
:101E2800BA697968B868FFF735FE7968B868FFF766
:101E3800CFFE7968B868FFF7EDFE7968B868FFF7F4
:101E4800CBFD00BF1037BD4680BD80B584B000AF64
:101E5800F860B9607A607968B868FFF7DFFD79687B
:101E6800B868FFF71BFF7968B868FFF739FF79682A
:101E7800B868FFF7F1FE00227968B868FFF70AFE34
:101E880000BF1037BD4680BD80B584B000AF786014
:101E980039600223FB737B68DB79012B0FD17B68E8
:101EA800DA687B681B685B00D118FB7B7A6812686C
:101EB80002FB03F31A4638680EF0AAFC0AE07B68B6
:101EC800D968FB7B7A68126802FB03F31A46386804
:101ED8000EF09EFC00BF1037BD4680BD80B586B0B1
:101EE80000AFF860B9607A60FB685A69FB689B7953
:101EF80019461046FFF716FF0346DBB2012B37D110
:101F0800FB685A69BB68104698470346012B2FD1D6
:101F1800FB6804225A72FB685A697B681046984726
:101F2800FB685A69FB689B7919461046FFF798FDCC
:101F38000346002B19D1FB685A69FB689B7919463F
:101F48001046FFF76BFDFB685869FB689B791946DB
:101F5800FB681B681A46FFF79DFDFB685A69FB681A
:101F68009B7919461046FFF737FD0123FB7501E001
:101F78000023FB75FB7D18461837BD4680BD000061
:101F880080B500AF034A04490448FFF7A7FF00BF24
:101F980080BD00BFBF1B0008991B0008400300203C
:101FA80080B582B000AF78607B681B691846FFF780
:101FB8006CFC0346DBB2012B07D17B681B69184612
:101FC800FFF776FC7B6810225A727B685B7ADBB27B
:101FD800102B0CBF01230023DBB218460837BD467F
:101FE80080BD80B582B000AF78600B46FB70FB788F
:101FF800012B0DD17B681B691846FFF757FB034679
:10200800012B12D07B681B691846FFF703FC0CE014
:102018007B681B691846FFF782FB0346012B04D037
:102028007B681B691846FFF709FC00BF0837BD46E7
:1020380080BD000090B589B002AFF860084611462F
:102048001A4603467B810B463B811346FB800023DF
:102058007B61FB681B693C4A934201D13B4B7B6126
:102068007B69002B6BD0FB681A697B691A617B69F5
:102078000022DA71FB88012B61D03B89002B47D005
:102088007B695B7ADBB2082B42D0FB68DA687B6934
:10209800DA60FB681A687B691A60FB685A697B69B1
:1020A8005A61FB689A797B699A71FB681A797B692E
:1020B8001A717B691B69B96A1846FFF70AFB7B89A5
:1020C800012B21D07B89042B16D17B691B69032145
:1020D8001846FFF711FB7B6918697B6959697B69A9
:1020E8009B791C467B69DA687B691B6800931346F9
:1020F8002246FFF778FE07E07B89022B04D17B6933
:102108001B691846FFF7E1FB7B6908225A7216E043
:102118003B89002B13D17B699B7ADBB2082B0ED04D
:10212800FB685A797B695A717B89022B04D17B69D8
:102138001B691846FFF7D9FB7B6908229A727B69ED
:1021480018461C37BD4690BD0001045040030020CE
:1021580080B582B000AF78607B681B691846FFF7CE
:1021680019FB0346002B04D17B681B691846FFF74F
:10217800E9FA00BF0837BD4680BD80B586B000AF1C
:10218800F8600B467A607B810123FB82FB681B6940
:10219800002B46D07B89012B05D1F868FFF7E0FDBD
:1021A8000346FB823DE07B89042B1FD1FB681B693A
:1021B8001846FFF77BFA0346002B32D0FB68012252
:1021C8005A72FB681B691846FFF724FB00BFFB68BF
:1021D8005B7ADBB2042BFAD17968F868FFF754FE12
:1021E800FB6808225A720023FB821AE07B89022BC3
:1021F80017D1FB685B7ADBB2202B09D0FB685B7ACE
:10220800DBB2042B04D0FB685B7ADBB2102B08D15D
:10221800FB6808225A727968F868FFF735FE0023D0
:10222800FB82FB8A18461837BD4680BD80B582B050
:1022380000AF78600B467B8013463B807B681B6948
:102248001846FFF7A7FA0346002B04D07B681B69E2
:102258001846FFF78BFA7B681B691846FFF7A8FB3F
:102268000346002B04D07B681B691846FFF77DFBEB
:102278007B681B691846FFF788FB0346002B04D0D0
:102288007B681B691846FFF750FB3B88002B35D04D
:102298007B88012B1AD07B88022B05D17B681B69B0
:1022A8001846FFF732FB11E07B88042B0ED17B68C0
:1022B80018697B6859697B689B791A46FFF7C5FDE1
:1022C8007B681B6900211846FFF716FA7B68002215
:1022D800DA607B6800221A607B6800225A617B689A
:1022E80000229A717B6800221A717B681A697B68E0
:1022F8001B7919461046FFF7ECF90AE07B680022C3
:102308005A717B88022B04D17B681B691846FFF73A
:102318001CFB00BF0837BD4680BD000080B584B0F7
:1023280000AF78600B46FB707B681B691846FFF7A7
:1023380031FA0346FB7397F90F30012B04D17B6800
:102348001B691846FFF712FAFB78002B0FD17B6840
:102358001B697F211846FFF730FA00BF7B681B69AD
:102368001846FFF743FA0346012BF7D040E0FB7805
:10237800012B0FD17B681B692C491846FFF71DFA02
:1023880000BF7B681B691846FFF730FA0346012B2C
:10239800F7D02DE07B681B697F211846FFF70DFAFF
:1023A80000BF7B681B691846FFF720FA0346012B1C
:1023B800F7D00023BB8107E000BFBB891BB29BB2EB
:1023C80001339BB21BB2BB81BB891BB29BB2032BEF
:1023D800F2D97B681B6915491846FFF7EEF900BF6B
:1023E8007B681B691846FFF701FA0346012BF7D0F3
:1023F8000023BB8107E000BFBB891BB29BB201333E
:102408009BB21BB2BB81BB891BB29BB2032BF2D917
:1024180097F90F30012B04D17B681B691846FFF729
:1024280091F900BF1037BD4680BD00BF00007F4056
:1024380080B483B000AF78607B681B6843F001020A
:102448007B681A6000BF0C37BD465DF8047B704797
:1024580080B483B000AF78607B681B6823F001020A
:102468007B681A6000BF0C37BD465DF8047B704777
:1024780080B483B000AF786039607B681B6823F054
:1024880004023B681A437B681A6000BF0C37BD46DC
:102498005DF8047B704780B483B000AF78607B68D8
:1024A8001B6803F0040318460C37BD465DF8047B2F
:1024B800704780B483B000AF78607B68DB6A1846E9
:1024C8000C37BD465DF8047B704780B483B000AF1D
:1024D800786039607B683A681A6300BF0C37BD467C
:1024E8005DF8047B704780B483B000AF78603960D2
:1024F8007B683A685A6300BF0C37BD465DF8047BB9
:10250800704780B483B000AF786039607B683A6800
:102518009A6300BF0C37BD465DF8047B704780B4F2
:1025280083B000AF786039607B683A68DA6300BFCF
:102538000C37BD465DF8047B704780B483B000AFAC
:10254800786039607B683A681A6400BF0C37BD460A
:102558005DF8047B704780B483B000AF78607B6817
:102568005B6B18460C37BD465DF8047B704780B43A
:1025780083B000AF78607B689B6B18460C37BD460C
:102588005DF8047B704780B483B000AF78607B68E7
:10259800DB6B18460C37BD465DF8047B704780B48A
:1025A80083B000AF78607B681B6C18460C37BD465B
:1025B8005DF8047B704780B483B000AF78607B68B7
:1025C8005B6943F001027B685A6100BF0C37BD4666
:1025D8005DF8047B704780B483B000AF78607B6897
:1025E8001B6918460C37BD465DF8047B704780B4FC
:1025F80083B000AF786039607B683A689A6100BF41
:102608000C37BD465DF8047B704780B483B000AFDB
:10261800786039607B683A689A6200BF0C37BD46BB
:102628005DF8047B7047000080B584B000AF786027
:1026380087ED000AD7ED007AF5EEC07AF1EE10FAD0
:1026480003D54FF000033B600AE0D7ED007A9FED19
:10265800167AF4EEC77AF1EE10FA01DD134B3B60FF
:102668007B681B681846FFF724FFF8607B681B79B6
:10267800002B0CBF01230023DBB21A46FB6813446E
:1026880007EE903AB8EE677AD7ED007A27EE277A08
:10269800DFED056AC7EE267AFCEEE77A17EE903A88
:1026A80018461037BD4680BD0000C8420000C84229
:1026B80080B582B000AF786039607B681B681846C7
:1026C800FFF749FF02463B68934205D07B681B68C9
:1026D80039681846FFF707FF00BF0837BD4680BDB9
:1026E80080B582B000AF786039607B681B68184697
:1026F800FFF73DFF02463B68934205D07B681B68A5
:1027080039681846FFF7FDFE00BF0837BD4680BD93
:1027180080B582B000AF786039607B681B68184666
:10272800FFF731FF02463B68934205D07B681B6880
:1027380039681846FFF7F3FE00BF0837BD4680BD6D
:1027480080B582B000AF786039607B681B68184636
:10275800FFF725FF02463B68934205D07B681B685C
:1027680039681846FFF7E9FE00BF0837BD4680BD47
:1027780080B584B000AF786087ED000A97ED000A55
:102788007868FFF751FFF860F9687868FFF790FFFD
:1027980000BF1037BD4680BD80B584B000AF7860FB
:1027A80087ED000A97ED000A7868FFF73DFFF860AB
:1027B800F9687868FFF794FF00BF1037BD4680BD01
:1027C80080B584B000AF786087ED000A97ED000A05
:1027D8007868FFF729FFF860F9687868FFF798FFCD
:1027E80000BF1037BD4680BD80B584B000AF7860AB
:1027F80087ED000A97ED000A7868FFF715FFF86083
:10280800F9687868FFF79CFF00BF1037BD4680BDA8
:1028180080B485B000AF78607B681B689A68074B06
:102828001340FB60FB68062B0CBF01230023DBB2BF
:1028380018461437BD465DF8047B70470700010051
:1028480080B584B000AF78600B46FB707B681B686E
:102858001846FFF720FEF860FB78002B1ED07B6837
:102868001B68324A934213D07B681B68304A9342F4
:102878000ED07B681B682F4A934209D07B681B687F
:102888002D4A934204D07B681B682C4A934205D199
:102898007B681B6800211846FFF717FEFB68042BAE
:1028A80011D07B681B6804211846FFF7E1FD7B689F
:1028B8001B681846FFF77FFE7B681B68F968184697
:1028C800FFF7D6FD04E07B681B681846FFF773FE28
:1028D8007B681B681846FFF7ABFDFB78002B20D000
:1028E8007B681B68114A934213D07B681B68104AA7
:1028F80093420ED07B681B680E4A934209D07B68CE
:102908001B680D4A934204D07B681B680B4A9342AC
:1029180007D17B681A687B685B7919461046FFF710
:10292800D4FD00BF1037BD4680BD00BF002C01405C
:10293800003401400040014000440140004801408B
:1029480080B582B000AF78607B681B681846FFF7D7
:102958007FFD00BF0837BD4680BD0000B0B5A6B0FA
:1029680000AF87ED080B87ED061B78613961FA60C7
:10297800BB6087ED002B3B69DB007A6913447B66FB
:10298800D7F8A830002B0ED1BB68002B0BD1D7E9A4
:102998000623D7E90801FEF73FF80346002B02D0CB
:1029A800D7E900234DE2D7E90623D7E90801FEF766
:1029B8001FF80346002B02D0D7E9002341E2BB6889
:1029C800DB007A6E1344D3E90023D7E90801FEF748
:1029D8000FF80346002B00F0938097F8AC30002BDB
:1029E80006D0BB68DB007A691344D3E9002328E2E8
:1029F800BB6801337B673B69013BBA689A4201D1E6
:102A080000237B67BB68DB007A6E1344D3E900239D
:102A1800C7E920237B6FDB007A6E1344D3E90023D8
:102A2800C7E91623BB68DB007A691344D3E900239E
:102A3800C7E91E237B6FDB007A691344D3E90023BF
:102A4800C7E91423D7E92023D7E91601FDF7BCFF0E
:102A58000346002B12D0D7E91623D7E90801FDF762
:102A6800D1FF0346002B04D0D7E91423C7E922235A
:102A780043E0D7E91E23C7E922233EE0D7E908232C
:102A8800D7E91601FDF780FB02460B4614461D46A2
:102A9800D7E92023D7E91601FDF776FB02460B4656
:102AA80020462946FDF752FE02460B46C7E90C238D
:102AB800D7E90C234FF000009C49FDF765FB02465F
:102AC8000B46C7E90A23D7E91E23D7E90C01FDF70E
:102AD80013FD02460B4614461D46D7E91423D7E9D1
:102AE8000A01FDF709FD02460B4620462946FDF777
:102AF8004DFB02460B46C7E92223D7E92223A0E172
:102B080097F8B030002B22D0D7F8A830002B10D07F
:102B1800FB681B68D7F8A8209A4204D1FB681B6899
:102B28005A1EFB681A60D7F8A830013BC7F8A830CE
:102B38000DE0FB681B68D7F8A8209A4203D13B69CF
:102B48005A1EFB681A603B69013BC7F8A830FB684E
:102B58001B68C7F89430D7F89430DB007A6E1344BA
:102B6800D3E90023D7E90801FDF756FF0346002BF8
:102B780022D012E0D7F89420D7F8A8309A4244D04F
:102B88003B69013BD7F894209A4203DAD7F894308E
:102B9800013300E00023C7F89430D7F89430DB0005
:102BA8007A6E1344D3E90023D7E90801FDF734FF0F
:102BB8000346002BDED129E00BE0D7F89430002B38
:102BC80003DDD7F89430013B01E03B69013BC7F8CE
:102BD8009430D7F89430DB007A6E1344D3E900239D
:102BE800D7E90801FDF704FF0346002BE5D13B694F
:102BF800013BD7F894209A4203DAD7F8943001338E
:102C080000E00023C7F8943000E000BFFB68D7F865
:102C180094201A6097F8AC30002B6CD04FF000026B
:102C2800434BC7E90E23D7F89430DB007A6E134480
:102C3800D3E90023144623F0004522462B46D7E962
:102C48000E01FDF759FC02460B46C7E91A23D7E9DE
:102C58001A23D7E90E01FDF7DFFE0346002B03D048
:102C6800D7E90E23C7E91A234FF000024FF080433B
:102C7800D7E91A01FDF76AFD02460B46C7E91A2390
:102C8800D7F89430DB007A6E1344D3E90001D7E912
:102C98001A23FDF779FA02460B46D7E90801FDF732
:102CA800B1FE0346002B09D0D7F89430DB007A69CF
:102CB8001344D3E90023C7E92223C0E0D7F89430AE
:102CC800002B0BD13B6903F10053013BDB007A6910
:102CD8001344D3E90023C7E92223B0E0D7F894309E
:102CE80003F10053013BDB007A691344D3E9002365
:102CF800C7E92223A3E0D7F89430002B1AD13B6907
:102D080003F10053013BDB007A6E1344D3E900233F
:102D1800C7E920233B6903F10053013BDB007A69D3
:102D28001344D3E90023C7E91E231BE00000F03F4A
:102D38000000203DD7F8943003F10053013BDB003D
:102D48007A6E1344D3E90023C7E92023D7F89430D7
:102D580003F10053013BDB007A691344D3E90023F4
:102D6800C7E91E23D7F89430DB007A6E1344D3E901
:102D78000023C7E91623D7F89430DB007A69134497
:102D8800D3E90023C7E91423D7E92023D7E916019B
:102D9800FDF71AFE0346002B12D0D7E91623D7E910
:102DA8000801FDF72FFE0346002B04D0D7E91423B2
:102DB800C7E9222343E0D7E91E23C7E922233EE0DF
:102DC800D7E90823D7E91601FDF7DEF902460B46D5
:102DD80014461D46D7E92023D7E91601FDF7D4F993
:102DE80002460B4620462946FDF7B0FC02460B4634
:102DF800C7E91223D7E912234FF000001549FDF760
:102E0800C3F902460B46C7E91023D7E91E23D7E9C1
:102E18001201FDF771FB02460B4614461D46D7E921
:102E28001423D7E91001FDF767FB02460B4620463D
:102E38002946FDF7ABF902460B46C7E92223D7E935
:102E4800222343EC172BB0EE470AF0EE670A9837B7
:102E5800BD46B0BD0000F03F80B485B000AF7860DB
:102E680039607B68012283F8D8203B68D3E90023C6
:102E78007968C1E902237B6801221A600023FB609C
:102E88000CE07B68D3E902237868F9680231C9004D
:102E98000144C1E90023FB680133FB60FB68182B80
:102EA800EFDD00BF00BF1437BD465DF8047B7047F7
:102EB80080B586B000AF87ED040BF860B9607A6022
:102EC800BB68D3E902017B68D3E90023FDF77CFDE9
:102ED8000346002B05D17B68D3E90023B968C1E913
:102EE8000223F868BB681033C82219460DF090FC1D
:102EF800F968D7E90423C1E93223FB6803F1D0005C
:102F0800BB681033C02219460DF082FCBB6803F180
:102F18001000FB68C833C82219460DF079FC00BFC1
:102F28001837BD4680BD80B485B000AF7860396081
:102F38007B68012283F860203B68D3E90023796825
:102F4800C1E902237B6801221A600023FB600CE0C0
:102F58007B68D3E902237868F9680231C900014423
:102F6800C1E90023FB680133FB60FB68092BEFDD37
:102F780000BF00BF1437BD465DF8047B704780B5BD
:102F880086B000AF87ED040BF860B9607A60BB6863
:102F9800D3E902017B68D3E90023FDF715FD034659
:102FA800002B05D17B68D3E90023B968C1E9022366
:102FB800F868BB681033502219460DF029FCF968EF
:102FC800D7E90423C1E91423FB6803F15800BB685F
:102FD8001033482219460DF01BFCBB6803F11000A2
:102FE800FB685033502219460DF012FC00BF183709
:102FF800BD4680BD80B58CB002AF78607B6800228A
:103008001A727B6801225A607B681033BB61002307
:103018007B741A4BFB611A4B3B620123BB74002380
:1030280087F82430022387F825300923FB60092319
:103038003B7407F10C0008230093042301220421A8
:10304800FEF7F8FF02467B68DA607B68DB680221DE
:103058001846FFF763F97B68DB681846FFF778F8CE
:103068007B68DB6801211846FEF7BBFF7B680122FD
:103078001A7200BF2837BD4680BD00BF000104504A
:103088000000024080B5A6B000AF78601A4BBB6064
:1030980000233B7300237B7307F108031846FEF7F0
:1030A80075FA02467B68DA607B68DB68002118469F
:1030B800FDF727FF7B68DB6802211846FEF756F804
:1030C8007B68DB6802211846FEF7F0F87B68DB684E
:1030D8001846FFF79DFB034687F8973097F8973017
:1030E800002B05D17B68DB6800211846FFF7A8FB99
:1030F80000BF9837BD4680BD0004004080B5A6B02B
:1031080000AF78601A4BBB6000233B7300237B73CE
:1031180007F108031846FEF739FA02467B68DA60B9
:103128007B68DB6800211846FDF7EBFE7B68DB68EF
:1031380002211846FEF75AF97B68DB680221184617
:10314800FEF7FCF97B68DB681846FFF761FB03466E
:1031580087F8973097F89730002B05D17B68DB68A4
:1031680000211846FFF76CFB00BF9837BD4680BDAD
:103178000004004000000000B0B5BEB004AF00235A
:10318800C7F8C43010E0974AD7F8C4301A4400236F
:1031980013709549D7F8C420002321F81230D7F8C6
:1031A800C4300133C7F8C430D7F8C430072BEADD80
:1031B8008E4A002313608E4A002313608D4B03F55B
:1031C80080435B698C4A04211846FEF7D6FF8A4B78
:1031D800DB898A4A1380884B1B88884AD381864BAF
:1031E8009B89864A5380844B5B88844A9381824BAF
:1031F8005B89824A9380804B9B88804A53817E4BAF
:103208001B897E4AD3807C4BDB887C4A1381002350
:10321800C7F8C43011E0794AD7F8C43032F813003F
:103228007649D7F8C43003F10802034621F8123072
:10323800D7F8C4300133C7F8C430D7F8C430072BE7
:10324800E9DD6E4B1B8A1846FDF7DCF804460D468F
:103258006B4A6C496C4845EC104BFFF729FE674BED
:1032680003F5D46353E902236449C1E90C2300231D
:10327800C7F8C4301EE0D7F8C43001335F4AD333EF
:10328800DB001344D3E90023C7E92E235B4BD3E9C2
:103298000C23D7E92E01FDF7BFFB0346002B04D012
:1032A8005649D7E92E23C1E90C23D7F8C430013396
:1032B800C7F8C430D7F8C430172BDCDD4F4B5B8A16
:1032C8001846FDF79FF804460D46504A50495148A4
:1032D80045EC104BFFF753FE484B03F54E6353E99B
:1032E80002234649C1E90E230023C7F8C4301FE072
:1032F800D7F8C4300133414A03F29B13DB0013446F
:10330800D3E90023C7E92E233C4BD3E90E23D7E9A1
:103318002E01FDF781FB0346002B04D03749D7E97E
:103328002E23C1E90E23D7F8C4300133C7F8C430BF
:10333800D7F8C430082BDBDD304B93ED0E7B364AD3
:1033480036493748B0EE470AF0EE670AFFF7B0FD96
:103358002A4B03F57B6353E902232849C1E910236B
:103368000023C7F8C4301FE0D7F8C4300133234A1C
:1033780003F2F513DB001344D3E90023C7E92E2336
:103388001E4BD3E91023D7E92E01FDF727FB03468F
:10339800002B04D01949D7E92E23C1E91023D7F807
:1033A800C4300133C7F8C430D7F8C430172BDBDD7D
:1033B800124B9B8A1846FDF725F804460D46194A14
:1033C80019491A4845EC104BFFF772FD0B4B03F5F2
:1033D800036353E902230949C1E90E230023C7F80F
:1033E800C43045E0C80300207C030020740300209B
:1033F80078030020081500208C030020D00300204B
:103408007800002010590020680A00209800002049
:10341800905C0020A8100020B0000020405E002032
:103428007813002080000020F0590020F80B0020BD
:10343800D7F8C43001338D4A03F20513DB00134477
:10344800D3E90023C7E92E23884BD3E90E23D7E914
:103458002E01FDF7E1FA0346002B04D08349D7E992
:103468002E23C1E90E23D7F8C4300133C7F8C4307E
:10347800D7F8C430172BDBDD7C4BDB8A1846FCF70A
:10348800C1FF04460D467A4A7A497B4845EC104B01
:10349800FFF70EFD754B03F5A26353E90223734949
:1034A800C1E912230023C7F8C4301EE0D7F8C4309E
:1034B80001336E4AA133DB001344D3E90023C7E983
:1034C8002E236A4BD3E91223D7E92E01FDF7A4FA7C
:1034D8000346002B04D06549D7E92E23C1E91223FE
:1034E800D7F8C4300133C7F8C430D7F8C430172B25
:1034F800DCDD5E4B1B8B1846FCF784FF04460D464B
:103508005E4A5F495F4845EC104BFFF7D1FC574BCB
:10351800D3E9DE23C7E938230023C7F8C4301CE009
:10352800D7F8C4300133514A6F33DB001344D3E971
:103538000023C7E92E23D7E92E23D7E93801FDF761
:103548004DFA0346002B03D0D7E92E23C7E93823C9
:10355800D7F8C4300133C7F8C430D7F8C430172BB4
:10356800DEDD424B5B8B1846FCF74CFF04460D46EC
:10357800454A4649464845EC104BFFF799FC3B4BFA
:10358800D3E97A23C7E936230023C7F8C4301CE0FF
:10359800D7F8C4300133354A3D33DB001344D3E94F
:1035A8000023C7E92E23D7E92E23D7E93601FDF7F3
:1035B80015FA0346002B03D0D7E92E23C7E9362393
:1035C800D7F8C4300133C7F8C430D7F8C430172B44
:1035D800DEDD264B9B8B1846FCF714FF04460D4690
:1035E8002C4A2D492D4845EC104BFFF7C8FC1F4BC2
:1035F80003F5586353E90223C7E934230023C7F8C6
:10360800C4301DE0D7F8C4300133184A03F2AF13B1
:10361800DB001344D3E90023C7E92E23D7E92E237F
:10362800D7E93401FDF7DAF90346002B03D0D7E9CF
:103638002E23C7E93423D7F8C4300133C7F8C43080
:10364800D7F8C430082BDDDD154A1649164897ED22
:10365800340BFFF72DFC054B03F5626353E9022396
:10366800C7E932230023C7F8C4303DE0D003002067
:103678007000002030580020D80800206800002082
:103688005057002048070020600000207056002096
:10369800B8050020A0000020F85C00204811002098
:1036A800A8000020605D0020E8110020D7F8C43091
:1036B8000133BB4A03F2C313DB001344D3E90023ED
:1036C800C7E92E23D7E92E23D7E93201FDF7A4F95C
:1036D8000346002B03D0D7E92E23C7E93223D7F8B6
:1036E800C4300133C7F8C430D7F8C430172BDDDD38
:1036F800AB4BDB8B1846FCF785FE04460D46A94A02
:10370800A949AA4845EC104BFFF7D2FBA44BD3E9D3
:103718001623C7E934230023C7F8C4301CE0D7F8C0
:10372800C43001339E4A0B33DB001344D3E9002332
:10373800C7E92E23D7E92E23D7E93401FDF74EF93F
:103748000346002B03D0D7E92E23C7E93423D7F843
:10375800C4300133C7F8C430D7F8C430172BDEDDC6
:103768008F4B93ED0C7BB0EE470AF0EE670A0CF036
:1037780053FEB0EE407AF0EE607A9FED871BB0EE14
:10378800470AF0EE670A0CF011FE87ED2E0B4FF09A
:1037980000024FF00003D7E92E01FDF71FF9034699
:1037A800002B10D0D7F8B830BB67D7F8BC3083F0FF
:1037B8000043FB67D7E91E01FDF74EF903469BB2AC
:1037C8005B429BB205E0D7E92E01FDF745F90346B8
:1037D8009BB2774A1380724B93ED107BB0EE470A89
:1037E800F0EE670A0CF018FEB0EE407AF0EE607A60
:1037F8009FED691BB0EE470AF0EE670A0CF0D6FDA4
:1038080087ED2E0B4FF000024FF00003D7E92E0191
:10381800FDF7E4F80346002B10D0D7F8B8303B6723
:10382800D7F8BC3083F000437B67D7E91C01FDF76C
:1038380013F903469BB25B429BB205E0D7E92E0120
:10384800FDF70AF903469BB2594A5380544B93ED4E
:103858000E7BB0EE470AF0EE670A0CF0DDFDB0EE25
:10386800407AF0EE607A9FED4C1BB0EE470AF0EE1E
:10387800670A0CF09BFD87ED2E0B4FF000024FF00E
:103888000003D7E92E01FDF7A9F80346002B10D055
:10389800D7F8B830BB66D7F8BC3083F00043FB6676
:1038A800D7E91A01FDF7D8F803469BB25B429BB2F1
:1038B80005E0D7E92E01FDF7CFF803469BB23C4A55
:1038C8009380374B93ED127BB0EE470AF0EE670A10
:1038D8000CF0A2FDB0EE407AF0EE607A9FED2E1B60
:1038E800B0EE470AF0EE670A0CF060FD87ED2E0B8C
:1038F8004FF000024FF00003D7E92E01FDF76EF8F4
:103908000346002B10D0D7F8B8303B66D7F8BC3048
:1039180083F000437B66D7E91801FDF79DF803465D
:103928009BB25B429BB205E0D7E92E01FDF794F804
:1039380003469BB21E4AD38097ED380B0CF06CFD02
:10394800B0EE407AF0EE607A9FED131BB0EE470AB6
:10395800F0EE670A0CF02AFD87ED2E0B4FF00002FF
:103968004FF00003D7E92E01FDF738F80346002B86
:1039780020D0D7F8B830BB65D7F8BC3083F0004307
:10398800FB65D7E91601FDF767F803469BB25B4272
:103998009BB215E0AFF30080000000000000F0408B
:1039A800D003002058000020905500202804002053
:1039B800A0030020D7E92E01FDF74EF803469BB27D
:1039C800A94A138197ED360B0CF026FDB0EE407A2C
:1039D800F0EE607A9FEDA21BB0EE470AF0EE670AA0
:1039E8000CF0E4FC87ED2E0B4FF000024FF00003C3
:1039F800D7E92E01FCF7F2FF0346002B10D0D7F8C9
:103A0800B8303B65D7F8BC3083F000437B65D7E915
:103A18001401FDF721F803469BB25B429BB205E017
:103A2800D7E92E01FDF718F803469BB28E4A538159
:103A380097ED320B0CF0F0FCB0EE407AF0EE607AC5
:103A48009FED871BB0EE470AF0EE670A0CF0AEFC5C
:103A580087ED2E0B4FF000024FF00003D7E92E013F
:103A6800FCF7BCFF0346002B10D0D7F8B830BB6476
:103A7800D7F8BC3083F00043FB64D7E91201FCF7A8
:103A8800EBFF03469BB25B429BB205E0D7E92E01F0
:103A9800FCF7E2FF03469BB2734A938197ED340B20
:103AA8000CF0BAFCB0EE407AF0EE607A9FED6C1B39
:103AB800B0EE470AF0EE670A0CF078FC87ED2E0BA3
:103AC8004FF000024FF00003D7E92E01FCF786FF04
:103AD8000346002B10D0D7F8B8303B64D7F8BC3079
:103AE80083F000437B64D7E91001FCF7B5FF034678
:103AF8009BB25B429BB205E0D7E92E01FCF7ACFF15
:103B080003469BB2584AD381584BB3F84230564AC1
:103B18001382574B03F5D46353E902235449C1E98F
:103B280010230023C7F8C4301EE0D7F8C43001338F
:103B38004F4AD333DB001344D3E90023C7E92E23CC
:103B48004B4BD3E91023D7E92E01FCF747FF034677
:103B5800002B04D04649D7E92E23C1E91023D7F812
:103B6800C4300133C7F8C430D7F8C430172BDCDDB4
:103B78003F4B5B8A1846FCF745FC04460D463D4A18
:103B88003D493E4845EC104BFFF792F9384B03F599
:103B9800356353E90223C7E932230023C7F8C43049
:103BA8001DE0D7F8C4300133314A03F26913DB0052
:103BB8001344D3E90023C7E92E23D7E92E23D7E9F5
:103BC8003201FCF729FF0346002B03D0D7E92E2347
:103BD800C7E93223D7F8C4300133C7F8C430D7F85F
:103BE800C430172BDDDD224B03F5036353E90223B1
:103BF8001F49C1E90E230023C7F8C4301FE0D7F8D6
:103C0800C43001331A4A03F20513DB001344D3E925
:103C18000023C7E92E23164BD3E90E23D7E92E013B
:103C2800FCF7DCFE0346002B04D01149D7E92E230C
:103C3800C1E90E23D7F8C4300133C7F8C430D7F828
:103C4800C430172BDBDD0A4B03F5A26353E90223CB
:103C58000749C1E912230023C7F8C4302FE000BF89
:103C6800000000000000F040A00300200000002039
:103C7800D003002090000020B05B0020180F002027
:103C8800D7F8C4300133A44AA133DB001344D3E985
:103C98000023C7E92E23A04BD3E91223D7E92E012D
:103CA800FCF79CFE0346002B04D09B49D7E92E2342
:103CB800C1E91223D7F8C4300133C7F8C430D7F8A4
:103CC800C430172BDCDD944BD3E9DE23C7E9382356
:103CD8000023C7F8C4301CE0D7F8C43001338E4A3B
:103CE8006F33DB001344D3E90023C7E92E23D7E958
:103CF8002E23D7E93801FCF78FFE0346002B03D0AB
:103D0800D7E92E23C7E93823D7F8C4300133C7F8D9
:103D1800C430D7F8C430172BDEDD7F4BD3E97A23C4
:103D2800C7E936230023C7F8C4301CE0D7F8C430ED
:103D38000133794A3D33DB001344D3E90023C7E953
:103D48002E23D7E92E23D7E93601FCF765FE034673
:103D5800002B03D0D7E92E23C7E93623D7F8C43080
:103D68000133C7F8C430D7F8C430172BDEDD6A4BEF
:103D78009B8B1846FCF746FB04460D46674A684984
:103D8800684845EC104BFFF793F8634B03F51C6349
:103D980053E90223C7E934230023C7F8C4301DE0E0
:103DA800D7F8C43001335C4A03F23713DB001344FD
:103DB800D3E90023C7E92E23D7E92E23D7E9340115
:103DC800FCF72AFE0346002B03D0D7E92E23C7E9C8
:103DD8003423D7F8C4300133C7F8C430D7F8C43017
:103DE800172BDDDD4C4BD3E916234B49C1E90C23D6
:103DF8000023C7F8C4301EE0D7F8C4300133464A60
:103E08000B33DB001344D3E90023C7E92E23424BCD
:103E1800D3E90C23D7E92E01FCF7E0FD0346002B7C
:103E280004D03D49D7E92E23C1E90C23D7F8C43083
:103E38000133C7F8C430D7F8C430172BDCDD364B54
:103E480093ED107BB0EE470AF0EE670A0CF0E4FA47
:103E5800B0EE407AF0EE607A9FED2D1BB0EE470A87
:103E6800F0EE670A0CF0A2FA87ED2E0B4FF0000275
:103E78004FF00003D7E92E01FCF7B0FD0346002BF5
:103E880010D0D7F8B830BB63D7F8BC3083F0004304
:103E9800FB63D7E90E01FCF7DFFD03469BB25B42EB
:103EA8009BB205E0D7E92E01FCF7D6FD03469BB28D
:103EB8001D4A138097ED320B0CF0AEFAB0EE407A43
:103EC800F0EE607A9FED121BB0EE470AF0EE670A3B
:103ED8000CF06CFA87ED2E0B4FF000024FF0000348
:103EE800D7E92E01FCF77AFD0346002B1ED0D7F840
:103EF800B8303B63D7F8BC3083F000437B63D7E925
:103F08000C01FCF7A9FD03469BB25B429BB213E090
:103F1800000000000000F040D003002088000020CE
:103F2800D05A0020880D0020B4030020D7E92E01C4
:103F3800FCF792FD03469BB2A94A5380A94B93ED27
:103F48000E7BB0EE470AF0EE670A0CF065FAB0EEA9
:103F5800407AF0EE607A9FEDA01BB0EE470AF0EED3
:103F6800670A0CF023FA87ED2E0B4FF000024FF092
:103F78000003D7E92E01FCF731FD0346002B10D0D2
:103F8800D7F8B830BB62D7F8BC3083F00043FB6287
:103F9800D7E90A01FCF760FD03469BB25B429BB27E
:103FA80005E0D7E92E01FCF757FD03469BB28C4A82
:103FB80093808C4B93ED127BB0EE470AF0EE670AC4
:103FC8000CF02AFAB0EE407AF0EE607A9FED821B90
:103FD800B0EE470AF0EE670A0CF0E8F987ED2E0B11
:103FE8004FF000024FF00003D7E92E01FCF7F6FC72
:103FF8000346002B10D0D7F8B8303B62D7F8BC3056
:1040080083F000437B62D7E90801FCF725FD0346EE
:104018009BB25B429BB205E0D7E92E01FCF71CFD81
:1040280003469BB26E4AD38097ED380B0CF0F4F937
:10403800B0EE407AF0EE607A9FED671BB0EE470A6B
:10404800F0EE670A0CF0B2F987ED2E0B4FF0000284
:104058004FF00003D7E92E01FCF7C0FC0346002B04
:1040680010D0D7F8B830BB61D7F8BC3083F0004324
:10407800FB61D7E90601FCF7EFFC03469BB25B4204
:104088009BB205E0D7E92E01FCF7E6FC03469BB29C
:10409800534A138197ED360B0CF0BEF9B0EE407A17
:1040A800F0EE607A9FED4C1BB0EE470AF0EE670A1F
:1040B8000CF07CF987ED2E0B4FF000024FF0000357
:1040C800D7E92E01FCF78AFC0346002B10D0D7F85D
:1040D800B8303B61D7F8BC3083F000437B61D7E947
:1040E8000401FCF7B9FC03469BB25B429BB205E0B6
:1040F800D7E92E01FCF7B0FC03469BB2384A53813E
:1041080097ED340B0CF088F9B0EE407AF0EE607A57
:104118009FED311BB0EE470AF0EE670A0CF046F946
:1041280087ED2E0B4FF000024FF00003D7E92E0168
:10413800FCF754FC0346002B10D0D7F8B830BB600E
:10414800D7F8BC3083F00043FB60D7E90201FCF7E5
:1041580083FC03469BB25B429BB205E0D7E92E0184
:10416800FCF77AFC03469BB21D4A93811D4B93EDE5
:104178000C7BB0EE470AF0EE670A0CF04DF9B0EE92
:10418800407AF0EE607A9FED141BB0EE470AF0EE2D
:10419800670A0CF00BF987ED2E0B4FF000024FF079
:1041A8000003D7E92E01FCF719FC0346002B1BD0AE
:1041B800D7F8B8303B60D7F8BC3083F000437B6059
:1041C800D7E90001FCF748FC03469BB25B429BB26F
:1041D80010E000BFAFF30080000000000000F040D6
:1041E800B4030020D0030020D7E92E01FCF734FCEB
:1041F80003469BB2B44AD381B44BB3F84420B24BC4
:104208001A82B24BD3E90201B14B03F580437033F4
:10421800D3E90023FBF7B8FF02460B46AD49C1E9D5
:104228000A23AD4BC7F8B430AC4BD3F82831D3E9E7
:104238000023C7E92A23A54BD3E900014FF0000268
:10424800A74BFCF759F902460B46D7E92A01FBF7B9
:104258009BFF02460B46C7E92823D7F8B4301868F5
:104268009B4B03F58043996C994B03F58043DA6BBC
:10427800974B03F580431B6C944C94ED067B00240C
:104288000294012401940093B0EE472AF0EE672AC5
:104298001346944A9FED8A1B97ED280BFEF75EFBA9
:1042A80087ED260B8B4B904A1A624FF000024FF0B5
:1042B8000003D7E92601FCF787FB0346002B04D14E
:1042C8004FF40073C7F8C43002E00023C7F8C430C5
:1042D800804B1B6AD7F8C42011461846FEF787F9A9
:1042E8007C4B1A6AD7F8C430DB4303F400731946D1
:1042F8001046FEF78AF9774B7B4A1A624FF00002A4
:104308004FF00003D7E92601FCF75EFB0346002BBC
:1043180004D14FF48043C7F8C43002E00023C7F843
:10432800C4306C4B1B6AD7F8C42011461846FEF7F8
:104338005EF9684B1A6AD7F8C430DB4303F480434C
:1043480019461046FEF761F9624B674A1A62614BDB
:10435800D3E90A014FF000024FF00003FCF734FBE9
:104368000346002B04D14FF48073C7F8C43002E031
:104378000023C7F8C430574B1B6AD7F8C42011462E
:104388001846FEF734F9534B1A6AD7F8C430DB43A2
:1043980003F4807319461046FEF737F94D4B524A1D
:1043A8001A624C4BD3E90A014FF000024FF00003A8
:1043B800FCF70AFB0346002B04D14FF40043C7F86F
:1043C800C43002E00023C7F8C430424B1B6AD7F858
:1043D800C42011461846FEF70AF93E4B1A6AD7F868
:1043E800C430DB4303F4004319461046FEF70DF9C9
:1043F800384B3D4A1A62374BD3E90A014FF00002A5
:104408004FF00003FCF7E0FA0346002B04D14FF409
:104418008053C7F8C43002E00023C7F8C4302D4BDE
:104428001B6AD7F8C42011461846FEF7E0F8294B56
:104438001A6AD7F8C430DB4303F480531946104690
:10444800FEF7E3F8234B294A1A62224BD3E90A0103
:104458004FF000024FF00003FCF7B6FA0346002BBA
:1044680004D14FF48053C7F8C43002E00023C7F8E2
:10447800C430184B1B6AD7F8C42011461846FEF7FB
:10448800B6F8144B1A6AD7F8C430DB4303F48053E8
:1044980019461046FEF7B9F80E4B134A1A620D4B2F
:1044A800D3E90A014FF000024FF00003FCF78CFA41
:1044B8000346002B1CD14FF40053C7F8C4301AE050
:1044C8000000000000000000B403002000000020ED
:1044D80008150020D003002080550020205F002010
:1044E8000000E03F4C550020001000480004004840
:1044F8000023C7F8C430C14B1B6AD7F8C420114643
:104508001846FEF774F8BD4B1A6AD7F8C430DB4377
:1045180003F4005319461046FEF777F8B74BB84A2C
:104528001A62B64BD3E90A014FF000024FF00003BC
:10453800FCF74AFA0346002B04D14FF40063C7F88E
:10454800C43002E00023C7F8C430AC4B1B6AD7F86C
:10455800C42011461846FEF74AF8A84B1A6AD7F83D
:10456800C430DB4303F4006319461046FEF74DF8E8
:10457800A448FEF730F8C7F89400D7F8943003F051
:104588000403002B0CBF01230023DBB287F8933010
:104598009B48FEF720F8C7F89400D7F8943003F04A
:1045A8004003002B0CBF01230023DBB287F89230B5
:1045B800954B03F5804393F88530062B0BD8924B27
:1045C80003F5804393F885300133DAB28E4B03F557
:1045D800804383F885208C4B03F5804393F8803023
:1045E80023F07F03DBB2002B15D1874B03F5804303
:1045F8001A4692F8803043F0800382F88030824B6C
:1046080003F580431A4692F88030062161F30203CD
:1046180082F88030D7E17C4B03F5804393F88030F3
:10462800C3F30203DBB2013B042B00F2728101A247
:1046380052F823F0514600084D4700085948000831
:10464800734800088D48000897F89330002B2BD04A
:104658006D4B03F580431A4692F880306FF3C4031C
:1046680082F88030684B03F580431A4692F8803010
:10467800032161F3020382F88030634B03F5804322
:104688001A4692F881306FF3000382F881305B4B51
:10469800012283F85620594B002283F85420574BA7
:1046A800002283F855208BE1574B03F5804393F89C
:1046B800803003F01803DBB2082B21D14F4B812245
:1046C80083F85420504B03F5804393F88530042B2E
:1046D80040F276814C4B03F58043002283F8852015
:1046E800494B03F580431A4692F88030022161F362
:1046F800C40382F88030414B812283F855205FE162
:104708003E4B812283F855203F4B03F5804393F8B5
:104718008530042B40F254813B4B03F58043002243
:1047280083F88520384B03F580431A4692F8803089
:10473800012161F3C40382F88030304B812283F871
:1047480054203DE197F89230002B2BD02E4B03F5E7
:1047580080431A4692F880306FF3461382F880300F
:10476800294B03F580431A4692F88030042161F3FF
:10477800020382F88030244B03F580431A4692F8EE
:1047880081306FF3000382F881301C4B012283F8DB
:1047980056201A4B002283F85420184B002283F825
:1047A80055200FE1184B03F5804393F8803003F050
:1047B8006003DBB2202B29D1104B7F2283F85420D1
:1047C800114B03F5804393F88530042B40F2FA80AF
:1047D8000D4B03F58043002283F885200A4B03F52F
:1047E80080431A4692F88030022161F3461382F81A
:1047F8008030024B7F2283F85520E3E0D00300206D
:10480800001000480004004808150020C64B7F220D
:1048180083F85520C54B03F5804393F88530042B66
:1048280040F2D080C14B03F58043002283F88520F5
:10483800BE4B03F580431A4692F88030012161F39C
:10484800461382F88030B84B7F2283F85420B9E0B1
:10485800B54B012283F85620B34B002283F854202D
:10486800B14B002283F85520ADE0AF4B012283F80D
:104878005620AD4B002283F85420AB4B002283F81E
:104888005520A0E097F89230002B2AD0A74B03F5CB
:1048980080431A4692F88030012161F3020382F8BE
:1048A8008030A24B03F580431A4692F8813043F0DA
:1048B800020382F881309D4B03F58043002283F880
:1048C80085209A4B03F580431A4692F880300121DF
:1048D80061F3C40382F88030934B812283F854201B
:1048E80071E0924B03F5804393F8813003F00103A4
:1048F800DBB2002B0CBF01230023D9B28B4B03F58D
:1049080080431A4692F8813061F3000382F88130BF
:1049180059E097F89330002B2AD0844B03F5804355
:104928001A4692F88030022161F3020382F880303F
:104938007E4B03F580431A4692F8813043F0020318
:1049480082F88130794B03F58043002283F8852073
:10495800764B03F580431A4692F88030012161F3C3
:10496800461382F88030704B7F2283F854202AE067
:1049780097F89230002B0BD06C4B03F580431A4606
:1049880092F88030052161F3020382F880301AE042
:10499800664B03F5804393F8813003F00203DBB2E2
:1049A800002B0CBF01230023D9B2604B03F58043D1
:1049B8001A4692F8813061F3410382F8813002E0AF
:1049C80000BF00E000BF584B93F95530002B06DDBF
:1049D800554B93F95520544B83F8512005E0524B21
:1049E80093F95520504B83F85020504B03F58043E2
:1049F8009B6D4D4A92F9512007EE902AF8EEE77A1E
:104A0800B0EE670A1846FDF7B3FE484B03F580433E
:104A18009B6D454A92F9502007EE902AF8EEE77A06
:104A2800B0EE670A1846FDF7B7FE404B03F5804322
:104A380093F8843087F891303B4B93F95430002B2E
:104A480006DD3A4B03F58043002283F8842005E015
:104A5800364B03F58043012283F88420334B03F55A
:104A6800804393F9843097F991209A4214D097F9AA
:104A78009130002B02D0012B07D00DE02C4B93F97D
:104A88004D20294B83F8532006E0294B93F94E20FB
:104A9800254B83F8522000BF244B03F5804393F93C
:104AA8008430002B06D1204B93F954201E4B83F8F9
:104AB800532005E01C4B93F954201B4B83F85220DC
:104AC8001A4B03F580439B6E174A92F9532007EE61
:104AD800902AF8EEE77AB0EE670A1846FDF770FEFE
:104AE800124B03F580439B6E0F4A92F9522007EE52
:104AF800902AF8EEE77AB0EE670A1846FDF774FEDA
:104B0800094B0C4A1A620A4BD3E908014FF000021C
:104B18004FF00003FBF758FF0346002B0CD180230E
:104B2800C7F8C4300BE000BFD003002008150020F0
:104B380000000020000C00480023C7F8C430874B51
:104B48001B6AD7F8C42011461846FDF750FD834B61
:104B58001A6AD7F8C430DB4303F0800319461046BD
:104B6800FDF753FD7D4B7E4A1A627C4B1B6A002180
:104B78001846FDF73CFD794B1B6A4FF40051184667
:104B8800FDF743FD754B764A1A62744B93F856301D
:104B9800002B04D04FF48043C7F8C43002E0002350
:104BA800C7F8C4306D4B1B6AD7F8C42011461846A5
:104BB800FDF71DFD694B1A6AD7F8C430DB4303F4CF
:104BC800804319461046FDF720FD644B644A1A627B
:104BD800624B1B6A00211846FDF709FD5F4B1B6AF3
:104BE8004FF400411846FDF710FD5C4B5D4A1A6210
:104BF8005D4BD3E90A014FF000024FF00003FBF7C9
:104C0800E3FE0346002B03D10823C7F8C43002E0B3
:104C18000023C7F8C430514B1B6AD7F8C42011468B
:104C28001846FDF7E4FC4D4B1A6AD7F8C430DB434D
:104C380003F0080319461046FDF7E7FC00F03CFCBA
:104C480000F050FD454BD3E90A01484B03F580437A
:104C58007033C3E90001464BC7F88C30454BD3F895
:104C68002831D3E90023C7E92023404B03F58043CB
:104C78001A6C3E4B03F580439B6C013B9A4205DA64
:104C88003A4B03F580431B6C013300E00023374A9D
:104C980002F580421364354B03F580431A6C334B9D
:104CA80003F58043DB6B9A4215D1304B03F5804303
:104CB800DA6B2E4B03F580439B6C013B9A4205DA75
:104CC8002A4B03F58043DB6B013300E00023274ABE
:104CD80002F58042D363D7F88C301A68234B03F56A
:104CE80080439B6C1946214B03F580431B6C0B4496
:104CF800DB00D118D7E92023C1E90023D7F88C308D
:104D08001A681A4B03F580431B6CDB00D118134B50
:104D1800D3E90A23C1E90023164BD3F81021013245
:104D2800C3F81021D3F810311846FBF76BFB114B71
:104D3800D3E946230F4CD4F82841FBF7DDFB0246A4
:104D48000B46C4E900230B4BD3F820210132C3F8EA
:104D5800202100BFE837BD46B0BD00BFD00300200A
:104D68000008004800040048000000200815002042
:104D780080550020205F002080B582B000AF2C4B0A
:104D88002B4A03F59273D360294B294A03F5947390
:104D9800C2F88430264B264A03F58C739362244A62
:104DA800234BC3F8D020224B214A9A60204BDB6862
:104DB80001221A701E4B002283F8FC201C4B002293
:104DC80083F80C211A4B1B4A5A61194B184A03F5F0
:104DD8009873C2F82831164913A3D3E90023C1E90F
:104DE800462300237B6011E0134B93F84C10134AC1
:104DF8007B6813440A461A700F4BB3F84010104AE8
:104E08007B6822F813107B6801337B607B68072B73
:104E1800EADD094B1B6B0B4A1360074B5B6B0A4AB5
:104E2800136000237B6029E09A9999999999B93F71
:104E3800205F00205008010800000020C80300205F
:104E48007C0300207403002078030020824BB3F811
:104E58004610824A7B6822F813107F4BB3F848103B
:104E68007F4A7B6822F813107B4BB3F84A107D4ABF
:104E78007B6822F813107B6801337B607B68082B02
:104E8800E4DD794B3B60794B03F580431A460023F8
:104E9800D363764B03F580431A4600231364734BA0
:104EA80003F580431A4600235364704B03F580438F
:104EB8001A464FF480639364674BD3E90623396835
:104EC800C1E900236A4BD3F828313A6802F500514A
:104ED800D3E90023C1E90023644B03F580431A4654
:104EE8003B689367614B03F58043FF2283F8842076
:104EF800594B9B6B5F4A1360574BDB6B5E4A1360E1
:104F0800554B9B6B5B4A5360534BDB6B5A4A536060
:104F1800514B9B6B574A93604F4BDB6B564A9360E0
:104F280000F05EFB4C4BD3E90401504B03F5804382
:104F38007033C3E90001484B93F94F204F4B83F876
:104F48005120454B93F950204C4B83F85020424B4D
:104F580093F94D20494B83F853203F4B93F94E204A
:104F6800464B83F85220414B03F580431A460023F1
:104F7800D3603E4B03F5804300221A724048FEF787
:104F880039F840494048FDF767FF40494048FDF778
:104F9800CAFF40494048FDF75FFF40494048FDF7D8
:104FA8005BFF40494048FDF757FF40494048FDF73F
:104FB80053FF40494048FDF74FFF40494048FDF73F
:104FC800B2FF40494048FDF747FF40494048FDF7D8
:104FD80043FF40494048FDF73FFF40494048FDF73F
:104FE8003BFF224B03F58043002283F84C201F4BE4
:104FF80003F58043002283F854201C4B03F58043BB
:105008001A46012313653748FEF73CF8174B03F59A
:105018008043012283F85420144B03F58043002277
:1050280083F85C20114B03F58043002283F8642049
:105038000E4B03F580431A46012313662A48FEF7F0
:105048005DF80A4B03F58043012283F8642000BF12
:105058000837BD4680BD00BF000000208C0300203B
:10506800A0030020B403002010150020081500201C
:10507800205F00205C03002068030020D00300208C
:1050880010550020780000201059002098000020BA
:10509800905C0020B0000020405E002080000020CE
:1050A800F0590020700000203058002068000020CF
:1050B800505700206000002070560020A0000020FB
:1050C800F85C0020A8000020605D00205800002047
:1050D8009055002090000020B05B00208800002040
:1050E800D05A0020545500206455002080B500AFE8
:1050F800494B03F580431B7A002B19D1464B03F526
:10510800804301221A72444B03F58043DB68012B6C
:105118000ED1414B03F580431B7C002B08D03E4B3E
:1051280003F580435B69012204211846FDF77EF8E8
:10513800394B03F5804393F84C30002B31D1364B73
:1051480003F58043012283F84C20334B03F5804359
:105158001B6D012B25D1304B03F5804393F8543058
:10516800002B1ED02C4B03F580439B6D1846FDF792
:10517800E7FB294B03F580439B6D00211846FBF79D
:105188005AFF254B03F580439B6D02211846FCF717
:105198003DF8214B03F580439B6D02211846FCF72F
:1051A800D5F81D4B03F5804393F85C30002B31D1C3
:1051B800194B03F58043012283F85C20164B03F555
:1051C80080431B6E012B25D1134B03F5804393F8C5
:1051D8006430002B1ED0104B03F580439B6E18469D
:1051E800FDF7AEFB0C4B03F580439B6E0021184680
:1051F800FBF721FF084B03F580439B6E02211846FD
:10520800FCF748F9044B03F580439B6E02211846CE
:10521800FCF7A8F900BF80BD0815002080B489B04C
:1052280000AFF860B9607A60FB68BB610023FB617E
:10523800BB689B087B611B4B1B68B3F5C87F2AD0F2
:105248000023FB6122E0174B1B6817497A6841F875
:105258002320FB699B00BA691A44124B1B68126829
:10526800114903F5C87341F823200E4B1B680F4AF8
:1052780012680D4903F5487341F82320094B1B6850
:105288000133084A1360FB690133FB61FA697B69E2
:105298009A42D8D300E000BF2437BD465DF8047BAE
:1052A800704700BF606000206860002064600020D4
:1052B80080B584B000AF786072B600BF00F060FCC3
:1052C8000346FB6007F10C037A6804211846FFF7D0
:1052D800A5FF62B600BF00BF1037BD4680BD000005
:1052E80080B500AF124B1B785A1CD1B2104A11700E
:1052F800002B09D00F4B01221A600D4B1B78013B84
:10530800DAB20B4B1A7011E062B600BF02200BF044
:1053180031F8FDF731FF02200BF037F872B600BF05
:10532800034B1B78013BDAB2014B1A7080BD00BFFA
:105338002C7300202873002080B584B000AF7860FB
:105348003960374BFB60374BBB60374B00221A7014
:10535800364B00221A7001DF06F026FB00F0E0FE53
:1053680000F02EFF00F08EFF01F054FF01F072FBF9
:1053780002F09EF901F0BEFF02F04AFA01F00EFDBC
:1053880002F00EFD02F066FC294B1B6800221A6031
:1053980001200AF0EFFFFFF7EFFC01200AF0F5FF0C
:1053A80072B600BF97ED030A00F08AFC204B1B6819
:1053B8001B68002B0CBF01230023DBB21A461B4BD2
:1053C8001A7062B600BF62B600BF15E0184B1B68C2
:1053D8001B68002B14BF01230023DBB21A46124BB3
:1053E8001A70114B1B78DBB2002B05D0114B1B68D0
:1053F800104A23F0010313600C4B1B78DBB2002B1F
:10540800E4D103200AF0B6FFFFF770FE03200AF08C
:10541800BCFF72B600BF002318461037BD4680BDDA
:10542800CDCCCC3D0000A0422D7300202E7300206F
:10543800C008010810E000E080B485B000AF034662
:10544800FB80B7F90630002B02DBFB88FB8101E00B
:10545800FB88FB81B7F90E3018461437BD465DF856
:10546800047B704780B588B004AF03460A46FB71D9
:105478001346BB71FB799BB25B009BB2013399B2B7
:10548800BB799AB24FF0FF3302930223019307F1DD
:105498000C0300930123074806F078FE3B7B1B02B0
:1054A8001AB27B7B1BB213431BB29BB21846103750
:1054B800BD4680BD5873002080B500AF3B216920F0
:1054C800FFF7D0FF03461846FFF7B6FF03461A4614
:1054D80013469B0013445B0007EE903AB8EEE77A58
:1054E800DFED3B6AC7EE267A3A4BC3ED007A3D21E1
:1054F8006920FFF7B7FF03461846FFF79DFF0346ED
:105508001A4613469B0013445B0007EE903AB8EE28
:10551800E77ADFED2F6AC7EE267A2E4BC3ED017AC4
:105528003F216920FFF79EFF03461846FFF784FFD7
:1055380003461A4613469B0013445B0007EE903A55
:10554800B8EEE77ADFED226AC7EE267A214BC3ED83
:10555800027A43216920FFF785FF03461846FFF7C3
:105568006BFF034607EE903AB8EEE77ADFED1A6A6A
:10557800C7EE267A194BC3ED007A45216920FFF75B
:1055880071FF03461846FFF757FF034607EE903AA8
:10559800B8EEE77ADFED106AC7EE267A0F4BC3ED57
:1055A800017A47216920FFF75DFF03461846FFF798
:1055B80043FF034607EE903AB8EEE77ADFED066A56
:1055C800C7EE267A054BC3ED027A00BF80BD00BF47
:1055D800000080465C0300200000034368030020AD
:1055E80080B586B004AF0023FB714FF0FF33029300
:1055F80001230193FB1D009301236B22D2211D4837
:1056080006F0B0FC4FF0FF33029301230193072308
:10561800009301231922D221164806F0A3FC4FF06B
:10562800FF330293012301930023009301231C22DB
:10563800D221104806F096FC4FF0FF330293012365
:1056480001930023009301231B22D221094806F06D
:1056580089FC4FF0FF33029301230193064B00931B
:1056680001237522D321034806F090FD00BF0837B7
:10567800BD4680BD587300202F73002080B582B0CE
:1056880000AF00237B600FE07B68432B08D07B686A
:10569800052B05D07B685BB2184607F0E5FA00E0F9
:1056A80000BF7B6801337B607B68EF2BECD900BFC0
:1056B80000BF0837BD4680BD80B582B000AF00236B
:1056C8007B6007E07B685BB2184607F0BFFA7B682F
:1056D80001337B607B68EF2BF4D900BF00BF08372C
:1056E800BD4680BD80B500AF4021AA4806F092FBB8
:1056F8000346002B14BF01230023DAB2A64B1A700D
:105708000421A64806F086FB0346002B14BF01239C
:105718000023DAB2A04B5A704FF40051A04806F0AB
:1057280079FB0346002B14BF01230023DAB29D4BFB
:105738001A704FF480419A4806F06CFB0346002B20
:1057480014BF01230023DAB2964B5A704FF400417C
:10575800934806F05FFB0346002B14BF0123002388
:10576800DAB2904B9A704FF480518C4806F052FB95
:105778000346002B14BF01230023DAB28A4B1A70A8
:105788004FF48071834806F045FB0346002B14BF95
:1057980001230023DAB2844B5A704FF400717D481C
:1057A80006F038FB0346002B14BF01230023DAB2AE
:1057B8007D4B9A704FF48051764806F02BFB0346D8
:1057C800002B14BF01230023DAB2774BDA704FF4B1
:1057D8000061704806F01EFB0346002B14BF01232E
:1057E8000023DAB2704B1A714FF48041694806F011
:1057F80011FB0346002B14BF01230023DAB26A4BC6
:105808005A714FF40041634806F004FB0346002B2D
:1058180014BF01230023DAB2634B9A714FF400518D
:105828005C4806F0F7FA0346002B14BF0123002357
:10583800DAB25D4BDA715D4B5B6B9AB25C4B1A80E6
:105848005A4B9B6B9AB25A4B5A80584BDB6B9AB2A5
:10585800584B1A80554B1B6C9AB2564B5A80FFF71F
:105868000DFF08E04FF400714FF0904006F0D2FAB7
:105878000346012B07D103214F4803F0C1F8034623
:10588800002BEFD10AE000BF08E04FF400714FF0A1
:10589800904006F0BFFA0346012B07D102213E488B
:1058A80003F0AEF80346002BEFD10AE000BF08E092
:1058B8004FF400714FF0904006F0ACFA0346012B0C
:1058C80007D10321374803F09BF80346002BEFD19B
:1058D8000AE000BF08E04FF400714FF0904006F076
:1058E80099FA0346012B07D10C21344803F088F8B4
:1058F8000346002BEFD10AE000BF08E04FF4007127
:105908004FF0904006F086FA0346012B07D10C2190
:105918002B4803F075F80346002BEFD10AE000BFCF
:1059280008E04FF400714FF0904006F073FA034618
:10593800012B07D11221234803F062F80346002BFC
:10594800EFD10AE000BF08E04FF400714FF090403B
:1059580006F060FA0346012B07D112211A4803F01A
:105968004FF80346002BEFD10AE000BF08E04FF4E0
:1059780000714FF0904006F04DFA0346012B07D115
:105988001221124803F03CF80346002BEFD128E01F
:1059980000BF26E0001000483073002000040048D3
:1059A80000080048347300203873002000040040C9
:1059B8004873002044730020640801085C03002039
:1059C800680300208C030020A0030020B4030020FB
:1059D8004FF400714FF0904006F01CFA0346012B7B
:1059E80007D10821514803F00BF80346002BEFD1EB
:1059F8000AE000BF08E04FF400714FF0904006F055
:105A080009FA0346012B07D10421494802F0F8FF9F
:105A18000346002BEFD10AE000BF08E04FF4007105
:105A28004FF0904006F0F6F90346012B07D1042108
:105A3800404802F0E5FF0346002BEFD10AE000BF23
:105A480008E04FF400714FF0904006F0E3F9034688
:105A5800012B07D10421384802F0D2FF0346002B5E
:105A6800EFD10AE000BF08E04FF400714FF090401A
:105A780006F0D0F90346012B07D108212F4802F080
:105A8800BFFF0346002BEFD10AE000BF08E04FF448
:105A980000714FF0904006F0BDF90346012B07D185
:105AA8001021274802F0ACFF0346002BEFD10AE093
:105AB80000BF08E04FF400714FF0904006F0AAF9DB
:105AC8000346012B07D104211E4802F099FF034623
