:020000040800F2
:100000000080012081F70008E37E0008E97E0008F7
:10001000EF7E0008F57E0008FB7E0008000000006F
:10002000000000000000000000000000295200084D
:10003000017F000800000000E5510008155100088C
:10004000D1F70008D1F70008D1F70008D1F7000870
:10005000D1F70008D1F70008D1F70008D1F7000860
:10006000D1F70008D1F70008D1F700080F7F00088A
:10007000CD1F0008D1F70008D1F70008D1F700081C
:100080001D7F00082B7F0008397F0008D1F700088A
:10009000D1F70008D1F70008D1F70008D1F7000820
:1000A000D1F70008497F0008D1F70008D1F7000810
:1000B000D1F70008D1F70008D1F70008D1F7000800
:1000C000D1F70008D1F70008D1F70008D1F70008F0
:1000D000D1F70008D1F70008D1F70008D1F70008E0
:1000E000D1F70008D1F70008D1F70008D1F70008D0
:1000F000D1F70008D1F70008D1F70008D1F70008C0
:10010000D1F70008D1F70008D1F70008D1F70008AF
:10011000D1F70008D1F70008D1F70008D1F700089F
:10012000D1F70008D1F70008D1F70008D1F700088F
:10013000D1F70008D1F70008D1F70008D1F700087F
:10014000D1F70008D1F70008D1F700085D7F00085B
:10015000D1F70008D1F70008D1F70008D1F700085F
:10016000D1F70008D1F70008D1F70008D1F700084F
:10017000D1F70008D1F70008D1F70008000000000F
:08018000D1F70008D1F70008D7
:1001880081F0004102E000BF83F0004330B54FEA40
:1001980041044FEA430594EA050F08BF90EA020FAD
:1001A8001FBF54EA000C55EA020C7FEA645C7FEA40
:1001B800655C00F0E2804FEA5454D4EB5555B8BF63
:1001C8006D420CDD2C4480EA020281EA030382EAD4
:1001D800000083EA010180EA020281EA0303362D66
:1001E80088BF30BD11F0004F4FEA01314FF4801C39
:1001F8004CEA113102D0404261EB410113F0004F4B
:100208004FEA03334CEA133302D0524263EB430301
:1002180094EA050F00F0A780A4F10104D5F1200E9F
:100228000DDB02FA0EFC22FA05F2801841F10001FA
:1002380003FA0EF2801843FA05F359410EE0A5F1CE
:1002480020050EF1200E012A03FA0EFC28BF4CF0FF
:10025800020C43FA05F3C01851EBE37101F00045B5
:1002680007D54FF0000EDCF1000C7EEB00006EEBC2
:100278000101B1F5801F1BD3B1F5001F0CD349084C
:100288005FEA30004FEA3C0C04F101044FEA4452A3
:1002980012F5800F80F09A80BCF1004F08BF5FEA2A
:1002A800500C50F1000041EB045141EA050130BD0A
:1002B8005FEA4C0C404141EB0101013C28BFB1F51C
:1002C800801FE9D291F0000F04BF01460020B1FA67
:1002D80081F308BF2033A3F10B03B3F120020CDA3A
:1002E8000C3208DD02F1140CC2F10C0201FA0CF018
:1002F80021FA02F10CE002F11402D8BFC2F1200C7D
:1003080001FA02F120FA0CFCDCBF41EA0C01904032
:10031800E41AA2BF01EB0451294330BD6FEA04047B
:100328001F3C1CDA0C340EDC04F11404C4F1200266
:1003380020FA04F001FA02F340EA030021FA04F378
:1003480045EA030130BDC4F10C04C4F1200220FACF
:1003580002F001FA04F340EA0300294630BD21FA0D
:1003680004F0294630BD94F0000F83F4801306BFD3
:1003780081F480110134013D4EE77FEA645C18BFC7
:100388007FEA655C29D094EA050F08BF90EA020F5E
:1003980005D054EA000C04BF1946104630BD91EA56
:1003A800030F1EBF0021002030BD5FEA545C05D159
:1003B8004000494128BF41F0004130BD14F5800498
:1003C8003CBF01F5801130BD01F0004545F0FE410C
:1003D80041F470014FF0000030BD7FEA645C1ABF41
:1003E800194610467FEA655C1CBF0B46024650EA78
:1003F800013406BF52EA033591EA030F41F40021A4
:1004080030BD00BF90F0000F04BF0021704730B529
:100418004FF4806404F132044FF000054FF00001FE
:1004280050E700BF90F0000F04BF0021704730B5BF
:100438004FF4806404F1320410F0004548BF404294
:100448004FF000013EE700BF42004FEAE2014FEAE9
:1004580031014FEA02701FBF12F07F4393F07F4FC4
:1004680081F06051704732F07F4208BF704793F0C7
:100478007F4F04BF41F40021704730B54FF46074DA
:1004880001F0004521F000411CE700BF50EA0102DD
:1004980008BF704730B54FF000050AE050EA010286
:1004A80008BF704730B511F0004502D5404261EBF6
:1004B80041014FF4806404F132045FEA915C3FF437
:1004C800D8AE4FF003025FEADC0C18BF03325FEAD4
:1004D800DC0C18BF033202EBDC02C2F1200300FA85
:1004E80003FC20FA02F001FA03FE40EA0E0021FAAA
:1004F80002F11444BDE600BF70B54FF0FF0C4CF498
:10050800E06C1CEA11541DBF1CEA135594EA0C0F49
:1005180095EA0C0F00F0DEF82C4481EA030621EA84
:100528004C5123EA4C5350EA013518BF52EA0335BF
:1005380041F4801143F4801338D0A0FB02CE4FF071
:100548000005E1FB02E506F00042E0FB03E54FF0A1
:100558000006E1FB03569CF0000F18BF4EF0010E99
:10056800A4F1FF04B6F5007F64F5407404D25FEA95
:100578004E0E6D4146EB060642EAC62141EA555148
:100588004FEAC52040EA5E504FEACE2EB4F1FD0C8A
:1005980088BFBCF5E06F1ED8BEF1004F08BF5FEA08
:1005A800500E50F1000041EB045170BD06F00046BA
:1005B80046EA010140EA020081EA0301B4EB5C0467
:1005C800C2BFD4EB0C0541EA045170BD41F480115F
:1005D8004FF0000E013C00F3AB8014F1360FDEBF84
:1005E800002001F0004170BDC4F10004203C35DA60
:1005F8000C341BDC04F11404C4F1200500FA05F3E3
:1006080020FA04F001FA05F240EA020001F0004283
:1006180021F0004110EBD37021FA04F642EB0601F9
:100628005EEA430E08BF20EAD37070BDC4F10C0423
:10063800C4F1200500FA04F320FA05F001FA04F2E7
:1006480040EA020001F0004110EBD37041F10001D3
:100658005EEA430E08BF20EAD37070BDC4F12005DE
:1006680000FA05F24EEA020E20FA04F301FA05F246
:1006780043EA020321FA04F001F0004121FA04F2EE
:1006880020EA020000EBD3705EEA430E08BF20EABE
:10069800D37070BD94F0000F0FD101F000464000F8
:1006A80041EB010111F4801F08BF013CF7D041EA7A
:1006B800060195F0000F18BF704703F0004652007E
:1006C80043EB030313F4801F08BF013DF7D043EA4F
:1006D8000603704794EA0C0F0CEA135518BF95EA05
:1006E8000C0F0CD050EA410618BF52EA4306D1D18C
:1006F80081EA030101F000414FF0000070BD50EAAB
:10070800410606BF1046194652EA430619D094EA34
:100718000C0F02D150EA013613D195EA0C0F05D11E
:1007280052EA03361CBF104619460AD181EA030172
:1007380001F0004141F0FE4141F470014FF000002A
:1007480070BD41F0FE4141F4780170BD70B54FF0C5
:10075800FF0C4CF4E06C1CEA11541DBF1CEA135545
:1007680094EA0C0F95EA0C0F00F0A7F8A4EB050427
:1007780081EA030E52EA03354FEA013100F088801E
:100788004FEA03334FF0805545EA131343EA1263E7
:100798004FEA022245EA111545EA10654FEA00269C
:1007A8000EF000419D4208BF964244F1FD0404F555
:1007B800407402D25B084FEA3202B61A65EB0305B1
:1007C8005B084FEA32024FF480104FF4002CB6EB6E
:1007D800020E75EB030E22BFB61A754640EA0C00EE
:1007E8005B084FEA3202B6EB020E75EB030E22BF2E
:1007F800B61A754640EA5C005B084FEA3202B6EB6F
:10080800020E75EB030E22BFB61A754640EA9C002D
:100818005B084FEA3202B6EB020E75EB030E22BFFD
:10082800B61A754640EADC0055EA060E18D04FEABB
:10083800051545EA16754FEA06164FEAC30343EA5B
:1008480052734FEAC2025FEA1C1CC0D111F4801F28
:100858000BD141EA00014FF000004FF0004CB6E721
:1008680011F4801F04BF01430020B4F1FD0C88BFC0
:10087800BCF5E06F3FF6AFAEB5EB030C04BFB6EBCB
:10088800020C5FEA500C50F1000041EB045170BDBE
:100898000EF0004E4EEA113114EB5C04C2BFD4EBEB
:1008A8000C0541EA045170BD41F480114FF0000E6F
:1008B800013C90E645EA060E8DE60CEA135594EAEB
:1008C8000C0F08BF95EA0C0F3FF43BAF94EA0C0FEE
:1008D8000AD150EA01347FF434AF95EA0C0F7FF463
:1008E80025AF104619462CE795EA0C0F06D152EAB7
:1008F80003353FF4FDAE1046194622E750EA41069B
:1009080018BF52EA43067FF4C5AE50EA41047FF4AB
:100918000DAF52EA43057FF4EBAE12E74FF0FF3C10
:1009280006E000BF4FF0010C02E000BF4FF0010CE1
:100938004DF804CD4FEA410C7FEA6C5C4FEA430C5A
:1009480018BF7FEA6C5C1BD001B050EA410C0CBFA9
:1009580052EA430C91EA030F02BF90EA020F00200B
:10096800704710F1000F91EA030F58BF994208BF72
:1009780090422CBFD8176FEAE37040F0010070472F
:100988004FEA410C7FEA6C5C02D150EA013C07D186
:100998004FEA430C7FEA6C5CD6D152EA033CD3D0D1
:1009A8005DF8040B704700BF8446104662468C46CB
:1009B8001946634600E000BF01B5FFF7B7FF0028FE
:1009C80048BF10F1000F01BD4DF808EDFFF7F4FF27
:1009D8000CBF012000205DF808FB00BF4DF808EDB2
:1009E800FFF7EAFF34BF012000205DF808FB00BFD5
:1009F8004DF808EDFFF7E0FF94BF012000205DF8F7
:100A080008FB00BF4DF808EDFFF7CEFF94BF0120AB
:100A180000205DF808FB00BF4DF808EDFFF7C4FFA4
:100A280034BF012000205DF808FB00BF4FEA410CED
:100A38007FEA6C5C02D150EA013C0AD14FEA430CD0
:100A48007FEA6C5C02D152EA033C02D14FF000000D
:100A580070474FF0010070474A0011D212F500129A
:100A680011D20DD56FF47873B3EB62520ED44FEAFE
:100A7800C12343F0004343EA505323FA02F070477E
:100A88004FF00000704750EA013002D14FF0FF30BC
:100A980070474FF0000070470348044B834202D070
:100AA800034B03B118477047D0020020D002002042
:100AB800000000000548064B1B1AD90F01EBA301E3
:100AC800491002D0034B03B118477047D0020020E9
:100AD800D00200200000000010B5064C237843B96E
:100AE800FFF7DAFF044B13B10448AFF3008001238A
:100AF800237010BDD002002000000000A4FC0008F4
:100B080008B5054B1BB105490548AFF30080BDE8A2
:100B18000840FFF7CFBF00BF00000000D40200204C
:100B2800A4FC000880B485B000AF78607B681B68BF
:100B380003F06003FB60FB68002B04D17B681B6833
:100B480003F01003FB60FB6818461437BD465DF8D8
:100B5800047B704780B483B000AF78607B681B6B00
:100B680018460C37BD465DF8047B704780B483B0E7
:100B780000AF786039607B681A6A3B681A437B6803
:100B88001A6200BF0C37BD465DF8047B704780B41D
:100B980083B000AF786039607B681A6A3B68DB43D2
:100BA8001A407B681A6200BF0C37BD465DF8047BAB
:100BB800704780B483B000AF78607B685B6C43F4A7
:100BC80000427B685A6400BF0C37BD465DF8047B61
:100BD800704780B483B000AF78607B68DB6843F00F
:100BE80001027B68DA6000BF0C37BD465DF8047B04
:100BF800704780B483B000AF78607B68DB6823F00F
:100C080001027B68DA6000BF0C37BD465DF8047BE3
:100C1800704780B483B000AF78607B68DB6803F00E
:100C28000103012B01D1012300E0002318460C37F2
:100C3800BD465DF8047B704780B483B000AF786030
:100C48007B68DB6843F002027B68DA6000BF0C3720
:100C5800BD465DF8047B704780B483B000AF786010
:100C68007B68DB6823F002027B68DA6000BF0C3720
:100C7800BD465DF8047B704780B483B000AF7860F0
:100C88007B68DB6803F00203022B01D1012300E03B
:100C9800002318460C37BD465DF8047B704780B4C6
:100CA80083B000AF78607B68DB6843F004027B6840
:100CB800DA6000BF0C37BD465DF8047B704780B42E
:100CC80083B000AF78607B68DB6823F004027B6840
:100CD800DA6000BF0C37BD465DF8047B704780B40E
:100CE80083B000AF78607B68DB6803F00403042BF3
:100CF80001D1012300E0002318460C37BD465DF8FA
:100D0800047B704780B483B000AF78607B68DB6891
:100D180043F008027B68DA6000BF0C37BD465DF817
:100D2800047B704780B483B000AF78607B68DB6871
:100D380023F008027B68DA6000BF0C37BD465DF817
:100D4800047B704780B483B000AF78607B68DB6851
:100D580003F00803082B01D1012300E00023184603
:100D68000C37BD465DF8047B704780B483B000AF94
:100D780078607B68DB6843F010027B68DA6000BF4C
:100D88000C37BD465DF8047B704780B483B000AF74
:100D980078607B68DB6823F010027B68DA6000BF4C
:100DA8000C37BD465DF8047B704780B483B000AF54
:100DB80078607B68DB6803F01003102B01D10123F6
:100DC80000E0002318460C37BD465DF8047B7047E9
:100DD80080B483B000AF78607B68DB6843F02002A2
:100DE8007B68DA6000BF0C37BD465DF8047B70474E
:100DF80080B483B000AF78607B68DB6823F02002A2
:100E08007B68DA6000BF0C37BD465DF8047B70472D
:100E180080B483B000AF78607B68DB6803F02003A0
:100E2800202B01D1012300E0002318460C37BD46D2
:100E38005DF8047B704780B483B000AF78607B684E
:100E4800DB6843F040027B68DA6000BF0C37BD46C0
:100E58005DF8047B704780B483B000AF78607B682E
:100E6800DB6823F040027B68DA6000BF0C37BD46C0
:100E78005DF8047B704780B483B000AF78607B680E
:100E8800DB6803F04003402B01D1012300E000237D
:100E980018460C37BD465DF8047B704780B483B0B4
:100EA80000AF78607B68DB6843F080027B68DA60BB
:100EB80000BF0C37BD465DF8047B704780B483B033
:100EC80000AF78607B68DB6823F080027B68DA60BB
:100ED80000BF0C37BD465DF8047B704780B483B013
:100EE80000AF78607B68DB6803F08003802B01D15A
:100EF800012300E0002318460C37BD465DF8047B4B
:100F0800704780B582B000AF78600B467B807B88E5
:100F180003F00103002B0CD07B681B681846FFF711
:100F2800AAFF0346012B04D07B681B681846FFF70D
:100F380082FF7B8803F00203002B0CD07B681B68C0
:100F48001846FFF799FE0346012B04D07B681B68FF
:100F58001846FFF771FE7B8803F00403002B0CD0C2
:100F68007B681B681846FFF7BAFE0346012B04D0BE
:100F78007B681B681846FFF792FE7B8803F008031E
:100F8800002B0CD07B681B681846FFF7DBFE034676
:100F9800012B04D07B681B681846FFF7B3FE7B88DB
:100FA80003F01003002B0CD07B681B681846FFF772
:100FB800FCFE0346012B04D07B681B681846FFF72C
:100FC800D4FE7B8803F02003002B0CD07B681B68C1
:100FD8001846FFF71EFE0346012B04D07B681B68EA
:100FE8001846FFF7F6FD7B8803F04003002B0CD072
:100FF8007B681B681846FFF771FF0346012B04D076
:101008007B681B681846FFF749FF7B8803F080035D
:10101800002B0CD07B681B681846FFF7F9FE0346C7
:10102800012B04D07B681B681846FFF7D1FE00BF70
:101038000837BD4680BD80B582B000AF78600B46EA
:101048007B807B8803F00103002B0CD07B681B6836
:101058001846FFF710FF0346012B04D17B681B6875
:101068001846FFF7F8FE7B8803F00203002B0CD02C
:101078007B681B681846FFF7FFFD0346012B04D168
:101088007B681B681846FFF7E7FD7B8803F00403BD
:10109800002B0CD07B681B681846FFF720FE034620
:1010A800012B04D17B681B681846FFF708FE7B8874
:1010B80003F00803002B0CD07B681B681846FFF769
:1010C80041FE0346012B04D17B681B681846FFF7D5
:1010D80029FE7B8803F01003002B0CD07B681B686B
:1010E8001846FFF762FE0346012B04D17B681B6894
:1010F8001846FFF74AFE7B8803F02003002B0CD02C
:101108007B681B681846FFF784FD0346012B04D053
:101118007B681B681846FFF76CFD7B8803F040036B
:10112800002B0CD07B681B681846FFF7D7FE0346D8
:10113800012B04D17B681B681846FFF7BFFE7B882C
:1011480003F08003002B0CD07B681B681846FFF760
:101158005FFE0346012B04D17B681B681846FFF726
:1011680047FE00BF0837BD4680BD000080B582B08D
:1011780000AF78600B46FB70FB78022B06D17B68CA
:101188001B6801211846FFF7F1FC31E07B681B68FA
:10119800194A934213D07B681B68184A93420ED0B1
:1011A8007B681B68164A934209D07B681B68154AFE
:1011B800934204D07B681B68134A934218D1FB788A
:1011C800032B06D17B681B6804211846FFF7CEFC69
:1011D8000EE0FB78042B0BD17B681B6801211846B5
:1011E800FFF7C4FC7B681B6804211846FFF7BEFCA8
:1011F80000BF0837BD4680BD002C014000340140C7
:1012080000400140004401400048014080B582B0E0
:1012180000AF78600B46FB70FB78022B06D17B6829
:101228001B6801211846FFF7B2FC31E07B681B6898
:10123800194A934213D07B681B68184A93420ED010
:101248007B681B68164A934209D07B681B68154A5D
:10125800934204D07B681B68134A934218D1FB78E9
:10126800032B06D17B681B6804211846FFF78FFC07
:101278000EE0FB78042B0BD17B681B680121184614
:10128800FFF785FC7B681B6804211846FFF77FFC85
:1012980000BF0837BD4680BD002C01400034014026
:1012A80000400140004401400048014080B582B040
:1012B80000AF78600B46FB70FB78022B06D17B6889
:1012C8001B6810211846FFF751FC31E07B681B684A
:1012D800194A934213D07B681B68184A93420ED070
:1012E8007B681B68164A934209D07B681B68154ABD
:1012F800934204D07B681B68134A934218D1FB7849
:10130800032B06D17B681B6840211846FFF72EFC8B
:101318000EE0FB78042B0BD17B681B681021184664
:10132800FFF724FC7B681B6840211846FFF71EFC6A
:1013380000BF0837BD4680BD002C01400034014085
:1013480000400140004401400048014080B582B09F
:1013580000AF78600B46FB70FB78022B06D17B68E8
:101368001B6810211846FFF712FC31E07B681B68E8
:10137800194A934213D07B681B68184A93420ED0CF
:101388007B681B68164A934209D07B681B68154A1C
:10139800934204D07B681B68134A934218D1FB78A8
:1013A800032B06D17B681B6840211846FFF7EFFB2B
:1013B8000EE0FB78042B0BD17B681B6810211846C4
:1013C800FFF7E5FB7B681B6840211846FFF7DFFB4A
:1013D80000BF0837BD4680BD002C014000340140E5
:1013E80000400140004401400048014080B582B0FF
:1013F80000AF78600B46FB70FB78022B07D17B6847
:101408001B684FF480711846FFF7B0FB34E07B6827
:101418001B681B4A934213D07B681B68194A934286
:101428000ED07B681B68184A934209D07B681B68FA
:10143800164A934204D07B681B68154A93421BD115
:10144800FB78032B07D17B681B684FF48061184633
:10145800FFF78CFB10E0FB78042B0DD17B681B6831
:101468004FF480711846FFF781FB7B681B684FF4C7
:1014780080611846FFF77AFB00BF0837BD4680BD7C
:10148800002C01400034014000400140004401406C
:101498000048014080B582B000AF78600B46FB7011
:1014A800FB78022B07D17B681B684FF480711846C4
:1014B800FFF76DFB34E07B681B681B4A934213D02F
:1014C8007B681B68194A93420ED07B681B68184AD0
:1014D800934209D07B681B68164A934204D07B6804
:1014E8001B68154A93421BD1FB78032B07D17B68F5
:1014F8001B684FF480611846FFF749FB10E0FB7842
:10150800042B0DD17B681B684FF480711846FFF7D8
:101518003EFB7B681B684FF480611846FFF737FB7A
:1015280000BF0837BD4680BD002C01400034014093
:1015380000400140004401400048014080B582B0AD
:1015480000AF78600B46FB70FB78022B06D17B68F6
:101558001B684FF480511846FFF708FB00BF083797
:10156800BD4680BD80B582B000AF78600B46FB7089
:10157800FB78022B06D17B681B684FF48051184614
:10158800FFF705FB00BF0837BD4680BD80B584B0B6
:1015980000AF78600023FB607B681B68304A934289
:1015A80001D1304BFB607B681A68FB681A60FB68E6
:1015B8001B681846FFF7B6FAB860BB68002B06D060
:1015C800BB68102B03D0FB6801221A7102E0FB688C
:1015D80000221A71FB681B68234A934213D0FB68E8
:1015E8001B68224A93420ED0FB681B68204A93422C
:1015F80009D0FB681B681F4A934204D0FB681B682C
:101608001D4A934204D1FB681B681846FFF7D1FABC
:10161800FB681B68144A934213D0FB681B68134A83
:1016280093420ED0FB681B68114A934209D0FB68AD
:101638001B68104A934204D0FB681B680E4A934209
:1016480008D17B681B681846FFF784FA0346DAB2AC
:10165800FB685A71FB6818461037BD4680BD00BF4D
:1016680000040040EC020020002C0140003401403E
:1016780000400140004401400048014080B485B06A
:1016880000AF786039603B68FB603B68B3F5803F2A
:101698000CD37B681B68B3F1804F07D07B681B684D
:1016A800064A934202D04FF6FF73FB60FB68184668
:1016B8001437BD465DF8047B704700BF000C00403E
:1016C80080B485B000AF786039603B68002B03D1E7
:1016D8007B684033FB6001E0044BFB60FB68184605
:1016E8001437BD465DF8047B704700BF0C030450F7
:1016F80080B483B000AF78607B68DB6803F4406334
:10170800002B01D1012300E0002318460C37BD4609
:101718005DF8047B704780B483B000AF78603960AF
:101728007B681B6B23F00F023B681A437B681A63C4
:1017380000BF0C37BD465DF8047B704780B483B0AA
:1017480000AF786039607B68DB6823F003023B6890
:101758001A437B68DA6000BF0C37BD465DF8047B2E
:10176800704780B483B000AF78607B68DB6C03F0AF
:10177800C003002B01D1012300E0002318460C37D9
:10178800BD465DF8047B704780B483B000AF7860D5
:101798007B689B6823F0004323F03F0343F001027A
:1017A8007B689A6000BF0C37BD465DF8047B7047C4
:1017B80080B483B000AF78607B689B6823F00043F7
:1017C80023F03F0343F002027B689A6000BF0C37A6
:1017D800BD465DF8047B704780B483B000AF786085
:1017E8007B689B6803F00103012B01D1012300E012
:1017F800002318460C37BD465DF8047B704780B45B
:1018080083B000AF786039607B689B6823F0404301
:1018180023F03F033A6802F08042134343F000424A
:101828007B689A6000BF0C37BD465DF8047B704743
:1018380080B483B000AF78607B689B6803F0004396
:10184800B3F1004F01D1012300E0002318460C3703
:10185800BD465DF8047B704780B483B000AF786004
:101868007B689B6823F0004323F03F0343F00402A6
:101878007B689A6000BF0C37BD465DF8047B7047F3
:1018880080B483B000AF78607B689B6823F0004326
:1018980023F03F0343F008027B689A6000BF0C37CF
:1018A800BD465DF8047B704780B483B000AF7860B4
:1018B8007B681B6803F00803082B01D1012300E0B3
:1018C800002318460C37BD465DF8047B704780B48A
:1018D80083B000AF78607B681B6803F01003102B9F
:1018E80001D1012300E0002318460C37BD465DF8FE
:1018F800047B704780B483B000AF78607B681022A7
:101908001A6000BF0C37BD465DF8047B704780B491
:1019180083B000AF78607B685B6843F008027B683F
:101928005A6000BF0C37BD465DF8047B704780B431
:1019380083B000AF78607B685B6843F040027B68E7
:101948005A6000BF0C37BD465DF8047B704780B411
:1019580083B000AF78607B685B6823F008027B681F
:101968005A6000BF0C37BD465DF8047B704780B4F1
:1019780083B000AF78607B685B6823F010027B68F7
:101988005A6000BF0C37BD465DF8047B704780B4D1
:1019980083B000AF78607B685B6823F040027B68A7
:1019A8005A6000BF0C37BD465DF8047B704780B4B1
:1019B80083B000AF78607B685B6823F080027B6847
:1019C8005A6000BF0C37BD465DF8047B704780B491
:1019D80083B000AF78607B685B6803F01003102B5E
:1019E80001D1012300E0002318460C37BD465DF8FD
:1019F800047B704780B483B000AF78607B685B6815
:101A080003F08003802B01D1012300E00023184656
:101A18000C37BD465DF8047B7047000080B485B084
:101A280000AF786039607B68FB600C4A3B68134400
:101A38001B781A46FB6813441B6808493A680A442D
:101A480012781146FA680A4443F00103136000BF94
:101A58001437BD465DF8047B704700BF14FD0008CD
:101A680080B485B000AF786039607B68FB600C4A51
:101A78003B6813441B781A46FB6813441B680849E3
:101A88003A680A4412781146FA680A4423F00103B6
:101A9800136000BF1437BD465DF8047B704700BF74
:101AA80014FD000880B485B000AF786039607B68A9
:101AB800FB60084A3B6813441B781A46FB681344CA
:101AC8001B6803F0200318461437BD465DF8047BF5
:101AD800704700BF14FD000880B487B000AFF860FD
:101AE800B9607A60FB687B610D4ABB6813441B7858
:101AF8001A467B6913445B681B0C1B040849BA68C7
:101B08000A44127811467A690A4411467A681343DE
:101B18004B6000BF1C37BD465DF8047B704700BFB3
:101B280014FD000880B487B000AFF860B9607A602F
:101B38003B60FB687B613B6A102B14D1174ABB687A
:101B480013441B781A467B6913441A467B68D36092
:101B5800124ABB6813441B781A467B6913441A4619
:101B68003B68936013E00D4ABB6813441B781A4620
:101B78007B6913441A467B689360084ABB68134420
:101B88001B781A467B6913441A463B68D36000BF2A
:101B98001C37BD465DF8047B704700BF14FD000884
:101BA80080B487B000AFF860B9607A60FB687B6189
:101BB800074ABB6813441B781A467B6913441A46C4
:101BC8007B68936000BF1C37BD465DF8047B704797
:101BD80014FD000880B483B000AF78607B681B6890
:101BE80003F02003202B01D1012300E00023184635
:101BF8000C37BD465DF8047B704780B483B000AFF6
:101C080078607B6820225A6000BF0C37BD465DF8BB
:101C1800047B704780B485B000AF786039607B681A
:101C2800FB600C4A3B6813441B781A46FB68134454
:101C38001B6808493A680A4412781146FA680A4447
:101C480043F00203136000BF1437BD465DF8047B00
:101C5800704700BF14FD000880B485B000AF7860FD
:101C680039607B68FB600C4A3B6813441B781A4652
:101C7800FB6813441B6808493A680A4412781146FD
:101C8800FA680A4443F00803136000BF1437BD46DE
:101C98005DF8047B704700BF14FD000880B485B070
:101CA80000AF786039607B68FB600C4A3B6813447E
:101CB8001B781A46FB6813441B6808493A680A44AB
:101CC80012781146FA680A4423F00203136000BF31
:101CD8001437BD465DF8047B704700BF14FD00084B
:101CE80080B485B000AF786039607B68FB600C4ACF
:101CF8003B6813441B781A46FB6813441B68084961
:101D08003A680A4412781146FA680A4423F0040330
:101D1800136000BF1437BD465DF8047B704700BFF1
:101D280014FD000880B485B000AF786039607B6826
:101D3800FB600C4A3B6813441B781A46FB68134443
:101D48001B6808493A680A4412781146FA680A4436
:101D580023F00803136000BF1437BD465DF8047B09
:101D6800704700BF14FD000880B485B000AF7860EC
:101D780039607B68FB600A4A3B6813441B781A4643
:101D8800FB6813441B6803F00203022B01D10123F3
:101D980000E0002318461437BD465DF8047B704701
:101DA80014FD000880B584B000AF78600123FB8182
:101DB8007B681B691846FFF79BFC0346002B2FD056
:101DC8007B685B7ADBB2022B11D07B685B7ADBB273
:101DD800042B0CD07B685B7ADBB2082B07D07B68BE
:101DE8001B691846FFF760FD0346012B18D1786878
:101DF80000F0F8F80346002B12D17B685B7ADBB25F
:101E0800082B03D17B6801225A7202E07B682022EA
:101E18005A727B681B691846FFF71EFD0023FB8179
:101E2800FB8918461037BD4680BD80B586B002AF25
:101E3800F860B9607A603B600021F868FFF740FC01
:101E480003461A467968B868FFF7AAFE0021F868C1
:101E5800FFF736FC02463B68002100917968B868B4
:101E6800FFF760FEBA697968B868FFF735FE7968E8
:101E7800B868FFF7CFFE7968B868FFF7EDFE7968B4
:101E8800B868FFF7CBFD00BF1037BD4680BD80B5F1
:101E980084B000AFF860B9607A607968B868FFF715
:101EA800DFFD7968B868FFF71BFF7968B868FFF746
:101EB80039FF7968B868FFF7F1FE00227968B868D9
:101EC800FFF70AFE00BF1037BD4680BD80B584B05D
:101ED80000AF786039600223FB737B68DB79012BE4
:101EE8000FD17B68DA687B681B685B00D118FB7BC5
:101EF8007A68126802FB03F31A4638680DF0C0FED0
:101F08000AE07B68D968FB7B7A68126802FB03F3F6
:101F18001A4638680DF0B4FE00BF1037BD4680BDC4
:101F280080B586B000AFF860B9607A60FB685A691E
:101F3800FB689B7919461046FFF716FF0346DBB28C
:101F4800012B37D1FB685A69BB681046984703468E
:101F5800012B2FD1FB6804225A72FB685A697B68EF
:101F680010469847FB685A69FB689B7919461046E2
:101F7800FFF798FD0346002B19D1FB685A69FB68E7
:101F88009B7919461046FFF76BFDFB685869FB689B
:101F98009B791946FB681B681A46FFF79DFDFB688D
:101FA8005A69FB689B7919461046FFF737FD0123EC
:101FB800FB7501E00023FB75FB7D18461837BD460D
:101FC80080BD000080B500AF034A04490448FFF70C
:101FD800A7FF00BF80BD00BF031C0008DD1B000871
:101FE8007803002080B582B000AF78607B681B69F9
:101FF8001846FFF76CFC0346DBB2012B07D17B6860
:102008001B691846FFF776FC7B6810225A727B68BA
:102018005B7ADBB2102B0CBF01230023DBB218461E
:102028000837BD4680BD80B582B000AF78600B46EA
:10203800FB70FB78012B0DD17B681B691846FFF7F5
:1020480057FB0346012B12D07B681B691846FFF724
:1020580003FC0CE07B681B691846FFF782FB03460C
:10206800012B04D07B681B691846FFF709FC00BFE9
:102078000837BD4680BD000090B589B002AFF86052
:10208800084611461A4603467B810B463B81134698
:10209800FB8000237B61FB681B693C4A934201D1AA
:1020A8003B4B7B617B69002B6BD0FB681A697B69B2
:1020B8001A617B690022DA71FB88012B61D03B89A8
:1020C800002B47D07B695B7ADBB2082B42D0FB68D8
:1020D800DA687B69DA60FB681A687B691A60FB68F2
:1020E8005A697B695A61FB689A797B699A71FB68BE
:1020F8001A797B691A717B691B69B96A1846FFF7F7
:102108000AFB7B89012B21D07B89042B16D17B69A3
:102118001B6903211846FFF711FB7B6918697B6966
:1021280059697B699B791C467B69DA687B691B68FE
:10213800009313462246FFF778FE07E07B89022BBF
:1021480004D17B691B691846FFF7E1FB7B6908220C
:102158005A7216E03B89002B13D17B699B7ADBB25C
:10216800082B0ED0FB685A797B695A717B89022B40
:1021780004D17B691B691846FFF7D9FB7B690822E4
:102188009A727B6918461C37BD4690BD0001045001
:102198007803002080B582B000AF78607B681B6947
:1021A8001846FFF719FB0346002B04D17B681B690F
:1021B8001846FFF7E9FA00BF0837BD4680BD80B56D
:1021C80086B000AFF8600B467A607B810123FB8202
:1021D800FB681B69002B46D07B89012B05D1F86869
:1021E800FFF7E0FD0346FB823DE07B89042B1FD10E
:1021F800FB681B691846FFF77BFA0346002B32D0B1
:10220800FB6801225A72FB681B691846FFF724FB1A
:1022180000BFFB685B7ADBB2042BFAD17968F868F7
:10222800FFF754FEFB6808225A720023FB821AE06B
:102238007B89022B17D1FB685B7ADBB2202B09D094
:10224800FB685B7ADBB2042B04D0FB685B7ADBB2F9
:10225800102B08D1FB6808225A727968F868FFF7D2
:1022680035FE0023FB82FB8A18461837BD4680BD21
:1022780080B582B000AF78600B467B8013463B8008
:102288007B681B691846FFF7A7FA0346002B04D0A2
:102298007B681B691846FFF78BFA7B681B69184631
:1022A800FFF7A8FB0346002B04D07B681B69184680
:1022B800FFF77DFB7B681B691846FFF788FB034621
:1022C800002B04D07B681B691846FFF750FB3B883E
:1022D800002B35D07B88012B1AD07B88022B05D1A7
:1022E8007B681B691846FFF732FB11E07B88042BDB
:1022F8000ED17B6818697B6859697B689B791A4697
:10230800FFF7C5FD7B681B6900211846FFF716FA21
:102318007B680022DA607B6800221A607B680022F2
:102328005A617B6800229A717B6800221A717B6867
:102338001A697B681B7919461046FFF7ECF90AE021
:102348007B6800225A717B88022B04D17B681B6949
:102358001846FFF71CFB00BF0837BD4680BD0000CC
:1023680080B584B000AF78600B46FB707B681B6952
:102378001846FFF731FA0346FB7397F90F30012B24
:1023880004D17B681B691846FFF712FAFB78002B0B
:102398000FD17B681B697F211846FFF730FA00BF11
:1023A8007B681B691846FFF743FA0346012BF7D0F1
:1023B80040E0FB78012B0FD17B681B692C4918463C
:1023C800FFF71DFA00BF7B681B691846FFF730FA54
:1023D8000346012BF7D02DE07B681B697F21184647
:1023E800FFF70DFA00BF7B681B691846FFF720FA54
:1023F8000346012BF7D00023BB8107E000BFBB8950
:102408001BB29BB201339BB21BB2BB81BB891BB20F
:102418009BB2032BF2D97B681B6915491846FFF755
:10242800EEF900BF7B681B691846FFF701FA0346FF
:10243800012BF7D00023BB8107E000BFBB891BB28B
:102448009BB201339BB21BB2BB81BB891BB29BB24F
:10245800032BF2D997F90F30012B04D17B681B6944
:102468001846FFF791F900BF1037BD4680BD00BF81
:1024780000007F4080B483B000AF78607B681B6841
:1024880043F001027B681A6000BF0C37BD465DF857
:10249800047B704780B483B000AF78607B681B68AA
:1024A80023F001027B681A6000BF0C37BD465DF857
:1024B800047B704780B483B000AF786039607B6874
:1024C8001B6823F004023B681A437B681A6000BF4C
:1024D8000C37BD465DF8047B704780B483B000AF0D
:1024E80078607B681B6803F0040318460C37BD4608
:1024F8005DF8047B704780B483B000AF78603960C2
:102508007B683A681A6300BF0C37BD465DF8047BE8
:10251800704780B483B000AF786039607B683A68F0
:102528005A6300BF0C37BD465DF8047B704780B422
:1025380083B000AF786039607B683A689A6300BFFF
:102548000C37BD465DF8047B704780B483B000AF9C
:10255800786039607B683A68DA6300BF0C37BD463B
:102568005DF8047B704780B483B000AF7860396051
:102578007B683A681A6400BF0C37BD465DF8047B77
:10258800704780B483B000AF78607B685B6B184697
:102598000C37BD465DF8047B704780B483B000AF4C
:1025A80078607B689B6B18460C37BD465DF8047BEA
:1025B800704780B483B000AF78607B68DB6B1846E7
:1025C8000C37BD465DF8047B704780B483B000AF1C
:1025D80078607B681B6C18460C37BD465DF8047B39
:1025E800704780B483B000AF78607B685B6943F064
:1025F80001027B685A6100BF0C37BD465DF8047B59
:10260800704780B483B000AF78607B681B69184658
:102618000C37BD465DF8047B704780B483B000AFCB
:10262800786039607B683A689A6100BF0C37BD46AC
:102638005DF8047B704780B483B000AF7860396080
:102648007B683A689A6200BF0C37BD465DF8047B28
:10265800704780B582B000AF786039607B681B68CE
:102668001846FFF78EFF02463B68934205D07B6809
:102678001B6839681846FFF74CFF00BF0837BD468E
:1026880080BD80B582B000AF786039607B681B6818
:102698001846FFF782FF02463B68934205D07B68E5
:1026A8001B6839681846FFF742FF00BF0837BD4668
:1026B80080BD80B582B000AF786039607B681B68E8
:1026C8001846FFF776FF02463B68934205D07B68C1
:1026D8001B6839681846FFF738FF00BF0837BD4642
:1026E80080BD80B582B000AF786039607B681B68B8
:1026F8001846FFF76AFF02463B68934205D07B689D
:102708001B6839681846FFF72EFF00BF0837BD461B
:1027180080BD000080B485B000AF78607B681B681E
:102728009A68074B1340FB60FB68062B0CBF01231C
:102738000023DBB218461437BD465DF8047B7047AA
:102748000700010080B584B000AF78600B46FB70CD
:102758007B681B681846FFF7C0FEF860FB78002B03
:102768001ED07B681B68324A934213D07B681B6873
:10277800304A93420ED07B681B682F4A934209D097
:102788007B681B682D4A934204D07B681B682C4ADF
:10279800934205D17B681B6800211846FFF7ABFE02
:1027A800FB68042B11D07B681B6804211846FFF7CF
:1027B80081FE7B681B681846FFF713FF7B681B6860
:1027C800F9681846FFF776FE04E07B681B68184630
:1027D800FFF707FF7B681B681846FFF74BFEFB787F
:1027E800002B20D07B681B68114A934213D07B686A
:1027F8001B68104A93420ED07B681B680E4A9342AE
:1028080009D07B681B680D4A934204D07B681B681B
:102818000B4A934207D17B681A687B685B79194633
:102828001046FFF768FE00BF1037BD4680BD00BFE9
:10283800002C0140003401400040014000440140A8
:102848000048014080B582B000AF78607B681B68A3
:102858001846FFF71FFE00BF0837BD4680BD0000C1
:1028680080B483B000AF78600C4B5B79002B0CBF51
:1028780001230023DAB27B6801331A70074B9B7976
:10288800002B0CBF01230023DAB27B6802331A70D5
:1028980000BF0C37BD465DF8047B7047281F002039
:1028A80080B400AF0E4B5A790132D2B25A710C4B38
:1028B8005B79182B02D90A4B00225A71084B9A7976
:1028C8000132D2B29A71064B9B79312B02D9044B53
:1028D80000229A7100BFBD465DF8047B704700BFB7
:1028E800281F002080B485B000AF786039607B680D
:1028F800012283F8D8203B68D3E900237968C1E92D
:1029080002237B6801221A600023FB600CE07B68CD
:10291800D3E902237868F9680231C9000144C1E9A2
:102928000023FB680133FB60FB68182BEFDD00BF59
:1029380000BF1437BD465DF8047B704780B586B08C
:1029480000AF87ED040BF860B9607A60BB68D3E923
:1029580002017B68D3E90023FEF736F80346002B13
:1029680005D17B68D3E90023B968C1E90223F86877
:10297800BB681033C82219460DF082F9F968D7E907
:102988000423C1E93223FB6803F1D000BB6810338C
:10299800C02219460DF074F9BB6803F11000FB68FA
:1029A800C833C82219460DF06BF900BF1837BD4669
:1029B80080BD80B485B000AF786039607B68012243
:1029C80083F860203B68D3E900237968C1E90223D2
:1029D8007B6801221A600023FB600CE07B68D3E966
:1029E80002237868F9680231C9000144C1E900236B
:1029F800FB680133FB60FB68092BEFDD00BF00BFFC
:102A08001437BD465DF8047B704780B586B000AFCB
:102A180087ED040BF860B9607A60BB68D3E90201FE
:102A28007B68D3E90023FDF7CFFF0346002B05D1D0
:102A38007B68D3E90023B968C1E90223F868BB6859
:102A48001033502219460DF01BF9F968D7E9042311
:102A5800C1E91423FB6803F15800BB68103348220E
:102A680019460DF00DF9BB6803F11000FB685033EF
:102A7800502219460DF004F900BF1837BD4680BD35
:102A880080B58CB002AF78607B6800221A727B68D0
:102A980001225A607B681033BB6100237B741A4B98
:102AA800FB611A4B3B620123BB74002387F8243077
:102AB800022387F825300923FB6009233B7407F1BB
:102AC8000C0008230093042301220421FFF7D4FA01
:102AD80002467B68DA607B68DB6802211846FFF7EC
:102AE8003FFC7B68DB681846FFF754FB7B68DB68B4
:102AF80001211846FFF797FA7B6801221A7200BF76
:102B08002837BD4680BD00BF0001045000000240C8
:102B180080B5A6B000AF78601A4BBB6000233B734A
:102B280000237B7307F108031846FEF72FFD0246C2
:102B38007B68DA607B68DB6800211846FEF7E1F9FC
:102B48007B68DB6802211846FEF750FC7B68DB686F
:102B580002211846FEF7F2FC7B68DB681846FFF78F
:102B6800D9FD034687F8973097F89730002B05D1A1
:102B78007B68DB6800211846FFF7E4FD00BF983743
:102B8800BD4680BD0004004080B5A6B000AF7860A7
:102B98001A4BBB6000233B7300237B7307F10803C8
:102BA8001846FEF7F3FC02467B68DA607B68DB6850
:102BB80000211846FEF7A5F97B68DB680221184654
:102BC800FEF7D4FA7B68DB6802211846FEF76EFB35
:102BD8007B68DB681846FFF79DFD034687F897304A
:102BE80097F89730002B05D17B68DB6800211846E1
:102BF800FFF7A8FD00BF9837BD4680BD0004004020
:102C0800B0B5B0B000AFFFF74BFE0023C7F8943063
:102C180010E0954AD7F894301A440023137093496A
:102C2800D7F89420002321F81230D7F894300133D4
:102C3800C7F89430D7F89430072BEADD8C4A002384
:102C480013608C4A002313608B4BDB688B4A04218A
:102C58001846FFF7B4FA894BDB89894A1382874BF8
:102C68001B88874AD383854B9B89854A5382834B2C
:102C78005B88834A9383814B5B89814A93827F4B2C
:102C88009B887F4A53837D4B1B897D4AD3827B4B2C
:102C9800DB887B4A13830023C7F894300FE0784A17
:102CA800D7F89430083332F813307549D7F89420A0
:102CB80021F81230D7F894300133C7F89430D7F898
:102CC8009430072BEBDD6E4B1B881846FDF79AFBFB
:102CD80004460D466B4A6C496C4845EC104BFFF7AF
:102CE8002DFE674B03F5D26353E902236449C1E91A
:102CF8000A230023C7F894301EE0D7F89430013334
:102D08005F4AD133DB001344D3E90023C7E9222308
:102D18005B4BD3E90A23D7E92201FDF77DFE034681
:102D2800002B04D05649D7E92223C1E90A23D7F852
:102D380094300133C7F89430D7F89430172BDCDD82
:102D48004F4B5B881846FDF75DFB04460D46504A1D
:102D58005049514845EC104BFFF757FE484B03F5D7
:102D68004D6353E902234649C1E90C230023C7F800
:102D780094301FE0D7F894300133414A03F2991395
:102D8800DB001344D3E90023C7E922233C4BD3E9F2
:102D98000C23D7E92201FDF73FFE0346002B04D0A0
:102DA8003749D7E92223C1E90C23D7F894300133F6
:102DB800C7F89430D7F89430082BDBDD304B93ED0F
:102DC8000C7B364A36493748B0EE470AF0EE670AB8
:102DD800FFF7B4FD2A4B03F57A6353E90223284928
:102DE800C1E90E230023C7F894301FE0D7F89430C8
:102DF8000133234A03F2F313DB001344D3E900231E
:102E0800C7E922231E4BD3E90E23D7E92201FDF798
:102E1800E5FD0346002B04D01949D7E92223C1E96F
:102E28000E23D7F894300133C7F89430D7F894308C
:102E3800172BDBDD124B9B881846FDF7E3FA044697
:102E48000D46194A19491A4845EC104BFFF776FD0B
:102E58000B4B03F5026353E902230949C1E90C232B
:102E68000023C7F8943045E000040020B403002094
:102E7800AC030020B003002030150020C40300205C
:102E880008040020B000002018190020900A002033
:102E9800D0000020981C0020D0100020E80000205E
:102EA800481E0020A0130020B8000020F8190020B8
:102EB800200C0020D7F894300133A84A03F20313FA
:102EC800DB001344D3E90023C7E92223A34BD3E94A
:102ED8000C23D7E92201FDF79FFD0346002B04D000
:102EE8009E49D7E92223C1E90C23D7F8943001334E
:102EF800C7F89430D7F89430172BDBDD974BDB8875
:102F08001846FDF77FFA04460D46954A95499648B6
:102F180045EC104BFFF712FD904B03F5A06353E906
:102F28000223C7E92E230023C7F894301CE0D7F802
:102F380094300133894A9F33DB001344D3E90023DB
:102F4800C7E92223D7E92223D7E92E01FDF746FD59
:102F58000346002B03D0D7E92223C7E92E23D7F84D
:102F680094300133C7F89430D7F89430172BDEDD4E
:102F78007A4B1B891846FDF745FA04460D467B4AED
:102F88007B497C4845EC104BFFF7D8FC734BD3E9E1
:102F9800DA23C7E92C230023C7F894301CE0D7F8BC
:102FA800943001336D4A6D33DB001344D3E90023B9
:102FB800C7E92223D7E92223D7E92C01FDF70EFD23
:102FC8000346002B03D0D7E92223C7E92C23D7F8DF
:102FD80094300133C7F89430D7F89430172BDEDDDE
:102FE8005E4B5B891846FDF70DFA04460D46624AAA
:102FF8006249634845EC104BFFF7A0FC574BD3E9F7
:103008007623C7E92A230023C7F894301CE0D7F8B1
:1030180094300133514A3B33DB001344D3E9002396
:10302800C7E92223D7E92223D7E92A01FDF7D6FCED
:103038000346002B03D0D7E92223C7E92A23D7F870
:1030480094300133C7F89430D7F89430172BDEDD6D
:10305800424B9B891846FDF7D5F904460D46494A67
:1030680049494A4845EC104BFFF7CFFC3B4B03F569
:10307800576353E90223C7E928230023C7F894308C
:103088001DE0D7F894300133344A03F2AD13DB0066
:103098001344D3E90023C7E92223D7E92223D7E938
:1030A8002801FDF79BFC0346002B03D0D7E9222318
:1030B800C7E92823D7F894300133C7F89430D7F8F4
:1030C8009430082BDDDD324A3249334897ED280B1E
:1030D800FFF734FC214B03F5616353E90223C7E989
:1030E80026230023C7F894301DE0D7F89430013325
:1030F8001A4A03F2C113DB001344D3E90023C7E9DA
:103108002223D7E92223D7E92601FDF785FC0346C8
:10311800002B03D0D7E92223C7E92623D7F8943018
:103128000133C7F89430D7F89430172BDDDD0B4BFB
:10313800DB891846FDF766F904460D46174A184913
:10314800184845EC104BFFF7F9FB044BD3E9122361
:10315800C7E928230023C7F8943042E00804002078
:10316800A80000203818002000090020A000002036
:1031780058170020700700209800002078160020BB
:10318800E0050020D8000020001D0020701100205C
:10319800E0000020681D0020101200209000002090
:1031A8009815002050040020D7F894300133B64A0F
:1031B8000933DB001344D3E90023C7E92223D7E905
:1031C8002223D7E92801FDF709FC0346002B03D089
:1031D800D7E92223C7E92823D7F894300133C7F861
:1031E8009430D7F89430172BDEDDA74B93ED0A7B8C
:1031F800B0EE470AF0EE670A0CF046FBB0EE407AF4
:10320800F0EE607A9FED9E1BB0EE470AF0EE670A7B
:103218000CF002FB87ED220B4FF000024FF0000389
:10322800D7E92201FDF7DAFB0346002B10D0D7F8C7
:103238008830BB67D7F88C3083F00043FB67D7E949
:103248001E01FDF709FC03469BB25B429BB205E0F9
:10325800D7E92201FDF700FC03469BB28B4A138095
:10326800894B93ED0E7BB0EE470AF0EE670A0CF03F
:103278000BFBB0EE407AF0EE607A9FED811BB0EE6A
:10328800470AF0EE670A0CF0C7FA87ED220B4FF0F9
:1032980000024FF00003D7E92201FDF79FFB034628
:1032A800002B10D0D7F888303B67D7F88C3083F0E4
:1032B80000437B67D7E91C01FDF7CEFB03469BB2B1
:1032C8005B429BB205E0D7E92201FDF7C5FB034647
:1032D8009BB26E4A53806C4B93ED0C7BB0EE470A61
:1032E800F0EE670A0CF0D0FAB0EE407AF0EE607AB1
:1032F8009FED631BB0EE470AF0EE670A0CF08CFAFC
:1033080087ED220B4FF000024FF00003D7E92201AE
:10331800FDF764FB0346002B10D0D7F88830BB6656
:10332800D7F88C3083F00043FB66D7E91A01FDF724
:1033380093FB03469BB25B429BB205E0D7E92201AF
:10334800FDF78AFB03469BB2504A938097ED2E0BFC
:103358000CF09AFAB0EE407AF0EE607A9FED481BD6
:10336800B0EE470AF0EE670A0CF056FA87ED220B2A
:103378004FF000024FF00003D7E92201FDF72EFBC2
:103388000346002B10D0D7F888303B66D7F88C302E
:1033980083F000437B66D7E91801FDF75DFB034620
:1033A8009BB25B429BB205E0D7E92201FDF754FBD3
:1033B80003469BB2354AD38097ED2C0B0CF064FA88
:1033C800B0EE407AF0EE607A9FED2D1BB0EE470A22
:1033D800F0EE670A0CF020FA87ED220B4FF000029E
:1033E8004FF00003D7E92201FDF7F8FA0346002B56
:1033F80010D0D7F88830BB65D7F88C3083F00043FD
:10340800FB65D7E91601FDF727FB03469BB25B4234
:103418009BB205E0D7E92201FDF71EFB03469BB2EC
:103428001A4A138197ED2A0B0CF02EFAB0EE407A67
:10343800F0EE607A9FED121BB0EE470AF0EE670AD5
:103448000CF0EAF987ED220B4FF000024FF0000371
:10345800D7E92201FDF7C2FA0346002B18D0D7F8A6
:1034680088303B65D7F88C3083F000437B65D7E91B
:103478001401FDF7F1FA03469BB25B429BB20DE0E3
:10348800000000000000F04008040020D8030020DD
:10349800D7E92201FDF7E0FA03469BB2A24A53811D
:1034A80097ED260B0CF0F0F9B0EE407AF0EE607A6A
:1034B8009FED9B1BB0EE470AF0EE670A0CF0ACF9E3
:1034C80087ED220B4FF000024FF00003D7E92201ED
:1034D800FDF784FA0346002B10D0D7F88830BB6478
:1034E800D7F88C3083F00043FB64D7E91201FDF76D
:1034F800B3FA03469BB25B429BB205E0D7E92201CF
:10350800FDF7AAFA03469BB2874A938197ED280BE9
:103518000CF0BAF9B0EE407AF0EE607A9FED801BBD
:10352800B0EE470AF0EE670A0CF076F987ED220B49
:103538004FF000024FF00003D7E92201FDF74EFAE1
:103548000346002B10D0D7F888303B64D7F88C306E
:1035580083F000437B64D7E91001FDF77DFA034649
:103568009BB25B429BB205E0D7E92201FDF774FAF2
:1035780003469BB26C4AD3816C4BB3F882306A4ADB
:1035880013826B4B03F5D26353E902236849C1E9FF
:103598000E230023C7F894301EE0D7F89430013387
:1035A800634AD133DB001344D3E90023C7E922235C
:1035B8005F4BD3E90E23D7E92201FDF70FFA034643
:1035C800002B04D05A49D7E92223C1E90E23D7F8A2
:1035D80094300133C7F89430D7F89430172BDCDDDA
:1035E800534B5B881846FCF70DFF04460D46514ABD
:1035F8005149524845EC104BFFF7A0F94C4B03F5E5
:10360800346353E90223C7E926230023C7F894301B
:103618001DE0D7F894300133454A03F26713DB0005
:103628001344D3E90023C7E92223D7E92223D7E9A2
:103638002601FDF7F1F90346002B03D0D7E9222331
:10364800C7E92623D7F894300133C7F89430D7F860
:103658009430172BDDDD364B03F5026353E9022363
:103668003349C1E90C230023C7F894301FE0D7F889
:10367800943001332E4A03F20313DB001344D3E9D9
:103688000023C7E922232A4BD3E90C23D7E92201D7
:10369800FDF7A4F90346002B04D02549D7E92223D6
:1036A800C1E90C23D7F894300133C7F89430D7F820
:1036B8009430172BDBDD1E4B03F5A06353E902237F
:1036C800C7E92E230023C7F894301CE0D7F89430BC
:1036D8000133174A9F33DB001344D3E90023C7E9BA
:1036E8002223D7E92223D7E92E01FDF795F90346CE
:1036F800002B03D0D7E92223C7E92E23D7F894302B
:103708000133C7F89430D7F89430172BDEDD084B17
:10371800D3E9DA23C7E92C230023C7F894302CE037
:10372800000000000000F040D80300200000002046
:1037380008040020C8000020B81B0020400F00200B
:10374800D7F894300133AC4A6D33DB001344D3E926
:103758000023C7E92223D7E92223D7E92C01FDF763
:103768005BF90346002B03D0D7E92223C7E92C23B2
:10377800D7F894300133C7F89430D7F89430172B22
:10378800DEDD9D4BD3E97623C7E92A230023C7F85A
:1037980094301CE0D7F894300133974A3B33DB0070
:1037A8001344D3E90023C7E92223D7E92223D7E921
:1037B8002A01FDF731F90346002B03D0D7E922236C
:1037C800C7E92A23D7F894300133C7F89430D7F8DB
:1037D8009430172BDEDD884B9B891846FCF712FEC8
:1037E80004460D46854A8649864845EC104BFFF746
:1037F800A5F8814B03F51B6353E90223C7E9282386
:103808000023C7F894301DE0D7F8943001337A4A82
:1038180003F23513DB001344D3E90023C7E922235D
:10382800D7E92223D7E92801FDF7F6F80346002B4C
:1038380003D0D7E92223C7E92823D7F894300133E6
:10384800C7F89430D7F89430172BDDDD6A4BD3E9ED
:1038580012236949C1E90A230023C7F894301EE0FE
:10386800D7F894300133644A0933DB001344D3E9B1
:103878000023C7E92223604BD3E90A23D7E92201B1
:10388800FDF7ACF80346002B04D05B49D7E92223A7
:10389800C1E90A23D7F894300133C7F89430D7F830
:1038A8009430172BDCDD544B93ED0E7BB0EE470ABA
:1038B800F0EE670A0BF0E8FFB0EE407AF0EE607ABF
:1038C8009FED4B1BB0EE470AF0EE670A0BF0A4FF22
:1038D80087ED220B4FF000024FF00003D7E92201D9
:1038E800FDF77CF80346002B10D0D7F88830BB636F
:1038F800D7F88C3083F00043FB63D7E90E01FDF75E
:10390800ABF803469BB25B429BB205E0D7E92201C4
:10391800FDF7A2F803469BB23B4A138097ED260BAE
:103928000BF0B2FFB0EE407AF0EE607A9FED301BFC
:10393800B0EE470AF0EE670A0BF06EFF87ED220B38
:103948004FF000024FF00003D7E92201FDF746F8D7
:103958000346002B10D0D7F888303B63D7F88C305B
:1039680083F000437B63D7E90C01FDF775F8034644
:103978009BB25B429BB205E0D7E92201FDF76CF8E8
:1039880003469BB2204A53801B4B93ED0C7BB0EE51
:10399800470AF0EE670A0BF077FFB0EE407AF0EED8
:1039A800607A9FED131BB0EE470AF0EE670A0BF042
:1039B80033FF87ED220B4FF000024FF00003D7E9E9
:1039C8002201FDF70BF80346002B1FD0D7F88830EB
:1039D800BB62D7F88C3083F00043FB62D7E90A0159
:1039E800FDF73AF803469BB25B429BB214E000BF76
:1039F800000000000000F04008040020C000002083
:103A0800D81A0020B00D0020EC030020D7E92201CD
:103A1800FDF722F803469BB2894A938097ED2E0B57
:103A28000BF032FFB0EE407AF0EE607A9FED821B29
:103A3800B0EE470AF0EE670A0BF0EEFE87ED220BB8
:103A48004FF000024FF00003D7E92201FCF7C6FF50
:103A58000346002B10D0D7F888303B62D7F88C305B
:103A680083F000437B62D7E90801FCF7F5FF0346C2
:103A78009BB25B429BB205E0D7E92201FCF7ECFF61
:103A880003469BB26E4AD38097ED2C0B0BF0FCFEDD
:103A9800B0EE407AF0EE607A9FED671BB0EE470A11
:103AA800F0EE670A0BF0B8FE87ED220B4FF000022C
:103AB8004FF00003D7E92201FCF790FF0346002BE3
:103AC80010D0D7F88830BB61D7F88C3083F000432A
:103AD800FB61D7E90601FCF7BFFF03469BB25B42D7
:103AE8009BB205E0D7E92201FCF7B6FF03469BB27B
:103AF800534A138197ED2A0B0BF0C6FEB0EE407ABD
:103B0800F0EE607A9FED4C1BB0EE470AF0EE670AC4
:103B18000BF082FE87ED220B4FF000024FF00003FE
:103B2800D7E92201FCF75AFF0346002B10D0D7F83B
:103B380088303B61D7F88C3083F000437B61D7E94C
:103B48000401FCF789FF03469BB25B429BB205E088
:103B5800D7E92201FCF780FF03469BB2384A53811C
:103B680097ED280B0BF090FEB0EE407AF0EE607AFD
:103B78009FED311BB0EE470AF0EE670A0BF04CFEE2
:103B880087ED220B4FF000024FF00003D7E9220126
:103B9800FCF724FF0346002B10D0D7F88830BB6011
:103BA800D7F88C3083F00043FB60D7E90201FCF7BB
:103BB80053FF03469BB25B429BB205E0D7E9220163
:103BC800FCF74AFF03469BB21D4A93811D4B93EDB8
:103BD8000A7BB0EE470AF0EE670A0BF055FEB0EE2E
:103BE800407AF0EE607A9FED141BB0EE470AF0EED3
:103BF800670A0BF011FE87ED220B4FF000024FF021
:103C08000003D7E92201FCF7E9FE0346002B1BD08D
:103C1800D7F888303B60D7F88C3083F000437B605E
:103C2800D7E90001FCF718FF03469BB25B429BB241
:103C380010E000BFAFF30080000000000000F0407B
:103C4800EC03002008040020D7E92201FCF704FF58
:103C580003469BB2B54AD381B54BB3F88420B34B26
:103C68001A82B44BB44A1A62B24B1B6A0021184636
:103C7800FEF7D3FCAF4B1B6A4FF400711846FEF7F2
:103C8800DAFCAC4BAC4A1A62AA4B1B6A00211846F4
:103C9800FEF7C3FCA74B1B6A4FF480411846FEF79A
:103CA800CAFCA44BA44A1A62A24B1B6A00211846FC
:103CB800FEF7B3FC9F4B1B6A4FF480711846FEF762
:103CC800BAFC9C4B9C4A1A629A4B1B6A0021184604
:103CD800FEF7A3FC974B1B6A4FF400411846FEF70A
:103CE800AAFC944B944A1A62924B1B6A002118460C
:103CF800FEF793FC8F4B1B6A4FF480511846FEF772
:103D08009AFC8C4B8D4A1A628A4B1B6A0021184612
:103D1800FEF783FC874B1B6A4FF480511846FEF769
:103D28008AFC844B844A1A62824B1B6A002118461B
:103D3800FEF773FC7F4B1B6A4FF400511846FEF7E1
:103D48007AFC7C4B7C4A1A627A4B1B6A0021184623
:103D5800FEF763FC774B1B6A4FF400611846FEF7C9
:103D68006AFC744B764A1A62714BD3E900014FF032
:103D780000024FF00003FCF727FE0346002B03D197
:103D88008023C7F8943002E00023C7F89430694BC9
:103D98001B6AD7F8942011461846FEF73EFC654B7F
:103DA8001A6AD7F89430DB4303F0800319461046AB
:103DB800FEF741FC634B1B6D00211846FDF75EFCC6
:103DC800C7F884005F4B1B6DD7F884101846FEF7C0
:103DD80070FC5C4B1B6D00211846FDF74FFCC7F8C3
:103DE8008400584B1B6DD7F884101846FEF779FCF1
:103DF800544B1B6C00211846FDF740FCC7F88400A3
:103E0800504B1B6CD7F884101846FEF722FC4D4B1C
:103E18001B6C00211846FDF731FCC7F88400494B9C
:103E28001B6CD7F884101846FEF72BFC4348FEF7A6
:103E3800E8FBC7F884004048FEF7E3FBC7F88000BA
:103E4800404B93F86430062B07D83E4B93F8643008
:103E58000133DAB23B4B83F864203A4B93F8603075
:103E680003F01003DBB2002B0ED1364A92F8603013
:103E780043F0100382F86030324A92F8603043F021
:103E8800030382F860308EE02E4B93F86030C3F362
:103E98000103DBB2012B03D0022B00F0818053E039
:103EA800D7F8843003F00403002B13D1254A92F885
:103EB80060306FF3830382F86030224A92F86030F2
:103EC800022161F3010382F860301A4B002283F863
:103ED800402067E01B4B93F8603003F00C03DBB223
:103EE800042B11D1174B93F86430042B5AD9154B76
:103EF800002283F86420134A92F86030022161F3AB
:103F0800830382F860304DE00E4B93F86430042B45
:103F180048D90C4B002283F864200A4A92F8603092
:103F2800012161F3830382F860303BE0EC03002059
:103F38000000002008040020001000480004004889
:103F4800000C004830150020D7F8803003F04003FB
:103F5800002B18D12C4A92F86030012161F301033B
:103F680082F86030294B012283F84020264B00223A
:103F780083F86420244A92F86030012161F38303B6
:103F880082F860300FE0214B93F84030002B0CBFD3
:103F980001230023DBB21A461C4B83F8402002E0C1
:103FA80000BF00E000BF194B194A1A62194BD3E948
:103FB80002014FF000024FF00003FCF705FD034635
:103FC800002B03D10823C7F8943002E00023C7F878
:103FD80094300E4B1B6AD7F8942011461846FEF70A
:103FE8001CFB0A4B1A6AD7F89430DB4303F008032A
:103FF80019461046FEF71FFB00F094FC00F0A8FDE0
:1040080000BFC037BD46B0BD3015002008040020F1
:104018000004004800000020B0B586B000AF604B37
:104028005B6D1846FCF7FEF95E4BD3E90823FCF7F5
:10403800D5FC0346002B07D0594B5B6D002B03DBE7
:10404800584BD3E9042303E04FF000024FF000037C
:10405800C7E90223524B5B6D1846FCF7E3F90446A7
:104068000D46504BD3E906014FF000024E4BFCF7CA
:104078008BF802460B4620462946FCF7C3FC03464C
:10408800002B03D0464B00225A6504E0444B5B6D7D
:104098000133434A5365454B7B604FF000024FF0B4
:1040A8000003D7E90201FCF78FFC0346002B03D17C
:1040B8004FF400537B6101E000237B617B69194663
:1040C8007868FEF7AAFA7B69DB4303F400531946C4
:1040D8007868FEF7B0FA324B9B6D1846FCF7A2F9E8
:1040E800304BD3E91023FCF779FC0346002B07D0AB
:1040F8002B4B9B6D002B03DB2A4BD3E90C2303E0EE
:104108004FF000024FF00003C7E90223244B9B6DD8
:104118001846FCF787F904460D46224BD3E90E01F1
:104128004FF00002204BFCF72FF802460B462046C2
:104138002946FCF767FC0346002B03D0184B0022E6
:104148009A6504E0164B9B6D0133154A9365174B2E
:104158007B604FF000024FF00003D7E90201FCF743
:1041680033FC0346002B03D14FF400437B6101E08D
:1041780000237B617B6919467868FEF74EFA7B69F4
:10418800DB4303F4004319467868FEF754FA00F05D
:10419800C9FB00F0DDFC00BF1837BD46B0BD00BF4D
:1041A80030150020000000200000F03F0008004803
:1041B800B0B586B000AF324BDB6D1846FCF732F96C
:1041C800304BD3E91823FCF709FC0346002B07D032
:1041D8002B4BDB6D002B03DB2A4BD3E9142303E0C5
:1041E8004FF000024FF00003C7E90223244BDB6DB8
:1041F8001846FCF717F904460D46224BD3E9160179
:104208004FF00002204BFBF7BFFF02460B4620464B
:104218002946FCF7F7FB0346002B03D0184B002276
:10422800DA6504E0164BDB6D0133154AD365174B8D
:104238007B604FF000024FF00003D7E90201FCF762
:10424800C3FB0346002B03D14FF480437B6101E09D
:1042580000237B617B6919467868FEF7DEF97B6984
:10426800DB4303F4804319467868FEF7E4F900F06D
:1042780059FB00F06DFC00BF1837BD46B0BD00BF4C
:1042880030150020000000200000F03F0008004822
:1042980080B582B000AF00237B6011E05A4B93F8E1
:1042A8008C105A4A7B6813440A461A70564BB3F866
:1042B8008010574A7B6822F813107B6801337B60B3
:1042C8007B68072BEADD504B1B6F524A13604E4B3D
:1042D8005B6F514A136000237B6017E04A4BB3F8C9
:1042E80086104E4A7B6822F81310474BB3F88810A3
:1042F8004B4A7B6822F81310434BB3F88A10494A9B
:104308007B6822F813107B6801337B607B68082B7D
:10431800E4DD3D4B9B6F444A13603B4BDB6F434AE4
:104328001360394B9B6F404A5360374BDB6F3F4AF2
:104338005360354B9B6F3C4A9360334BDB6F3B4A72
:10434800936000F083FB3A4B00225A60384B0022FE
:104358001A703748FEF794FB36493748FEF7C2FA19
:1043680036493748FEF725FB36493748FEF7BAFA8B
:1043780036493748FEF7B6FA36493748FEF7B2FAF3
:1043880036493748FEF7AEFA36493748FEF7AAFAF3
:1043980036493748FEF70DFB36493748FEF7A2FA8B
:1043A80036493748FEF79EFA36493748FEF79AFAF3
:1043B80036493748FEF796FA1D4B002283F8442009
:1043C8001B4B002283F84C20194B01229A64314878
:1043D800FEF79EFB164B012283F84C20144B00225B
:1043E80083F83420124B002283F83C20104B012222
:1043F8009A632948FEF7C8FB0D4B012283F83C203D
:1044080000BF0837BD4680BD000000200004002022
:10441800B4030020AC030020B0030020C403002034
:10442800D8030020EC03002094030020A003002000
:1044380030150020B000002018190020D0000020FE
:10444800981C0020E8000020481E0020B80000202A
:10445800F8190020A800002038180020A00000202B
:10446800581700209800002078160020D800002057
:10447800001D0020E0000020681D002090000020A2
:1044880098150020C8000020B81B0020C00000209C
:10449800D81A0020741500206415002080B500AFDC
:1044A800344B1B78002B11D1324B01221A70314B3F
:1044B8005B68012B0AD12F4B1B7A002B06D02D4BA2
:1044C800DB68012204211846FDF7D2FE294B93F838
:1044D8004430002B23D1274B012283F84420254B5D
:1044E8009B6C012B1BD1234B93F84C30002B16D01F
:1044F800204B1B6D1846FEF7A5F91E4B1B6D0021BE
:104508001846FCF798FD1B4B1B6D02211846FCF75B
:10451800C1FF184B1B6D02211846FDF723F8154BF8
:1045280093F83430002B23D1124B012283F8342026
:10453800104B9B6B012B1BD10E4B93F83C30002B7F
:1045480016D00C4B1B6C1846FEF77CF9094B1B6CFC
:1045580000211846FCF76FFD064B1B6C022118461C
:10456800FCF754FE034B1B6C02211846FCF7EEFEC9
:1045780000BF80BD3015002080B489B000AFF8605E
:10458800B9607A60FB68BB610023FB61BB689B086C
:104598007B611B4B1B68B3F5C87F2AD00023FB61E6
:1045A80022E0174B1B6817497A6841F82320FB69FA
:1045B8009B00BA691A44124B1B681268114903F52B
:1045C800C87341F823200E4B1B680F4A12680D4927
:1045D80003F5487341F82320094B1B680133084A47
:1045E8001360FB690133FB61FA697B699A42D8D38E
:1045F80000E000BF2437BD465DF8047B704700BF6C
:10460800301F0020381F0020341F002080B584B0E0
:1046180000AF786072B600BF00F0E8FC0346FB60AC
:1046280007F10C037A6804211846FFF7A5FF62B664
:1046380000BF00BF1037BD4680BD000080B582B006
:1046480000AF554B1B785A1CD1B2534A1170002B3E
:1046580009D0524B01221A604F4B1B78013BDAB24A
:104668004D4B1A7095E03B461846FEF7F9F862B6CE
:1046780000BF02200BF0B4F8FEF7C2FA02200BF0DC
:10468800BAF872B600BF444B1B78013BDAB2424B12
:104698001A7001237B6024E03A467B6813441B7838
:1046A800002B1BD03E4A7B6813441B785A1CD0B29F
:1046B8003B497A680A4401461170002B0ED0374BEB
:1046C80001221A60364A7B6813441B78013BD9B231
:1046D800334A7B6813440A461A7005E07B68013345
:1046E8007B607B68022BD7DD01237B604CE02A4A84
:1046F8007B6813441B78002B4AD1294A7B681344F2
:104708001B78002B3DD0244A7B6813441B78013367
:10471800D9B2214A7B6813440A461A7062B600BFB0
:104728007B68012B03D07B68022B09D011E00320A2
:104738000BF056F8FFF770FC03200BF05CF808E06C
:1047480004200BF04DF8FFF733FD04200BF053F86D
:1047580000BF72B600BF124A7B6813441B78013B46
:10476800D9B20F4A7B6813440A461A700A4A7B6812
:1047780013441B78013BD9B2074A7B6813440A46A5
:104788001A707B6801337B607B68022BAFDD00E029
:1047980000BF0837BD4680BDFC310020F83100203D
:1047A8000032002080B584B000AF78603960374BA4
:1047B800FB60374BBB60374B00221A70364B002228
:1047C8001A7001DF06F026FB00F0E0FE00F02EFF75
:1047D80000F08EFF01F054FF01F072FB02F09EF929
:1047E80001F0BEFF02F04AFA01F00EFD02F00EFDE4
:1047F80002F066FC294B1B6800221A6001200AF0AF
:10480800EFFFFFF745FD01200AF0F5FF72B600BF84
:1048180097ED030A00F08AFC204B1B681B68002BED
:104828000CBF01230023DBB21A461B4B1A7062B679
:1048380000BF62B600BF15E0184B1B681B68002B51
:1048480014BF01230023DBB21A46124B1A70114B16
:104858001B78DBB2002B05D0114B1B68104A23F0E4
:10486800010313600C4B1B78DBB2002BE4D105204D
:104878000AF0B6FFFFF712FE05200AF0BCFF72B679
:1048880000BF002318461037BD4680BDCDCCCC3DB7
:104898000000A04203320020043200201CFD000862
:1048A80010E000E080B485B000AF0346FB80B7F9A4
:1048B8000630002B02DBFB88FB8101E0FB88FB81D3
:1048C800B7F90E3018461437BD465DF8047B7047BB
:1048D80080B588B004AF03460A46FB711346BB7126
:1048E800FB799BB25B009BB2013399B2BB799AB258
:1048F8004FF0FF3302930223019307F10C03009357
:104908000123074806F078FE3B7B1B021AB27B7B2B
:104918001BB213431BB29BB218461037BD4680BD6D
:104928003032002080B500AF3B216920FFF7D0FF6F
:1049380003461846FFF7B6FF03461A4613469B0080
:1049480013445B0007EE903AB8EEE77ADFED3B6A76
:10495800C7EE267A3A4BC3ED007A3D216920FFF76E
:10496800B7FF03461846FFF79DFF03461A4613464E
:104978009B0013445B0007EE903AB8EEE77ADFED50
:104988002F6AC7EE267A2E4BC3ED017A3F216920A4
:10499800FFF79EFF03461846FFF784FF03461A46B3
:1049A80013469B0013445B0007EE903AB8EEE77A93
:1049B800DFED226AC7EE267A214BC3ED027A432146
:1049C8006920FFF785FF03461846FFF76BFF03468C
:1049D80007EE903AB8EEE77ADFED1A6AC7EE267A64
:1049E800194BC3ED007A45216920FFF771FF034693
:1049F8001846FFF757FF034607EE903AB8EEE77AF6
:104A0800DFED106AC7EE267A0F4BC3ED017A472116
:104A18006920FFF75DFF03461846FFF743FF03468B
:104A280007EE903AB8EEE77ADFED066AC7EE267A27
:104A3800054BC3ED027A00BF80BD00BF0000804671
:104A48009403002000000343A003002080B586B033
:104A580004AF0023FB714FF0FF330293012301934E
:104A6800FB1D009301236B22D2211D4806F0B0FCE8
:104A78004FF0FF330293012301930723009301238F
:104A88001922D221164806F0A3FC4FF0FF330293F7
:104A9800012301930023009301231C22D2211048F3
:104AA80006F096FC4FF0FF33029301230193002395
:104AB800009301231B22D221094806F089FC4FF0FC
:104AC800FF33029301230193064B009301237522C0
:104AD800D321034806F090FD00BF0837BD4680BDCE
:104AE800303200200532002080B582B000AF0023AC
:104AF8007B600FE07B68432B08D07B68052B05D0D3
:104B08007B685BB2184607F0E5FA00E000BF7B68F7
:104B180001337B607B68EF2BECD900BF00BF0837FF
:104B2800BD4680BD80B582B000AF00237B6007E042
:104B38007B685BB2184607F0BFFA7B6801337B607D
:104B48007B68EF2BF4D900BF00BF0837BD4680BD96
:104B580080B500AF4021AA4806F092FB0346002B1F
:104B680014BF01230023DAB2A64B1A700421A64809
:104B780006F086FB0346002B14BF01230023DAB29C
:104B8800A04B5A704FF40051A04806F079FB034639
:104B9800002B14BF01230023DAB29D4B1A704FF487
:104BA80080419A4806F06CFB0346002B14BF012392
:104BB8000023DAB2964B5A704FF40041934806F03E
:104BC8005FFB0346002B14BF01230023DAB2904B8E
:104BD8009A704FF480518C4806F052FB0346002B24
:104BE80014BF01230023DAB28A4B1A704FF4807184
:104BF800834806F045FB0346002B14BF012300231E
:104C0800DAB2844B5A704FF400717D4806F038FBD5
:104C18000346002B14BF01230023DAB27D4B9A70A0
:104C28004FF48051764806F02BFB0346002B14BF47
:104C380001230023DAB2774BDA704FF40061704831
:104C480006F01EFB0346002B14BF01230023DAB233
:104C5800704B1A714FF48041694806F011FB034606
:104C6800002B14BF01230023DAB26A4B5A714FF4A8
:104C78000041634806F004FB0346002B14BF0123E0
:104C88000023DAB2634B9A714FF400515C4806F086
:104C9800F7FA0346002B14BF01230023DAB25D4B59
:104CA800DA715D4B5B6B9AB25C4B1A805A4B9B6B0B
:104CB8009AB25A4B5A80584BDB6B9AB2584B1A80AF
:104CC800554B1B6C9AB2564B5A80FFF70DFF08E004
:104CD8004FF400714FF0904006F0D2FA0346012BD2
:104CE80007D103214F4803F0C1F80346002BEFD149
:104CF8000AE000BF08E04FF400714FF0904006F062
:104D0800BFFA0346012B07D102213E4803F0AEF853
:104D18000346002BEFD10AE000BF08E04FF4007112
:104D28004FF0904006F0ACFA0346012B07D103215F
:104D3800374803F09BF80346002BEFD10AE000BF89
:104D480008E04FF400714FF0904006F099FA0346DE
:104D5800012B07D10C21344803F088F80346002BB7
:104D6800EFD10AE000BF08E04FF400714FF0904027
:104D780006F086FA0346012B07D10C212B4803F0D5
:104D880075F80346002BEFD10AE000BF08E04FF4A6
:104D980000714FF0904006F073FA0346012B07D1DB
:104DA8001221234803F062F80346002BEFD10AE0F2
:104DB80000BF08E04FF400714FF0904006F060FA31
:104DC8000346012B07D112211A4803F04FF8034676
:104DD800002BEFD10AE000BF08E04FF400714FF05C
:104DE800904006F04DFA0346012B07D112211248D4
:104DF80003F03CF80346002BEFD128E000BF26E083
:104E0800001000480832002000040048000800484C
:104E18000C32002010320020000400402032002014
:104E28001C320020C0FC000894030020A0030020CE
:104E3800C4030020D8030020EC0300204FF40071C5
:104E48004FF0904006F01CFA0346012B07D10821C9
:104E5800514803F00BF80346002BEFD10AE000BFDE
:104E680008E04FF400714FF0904006F009FA03464D
:104E7800012B07D10421494802F0F8FF0346002B13
:104E8800EFD10AE000BF08E04FF400714FF0904006
:104E980006F0F6F90346012B07D10421404802F039
:104EA800E5FF0346002BEFD10AE000BF08E04FF40E
:104EB80000714FF0904006F0E3F90346012B07D14B
:104EC8000421384802F0D2FF0346002BEFD10AE054
:104ED80000BF08E04FF400714FF0904006F0D0F9A1
:104EE8000346012B07D108212F4802F0BFFF0346D4
:104EF800002BEFD10AE000BF08E04FF400714FF03B
:104F0800904006F0BDF90346012B07D11021274830
:104F180002F0ACFF0346002BEFD10AE000BF08E027
:104F28004FF400714FF0904006F0AAF90346012BA8
:104F380007D104211E4802F099FF0346002BEFD148
:104F48000AE000BF08E04FF400714FF0904006F00F
:104F580097F90346012B07D10421164802F086FF72
:104F68000346002BEFD10AE000BF08E04FF40071C0
:104F78004FF0904006F084F90346012B07D1042135
:104F88000D4802F073FF0346002BEFD100E000BF8D
:104F9800FFF7C8FD00BF80BD103200201832002086
:104FA8001C3200202032002000040020B40300201E
:104FB800B0030020AC030020C4FC000880B584B016
:104FC80000AF786005F052FFF8607B68BB6000BFF7
:104FD80005F04CFF0246FB68D31ABA689A42F7D824
:104FE80000BF00BF1037BD4680BD000010B50E4C95
:104FF80082B0636A019305F039FF0090626A019BF1
:105008009A4207D3009B01984FF47A7202FB03007F
:1050180002B010BD05F02AFF636A4FF47A7202FBF2
:10502800003002B010BD00BF002C014080B483B036
:1050380000AF03463960FB7197F90730002B0ADB94
:105048003B68DAB20C4997F907301201D2B20B4427
:1050580083F800230AE03B68DAB20849FB7903F0D9
:105068000F03043B1201D2B20B441A7600BF0C376F
:10507800BD465DF8047B704700E100E000ED00E00C
:1050880080B582B000AF78607B68013BB3F1807F68
:1050980001D301230FE00A4A7B68013B53600F21CB
:1050A8004FF0FF30FFF7C2FF054B00229A60044B18
:1050B80007221A60002318460837BD4680BD00BF86
:1050C80010E000E080B500AFBFF34F8F00BFBFF323
:1050D8006F8F00BF0B4B1A680B4B1B689A4202D3A9
:1050E800084B00221A60074B1B685A1C05490A60C6
:1050F800002B05D172B600BFFFF7A0FA62B600BF59
:1051080000BF80BD243200202832002080B400AFC8
:10511800054B5B68044A43F08053536000BFBD46AB
:105128005DF8047B704700BF00ED00E080B584B0F7
:1051380000AF87ED010A234B1B6807EE903AB8EEE3
:10514800677AD7ED017A67EE277AFCEEE77A17EEF1
:10515800903AFB60FB68B3F1807F18D3FB6807EED9
:10516800903AB8EE677ADFED186AC7EE267AFCEE59
:10517800E77A17EE903A0133144A1360134B1B6811
:10518800FA68B2FBF3F31846FFF77AFF05E00F4B16
:1051980000221A60F868FFF773FF0D4B00221A60AF
:1051A8000C4A0D4B1A600F216FF00400FFF73EFF09
:1051B8000F216FF00100FFF739FF00BF1037BD4620
:1051C80080BD00BF7C020020FFFF7F4B28320020FB
:1051D80024320020CD5000082C320020EFF300804C
:1051E80001B5EFF3118003B41EF0100F08BFB0EE45
:1051F800400A0A48006803B488B004A006904FF03B
:10520800807007906FF006008646704703BC8047A1
:10521800BFF36F8F00DFFEE700BF00002C320020D5
:105228001EF0100F08BFB0EE400A1EF0040F0CBFAE
:10523800EFF30880EFF30980816911F8020C10B1CF
:1052480001280DD00BE01EF0100F0CBF1AB008B0EB
:1052580003BC80F3118803BC80F300880847FEE78D
:105268004EF61451CEF200010A6842F001020A60BB
:105278007047F4E700BF00BF80B400AF054B1B6860
:10528800044A43F40023136000BFBD465DF8047B65
:10529800704700BF0010024080B400AF054B1B6888
:1052A800044A43F48033136000BFBD465DF8047BB5
:1052B800704700BF0010024080B400AF074B1B6866
:1052C80003F40033B3F5003F01D1012300E00023CC
:1052D8001846BD465DF8047B704700BF00100240C9
:1052E80080B483B000AF7860064B9B6823F003025C
:1052F80004497B6813438B6000BF0C37BD465DF8DB
:10530800047B70470010024080B400AF044B9B68D8
:1053180003F00C031846BD465DF8047B704700BFD8
:105328000010024080B483B000AF7860064B9B68E1
:1053380023F0F00204497B6813438B6000BF0C37ED
:10534800BD465DF8047B70470010024080B483B00E
:1053580000AF7860064B9B6823F4E06204497B68E1
:1053680013438B6000BF0C37BD465DF8047B704764
:105378000010024080B483B000AF7860064B9B6891
:1053880023F4605204497B6813438B6000BF0C37D9
:10539800BD465DF8047B70470010024080B400AF42
:1053A800054B1B68044A43F08073136000BFBD4679
:1053B8005DF8047B704700BF0010024080B400AF66
:1053C800074B1B6803F00073B3F1007F01D1012381
:1053D80000E000231846BD465DF8047B704700BF17
:1053E8000010024080B485B000AFF860B9607A6000
:1053F8003B600A4BDA680A4B1340F968BA681143F4
:105408007A68120211433A680A4304491343CB608D
:1054180000BF1437BD465DF8047B7047001002409A
:105428008C80FFF980B400AF054BDB68044A43F079
:105438008073D36000BFBD465DF8047B704700BF32
:105448000010024080B400AF054B1B68044A43F0CB
:105458008063136000BFBD465DF8047B704700BFE2
:105468000010024080B400AF074B1B6803F00063D4
:10547800B3F1006F01D1012300E000231846BD46B7
:105488005DF8047B704700BF0010024080B485B00F
:1054980000AFF860B9607A603B600E4BDB6823F0C0
:1054A8007302F968BB680B430A491343CB60094B85
:1054B8001B6923F4C00323F4FE437A6811023A6897
:1054C8000A43044913430B6100BF1437BD465DF816
:1054D800047B70470010024080B400AF054B1B6985
:1054E800044A43F48013136100BFBD465DF8047B92
:1054F800704700BF0010024080B483B000AF7860EE
:10550800064B1B6823F0070204497B6813430B60B2
:1055180000BF0C37BD465DF8047B70470020024091
:1055280080B400AF044B1B6803F007031846BD4660
:105538005DF8047B704700BF0020024080B483B050
:1055480000AF7860064B1B6823F4C06204497B688F
:1055580013430B6000BF0C37BD465DF8047B7047F2
:105568000070004080B400AF074B5B6903F48063B0
:10557800B3F5806F01D1012300E000231846BD4632
:105588005DF8047B704700BF0070004080B500AF35
:105598000420FFF7B1FF00BFFFF7C2FF0346042B4B
:1055A800FAD14FF40070FFF7C9FF00BFFFF7DAFF29
:1055B8000346002BFAD1FFF76FFE00BFFFF77CFE12
:1055C8000346012BFAD1FFF757FE002314220021CE
:1055D8000320FFF707FFFFF725FFFFF7DFFE00BFF8
:1055E800FFF7ECFE0346012BFAD10320FFF778FE04
:1055F80000BFFFF789FE03460C2BFAD10020FFF706
:1056080091FE0020FFF7A2FE0020FFF7B3FE064838
:1056180002F03CFD0F2002F0CBFC0346002B01D02A
:1056280000F02CF800BF80BD00B4C40480B500AF02
:1056380000230C2200210320FFF728FFFFF74CFF6F
:10564800FFF700FF00BFFFF70DFF0346012BFAD15C
:1056580000BF00BF80BD000080B582B000AF786099
:105668007B681B68044A934201D105F0EBFB00BF3D
:105678000837BD4680BD00BF002C014080B400AF94
:1056880072B600BFFEE7000080B485B000AF786056
:10569800084BDA6C07497B681343CB64054BDA6C1B
:1056A8007B681340FB60FB6800BF1437BD465DF89C
:1056B800047B70470010024080B483B000AF78606C
:1056C80039607B683A689A6100BF0C37BD465DF85F
:1056D800047B704780B483B000AF786039607B6822
:1056E8003A689A6200BF0C37BD465DF8047B704784
:1056F80080B586B000AF3B4600221A605A609A60B7
:10570800DA601A615A611020FFF7BEFF0420FFF724
:10571800BBFF8020FFF7B8FF0120FFF7B5FF02208D
:10572800FFF7B2FF0820FFF7AFFF4FF400516348BF
:10573800FFF7C2FF4FF440416048FFF7CBFF4FF43B
:105748007B415F48FFF7C6FF41F208015D48FFF75C
:10575800C1FF80215C48FFF7BDFF40F2BF433B60BB
:1057680003237B6000233B613B461946544802F003
:10577800E8FD40233B6000237B6001233B613B46FF
:1057880019464F4802F0DDFD4FF460433B600123AA
:105798007B600023BB600023FB6000233B613B462A
:1057A8001946464802F0CDFD41F60F433B600323FE
:1057B8007B6000233B613B461946404802F0C1FD2F
:1057C80048F207533B6003237B6000233B613B4661
:1057D80019464FF0904002F0B4FD04233B600023CB
:1057E8007B6001233B613B461946364802F0A9FD20
:1057F8004FF47B433B6001237B600323BB600023A2
:10580800FB6000233B613B4619462D4802F099FD99
:105818004FF480533B6001237B600323BB6000236C
:10582800FB6000233B613B461946264802F089FD90
:105838004EF2D0333B6003237B6000233B613B4641
:105848001946204802F07DFD4FF61F733B60032385
:105858007B6000233B613B4619461B4802F071FD03
:1058680080233B6001237B600023BB600023FB6037
:1058780000233B613B461946134802F062FD0823AA
:105888003B6001237B600023BB600023FB60002397
:105898003B613B4619460B4802F053FD20233B6011
:1058A80000237B6000233B613B461946054802F014
:1058B80048FD00BF1837BD4680BD00BF000800483E
:1058C8000010004800040048000C004880B400AFF5
:1058D800044BDB681B0A03F007031846BD465DF856
:1058E800047B704700ED00E080B483B000AF03464E
:1058F800FB7197F90730002B0BDBFB7903F01F02D4
:10590800074997F907305B09012000FA02F241F8CC
:10591800232000BF0C37BD465DF8047B704700BFED
:1059280000E100E080B483B000AF03463960FB714A
:1059380097F90730002B0ADB3B68DAB20C4997F974
:1059480007301201D2B20B4483F800230AE03B6807
:10595800DAB20849FB7903F00F03043B1201D2B213
:105968000B441A7600BF0C37BD465DF8047B7047C0
:1059780000E100E000ED00E080B489B000AFF8601D
:10598800B9607A60FB6803F00703FB61FB69C3F148
:105998000703042B28BF0423BB61FB690433062BD0
:1059A80002D9FB69033B00E000237B614FF0FF3223
:1059B800BB6902FA03F3DA43BB681A407B699A4071
:1059C8004FF0FF317B6901FA03F3D9437B680B4041
:1059D800134318462437BD465DF8047B704780B4EE
:1059E80083B000AF786039607B689B6823F0E07211
:1059F8003B681A437B689A6000BF0C37BD465DF868
:105A0800047B704780B487B000AFF860B9607A60F3
:105A1800FB6830331A46BB681B0A9B0003F00C0373
:105A280013447B617B691A68BB6803F01F031F215D
:105A380001FA03F3DB431A407B689B0E03F01F0156
:105A4800BB6803F01F0301FA03F31A437B691A606A
:105A580000BF1C37BD465DF8047B704780B487B033
:105A680000AFF860B9607A60FB6814331A46BB6807
:105A78005B0E9B0003F0040313447B617B691A6887
:105A8800BB681B0D03F01F03072101FA03F3DB4377
:105A98001A40BB681B0D03F01F03796801FA03F372
:105AA8001A437B691A6000BF1C37BD465DF8047B4A
:105AB8007047000080B485B000AFF860B9607A60C4
:105AC800FB68D3F8B020BB68C3F31203DB431A406A
