:020000040800F2
:1000000000800120F1070108538F0008598F000874
:100010005F8F0008658F00086B8F000800000000EC
:1000200000000000000000000000000099620008CD
:10003000718F00080000000055620008856100080B
:100040004108010841080108410801084108010868
:100050004108010841080108410801084108010858
:100060004108010841080108410801087F8F000884
:10007000891F0008410801084108010841080108DA
:100080008D8F00089B8F0008A98F00084108010888
:100090004108010841080108410801084108010818
:1000A00041080108B98F000841080108410801080A
:1000B00041080108410801084108010841080108F8
:1000C00041080108410801084108010841080108E8
:1000D00041080108410801084108010841080108D8
:1000E00041080108410801084108010841080108C8
:1000F00041080108410801084108010841080108B8
:1001000041080108410801084108010841080108A7
:100110004108010841080108410801084108010897
:100120004108010841080108410801084108010887
:100130004108010841080108410801084108010877
:10014000410801084108010841080108CD8F000855
:100150004108010841080108410801084108010857
:100160004108010841080108410801084108010847
:100170004108010841080108410801080000000089
:080180004108010841080108D3
:1001880081F0004102E000BF83F0004330B54FEA40
:1001980041044FEA430594EA050F08BF90EA020FAD
:1001A8001FBF54EA000C55EA020C7FEA645C7FEA40
:1001B800655C00F0E2804FEA5454D4EB5555B8BF63
:1001C8006D420CDD2C4480EA020281EA030382EAD4
:1001D800000083EA010180EA020281EA0303362D66
:1001E80088BF30BD11F0004F4FEA01314FF4801C39
:1001F8004CEA113102D0404261EB410113F0004F4B
:100208004FEA03334CEA133302D0524263EB430301
:1002180094EA050F00F0A780A4F10104D5F1200E9F
:100228000DDB02FA0EFC22FA05F2801841F10001FA
:1002380003FA0EF2801843FA05F359410EE0A5F1CE
:1002480020050EF1200E012A03FA0EFC28BF4CF0FF
:10025800020C43FA05F3C01851EBE37101F00045B5
:1002680007D54FF0000EDCF1000C7EEB00006EEBC2
:100278000101B1F5801F1BD3B1F5001F0CD349084C
:100288005FEA30004FEA3C0C04F101044FEA4452A3
:1002980012F5800F80F09A80BCF1004F08BF5FEA2A
:1002A800500C50F1000041EB045141EA050130BD0A
:1002B8005FEA4C0C404141EB0101013C28BFB1F51C
:1002C800801FE9D291F0000F04BF01460020B1FA67
:1002D80081F308BF2033A3F10B03B3F120020CDA3A
:1002E8000C3208DD02F1140CC2F10C0201FA0CF018
:1002F80021FA02F10CE002F11402D8BFC2F1200C7D
:1003080001FA02F120FA0CFCDCBF41EA0C01904032
:10031800E41AA2BF01EB0451294330BD6FEA04047B
:100328001F3C1CDA0C340EDC04F11404C4F1200266
:1003380020FA04F001FA02F340EA030021FA04F378
:1003480045EA030130BDC4F10C04C4F1200220FACF
:1003580002F001FA04F340EA0300294630BD21FA0D
:1003680004F0294630BD94F0000F83F4801306BFD3
:1003780081F480110134013D4EE77FEA645C18BFC7
:100388007FEA655C29D094EA050F08BF90EA020F5E
:1003980005D054EA000C04BF1946104630BD91EA56
:1003A800030F1EBF0021002030BD5FEA545C05D159
:1003B8004000494128BF41F0004130BD14F5800498
:1003C8003CBF01F5801130BD01F0004545F0FE410C
:1003D80041F470014FF0000030BD7FEA645C1ABF41
:1003E800194610467FEA655C1CBF0B46024650EA78
:1003F800013406BF52EA033591EA030F41F40021A4
:1004080030BD00BF90F0000F04BF0021704730B529
:100418004FF4806404F132044FF000054FF00001FE
:1004280050E700BF90F0000F04BF0021704730B5BF
:100438004FF4806404F1320410F0004548BF404294
:100448004FF000013EE700BF42004FEAE2014FEAE9
:1004580031014FEA02701FBF12F07F4393F07F4FC4
:1004680081F06051704732F07F4208BF704793F0C7
:100478007F4F04BF41F40021704730B54FF46074DA
:1004880001F0004521F000411CE700BF50EA0102DD
:1004980008BF704730B54FF000050AE050EA010286
:1004A80008BF704730B511F0004502D5404261EBF6
:1004B80041014FF4806404F132045FEA915C3FF437
:1004C800D8AE4FF003025FEADC0C18BF03325FEAD4
:1004D800DC0C18BF033202EBDC02C2F1200300FA85
:1004E80003FC20FA02F001FA03FE40EA0E0021FAAA
:1004F80002F11444BDE600BF70B54FF0FF0C4CF498
:10050800E06C1CEA11541DBF1CEA135594EA0C0F49
:1005180095EA0C0F00F0DEF82C4481EA030621EA84
:100528004C5123EA4C5350EA013518BF52EA0335BF
:1005380041F4801143F4801338D0A0FB02CE4FF071
:100548000005E1FB02E506F00042E0FB03E54FF0A1
:100558000006E1FB03569CF0000F18BF4EF0010E99
:10056800A4F1FF04B6F5007F64F5407404D25FEA95
:100578004E0E6D4146EB060642EAC62141EA555148
:100588004FEAC52040EA5E504FEACE2EB4F1FD0C8A
:1005980088BFBCF5E06F1ED8BEF1004F08BF5FEA08
:1005A800500E50F1000041EB045170BD06F00046BA
:1005B80046EA010140EA020081EA0301B4EB5C0467
:1005C800C2BFD4EB0C0541EA045170BD41F480115F
:1005D8004FF0000E013C00F3AB8014F1360FDEBF84
:1005E800002001F0004170BDC4F10004203C35DA60
:1005F8000C341BDC04F11404C4F1200500FA05F3E3
:1006080020FA04F001FA05F240EA020001F0004283
:1006180021F0004110EBD37021FA04F642EB0601F9
:100628005EEA430E08BF20EAD37070BDC4F10C0423
:10063800C4F1200500FA04F320FA05F001FA04F2E7
:1006480040EA020001F0004110EBD37041F10001D3
:100658005EEA430E08BF20EAD37070BDC4F12005DE
:1006680000FA05F24EEA020E20FA04F301FA05F246
:1006780043EA020321FA04F001F0004121FA04F2EE
:1006880020EA020000EBD3705EEA430E08BF20EABE
:10069800D37070BD94F0000F0FD101F000464000F8
:1006A80041EB010111F4801F08BF013CF7D041EA7A
:1006B800060195F0000F18BF704703F0004652007E
:1006C80043EB030313F4801F08BF013DF7D043EA4F
:1006D8000603704794EA0C0F0CEA135518BF95EA05
:1006E8000C0F0CD050EA410618BF52EA4306D1D18C
:1006F80081EA030101F000414FF0000070BD50EAAB
:10070800410606BF1046194652EA430619D094EA34
:100718000C0F02D150EA013613D195EA0C0F05D11E
:1007280052EA03361CBF104619460AD181EA030172
:1007380001F0004141F0FE4141F470014FF000002A
:1007480070BD41F0FE4141F4780170BD70B54FF0C5
:10075800FF0C4CF4E06C1CEA11541DBF1CEA135545
:1007680094EA0C0F95EA0C0F00F0A7F8A4EB050427
:1007780081EA030E52EA03354FEA013100F088801E
:100788004FEA03334FF0805545EA131343EA1263E7
:100798004FEA022245EA111545EA10654FEA00269C
:1007A8000EF000419D4208BF964244F1FD0404F555
:1007B800407402D25B084FEA3202B61A65EB0305B1
:1007C8005B084FEA32024FF480104FF4002CB6EB6E
:1007D800020E75EB030E22BFB61A754640EA0C00EE
:1007E8005B084FEA3202B6EB020E75EB030E22BF2E
:1007F800B61A754640EA5C005B084FEA3202B6EB6F
:10080800020E75EB030E22BFB61A754640EA9C002D
:100818005B084FEA3202B6EB020E75EB030E22BFFD
:10082800B61A754640EADC0055EA060E18D04FEABB
:10083800051545EA16754FEA06164FEAC30343EA5B
:1008480052734FEAC2025FEA1C1CC0D111F4801F28
:100858000BD141EA00014FF000004FF0004CB6E721
:1008680011F4801F04BF01430020B4F1FD0C88BFC0
:10087800BCF5E06F3FF6AFAEB5EB030C04BFB6EBCB
:10088800020C5FEA500C50F1000041EB045170BDBE
:100898000EF0004E4EEA113114EB5C04C2BFD4EBEB
:1008A8000C0541EA045170BD41F480114FF0000E6F
:1008B800013C90E645EA060E8DE60CEA135594EAEB
:1008C8000C0F08BF95EA0C0F3FF43BAF94EA0C0FEE
:1008D8000AD150EA01347FF434AF95EA0C0F7FF463
:1008E80025AF104619462CE795EA0C0F06D152EAB7
:1008F80003353FF4FDAE1046194622E750EA41069B
:1009080018BF52EA43067FF4C5AE50EA41047FF4AB
:100918000DAF52EA43057FF4EBAE12E74FF0FF3C10
:1009280006E000BF4FF0010C02E000BF4FF0010CE1
:100938004DF804CD4FEA410C7FEA6C5C4FEA430C5A
:1009480018BF7FEA6C5C1BD001B050EA410C0CBFA9
:1009580052EA430C91EA030F02BF90EA020F00200B
:10096800704710F1000F91EA030F58BF994208BF72
:1009780090422CBFD8176FEAE37040F0010070472F
:100988004FEA410C7FEA6C5C02D150EA013C07D186
:100998004FEA430C7FEA6C5CD6D152EA033CD3D0D1
:1009A8005DF8040B704700BF8446104662468C46CB
:1009B8001946634600E000BF01B5FFF7B7FF0028FE
:1009C80048BF10F1000F01BD4DF808EDFFF7F4FF27
:1009D8000CBF012000205DF808FB00BF4DF808EDB2
:1009E800FFF7EAFF34BF012000205DF808FB00BFD5
:1009F8004DF808EDFFF7E0FF94BF012000205DF8F7
:100A080008FB00BF4DF808EDFFF7CEFF94BF0120AB
:100A180000205DF808FB00BF4DF808EDFFF7C4FFA4
:100A280034BF012000205DF808FB00BF4FEA410CED
:100A38007FEA6C5C02D150EA013C0AD14FEA430CD0
:100A48007FEA6C5C02D152EA033C02D14FF000000D
:100A580070474FF0010070474A0011D212F500129A
:100A680011D20DD56FF47873B3EB62520ED44FEAFE
:100A7800C12343F0004343EA505323FA02F070477E
:100A88004FF00000704750EA013002D14FF0FF30BC
:100A980070474FF0000070470348044B834202D070
:100AA800034B03B118477047D0020020D002002042
:100AB800000000000548064B1B1AD90F01EBA301E3
:100AC800491002D0034B03B118477047D0020020E9
:100AD800D00200200000000010B5064C237843B96E
:100AE800FFF7DAFF044B13B10448AFF3008001238A
:100AF800237010BDD002002000000000140D010872
:100B080008B5054B1BB105490548AFF30080BDE8A2
:100B18000840FFF7CFBF00BF00000000D40200204C
:100B2800140D010880B485B000AF78607B681B683D
:100B380003F06003FB60FB68002B04D17B681B6833
:100B480003F01003FB60FB6818461437BD465DF8D8
:100B5800047B704780B483B000AF78607B681B6B00
:100B680018460C37BD465DF8047B704780B483B0E7
:100B780000AF786039607B681A6A3B681A437B6803
:100B88001A6200BF0C37BD465DF8047B704780B41D
:100B980083B000AF786039607B681A6A3B68DB43D2
:100BA8001A407B681A6200BF0C37BD465DF8047BAB
:100BB800704780B483B000AF78607B685B6C43F4A7
:100BC80000427B685A6400BF0C37BD465DF8047B61
:100BD800704780B483B000AF78607B68DB6843F00F
:100BE80001027B68DA6000BF0C37BD465DF8047B04
:100BF800704780B483B000AF78607B68DB6823F00F
:100C080001027B68DA6000BF0C37BD465DF8047BE3
:100C1800704780B483B000AF78607B68DB6803F00E
:100C28000103012B01D1012300E0002318460C37F2
:100C3800BD465DF8047B704780B483B000AF786030
:100C48007B68DB6843F002027B68DA6000BF0C3720
:100C5800BD465DF8047B704780B483B000AF786010
:100C68007B68DB6823F002027B68DA6000BF0C3720
:100C7800BD465DF8047B704780B483B000AF7860F0
:100C88007B68DB6803F00203022B01D1012300E03B
:100C9800002318460C37BD465DF8047B704780B4C6
:100CA80083B000AF78607B68DB6843F004027B6840
:100CB800DA6000BF0C37BD465DF8047B704780B42E
:100CC80083B000AF78607B68DB6823F004027B6840
:100CD800DA6000BF0C37BD465DF8047B704780B40E
:100CE80083B000AF78607B68DB6803F00403042BF3
:100CF80001D1012300E0002318460C37BD465DF8FA
:100D0800047B704780B483B000AF78607B68DB6891
:100D180043F008027B68DA6000BF0C37BD465DF817
:100D2800047B704780B483B000AF78607B68DB6871
:100D380023F008027B68DA6000BF0C37BD465DF817
:100D4800047B704780B483B000AF78607B68DB6851
:100D580003F00803082B01D1012300E00023184603
:100D68000C37BD465DF8047B704780B483B000AF94
:100D780078607B68DB6843F010027B68DA6000BF4C
:100D88000C37BD465DF8047B704780B483B000AF74
:100D980078607B68DB6823F010027B68DA6000BF4C
:100DA8000C37BD465DF8047B704780B483B000AF54
:100DB80078607B68DB6803F01003102B01D10123F6
:100DC80000E0002318460C37BD465DF8047B7047E9
:100DD80080B483B000AF78607B68DB6843F02002A2
:100DE8007B68DA6000BF0C37BD465DF8047B70474E
:100DF80080B483B000AF78607B68DB6823F02002A2
:100E08007B68DA6000BF0C37BD465DF8047B70472D
:100E180080B483B000AF78607B68DB6803F02003A0
:100E2800202B01D1012300E0002318460C37BD46D2
:100E38005DF8047B704780B483B000AF78607B684E
:100E4800DB6843F040027B68DA6000BF0C37BD46C0
:100E58005DF8047B704780B483B000AF78607B682E
:100E6800DB6823F040027B68DA6000BF0C37BD46C0
:100E78005DF8047B704780B483B000AF78607B680E
:100E8800DB6803F04003402B01D1012300E000237D
:100E980018460C37BD465DF8047B704780B483B0B4
:100EA80000AF78607B68DB6843F080027B68DA60BB
:100EB80000BF0C37BD465DF8047B704780B483B033
:100EC80000AF78607B68DB6823F080027B68DA60BB
:100ED80000BF0C37BD465DF8047B704780B483B013
:100EE80000AF78607B68DB6803F08003802B01D15A
:100EF800012300E0002318460C37BD465DF8047B4B
:100F0800704780B582B000AF78600B467B807B88E5
:100F180003F00103002B0CD07B681B681846FFF711
:100F2800AAFF0346012B04D07B681B681846FFF70D
:100F380082FF7B8803F00203002B0CD07B681B68C0
:100F48001846FFF799FE0346012B04D07B681B68FF
:100F58001846FFF771FE7B8803F00403002B0CD0C2
:100F68007B681B681846FFF7BAFE0346012B04D0BE
:100F78007B681B681846FFF792FE7B8803F008031E
:100F8800002B0CD07B681B681846FFF7DBFE034676
:100F9800012B04D07B681B681846FFF7B3FE7B88DB
:100FA80003F01003002B0CD07B681B681846FFF772
:100FB800FCFE0346012B04D07B681B681846FFF72C
:100FC800D4FE7B8803F02003002B0CD07B681B68C1
:100FD8001846FFF71EFE0346012B04D07B681B68EA
:100FE8001846FFF7F6FD7B8803F04003002B0CD072
:100FF8007B681B681846FFF771FF0346012B04D076
:101008007B681B681846FFF749FF7B8803F080035D
:10101800002B0CD07B681B681846FFF7F9FE0346C7
:10102800012B04D07B681B681846FFF7D1FE00BF70
:101038000837BD4680BD80B582B000AF78600B46EA
:101048007B807B8803F00103002B0CD07B681B6836
:101058001846FFF710FF0346012B04D17B681B6875
:101068001846FFF7F8FE7B8803F00203002B0CD02C
:101078007B681B681846FFF7FFFD0346012B04D168
:101088007B681B681846FFF7E7FD7B8803F00403BD
:10109800002B0CD07B681B681846FFF720FE034620
:1010A800012B04D17B681B681846FFF708FE7B8874
:1010B80003F00803002B0CD07B681B681846FFF769
:1010C80041FE0346012B04D17B681B681846FFF7D5
:1010D80029FE7B8803F01003002B0CD07B681B686B
:1010E8001846FFF762FE0346012B04D17B681B6894
:1010F8001846FFF74AFE7B8803F02003002B0CD02C
:101108007B681B681846FFF784FD0346012B04D053
:101118007B681B681846FFF76CFD7B8803F040036B
:10112800002B0CD07B681B681846FFF7D7FE0346D8
:10113800012B04D17B681B681846FFF7BFFE7B882C
:1011480003F08003002B0CD07B681B681846FFF760
:101158005FFE0346012B04D17B681B681846FFF726
:1011680047FE00BF0837BD4680BD000080B582B08D
:1011780000AF78600B46FB70FB78022B06D17B68CA
:101188001B6801211846FFF7F1FC31E07B681B68FA
:10119800194A934213D07B681B68184A93420ED0B1
:1011A8007B681B68164A934209D07B681B68154AFE
:1011B800934204D07B681B68134A934218D1FB788A
:1011C800032B06D17B681B6804211846FFF7CEFC69
:1011D8000EE0FB78042B0BD17B681B6801211846B5
:1011E800FFF7C4FC7B681B6804211846FFF7BEFCA8
:1011F80000BF0837BD4680BD002C014000340140C7
:1012080000400140004401400048014080B582B0E0
:1012180000AF78600B46FB70FB78022B06D17B6829
:101228001B6801211846FFF7B2FC31E07B681B6898
:10123800194A934213D07B681B68184A93420ED010
:101248007B681B68164A934209D07B681B68154A5D
:10125800934204D07B681B68134A934218D1FB78E9
:10126800032B06D17B681B6804211846FFF78FFC07
:101278000EE0FB78042B0BD17B681B680121184614
:10128800FFF785FC7B681B6804211846FFF77FFC85
:1012980000BF0837BD4680BD002C01400034014026
:1012A80000400140004401400048014080B582B040
:1012B80000AF78600B46FB70FB78022B06D17B6889
:1012C8001B6810211846FFF751FC31E07B681B684A
:1012D800194A934213D07B681B68184A93420ED070
:1012E8007B681B68164A934209D07B681B68154ABD
:1012F800934204D07B681B68134A934218D1FB7849
:10130800032B06D17B681B6840211846FFF72EFC8B
:101318000EE0FB78042B0BD17B681B681021184664
:10132800FFF724FC7B681B6840211846FFF71EFC6A
:1013380000BF0837BD4680BD002C01400034014085
:1013480000400140004401400048014080B582B09F
:1013580000AF78600B46FB70FB78022B06D17B68E8
:101368001B6810211846FFF712FC31E07B681B68E8
:10137800194A934213D07B681B68184A93420ED0CF
:101388007B681B68164A934209D07B681B68154A1C
:10139800934204D07B681B68134A934218D1FB78A8
:1013A800032B06D17B681B6840211846FFF7EFFB2B
:1013B8000EE0FB78042B0BD17B681B6810211846C4
:1013C800FFF7E5FB7B681B6840211846FFF7DFFB4A
:1013D80000BF0837BD4680BD002C014000340140E5
:1013E80000400140004401400048014080B582B0FF
:1013F80000AF78600B46FB70FB78022B07D17B6847
:101408001B684FF480711846FFF7B0FB34E07B6827
:101418001B681B4A934213D07B681B68194A934286
:101428000ED07B681B68184A934209D07B681B68FA
:10143800164A934204D07B681B68154A93421BD115
:10144800FB78032B07D17B681B684FF48061184633
:10145800FFF78CFB10E0FB78042B0DD17B681B6831
:101468004FF480711846FFF781FB7B681B684FF4C7
:1014780080611846FFF77AFB00BF0837BD4680BD7C
:10148800002C01400034014000400140004401406C
:101498000048014080B582B000AF78600B46FB7011
:1014A800FB78022B07D17B681B684FF480711846C4
:1014B800FFF76DFB34E07B681B681B4A934213D02F
:1014C8007B681B68194A93420ED07B681B68184AD0
:1014D800934209D07B681B68164A934204D07B6804
:1014E8001B68154A93421BD1FB78032B07D17B68F5
:1014F8001B684FF480611846FFF749FB10E0FB7842
:10150800042B0DD17B681B684FF480711846FFF7D8
:101518003EFB7B681B684FF480611846FFF737FB7A
:1015280000BF0837BD4680BD002C01400034014093
:1015380000400140004401400048014080B582B0AD
:1015480000AF78600B46FB70FB78022B06D17B68F6
:101558001B684FF480511846FFF708FB00BF083797
:10156800BD4680BD80B582B000AF78600B46FB7089
:10157800FB78022B06D17B681B684FF48051184614
:10158800FFF705FB00BF0837BD4680BD80B584B0B6
:1015980000AF78600023FB607B681B68304A934289
:1015A80001D1304BFB607B681A68FB681A60FB68E6
:1015B8001B681846FFF7B6FAB860BB68002B06D060
:1015C800BB68102B03D0FB6801221A7102E0FB688C
:1015D80000221A71FB681B68234A934213D0FB68E8
:1015E8001B68224A93420ED0FB681B68204A93422C
:1015F80009D0FB681B681F4A934204D0FB681B682C
:101608001D4A934204D1FB681B681846FFF7D1FABC
:10161800FB681B68144A934213D0FB681B68134A83
:1016280093420ED0FB681B68114A934209D0FB68AD
:101638001B68104A934204D0FB681B680E4A934209
:1016480008D17B681B681846FFF784FA0346DAB2AC
:10165800FB685A71FB6818461037BD4680BD00BF4D
:1016680000040040EC020020002C0140003401403E
:1016780000400140004401400048014080B485B06A
:1016880000AF786039603B68002B03D17B6840333A
:10169800FB6001E0044BFB60FB6818461437BD464D
:1016A8005DF8047B704700BF0C03045080B483B01E
:1016B80000AF78607B68DB6803F44063002B01D1DE
:1016C800012300E0002318460C37BD465DF8047B73
:1016D800704780B483B000AF786039607B681B6B5B
:1016E80023F00F023B681A437B681A6300BF0C376C
:1016F800BD465DF8047B704780B483B000AF786066
:1017080039607B68DB6823F003023B681A437B6817
:10171800DA6000BF0C37BD465DF8047B704780B4C3
:1017280083B000AF78607B68DB6C03F0C003002BEC
:1017380001D1012300E0002318460C37BD465DF8AF
:10174800047B704780B483B000AF78607B689B6887
:1017580023F0004323F03F0343F001027B689A60C3
:1017680000BF0C37BD465DF8047B704780B483B07A
:1017780000AF78607B689B6823F0004323F03F0349
:1017880043F002027B689A6000BF0C37BD465DF8E3
:10179800047B704780B483B000AF78607B689B6837
:1017A80003F00103012B01D1012300E000231846B7
:1017B8000C37BD465DF8047B704780B483B000AF3A
:1017C800786039607B689B6823F0404323F03F03CF
:1017D8003A6802F08042134343F000427B689A6003
:1017E80000BF0C37BD465DF8047B704780B483B0FA
:1017F80000AF78607B689B6803F00043B3F1004F4B
:1018080001D1012300E0002318460C37BD465DF8DE
:10181800047B704780B483B000AF78607B689B68B6
:1018280023F0004323F03F0343F004027B689A60EF
:1018380000BF0C37BD465DF8047B704780B483B0A9
:1018480000AF78607B689B6823F0004323F03F0378
:1018580043F008027B689A6000BF0C37BD465DF80C
:10186800047B704780B483B000AF78607B681B68E6
:1018780003F00803082B01D1012300E000231846D8
:101888000C37BD465DF8047B704780B483B000AF69
:1018980078607B681B6803F01003102B01D10123CB
:1018A80000E0002318460C37BD465DF8047B7047FE
:1018B80080B483B000AF78607B6810221A6000BFE4
:1018C8000C37BD465DF8047B704780B483B000AF29
:1018D80078607B685B6843F008027B685A6000BFE9
:1018E8000C37BD465DF8047B704780B483B000AF09
:1018F80078607B685B6843F040027B685A6000BF91
:101908000C37BD465DF8047B704780B483B000AFE8
:1019180078607B685B6823F008027B685A6000BFC8
:101928000C37BD465DF8047B704780B483B000AFC8
:1019380078607B685B6823F010027B685A6000BFA0
:101948000C37BD465DF8047B704780B483B000AFA8
:1019580078607B685B6823F040027B685A6000BF50
:101968000C37BD465DF8047B704780B483B000AF88
:1019780078607B685B6823F080027B685A6000BFF0
:101988000C37BD465DF8047B704780B483B000AF68
:1019980078607B685B6803F01003102B01D101238A
:1019A80000E0002318460C37BD465DF8047B7047FD
:1019B80080B483B000AF78607B685B6803F0800315
:1019C800802B01D1012300E0002318460C37BD46C7
:1019D8005DF8047B7047000080B485B000AF786084
:1019E80039607B68FB600C4A3B6813441B781A46D5
:1019F800FB6813441B6808493A680A441278114680
:101A0800FA680A4443F00103136000BF1437BD4667
:101A18005DF8047B704700BF980D010880B485B05D
:101A280000AF786039607B68FB600C4A3B68134400
:101A38001B781A46FB6813441B6808493A680A442D
:101A480012781146FA680A4423F00103136000BFB4
:101A58001437BD465DF8047B704700BF980D010838
:101A680080B485B000AF786039607B68FB60084A55
:101A78003B6813441B781A46FB6813441B6803F041
:101A8800200318461437BD465DF8047B704700BF35
:101A9800980D010880B487B000AFF860B9607A602B
:101AA800FB687B610D4ABB6813441B781A467B6947
:101AB80013445B681B0C1B040849BA680A44127873
:101AC80011467A690A4411467A6813434B6000BF8D
:101AD8001C37BD465DF8047B704700BF980D0108B0
:101AE80080B487B000AFF860B9607A603B60FB688B
:101AF8007B613B6A102B14D1174ABB6813441B78CF
:101B08001A467B6913441A467B68D360124ABB683D
:101B180013441B781A467B6913441A463B68936042
:101B280013E00D4ABB6813441B781A467B691344BB
:101B38001A467B689360084ABB6813441B781A46A8
:101B48007B6913441A463B68D36000BF1C37BD4607
:101B58005DF8047B704700BF980D010880B487B01A
:101B680000AFF860B9607A60FB687B61074ABB68C0
:101B780013441B781A467B6913441A467B689360A2
:101B880000BF1C37BD465DF8047B7047980D0108FF
:101B980080B483B000AF78607B681B6803F02003D3
:101BA800202B01D1012300E0002318460C37BD4645
:101BB8005DF8047B704780B483B000AF78607B68C1
:101BC80020225A6000BF0C37BD465DF8047B704781
:101BD80080B485B000AF786039607B68FB600C4AE0
:101BE8003B6813441B781A46FB6813441B68084972
:101BF8003A680A4412781146FA680A4443F0020324
:101C0800136000BF1437BD465DF8047B704700BF02
:101C1800980D010880B485B000AF786039607B68A2
:101C2800FB600C4A3B6813441B781A46FB68134454
:101C38001B6808493A680A4412781146FA680A4447
:101C480043F00803136000BF1437BD465DF8047BFA
:101C5800704700BF980D010880B485B000AF786068
:101C680039607B68FB600C4A3B6813441B781A4652
:101C7800FB6813441B6808493A680A4412781146FD
:101C8800FA680A4423F00203136000BF1437BD4604
:101C98005DF8047B704700BF980D010880B485B0DB
:101CA80000AF786039607B68FB600C4A3B6813447E
:101CB8001B781A46FB6813441B6808493A680A44AB
:101CC80012781146FA680A4423F00403136000BF2F
:101CD8001437BD465DF8047B704700BF980D0108B6
:101CE80080B485B000AF786039607B68FB600C4ACF
:101CF8003B6813441B781A46FB6813441B68084961
:101D08003A680A4412781146FA680A4423F008032C
:101D1800136000BF1437BD465DF8047B704700BFF1
:101D2800980D010880B485B000AF786039607B6891
:101D3800FB600A4A3B6813441B781A46FB68134445
:101D48001B6803F00203022B01D1012300E00023EA
:101D580018461437BD465DF8047B7047980D010896
:101D680080B584B000AF78600123FB817B681B6974
:101D78001846FFF79BFC0346002B2FD07B685B7A45
:101D8800DBB2022B11D07B685B7ADBB2042B0CD060
:101D98007B685B7ADBB2082B07D07B681B69184627
:101DA800FFF760FD0346012B18D1786800F0F8F8BA
:101DB8000346002B12D17B685B7ADBB2082B03D178
:101DC8007B6801225A7202E07B6820225A727B6883
:101DD8001B691846FFF71EFD0023FB81FB89184687
:101DE8001037BD4680BD80B586B002AFF860B960D7
:101DF8007A603B600021F868FFF740FC03461A460A
:101E08007968B868FFF7AAFE0021F868FFF736FC82
:101E180002463B68002100917968B868FFF760FEC8
:101E2800BA697968B868FFF735FE7968B868FFF766
:101E3800CFFE7968B868FFF7EDFE7968B868FFF7F4
:101E4800CBFD00BF1037BD4680BD80B584B000AF64
:101E5800F860B9607A607968B868FFF7DFFD79687B
:101E6800B868FFF71BFF7968B868FFF739FF79682A
:101E7800B868FFF7F1FE00227968B868FFF70AFE34
:101E880000BF1037BD4680BD80B584B000AF786014
:101E980039600223FB737B68DB79012B0FD17B68E8
:101EA800DA687B681B685B00D118FB7B7A6812686C
:101EB80002FB03F31A4638680EF01AFF0AE07B6843
:101EC800D968FB7B7A68126802FB03F31A46386804
:101ED8000EF00EFF00BF1037BD4680BD80B586B03E
:101EE80000AFF860B9607A60FB685A69FB689B7953
:101EF80019461046FFF716FF0346DBB2012B37D110
:101F0800FB685A69BB68104698470346012B2FD1D6
:101F1800FB6804225A72FB685A697B681046984726
:101F2800FB685A69FB689B7919461046FFF798FDCC
:101F38000346002B19D1FB685A69FB689B7919463F
:101F48001046FFF76BFDFB685869FB689B791946DB
:101F5800FB681B681A46FFF79DFDFB685A69FB681A
:101F68009B7919461046FFF737FD0123FB7501E001
:101F78000023FB75FB7D18461837BD4680BD000061
:101F880080B500AF034A04490448FFF7A7FF00BF24
:101F980080BD00BFBF1B0008991B00087803002004
:101FA80080B582B000AF78607B681B691846FFF780
:101FB8006CFC0346DBB2012B07D17B681B69184612
:101FC800FFF776FC7B6810225A727B685B7ADBB27B
:101FD800102B0CBF01230023DBB218460837BD467F
:101FE80080BD80B582B000AF78600B46FB70FB788F
:101FF800012B0DD17B681B691846FFF757FB034679
:10200800012B12D07B681B691846FFF703FC0CE014
:102018007B681B691846FFF782FB0346012B04D037
:102028007B681B691846FFF709FC00BF0837BD46E7
:1020380080BD000090B589B002AFF860084611462F
:102048001A4603467B810B463B811346FB800023DF
:102058007B61FB681B693C4A934201D13B4B7B6126
:102068007B69002B6BD0FB681A697B691A617B69F5
:102078000022DA71FB88012B61D03B89002B47D005
:102088007B695B7ADBB2082B42D0FB68DA687B6934
:10209800DA60FB681A687B691A60FB685A697B69B1
:1020A8005A61FB689A797B699A71FB681A797B692E
:1020B8001A717B691B69B96A1846FFF70AFB7B89A5
:1020C800012B21D07B89042B16D17B691B69032145
:1020D8001846FFF711FB7B6918697B6959697B69A9
:1020E8009B791C467B69DA687B691B6800931346F9
:1020F8002246FFF778FE07E07B89022B04D17B6933
:102108001B691846FFF7E1FB7B6908225A7216E043
:102118003B89002B13D17B699B7ADBB2082B0ED04D
:10212800FB685A797B695A717B89022B04D17B69D8
:102138001B691846FFF7D9FB7B6908229A727B69ED
:1021480018461C37BD4690BD000104507803002096
:1021580080B582B000AF78607B681B691846FFF7CE
:1021680019FB0346002B04D17B681B691846FFF74F
:10217800E9FA00BF0837BD4680BD80B586B000AF1C
:10218800F8600B467A607B810123FB82FB681B6940
:10219800002B46D07B89012B05D1F868FFF7E0FDBD
:1021A8000346FB823DE07B89042B1FD1FB681B693A
:1021B8001846FFF77BFA0346002B32D0FB68012252
:1021C8005A72FB681B691846FFF724FB00BFFB68BF
:1021D8005B7ADBB2042BFAD17968F868FFF754FE12
:1021E800FB6808225A720023FB821AE07B89022BC3
:1021F80017D1FB685B7ADBB2202B09D0FB685B7ACE
:10220800DBB2042B04D0FB685B7ADBB2102B08D15D
:10221800FB6808225A727968F868FFF735FE0023D0
:10222800FB82FB8A18461837BD4680BD80B582B050
:1022380000AF78600B467B8013463B807B681B6948
:102248001846FFF7A7FA0346002B04D07B681B69E2
:102258001846FFF78BFA7B681B691846FFF7A8FB3F
:102268000346002B04D07B681B691846FFF77DFBEB
:102278007B681B691846FFF788FB0346002B04D0D0
:102288007B681B691846FFF750FB3B88002B35D04D
:102298007B88012B1AD07B88022B05D17B681B69B0
:1022A8001846FFF732FB11E07B88042B0ED17B68C0
:1022B80018697B6859697B689B791A46FFF7C5FDE1
:1022C8007B681B6900211846FFF716FA7B68002215
:1022D800DA607B6800221A607B6800225A617B689A
:1022E80000229A717B6800221A717B681A697B68E0
:1022F8001B7919461046FFF7ECF90AE07B680022C3
:102308005A717B88022B04D17B681B691846FFF73A
:102318001CFB00BF0837BD4680BD000080B584B0F7
:1023280000AF78600B46FB707B681B691846FFF7A7
:1023380031FA0346FB7397F90F30012B04D17B6800
:102348001B691846FFF712FAFB78002B0FD17B6840
:102358001B697F211846FFF730FA00BF7B681B69AD
:102368001846FFF743FA0346012BF7D040E0FB7805
:10237800012B0FD17B681B692C491846FFF71DFA02
:1023880000BF7B681B691846FFF730FA0346012B2C
:10239800F7D02DE07B681B697F211846FFF70DFAFF
:1023A80000BF7B681B691846FFF720FA0346012B1C
:1023B800F7D00023BB8107E000BFBB891BB29BB2EB
:1023C80001339BB21BB2BB81BB891BB29BB2032BEF
:1023D800F2D97B681B6915491846FFF7EEF900BF6B
:1023E8007B681B691846FFF701FA0346012BF7D0F3
:1023F8000023BB8107E000BFBB891BB29BB201333E
:102408009BB21BB2BB81BB891BB29BB2032BF2D917
:1024180097F90F30012B04D17B681B691846FFF729
:1024280091F900BF1037BD4680BD00BF00007F4056
:1024380080B483B000AF78607B681B6843F001020A
:102448007B681A6000BF0C37BD465DF8047B704797
:1024580080B483B000AF78607B681B6823F001020A
:102468007B681A6000BF0C37BD465DF8047B704777
:1024780080B483B000AF786039607B681B6823F054
:1024880004023B681A437B681A6000BF0C37BD46DC
:102498005DF8047B704780B483B000AF78607B68D8
:1024A8001B6803F0040318460C37BD465DF8047B2F
:1024B800704780B483B000AF78607B68DB6A1846E9
:1024C8000C37BD465DF8047B704780B483B000AF1D
:1024D800786039607B683A681A6300BF0C37BD467C
:1024E8005DF8047B704780B483B000AF78603960D2
:1024F8007B683A685A6300BF0C37BD465DF8047BB9
:10250800704780B483B000AF786039607B683A6800
:102518009A6300BF0C37BD465DF8047B704780B4F2
:1025280083B000AF786039607B683A68DA6300BFCF
:102538000C37BD465DF8047B704780B483B000AFAC
:10254800786039607B683A681A6400BF0C37BD460A
:102558005DF8047B704780B483B000AF78607B6817
:102568005B6B18460C37BD465DF8047B704780B43A
:1025780083B000AF78607B689B6B18460C37BD460C
:102588005DF8047B704780B483B000AF78607B68E7
:10259800DB6B18460C37BD465DF8047B704780B48A
:1025A80083B000AF78607B681B6C18460C37BD465B
:1025B8005DF8047B704780B483B000AF78607B68B7
:1025C8005B6943F001027B685A6100BF0C37BD4666
:1025D8005DF8047B704780B483B000AF78607B6897
:1025E8001B6918460C37BD465DF8047B704780B4FC
:1025F80083B000AF786039607B683A689A6100BF41
:102608000C37BD465DF8047B704780B483B000AFDB
:10261800786039607B683A689A6200BF0C37BD46BB
:102628005DF8047B7047000080B584B000AF786027
:1026380087ED000AD7ED007AF5EEC07AF1EE10FAD0
:1026480003D54FF000033B600AE0D7ED007A9FED19
:10265800167AF4EEC77AF1EE10FA01DD134B3B60FF
:102668007B681B681846FFF724FFF8607B681B79B6
:10267800002B0CBF01230023DBB21A46FB6813446E
:1026880007EE903AB8EE677AD7ED007A27EE277A08
:10269800DFED056AC7EE267AFCEEE77A17EE903A88
:1026A80018461037BD4680BD0000C8420000C84229
:1026B80080B582B000AF786039607B681B681846C7
:1026C800FFF749FF02463B68934205D07B681B68C9
:1026D80039681846FFF707FF00BF0837BD4680BDB9
:1026E80080B582B000AF786039607B681B68184697
:1026F800FFF73DFF02463B68934205D07B681B68A5
:1027080039681846FFF7FDFE00BF0837BD4680BD93
:1027180080B582B000AF786039607B681B68184666
:10272800FFF731FF02463B68934205D07B681B6880
:1027380039681846FFF7F3FE00BF0837BD4680BD6D
:1027480080B582B000AF786039607B681B68184636
:10275800FFF725FF02463B68934205D07B681B685C
:1027680039681846FFF7E9FE00BF0837BD4680BD47
:1027780080B584B000AF786087ED000A97ED000A55
:102788007868FFF751FFF860F9687868FFF790FFFD
:1027980000BF1037BD4680BD80B584B000AF7860FB
:1027A80087ED000A97ED000A7868FFF73DFFF860AB
:1027B800F9687868FFF794FF00BF1037BD4680BD01
:1027C80080B584B000AF786087ED000A97ED000A05
:1027D8007868FFF729FFF860F9687868FFF798FFCD
:1027E80000BF1037BD4680BD80B584B000AF7860AB
:1027F80087ED000A97ED000A7868FFF715FFF86083
:10280800F9687868FFF79CFF00BF1037BD4680BDA8
:1028180080B485B000AF78607B681B689A68074B06
:102828001340FB60FB68062B0CBF01230023DBB2BF
:1028380018461437BD465DF8047B70470700010051
:1028480080B584B000AF78600B46FB707B681B686E
:102858001846FFF720FEF860FB78002B1ED07B6837
:102868001B68324A934213D07B681B68304A9342F4
:102878000ED07B681B682F4A934209D07B681B687F
:102888002D4A934204D07B681B682C4A934205D199
:102898007B681B6800211846FFF717FEFB68042BAE
:1028A80011D07B681B6804211846FFF7E1FD7B689F
:1028B8001B681846FFF77FFE7B681B68F968184697
:1028C800FFF7D6FD04E07B681B681846FFF773FE28
:1028D8007B681B681846FFF7ABFDFB78002B20D000
:1028E8007B681B68114A934213D07B681B68104AA7
:1028F80093420ED07B681B680E4A934209D07B68CE
:102908001B680D4A934204D07B681B680B4A9342AC
:1029180007D17B681A687B685B7919461046FFF710
:10292800D4FD00BF1037BD4680BD00BF002C01405C
:10293800003401400040014000440140004801408B
:1029480080B582B000AF78607B681B681846FFF7D7
:102958007FFD00BF0837BD4680BD0000B0B5A6B0FA
:1029680000AF87ED080B87ED061B78613961FA60C7
:10297800BB6087ED002B3B69DB007A6913447B66FB
:10298800D7F8A830002B0ED1BB68002B0BD1D7E9A4
:102998000623D7E90801FEF73FF80346002B02D0CB
:1029A800D7E900234DE2D7E90623D7E90801FEF766
:1029B8001FF80346002B02D0D7E9002341E2BB6889
:1029C800DB007A6E1344D3E90023D7E90801FEF748
:1029D8000FF80346002B00F0938097F8AC30002BDB
:1029E80006D0BB68DB007A691344D3E9002328E2E8
:1029F800BB6801337B673B69013BBA689A4201D1E6
:102A080000237B67BB68DB007A6E1344D3E900239D
:102A1800C7E920237B6FDB007A6E1344D3E90023D8
:102A2800C7E91623BB68DB007A691344D3E900239E
:102A3800C7E91E237B6FDB007A691344D3E90023BF
:102A4800C7E91423D7E92023D7E91601FDF7BCFF0E
:102A58000346002B12D0D7E91623D7E90801FDF762
:102A6800D1FF0346002B04D0D7E91423C7E922235A
:102A780043E0D7E91E23C7E922233EE0D7E908232C
:102A8800D7E91601FDF780FB02460B4614461D46A2
:102A9800D7E92023D7E91601FDF776FB02460B4656
:102AA80020462946FDF752FE02460B46C7E90C238D
:102AB800D7E90C234FF000009C49FDF765FB02465F
:102AC8000B46C7E90A23D7E91E23D7E90C01FDF70E
:102AD80013FD02460B4614461D46D7E91423D7E9D1
:102AE8000A01FDF709FD02460B4620462946FDF777
:102AF8004DFB02460B46C7E92223D7E92223A0E172
:102B080097F8B030002B22D0D7F8A830002B10D07F
:102B1800FB681B68D7F8A8209A4204D1FB681B6899
:102B28005A1EFB681A60D7F8A830013BC7F8A830CE
:102B38000DE0FB681B68D7F8A8209A4203D13B69CF
:102B48005A1EFB681A603B69013BC7F8A830FB684E
:102B58001B68C7F89430D7F89430DB007A6E1344BA
:102B6800D3E90023D7E90801FDF756FF0346002BF8
:102B780022D012E0D7F89420D7F8A8309A4244D04F
:102B88003B69013BD7F894209A4203DAD7F894308E
:102B9800013300E00023C7F89430D7F89430DB0005
:102BA8007A6E1344D3E90023D7E90801FDF734FF0F
:102BB8000346002BDED129E00BE0D7F89430002B38
:102BC80003DDD7F89430013B01E03B69013BC7F8CE
:102BD8009430D7F89430DB007A6E1344D3E900239D
:102BE800D7E90801FDF704FF0346002BE5D13B694F
:102BF800013BD7F894209A4203DAD7F8943001338E
:102C080000E00023C7F8943000E000BFFB68D7F865
:102C180094201A6097F8AC30002B6CD04FF000026B
:102C2800434BC7E90E23D7F89430DB007A6E134480
:102C3800D3E90023144623F0004522462B46D7E962
:102C48000E01FDF759FC02460B46C7E91A23D7E9DE
:102C58001A23D7E90E01FDF7DFFE0346002B03D048
:102C6800D7E90E23C7E91A234FF000024FF080433B
:102C7800D7E91A01FDF76AFD02460B46C7E91A2390
:102C8800D7F89430DB007A6E1344D3E90001D7E912
:102C98001A23FDF779FA02460B46D7E90801FDF732
:102CA800B1FE0346002B09D0D7F89430DB007A69CF
:102CB8001344D3E90023C7E92223C0E0D7F89430AE
:102CC800002B0BD13B6903F10053013BDB007A6910
:102CD8001344D3E90023C7E92223B0E0D7F894309E
:102CE80003F10053013BDB007A691344D3E9002365
:102CF800C7E92223A3E0D7F89430002B1AD13B6907
:102D080003F10053013BDB007A6E1344D3E900233F
:102D1800C7E920233B6903F10053013BDB007A69D3
:102D28001344D3E90023C7E91E231BE00000F03F4A
:102D38000000203DD7F8943003F10053013BDB003D
:102D48007A6E1344D3E90023C7E92023D7F89430D7
:102D580003F10053013BDB007A691344D3E90023F4
:102D6800C7E91E23D7F89430DB007A6E1344D3E901
:102D78000023C7E91623D7F89430DB007A69134497
:102D8800D3E90023C7E91423D7E92023D7E916019B
:102D9800FDF71AFE0346002B12D0D7E91623D7E910
:102DA8000801FDF72FFE0346002B04D0D7E91423B2
:102DB800C7E9222343E0D7E91E23C7E922233EE0DF
:102DC800D7E90823D7E91601FDF7DEF902460B46D5
:102DD80014461D46D7E92023D7E91601FDF7D4F993
:102DE80002460B4620462946FDF7B0FC02460B4634
:102DF800C7E91223D7E912234FF000001549FDF760
:102E0800C3F902460B46C7E91023D7E91E23D7E9C1
:102E18001201FDF771FB02460B4614461D46D7E921
:102E28001423D7E91001FDF767FB02460B4620463D
:102E38002946FDF7ABF902460B46C7E92223D7E935
:102E4800222343EC172BB0EE470AF0EE670A9837B7
:102E5800BD46B0BD0000F03F80B485B000AF7860DB
:102E680039607B68012283F8D8203B68D3E90023C6
:102E78007968C1E902237B6801221A600023FB609C
:102E88000CE07B68D3E902237868F9680231C9004D
:102E98000144C1E90023FB680133FB60FB68182B80
:102EA800EFDD00BF00BF1437BD465DF8047B7047F7
:102EB80080B586B000AF87ED040BF860B9607A6022
:102EC800BB68D3E902017B68D3E90023FDF77CFDE9
:102ED8000346002B05D17B68D3E90023B968C1E913
:102EE8000223F868BB681033C82219460DF000FFAA
:102EF800F968D7E90423C1E93223FB6803F1D0005C
:102F0800BB681033C02219460DF0F2FEBB6803F10E
:102F18001000FB68C833C82219460DF0E9FE00BF4F
:102F28001837BD4680BD80B485B000AF7860396081
:102F38007B68012283F860203B68D3E90023796825
:102F4800C1E902237B6801221A600023FB600CE0C0
:102F58007B68D3E902237868F9680231C900014423
:102F6800C1E90023FB680133FB60FB68092BEFDD37
:102F780000BF00BF1437BD465DF8047B704780B5BD
:102F880086B000AF87ED040BF860B9607A60BB6863
:102F9800D3E902017B68D3E90023FDF715FD034659
:102FA800002B05D17B68D3E90023B968C1E9022366
:102FB800F868BB681033502219460DF099FEF9687D
:102FC800D7E90423C1E91423FB6803F15800BB685F
:102FD8001033482219460DF08BFEBB6803F1100030
:102FE800FB685033502219460DF082FE00BF183797
:102FF800BD4680BD80B58CB002AF78607B6800228A
:103008001A727B6801225A607B681033BB61002307
:103018007B741A4BFB611A4B3B620123BB74002380
:1030280087F82430022387F825300923FB60092319
:103038003B7407F10C0008230093042301220421A8
:10304800FEF7F8FF02467B68DA607B68DB680221DE
:103058001846FFF763F97B68DB681846FFF778F8CE
:103068007B68DB6801211846FEF7BBFF7B680122FD
:103078001A7200BF2837BD4680BD00BF000104504A
:103088000000024080B5A6B000AF78601A4BBB6064
:1030980000233B7300237B7307F108031846FEF7F0
:1030A80075FA02467B68DA607B68DB68002118469F
:1030B800FDF727FF7B68DB6802211846FEF756F804
:1030C8007B68DB6802211846FEF7F0F87B68DB684E
:1030D8001846FFF79DFB034687F8973097F8973017
:1030E800002B05D17B68DB6800211846FFF7A8FB99
:1030F80000BF9837BD4680BD0004004080B5A6B02B
:1031080000AF78601A4BBB6000233B7300237B73CE
:1031180007F108031846FEF739FA02467B68DA60B9
:103128007B68DB6800211846FDF7EBFE7B68DB68EF
:1031380002211846FEF75AF97B68DB680221184617
:10314800FEF7FCF97B68DB681846FFF761FB03466E
:1031580087F8973097F89730002B05D17B68DB68A4
:1031680000211846FFF76CFB00BF9837BD4680BDAD
:103178000004004000000000B0B5BEB004AF8A4BA8
:1031880003F580435B69894A04211846FEF7F5FF79
:10319800864BDB89864A1380844B1B88844AD381FB
:1031A800824B9B89824A5380804B5B88804A9381FB
:1031B8007E4B5B897E4A93807C4B9B887C4A5381FB
:1031C8007A4B1B897A4AD380784BDB88784A1381FB
:1031D8000023C7F8C43011E0754AD7F8C43032F874
:1031E80013007349D7F8C43003F10802034621F8E5
:1031F8001230D7F8C4300133C7F8C430D7F8C43018
:10320800072BE9DD6A4B1B8A1846FDF7FBF80446D5
:103218000D46684A6849694845EC104BFFF748FE77
:10322800634B03F5D463D3E900236149C1E90C2357
:103238000023C7F8C4301EE0D7F8C43001335C4A15
:10324800D433DB001344D3E90023C7E92C23584BBC
:10325800D3E90C23D7E92C01FDF7DEFB0346002B4D
:1032680004D05349D7E92C23C1E90C23D7F8C4303B
:103278000133C7F8C430D7F8C430172BDCDD4C4B0A
:103288005B8A1846FDF7BEF804460D464C4A4D4980
:103298004D4845EC104BFFF772FE454B03F54E6366
:1032A800D3E900234249C1E90E230023C7F8C430FB
:1032B8001FE0D7F8C43001333D4A03F5CE73DB0075
:1032C8001344D3E90023C7E92C23394BD3E90E2350
:1032D800D7E92C01FDF7A0FB0346002B04D03449A5
:1032E800D7E92C23C1E90E23D7F8C4300133C7F836
:1032F800C430D7F8C430082BDBDD2D4B93ED0E7BA3
:10330800324A33493348B0EE470AF0EE670AFFF70E
:10331800CFFD274B03F57B63D3E900232449C1E99B
:1033280010230023C7F8C4301FE0D7F8C430013396
:103338001F4A03F5FB73DB001344D3E90023C7E9F5
:103348002C231B4BD3E91023D7E92C01FDF746FBAF
:103358000346002B04D01649D7E92C23C1E91023D2
:10336800D7F8C4300133C7F8C430D7F8C430172BA6
:10337800DBDD0F4B9B8A1846FDF744F804460D46E3
:10338800154A1649164845EC104BFFF791FD084BB6
:1033980003F50363D3E900230549C1E90E2300239C
:1033A800C7F8C4303EE000BF48150020B403002031
:1033B80008040020B000002058590020A80A002066
:1033C800D0000020D85C0020E8100020E800002091
:1033D800885E0020B8130020B8000020385A00206A
:1033E800380C0020D7F8C43001338D4A03F58373B5
:1033F800DB001344D3E90023C7E92C23884BD3E926
:103408000E23D7E92C01FDF707FB0346002B04D058
:103418008349D7E92C23C1E90E23D7F8C4300133F7
:10342800C7F8C430D7F8C430172BDBDD7C4BDB8AF8
:103438001846FCF7E7FF04460D467A4A7A497B4866
:1034480045EC104BFFF734FD754B03F5A263D3E948
:1034580000237349C1E912230023C7F8C4301EE0D2
:10346800D7F8C43001336E4AA233DB001344D3E9E2
:103478000023C7E92C236A4BD3E91223D7E92C018F
:10348800FDF7CAFA0346002B04D06549D7E92C2377
:10349800C1E91223D7F8C4300133C7F8C430D7F8CC
:1034A800C430172BDCDD5E4B1B8B1846FCF7AAFFDC
:1034B80004460D465E4A5F495F4845EC104BFFF7EE
:1034C800F7FC574BD3E9E023C7E938230023C7F8B3
:1034D800C4301CE0D7F8C4300133514A7033DB00E4
:1034E8001344D3E90023C7E92C23D7E92C23D7E9D0
:1034F8003801FDF773FA0346002B03D0D7E92C23D4
:10350800C7E93823D7F8C4300133C7F8C430D7F82F
:10351800C430172BDEDD424B5B8B1846FCF772FF7D
:1035280004460D46454A4649464845EC104BFFF7C8
:10353800BFFC3B4BD3E97C23C7E936230023C7F8FC
:10354800C4301CE0D7F8C4300133354A3E33DB00C1
:103558001344D3E90023C7E92C23D7E92C23D7E95F
:103568003601FDF73BFA0346002B03D0D7E92C239D
:10357800C7E93623D7F8C4300133C7F8C430D7F8C1
:10358800C430172BDEDD264B9B8B1846FCF73AFF21
:1035980004460D462C4A2D492D4845EC104BFFF7A3
:1035A800EEFC1F4B03F55863D3E90023C7E9342326
:1035B8000023C7F8C4301DE0D7F8C4300133184AD7
:1035C80003F5D873DB001344D3E90023C7E92C23A0
:1035D800D7E92C23D7E93401FDF700FA0346002B7D
:1035E80003D0D7E92C23C7E93423D7F8C4300133F3
:1035F800C7F8C430D7F8C430082BDDDD154A1649A2
:10360800164897ED340BFFF753FC054B03F562633F
:10361800D3E90023C7E932230023C7F8C4303DE0CB
:1036280008040020A800002078580020180900206D
:10363800A00000209857002088070020980000204C
:10364800B8560020F8050020D8000020405D002072
:1036580088110020E0000020A85D0020281200202A
:10366800D7F8C4300133BA4A03F5E273DB001344D8
:10367800D3E90023C7E92C23D7E92C23D7E9320162
:10368800FDF7CAF90346002B03D0D7E92C23C7E975
:103698003223D7F8C4300133C7F8C430D7F8C43060
:1036A800172BDDDDAA4BDB8B1846FCF7ABFE044677
:1036B8000D46A84AA849A94845EC104BFFF7F8FB66
:1036C800A34BD3E91823C7E934230023C7F8C43030
:1036D8001CE0D7F8C43001339D4A0C33DB00134497
:1036E800D3E90023C7E92C23D7E92C23D7E93401F0
:1036F800FDF774F90346002B03D0D7E92C23C7E95B
:103708003423D7F8C4300133C7F8C430D7F8C430ED
:10371800172BDEDD8E4B93ED0C7BB0EE470AF0EEF7
:10372800670A0DF0E9F8B0EE407AF0EE607A9FEDA6
:10373800861BB0EE470AF0EE670A0DF0A5F887ED94
:103748002C0B4FF000024FF00003D7E92C01FDF7D6
:1037580045F90346002B10D0D7F8B030BB67D7F82F
:10376800B43083F00043FB67D7E91E01FDF774F915
:1037780003469BB25B429BB205E0D7E92C01FDF7FB
:103788006BF903469BB2764A1380714B93ED107B1D
:10379800B0EE470AF0EE670A0DF0AEF8B0EE407AE8
:1037A800F0EE607A9FED681BB0EE470AF0EE670A0C
:1037B8000DF06AF887ED2C0B4FF000024FF0000374
:1037C800D7E92C01FDF70AF90346002B10D0D7F8EA
:1037D800B0303B67D7F8B43083F000437B67D7E954
:1037E8001C01FDF739F903469BB25B429BB205E029
:1037F800D7E92C01FDF730F903469BB2584A5380AC
:10380800534B93ED0E7BB0EE470AF0EE670A0DF0CE
:1038180073F8B0EE407AF0EE607A9FED4B1BB0EE95
:10382800470AF0EE670A0DF02FF887ED2C0B4FF0E2
:1038380000024FF00003D7E92C01FDF7CFF803464B
:10384800002B10D0D7F8B030BB66D7F8B43083F06F
:103858000043FB66D7E91A01FDF7FEF803469BB261
:103868005B429BB205E0D7E92C01FDF7F5F803466A
:103878009BB23B4A9380364B93ED127BB0EE470ADE
:10388800F0EE670A0DF038F8B0EE407AF0EE607AA4
:103898009FED2D1BB0EE470AF0EE670A0CF0F4FF1F
:1038A80087ED2C0B4FF000024FF00003D7E92C01F5
:1038B800FDF794F80346002B10D0D7F8B0303B66DC
:1038C800D7F8B43083F000437B66D7E91801FDF7D9
:1038D800C3F803469BB25B429BB205E0D7E92C01D3
:1038E800FDF7BAF803469BB21D4AD38097ED380B13
:1038F8000DF002F8B0EE407AF0EE607A9FED121B00
:10390800B0EE470AF0EE670A0CF0BEFF87ED2C0B0D
:103918004FF000024FF00003D7E92C01FDF75EF8E5
:103928000346002B1ED0D7F8B030BB65D7F8B430AB
:1039380083F00043FB65D7E91601FDF78DF80346D0
:103948009BB25B429BB213E0000000000000F04015
:103958000804002090000020D855002068040020AA
:10396800C8030020D7E92C01FDF776F803469BB27F
:10397800A94A138197ED360B0CF0BEFFB0EE407AE2
:10398800F0EE607A9FEDA21BB0EE470AF0EE670AF0
:103998000CF07AFF87ED2C0B4FF000024FF000037C
:1039A800D7E92C01FDF71AF80346002B10D0D7F8F9
:1039B800B0303B65D7F8B43083F000437B65D7E976
:1039C8001401FDF749F803469BB25B429BB205E040
:1039D800D7E92C01FDF740F803469BB28E4A538184
:1039E80097ED320B0CF088FFB0EE407AF0EE607A7B
:1039F8009FED871BB0EE470AF0EE670A0CF044FF14
:103A080087ED2C0B4FF000024FF00003D7E92C0193
:103A1800FCF7E4FF0346002B10D0D7F8B030BB64A6
:103A2800D7F8B43083F00043FB64D7E91201FDF7FF
:103A380013F803469BB25B429BB205E0D7E92C0121
:103A4800FDF70AF803469BB2734A938197ED340B4E
:103A58000CF052FFB0EE407AF0EE607A9FED6C1BEE
:103A6800B0EE470AF0EE670A0CF00EFF87ED2C0B5C
:103A78004FF000024FF00003D7E92C01FCF7AEFF2E
:103A88000346002B10D0D7F8B0303B64D7F8B430D9
:103A980083F000437B64D7E91001FCF7DDFF0346A0
:103AA8009BB25B429BB205E0D7E92C01FCF7D4FF3F
:103AB80003469BB2584AD381584BB3F87830564ADC
:103AC8001382574B03F5D463D3E900235449C1E962
:103AD80010230023C7F8C4301EE0D7F8C4300133E0
:103AE8004F4AD433DB001344D3E90023C7E92C231E
:103AF8004B4BD3E91023D7E92C01FCF76FFF0346A2
:103B0800002B04D04649D7E92C23C1E91023D7F864
:103B1800C4300133C7F8C430D7F8C430172BDCDD04
:103B28003F4B5B8A1846FCF76DFC04460D463D4A40
:103B38003D493E4845EC104BFFF7BAF9384B03F5C1
:103B48003563D3E90023C7E932230023C7F8C4301B
:103B58001DE0D7F8C4300133314A03F5B573DB00F3
:103B68001344D3E90023C7E92C23D7E92C23D7E949
:103B78003201FCF751FF0346002B03D0D7E92C2371
:103B8800C7E93223D7F8C4300133C7F8C430D7F8AF
:103B9800C430172BDDDD224B03F50363D3E9002383
:103BA8001F49C1E90E230023C7F8C4301FE0D7F826
:103BB800C43001331A4A03F58373DB001344D3E995
:103BC8000023C7E92C23164BD3E90E23D7E92C0190
:103BD800FCF704FF0346002B04D01149D7E92C2336
:103BE800C1E90E23D7F8C4300133C7F8C430D7F879
:103BF800C430172BDBDD0A4B03F5A263D3E900239E
:103C08000749C1E912230023C7F8C4302FE000BFD9
:103C1800000000000000F040C80300200000002061
:103C280008040020C8000020F85B0020580F00207E
:103C3800D7F8C4300133A44AA233DB001344D3E9D4
:103C48000023C7E92C23A04BD3E91223D7E92C0181
:103C5800FCF7C4FE0346002B04D09B49D7E92C236C
:103C6800C1E91223D7F8C4300133C7F8C430D7F8F4
:103C7800C430172BDCDD944BD3E9E023C7E93823A4
:103C88000023C7F8C4301CE0D7F8C43001338E4A8B
:103C98007033DB001344D3E90023C7E92C23D7E9A9
:103CA8002C23D7E93801FCF7B7FE0346002B03D0D5
:103CB800D7E92C23C7E93823D7F8C4300133C7F82C
:103CC800C430D7F8C430172BDEDD7F4BD3E97C2313
:103CD800C7E936230023C7F8C4301CE0D7F8C4303E
:103CE8000133794A3E33DB001344D3E90023C7E9A3
:103CF8002C23D7E92C23D7E93601FCF78DFE0346A0
:103D0800002B03D0D7E92C23C7E93623D7F8C430D2
:103D18000133C7F8C430D7F8C430172BDEDD6A4B3F
:103D28009B8B1846FCF76EFB04460D46674A6849AC
:103D3800684845EC104BFFF7BBF8634B03F51C6371
:103D4800D3E90023C7E934230023C7F8C4301DE0B2
:103D5800D7F8C43001335C4A03F59C73DB00134485
:103D6800D3E90023C7E92C23D7E92C23D7E9340169
:103D7800FCF752FE0346002B03D0D7E92C23C7E9F2
:103D88003423D7F8C4300133C7F8C430D7F8C43067
:103D9800172BDDDD4C4BD3E918234B49C1E90C2324
:103DA8000023C7F8C4301EE0D7F8C4300133464AB0
:103DB8000C33DB001344D3E90023C7E92C23424B1F
:103DC800D3E90C23D7E92C01FCF708FE0346002BA6
:103DD80004D03D49D7E92C23C1E90C23D7F8C430D6
:103DE8000133C7F8C430D7F8C430172BDCDD364BA5
:103DF80093ED107BB0EE470AF0EE670A0CF07CFDFD
:103E0800B0EE407AF0EE607A9FED2D1BB0EE470AD7
:103E1800F0EE670A0CF038FD87ED2C0B4FF000022E
:103E28004FF00003D7E92C01FCF7D8FD0346002B1F
:103E380010D0D7F8B030BB63D7F8B43083F0004364
:103E4800FB63D7E90E01FCF707FE03469BB25B4212
:103E58009BB205E0D7E92C01FCF7FEFD03469BB2B7
:103E68001D4A138097ED320B0CF046FDB0EE407AF8
:103E7800F0EE607A9FED121BB0EE470AF0EE670A8B
:103E88000CF002FD87ED2C0B4FF000024FF0000301
:103E9800D7E92C01FCF7A2FD0346002B1ED0D7F86A
:103EA800B0303B63D7F8B43083F000437B63D7E985
:103EB8000C01FCF7D1FD03469BB25B429BB213E0B9
:103EC800000000000000F04008040020C0000020AE
:103ED800185B0020C80D0020DC030020D7E92C0166
:103EE800FCF7BAFD03469BB2B14A5380B14B93ED40
:103EF8000E7BB0EE470AF0EE670A0CF0FDFCB0EE60
:103F0800407AF0EE607A9FEDA81BB0EE470AF0EE1B
:103F1800670A0CF0B9FC87ED2C0B4FF000024FF04C
:103F28000003D7E92C01FCF759FD0346002B10D0FC
:103F3800D7F8B030BB62D7F8B43083F00043FB62E7
:103F4800D7E90A01FCF788FD03469BB25B429BB2A6
:103F580005E0D7E92C01FCF77FFD03469BB2944AA4
:103F68009380944B93ED127BB0EE470AF0EE670A0C
:103F78000CF0C2FCB0EE407AF0EE607A9FED8A1B3E
:103F8800B0EE470AF0EE670A0CF07EFC87ED2C0BCA
:103F98004FF000024FF00003D7E92C01FCF71EFD9B
:103FA8000346002B10D0D7F8B0303B62D7F8B430B6
:103FB80083F000437B62D7E90801FCF74DFD034617
:103FC8009BB25B429BB205E0D7E92C01FCF744FDAC
:103FD80003469BB2764AD38097ED380B0CF08CFCE5
:103FE800B0EE407AF0EE607A9FED6F1BB0EE470AB4
:103FF800F0EE670A0CF048FC87ED2C0B4FF000023E
:104008004FF00003D7E92C01FCF7E8FC0346002B2E
:1040180010D0D7F8B030BB61D7F8B43083F0004384
:10402800FB61D7E90601FCF717FD03469BB25B422B
:104038009BB205E0D7E92C01FCF70EFD03469BB2C5
:104048005B4A138197ED360B0CF056FCB0EE407AC4
:10405800F0EE607A9FED541BB0EE470AF0EE670A67
:104068000CF012FC87ED2C0B4FF000024FF0000310
:10407800D7E92C01FCF7B2FC0346002B10D0D7F887
:10408800B0303B61D7F8B43083F000437B61D7E9A7
:104098000401FCF7E1FC03469BB25B429BB205E0DE
:1040A800D7E92C01FCF7D8FC03469BB2404A538160
:1040B80097ED340B0CF020FCB0EE407AF0EE607A0D
:1040C8009FED391BB0EE470AF0EE670A0CF0DCFBF7
:1040D80087ED2C0B4FF000024FF00003D7E92C01BD
:1040E800FCF77CFC0346002B10D0D7F8B030BB603F
:1040F800D7F8B43083F00043FB60D7E90201FCF73E
:10410800ABFC03469BB25B429BB205E0D7E92C01AE
:10411800FCF7A2FC03469BB2254A9381254B93EDFD
:104128000C7BB0EE470AF0EE670A0CF0E5FBB0EE48
:10413800407AF0EE607A9FED1C1BB0EE470AF0EE75
:10414800670A0CF0A1FB87ED2C0B4FF000024FF033
:104158000003D7E92C01FCF741FC0346002B10D0E3
:10416800D7F8B0303B60D7F8B43083F000437B60B9
:10417800D7E90001FCF770FC03469BB25B429BB297
:1041880005E0D7E92C01FCF767FC03469BB2084A17
:10419800D381094BB3F87A20054B1A820023C7F85C
:1041A800C4301CE0AFF30080000000000000F040C5
:1041B800DC0300200804002000000020B04AD7F8E3
:1041C800C430134400221A70AE4AD7F8C430002114
:1041D80022F81310D7F8C4300133C7F8C430D7F821
:1041E800C430072BEADDA84B00221A60A74B002237
:1041F8001A60A748FEF7EFF9C7F8C000A548FEF710
:10420800EAF9C7F8BC00A44B03F5804393F88D3056
:104218003E2B0BD8A04B03F5804393F88D30013328
:10422800DAB29D4B03F5804383F88D209A4B03F552
:10423800804393F8813003F00103DBB2002B15D1E2
:10424800954B03F580431A4692F8813043F00103F9
:1042580082F88130904B03F580431A4692F88030FB
:1042680043F0C00382F8803000F04ABC8A4B03F563
:10427800804393F88030C3F38113DBB2012B03D062
:10428800022B00F0DE81B2E3834B03F5804393F801
:104298008030C3F30203DBB2032B00F0B680032B9C
:1042A80000F34A81012B02D0022B79D044E17B4BE9
:1042B8005B891846FCF7B6F8794BD3E90023FCF77D
:1042C800ABFB0346002B13D0744B502283F85520C8
:1042D800724B502283F854206F4B03F580431A46E3
:1042E80092F88030032161F3020382F88030A7E15D
:1042F8006A4B9B881846FCF795F8694BD3E902236B
:10430800FCF78AFB0346002B13D0644B502283F83A
:104318005520624B502283F854205F4B03F58043AD
:104328001A4692F88030042161F3020382F8803043
:1043380086E15A4B9B891846FCF774F8584BD3E929
:104348000423FCF769FB0346002B0CD1534B5B8815
:104358001846FCF767F8524BD3E90623FCF75CFBD9
:104368000346002B13D04D4B502283F855204B4B5E
:10437800502283F85420484B03F580431A4692F89C
:104388008030022161F3020382F8803058E1434B08
:10439800502283F85520414B502283F854204FE196
:1043A8003E4B012283F857203C4B012283F85820CA
:1043B8003A4B93F955300A3BC7F8C430374B93F959
:1043C800553013F1760F03DA6FF07F03C7F8C43066
:1043D800D7F8C4305AB2314B83F855202F4B93F994
:1043E80054300A3BC7F8C4302C4B93F9543013F1BE
:1043F800760F03DA6FF07F03C7F8C430D7F8C430FC
:104408005AB2264B83F854201AE1244B5B8918468C
:10441800FCF708F8224BD3E90023FCF7DFFA034640
:10442800002B0FD01D4B002283F858201A4B03F5A0
:1044380080431A4692F88030012161F3020382F822
:104448008030FDE0154B5B881846FBF7EBFF144BFB
:10445800D3E90623FCF7E0FA0346002B22D00F4BE2
:10446800002283F858200C4B03F580431A4692F833
:104478008030022161F3020382F88030E0E000BF5F
:1044880000040020F0030020AC030020B00300204B
:1044980000040048001000484815002008040020C7
:1044A80000000020A84B9B881846FBF7BBFFA74BD2
:1044B800D3E90223FCF7B0FA0346002B0FD0A24B36
:1044C800002283F85820A24B03F580431A4692F83D
:1044D8008030042161F3020382F88030B0E09A4B07
:1044E800012283F85820984B93F955300333C7F8C5
:1044F800C430954B93F955307C2B02DD7F23C7F8E8
:10450800C430D7F8C4305AB28F4B83F855208E4B3D
:1045180093F954300233C7F8C4308B4B93F95430B5
:104528007D2B02DD7F23C7F8C430D7F8C4305AB2D8
:10453800854B83F8542083E0834B9B881846FBF710
:1045480071FF824BD3E90223FCF748FA0346002B9C
:104558000FD07D4B002283F857207D4B03F5804315
:104568001A4692F88030012161F3020382F8803004
:1045780065E0754B9B891846FBF754FF734BD3E9ED
:104588000423FCF749FA0346002B0FD06E4B002298
:1045980083F857206E4B03F580431A4692F8803013
:1045A800022161F3020382F8803048E0664B5B89A0
:1045B8001846FBF737FF654BD3E90023FCF72CFAC5
:1045C8000346002B0FD0604B002283F85720604B26
:1045D80003F580431A4692F88030032161F3020301
:1045E80082F880302BE0584B012283F85720564B35
:1045F80093F955300233C7F8C430534B93F955300B
:104608007D2B02DD7F23C7F8C430D7F8C4305AB2F7
:104618004D4B83F855204C4B93F954300333C7F86E
:10462800C430494B93F954307C2B02DD7F23C7F803
:10463800C430D7F8C4305AB2434B83F8542000BF73
:104648005EE2414B012283F857203F4B002283F85A
:1046580056203D4B002283F858203D4B03F58043FC
:1046680093F88030C3F3C203DBB2013B042B00F2A2
:104678007E8101A252F823F095460008BD46000845
:10468800FB4700085D480008FB480008304B03F56D
:10469800804393F88D30312B40F2A7812C4B03F5E2
:1046A80080431A4692F88030042161F3C50382F8EA
:1046B80080309AE1244B1A89254B03F58043B3F8DF
:1046C80086309A4213D9204B502283F855201E4B2E
:1046D800502283F854201E4B03F580431A4692F863
:1046E8008030062161F3C50382F880307EE1184BE3
:1046F80003F58043B3F88830323BC7F8C030144B19
:1047080003F58043B3F88830312B02D80023C7F86B
:10471800C0300D4BDB881A46D7F8C0309A4219DDF5
:10472800094B502283F85520074B502283F8542018
:10473800074B03F580431A4692F88030052161F350
:10474800C50382F8803051E10804002000000020F1
:1047580048150020BA4B03F58043B3F88430643B16
:10476800C7F8C030B64B03F58043B3F88430632BE9
:1047780002D80023C7F8C030B14B03F58043B3F823
:104788008A30643BC7F8BC30AD4B03F58043B3F8BF
:104798008A30632B02D80023C7F8BC30A94B9B8909
:1047A8001A46D7F8C0309A4206DCA64B5B881A46F0
:1047B800D7F8BC309A4213DDA24B502283F855201B
:1047C800A04B502283F854209D4B03F580431A4692
:1047D80092F88030032161F3C50382F8803005E147
:1047E800984B782283F85520964B782283F85420EA
:1047F800FCE0944B012283F85820924B93F95530F2
:104808000A3BC7F8C4308F4B93F9553013F1760F34
:1048180003DA6FF07F03C7F8C430D7F8C4305AB250
:10482800884B83F85520874B93F954300A3BC7F8D7
:10483800C430844B93F9543013F1760F03DA6FF0D8
:104848007F03C7F8C430D7F8C4305AB27D4B83F819
:104858005420CBE07A4B03F58043B3F88A30C83B49
:10486800C7F8C030764B03F58043B3F88A30C72BBE
:1048780002D80023C7F8C030714B03F58043B3F862
:104888008430C83BC7F8BC306D4B03F58043B3F8A0
:104898008430C72B02D80023C7F8BC30694B5B882B
:1048A8001A46D7F8C0309A421ADA664B9B891A46DC
:1048B800D7F8BC309A4213DA624B002283F85520AD
:1048C800604B002283F854205D4B03F580431A4661
:1048D80092F88030022161F3C50382F8803085E0C8
:1048E800584B502283F85520564BB02283F8542059
:1048F8007CE0534B03F58043B3F88830643BC7F83A
:10490800C0304F4B03F58043B3F88830632B02D88F
:104918000023C7F8C0304B4BDB881A46D7F8C030A5
:104928009A420BDA464B03F580431A4692F88030D8
:10493800022161F3C50382F8803057E0414B012220
:1049480083F856203F4B93F954300133C7F8C430ED
:104958003C4B93F954307F2B02D17F23C7F8C430E6
:10496800D7F8C4305AB2374B83F854203EE0344B62
:1049780003F58043B3F88630323BC7F8C030304B7C
:1049880003F58043B3F88630312B02D80023C7F8EB
:10499800C0302C4B1B891A46D7F8C0309A420BDA24
:1049A800274B03F580431A4692F88030022161F3C1
:1049B800C50382F8803019E0224B012283F8582081
:1049C800204B93F955300133C7F8C4301D4B93F988
:1049D80055307F2B02D17F23C7F8C430D7F8C430B5
:1049E8005AB2184B83F8552000E000BF88E0D7F88A
:1049F800BC3003F04003002B26D1114B03F5804354
:104A08001A4692F88030012161F3871382F88030CA
:104A18000C4B002283F857200A4B012283F85620BA
:104A2800084B002283F85820054B03F580431A46AB
:104A380092F88030012161F3020382F880305EE051
:104A48004815002008040020D7F8C03003F00403FC
:104A5800002B38D1B74B03F580431A4692F88030C3
:104A6800022161F3871382F88030B24B03F580434B
:104A7800002283F88D20AF4B03F580431A4692F845
:104A88008030012161F3C50382F88030AA4B9A89EE
:104A9800A84B03F58043A3F88420A74B5A88A54B5D
:104AA80003F58043A3F88A20A34B1A89A14B03F589
:104AB8008043A3F88620A04BDA889E4B03F58043F9
:104AC800A3F888201BE09C4B002283F857209A4BC0
:104AD80093F85630002B0CBF01230023DBB21A4693
:104AE800954B83F85620944B002283F85820924B1C
:104AF800002283F85520904B002283F8542000BFF1
:104B08008D4B93F95530002B06DD8B4B93F95520CF
:104B1800894B83F8512005E0874B93F95520864B44
:104B280083F85020834B03F580439B6D824A92F9AA
:104B3800512007EE902AF8EEE77AB0EE670A184699
:104B4800FDF716FE7C4B93F95030002B08DA7A4BB0
:104B580093F95030DBB25B42DBB287F8BB3004E03C
:104B6800754B93F8503087F8BB30724B03F5804390
:104B78009B6D97F9BB2007EE902AF8EEE77AB0EE26
:104B8800670A1846FDF708FE6A4B03F5804393F859
:104B98008C3087F8BB30684B93F95430002B06DD16
:104BA800644B03F58043002283F88C2005E0614BB9
:104BB80003F58043012283F88C205E4B03F5804384
:104BC80093F98C3097F9BB209A4214D097F9BB30EF
:104BD800002B02D0012B07D00DE0584B93F985200C
:104BE800554B83F8532006E0544B93F98620524BDB
:104BF80083F8522000BF4F4B03F5804393F98C3064
:104C0800002B06D14C4B93F954204B4B83F853207F
:104C180005E0494B93F95420474B83F85220454B04
:104C280003F580439B6E444A92F9532007EE902A7D
:104C3800F8EEE77AB0EE670A1846FDF7C1FD3E4B7D
:104C480093F95230002B08DA3B4B93F95230DBB220
:104C58005B42DBB287F8BB3004E0374B93F8523045
:104C680087F8BB30334B03F580439B6E97F9BB2025
:104C780007EE902AF8EEE77AB0EE670A1846FDF7D5
:104C8800B3FD2D4B2E4A1A622C4BD3E90E014FF07F
:104C980000024FF00003FBF797FE0346002B03D1F9
:104CA8008023C7F8C43002E00023C7F8C430224B81
:104CB8001B6AD7F8C42011461846FDF798FC1E4B0E
:104CC8001A6AD7F8C430DB4303F08003194610464C
:104CD800FDF79BFC184B1B4A1A62174B93F8573089
:104CE800002B04D04FF40053C7F8C43002E000236F
:104CF800C7F8C430104B1B6AD7F8C42011461846B1
:104D0800FDF775FC0C4B1A6AD7F8C430DB4303F483
:104D1800005319461046FDF778FC074B094A1A62FA
:104D2800054B93F85630002B0ED04FF48043C7F84C
:104D3800C4300CE0481500200804002000000020C2
:104D4800000C0048000800480023C7F8C430B84BDE
:104D58001B6AD7F8C42011461846FDF748FCB44B27
:104D68001A6AD7F8C430DB4303F480431946104667
:104D7800FDF74BFCAE4BAF4A1A62AD4B93F8583077
:104D8800002B04D04FF40043C7F8C43002E00023DE
:104D9800C7F8C430A64B1B6AD7F8C420114618467A
:104DA800FDF725FCA24B1A6AD7F8C430DB4303F49D
:104DB800004319461046FDF728FC9D4B9E4A1A628F
:104DC8009E4BD3E910014FF000024FF00003FBF7B0
:104DD800FBFD0346002B03D10823C7F8C43002E0CB
:104DE8000023C7F8C430924B1B6AD7F8C420114679
:104DF8001846FDF7FCFB8E4B1A6AD7F8C430DB4324
:104E080003F0080319461046FDF7FFFB8C4BC7F863
:104E1800AC308C4BD3F82831D3E90023C7E92823D9
:104E2800864BD3E908014FF00002874BFBF764FB80
:104E380002460B46D7E92801FBF7A6F902460B46BE
:104E4800C7E92623D7F8AC301868804B03F58043B0
:104E5800996C7E4B03F58043DA6B7C4B03F58043FA
:104E68001B6C764C94ED127B00240294012401946F
:104E78000093B0EE472AF0EE672A1346744A9FED76
:104E88006A1B97ED260BFDF769FD87ED240B6B4B2D
:104E9800D3E916016D4B03F580437033D3E9002342
:104EA800FBF772F902460B466149C1E90A23604BD8
:104EB800684A1A62614BD3E914014FF000024FF0BF
:104EC8000003FBF781FD0346002B04D14FF4007368
:104ED800C7F8C43002E00023C7F8C430544B1B6A3B
:104EE800D7F8C42011461846FDF781FB504B1A6AC3
:104EF800D7F8C430DB4303F4007319461046FDF7B6
:104F080084FB4B4B534A1A624C4BD3E914014FF0C4
:104F180000024FF00003FBF757FD0346002B04D1B6
:104F28004FF48043C7F8C43002E00023C7F8C43008
:104F38003F4B1B6AD7F8C42011461846FDF757FBAC
:104F48003B4B1A6AD7F8C430DB4303F48043194655
:104F58001046FDF75AFB364B3E4A1A624FF00002E4
:104F68004FF00003D7E92401FBF72EFD0346002B81
:104F780004D14FF48073C7F8C43002E00023C7F8A7
:104F8800C4302B4B1B6AD7F8C42011461846FDF7CE
:104F98002EFB274B1A6AD7F8C430DB4303F480731F
:104FA80019461046FDF731FB214B2A4A1A624FF089
:104FB80000024FF00003D7E92401FBF705FD034683
:104FC800002B04D14FF40043C7F8C43002E000239B
:104FD800C7F8C430164B1B6AD7F8C42011461846C8
:104FE800FDF705FB124B1A6AD7F8C430DB4303F40C
:104FF800004319461046FDF708FB0D4B154A1A6287
:105008000B4BD3E90A014FF000024FF00003FBF706
:10501800DBFC0346002B1FD14FF48053C7F8C43084
:105028001DE000BFAFF3008000000000000000009A
:105038000804002000080048000400480000002080
:10504800C0550020685F00200000E03F48150020A0
:105058008C550020001000480023C7F8C430764B58
:105068001B6AD7F8C42011461846FDF7C0FA724BE0
:105078001A6AD7F8C430DB4303F480531946104644
:10508800FDF7C3FA6C4B6D4A1A626B4B1B6A002121
:105098001846FDF7ACFA684B1B6A4FF48051184666
:1050A800FDF7B3FA644B664A1A62634B1B6A002128
:1050B8001846FDF79CFA604B1B6A4FF400511846DE
:1050C800FDF7A3FA5C4B5E4A1A625B4BD3E90A010F
:1050D8004FF000024FF00003FBF776FC0346002B6D
:1050E80004D14FF40063C7F8C43002E00023C7F8C6
:1050F800C430514B1B6AD7F8C42011461846FDF737
:1051080076FA4D4B1A6AD7F8C430DB4303F40063D0
:1051180019461046FDF779FA00F03CFC00F050FD06
:10512800484BC7F88C30484BD3F82831D3E90023D3
:10513800C7E92023454B03F580431A6C434B03F51D
:1051480080439B6C013B9A4205DA404B03F5804350
:105158001B6C013300E000233C4A02F580421364D3
:105168003A4B03F580431A6C384B03F58043DB6BED
:105178009A4215D1354B03F58043DA6B334B03F56F
:1051880080439B6C013B9A4205DA304B03F5804320
:10519800DB6B013300E000232C4A02F58042D36325
:1051A800D7F88C301A68294B03F580439B6C194655
:1051B800264B03F580431B6C0B44DB00D118D7E961
:1051C8002023C1E90023D7F88C301A681F4B03F558
:1051D80080431B6CDB00D118174BD3E90A23C1E9C4
:1051E8000023154BD3E90A01184B03F580437033AC
:1051F800C3E90001144BD3F810210132C3F8102180
:10520800D3F810311846FBF7FDF80F4BD3E94623C6
:105218000D4CD4F82841FBF76FF902460B46C4E958
:105228000023094BD3F820210132C3F8202100BF05
:10523800E837BD46B0BD00BF0804002000040048A0
:1052480000100048C0550020685F00204815002065
:1052580080B582B000AF2C4B2B4A03F59273D36014
:10526800294B294A03F59473C2F88430264B264A01
:1052780003F58C739362244A234BC3F8D020224B46
:10528800214A9A60204BDB6801221A701E4B0022CB
:1052980083F8FC201C4B002283F80C211A4B1B4A74
:1052A8005A61194B184A03F59873C2F82831164900
:1052B80013A3D3E90023C1E9462300237B6017E049
:1052C800134BB3F87C10134A7B6822F81310104B69
:1052D800B3F87E10104A7B6822F813100C4BB3F811
:1052E80080100E4A7B6822F813107B6801337B60BC
:1052F8007B68082BE4DD00237B6023E0AFF30080AC
:105308009A9999999999B93F685F0020300D0108D9
:1053180000000020B4030020C8030020DC030020A4
:10532800834B93F88410834A7B6813440A461A70A7
:105338007F4BB3F88210804A7B6822F813107B6891
:1053480001337B607B68072BEADD794B9B6E7B4AD8
:105358001360774BDB6E7A4A13607A4B03F5804310
:10536800FF2283F88C20784B3B60764B03F5804313
:105378001A460023D363734B03F580431A46002370
:105388001364704B03F580431A46002353646D4B36
:1053980003F580431A464FF480639364644BD3E962
:1053A80012233968C1E90023684BD3F828313A68D9
:1053B80002F50051D3E90023C1E90023614B03F54D
:1053C80080431A463B689367594B1B6F604A1360CA
:1053D800574B5B6F5F4A1360554B1B6F5C4A5360BA
:1053E800534B5B6F5B4A5360514B1B6F584A93603A
:1053F8004F4B5B6F574A936000F060FB4C4BD3E90F
:105408001801504B03F580437033C3E90001484B42
:1054180093F98720504B83F85120454B93F9882006
:105428004D4B83F85020424B93F985204A4B83F823
:1054380053203F4B93F98620474B83F85220414B2A
:1054480003F580431A460023D3603E4B03F580439F
:1054580000221A724148FDF7CDFD41494148FDF748
:10546800FBFC41494148FDF75EFD41494148FDF7D4
:10547800F3FC41494148FDF7EFFC41494148FDF73C
:10548800EBFC41494148FDF7E7FC41494148FDF73C
:10549800E3FC41494148FDF746FD41494148FDF7D4
:1054A800DBFC41494148FDF7D7FC41494148FDF73C
:1054B800D3FC41494148FDF7CFFC224B03F580431B
:1054C800002283F84C201F4B03F58043002283F809
:1054D80054201C4B03F580431A46012313653848B2
:1054E800FDF7D0FD174B03F58043012283F85420C4
:1054F800144B03F58043002283F85C20114B03F51D
:105508008043002283F864200E4B03F580431A463B
:10551800012313662B48FDF7F1FD0A4B03F5804381
:10552800012283F8642000BF0837BD4680BD00BF54
:105538000000002000040020F0030020AC0300203D
:10554800B00300204815002050150020685F002097
:1055580094030020A00300200804002050550020D8
:10556800B000002058590020D0000020D85C00204E
:10557800E8000020885E0020B8000020385A00208B
:10558800A800002078580020A0000020985700208C
:1055980098000020B8560020D8000020405D002068
:1055A800E0000020A85D002090000020D8550020D1
:1055B800C8000020F85B0020C0000020185B002015
:1055C80094550020A455002080B500AF494B03F541
:1055D80080431B7A002B19D1464B03F580430122E7
:1055E8001A72444B03F58043DB68012B0ED1414B03
:1055F80003F580431B7C002B08D03E4B03F580430A
:105608005B69012204211846FCF710FE394B03F5AB
:10561800804393F84C30002B31D1364B03F580434F
:10562800012283F84C20334B03F580431B6D012B7B
:1056380025D1304B03F5804393F85430002B1ED00E
:105648002C4B03F580439B6D1846FDF779F9294BE0
:1056580003F580439B6D00211846FBF7ECFC254BB6
:1056680003F580439B6D02211846FBF7CFFD214BC4
:1056780003F580439B6D02211846FBF767FE1D4B1F
:1056880003F5804393F85C30002B31D1194B03F5B7
:105698008043012283F85C20164B03F580431B6E80
:1056A800012B25D1134B03F5804393F86430002B6D
:1056B8001ED0104B03F580439B6E1846FDF740F94A
:1056C8000C4B03F580439B6E00211846FBF7B3FC97
:1056D800084B03F580439B6E02211846FBF7DAFE60
:1056E800044B03F580439B6E02211846FBF73AFFF3
:1056F80000BF80BD4815002080B489B000AFF860B5
:10570800B9607A60FB68BB610023FB61BB689B08DA
:105718007B611B4B1B68B3F5C87F2AD00023FB6154
:1057280022E0174B1B6817497A6841F82320FB6968
:105738009B00BA691A44124B1B681268114903F599
:10574800C87341F823200E4B1B680F4A12680D4995
:1057580003F5487341F82320094B1B680133084AB5
:105768001360FB690133FB61FA697B699A42D8D3FC
:1057780000E000BF2437BD465DF8047B704700BFDA
:10578800A8600020B0600020AC60002080B584B024
:1057980000AF786072B600BF00F060FC0346FB60A3
:1057A80007F10C037A6804211846FFF7A5FF62B6D3
:1057B80000BF00BF1037BD4680BD000080B500AFF8
:1057C800124B1B785A1CD1B2104A1170002B09D009
:1057D8000F4B01221A600D4B1B78013BDAB20B4BC1
:1057E8001A7011E062B600BF02200BF031F8FDF725
:1057F800C3FC02200BF037F872B600BF034B1B78CE
:10580800013BDAB2014B1A7080BD00BF74730020EF
:105818007073002080B584B000AF78603960374B72
:10582800FB60374BBB60374B00221A70364B0022A7
:105838001A7001DF06F026FB00F0E0FE00F02EFFF4
:1058480000F08EFF01F054FF01F072FB02F09EF9A8
:1058580001F0BEFF02F04AFA01F00EFD02F00EFD63
:1058680002F066FC294B1B6800221A6001200AF02E
:10587800EFFFFFF7EDFC01200AF0F5FF72B600BF5D
:1058880097ED030A00F08AFC204B1B681B68002B6D
:105898000CBF01230023DBB21A461B4B1A7062B6F9
:1058A80000BF62B600BF15E0184B1B681B68002BD1
:1058B80014BF01230023DBB21A46124B1A70114B96
:1058C8001B78DBB2002B05D0114B1B68104A23F064
:1058D800010313600C4B1B78DBB2002BE4D10320CF
:1058E8000AF0B6FFFFF770FE03200AF0BCFF72B69D
:1058F80000BF002318461037BD4680BDCDCCCC3D37
:105908000000A0427573002076730020A00D0108E6
:1059180010E000E080B485B000AF0346FB80B7F923
:105928000630002B02DBFB88FB8101E0FB88FB8152
:10593800B7F90E3018461437BD465DF8047B70473A
:1059480080B588B004AF03460A46FB711346BB71A5
:10595800FB799BB25B009BB2013399B2BB799AB2D7
:105968004FF0FF3302930223019307F10C030093D6
:105978000123074806F078FE3B7B1B021AB27B7BAB
:105988001BB213431BB29BB218461037BD4680BDED
:10599800A073002080B500AF3B216920FFF7D0FF3E
:1059A80003461846FFF7B6FF03461A4613469B0000
:1059B80013445B0007EE903AB8EEE77ADFED3B6AF6
:1059C800C7EE267A3A4BC3ED007A3D216920FFF7EE
:1059D800B7FF03461846FFF79DFF03461A461346CE
:1059E8009B0013445B0007EE903AB8EEE77ADFEDD0
:1059F8002F6AC7EE267A2E4BC3ED017A3F21692024
:105A0800FFF79EFF03461846FFF784FF03461A4632
:105A180013469B0013445B0007EE903AB8EEE77A12
:105A2800DFED226AC7EE267A214BC3ED027A4321C5
:105A38006920FFF785FF03461846FFF76BFF03460B
:105A480007EE903AB8EEE77ADFED1A6AC7EE267AE3
:105A5800194BC3ED007A45216920FFF771FF034612
:105A68001846FFF757FF034607EE903AB8EEE77A75
:105A7800DFED106AC7EE267A0F4BC3ED017A472196
:105A88006920FFF75DFF03461846FFF743FF03460B
:105A980007EE903AB8EEE77ADFED066AC7EE267AA7
:105AA800054BC3ED027A00BF80BD00BF00008046F1
:105AB8009403002000000343A003002080B586B0B3
:105AC80004AF0023FB714FF0FF33029301230193CE
