:020000040800F2
:100000000080012045F90008A7800008AD800008A5
:10001000B3800008B9800008BF800008000000001D
:10002000000000000000000000000000ED53000888
:10003000C580000800000000A9530008D95200083C
:1000400095F9000895F9000895F9000895F9000858
:1000500095F9000895F9000895F9000895F9000848
:1000600095F9000895F9000895F90008D380000873
:10007000891F000895F9000895F9000895F900080E
:10008000E1800008EF800008FD80000895F9000875
:1000900095F9000895F9000895F9000895F9000808
:1000A00095F900080D81000895F9000895F90008F8
:1000B00095F9000895F9000895F9000895F90008E8
:1000C00095F9000895F9000895F9000895F90008D8
:1000D00095F9000895F9000895F9000895F90008C8
:1000E00095F9000895F9000895F9000895F90008B8
:1000F00095F9000895F9000895F9000895F90008A8
:1001000095F9000895F9000895F9000895F9000897
:1001100095F9000895F9000895F9000895F9000887
:1001200095F9000895F9000895F9000895F9000877
:1001300095F9000895F9000895F9000895F9000867
:1001400095F9000895F9000895F900082181000843
:1001500095F9000895F9000895F9000895F9000847
:1001600095F9000895F9000895F9000895F9000837
:1001700095F9000895F9000895F9000800000000BD
:0801800095F9000895F900084B
:1001880081F0004102E000BF83F0004330B54FEA40
:1001980041044FEA430594EA050F08BF90EA020FAD
:1001A8001FBF54EA000C55EA020C7FEA645C7FEA40
:1001B800655C00F0E2804FEA5454D4EB5555B8BF63
:1001C8006D420CDD2C4480EA020281EA030382EAD4
:1001D800000083EA010180EA020281EA0303362D66
:1001E80088BF30BD11F0004F4FEA01314FF4801C39
:1001F8004CEA113102D0404261EB410113F0004F4B
:100208004FEA03334CEA133302D0524263EB430301
:1002180094EA050F00F0A780A4F10104D5F1200E9F
:100228000DDB02FA0EFC22FA05F2801841F10001FA
:1002380003FA0EF2801843FA05F359410EE0A5F1CE
:1002480020050EF1200E012A03FA0EFC28BF4CF0FF
:10025800020C43FA05F3C01851EBE37101F00045B5
:1002680007D54FF0000EDCF1000C7EEB00006EEBC2
:100278000101B1F5801F1BD3B1F5001F0CD349084C
:100288005FEA30004FEA3C0C04F101044FEA4452A3
:1002980012F5800F80F09A80BCF1004F08BF5FEA2A
:1002A800500C50F1000041EB045141EA050130BD0A
:1002B8005FEA4C0C404141EB0101013C28BFB1F51C
:1002C800801FE9D291F0000F04BF01460020B1FA67
:1002D80081F308BF2033A3F10B03B3F120020CDA3A
:1002E8000C3208DD02F1140CC2F10C0201FA0CF018
:1002F80021FA02F10CE002F11402D8BFC2F1200C7D
:1003080001FA02F120FA0CFCDCBF41EA0C01904032
:10031800E41AA2BF01EB0451294330BD6FEA04047B
:100328001F3C1CDA0C340EDC04F11404C4F1200266
:1003380020FA04F001FA02F340EA030021FA04F378
:1003480045EA030130BDC4F10C04C4F1200220FACF
:1003580002F001FA04F340EA0300294630BD21FA0D
:1003680004F0294630BD94F0000F83F4801306BFD3
:1003780081F480110134013D4EE77FEA645C18BFC7
:100388007FEA655C29D094EA050F08BF90EA020F5E
:1003980005D054EA000C04BF1946104630BD91EA56
:1003A800030F1EBF0021002030BD5FEA545C05D159
:1003B8004000494128BF41F0004130BD14F5800498
:1003C8003CBF01F5801130BD01F0004545F0FE410C
:1003D80041F470014FF0000030BD7FEA645C1ABF41
:1003E800194610467FEA655C1CBF0B46024650EA78
:1003F800013406BF52EA033591EA030F41F40021A4
:1004080030BD00BF90F0000F04BF0021704730B529
:100418004FF4806404F132044FF000054FF00001FE
:1004280050E700BF90F0000F04BF0021704730B5BF
:100438004FF4806404F1320410F0004548BF404294
:100448004FF000013EE700BF42004FEAE2014FEAE9
:1004580031014FEA02701FBF12F07F4393F07F4FC4
:1004680081F06051704732F07F4208BF704793F0C7
:100478007F4F04BF41F40021704730B54FF46074DA
:1004880001F0004521F000411CE700BF50EA0102DD
:1004980008BF704730B54FF000050AE050EA010286
:1004A80008BF704730B511F0004502D5404261EBF6
:1004B80041014FF4806404F132045FEA915C3FF437
:1004C800D8AE4FF003025FEADC0C18BF03325FEAD4
:1004D800DC0C18BF033202EBDC02C2F1200300FA85
:1004E80003FC20FA02F001FA03FE40EA0E0021FAAA
:1004F80002F11444BDE600BF70B54FF0FF0C4CF498
:10050800E06C1CEA11541DBF1CEA135594EA0C0F49
:1005180095EA0C0F00F0DEF82C4481EA030621EA84
:100528004C5123EA4C5350EA013518BF52EA0335BF
:1005380041F4801143F4801338D0A0FB02CE4FF071
:100548000005E1FB02E506F00042E0FB03E54FF0A1
:100558000006E1FB03569CF0000F18BF4EF0010E99
:10056800A4F1FF04B6F5007F64F5407404D25FEA95
:100578004E0E6D4146EB060642EAC62141EA555148
:100588004FEAC52040EA5E504FEACE2EB4F1FD0C8A
:1005980088BFBCF5E06F1ED8BEF1004F08BF5FEA08
:1005A800500E50F1000041EB045170BD06F00046BA
:1005B80046EA010140EA020081EA0301B4EB5C0467
:1005C800C2BFD4EB0C0541EA045170BD41F480115F
:1005D8004FF0000E013C00F3AB8014F1360FDEBF84
:1005E800002001F0004170BDC4F10004203C35DA60
:1005F8000C341BDC04F11404C4F1200500FA05F3E3
:1006080020FA04F001FA05F240EA020001F0004283
:1006180021F0004110EBD37021FA04F642EB0601F9
:100628005EEA430E08BF20EAD37070BDC4F10C0423
:10063800C4F1200500FA04F320FA05F001FA04F2E7
:1006480040EA020001F0004110EBD37041F10001D3
:100658005EEA430E08BF20EAD37070BDC4F12005DE
:1006680000FA05F24EEA020E20FA04F301FA05F246
:1006780043EA020321FA04F001F0004121FA04F2EE
:1006880020EA020000EBD3705EEA430E08BF20EABE
:10069800D37070BD94F0000F0FD101F000464000F8
:1006A80041EB010111F4801F08BF013CF7D041EA7A
:1006B800060195F0000F18BF704703F0004652007E
:1006C80043EB030313F4801F08BF013DF7D043EA4F
:1006D8000603704794EA0C0F0CEA135518BF95EA05
:1006E8000C0F0CD050EA410618BF52EA4306D1D18C
:1006F80081EA030101F000414FF0000070BD50EAAB
:10070800410606BF1046194652EA430619D094EA34
:100718000C0F02D150EA013613D195EA0C0F05D11E
:1007280052EA03361CBF104619460AD181EA030172
:1007380001F0004141F0FE4141F470014FF000002A
:1007480070BD41F0FE4141F4780170BD70B54FF0C5
:10075800FF0C4CF4E06C1CEA11541DBF1CEA135545
:1007680094EA0C0F95EA0C0F00F0A7F8A4EB050427
:1007780081EA030E52EA03354FEA013100F088801E
:100788004FEA03334FF0805545EA131343EA1263E7
:100798004FEA022245EA111545EA10654FEA00269C
:1007A8000EF000419D4208BF964244F1FD0404F555
:1007B800407402D25B084FEA3202B61A65EB0305B1
:1007C8005B084FEA32024FF480104FF4002CB6EB6E
:1007D800020E75EB030E22BFB61A754640EA0C00EE
:1007E8005B084FEA3202B6EB020E75EB030E22BF2E
:1007F800B61A754640EA5C005B084FEA3202B6EB6F
:10080800020E75EB030E22BFB61A754640EA9C002D
:100818005B084FEA3202B6EB020E75EB030E22BFFD
:10082800B61A754640EADC0055EA060E18D04FEABB
:10083800051545EA16754FEA06164FEAC30343EA5B
:1008480052734FEAC2025FEA1C1CC0D111F4801F28
:100858000BD141EA00014FF000004FF0004CB6E721
:1008680011F4801F04BF01430020B4F1FD0C88BFC0
:10087800BCF5E06F3FF6AFAEB5EB030C04BFB6EBCB
:10088800020C5FEA500C50F1000041EB045170BDBE
:100898000EF0004E4EEA113114EB5C04C2BFD4EBEB
:1008A8000C0541EA045170BD41F480114FF0000E6F
:1008B800013C90E645EA060E8DE60CEA135594EAEB
:1008C8000C0F08BF95EA0C0F3FF43BAF94EA0C0FEE
:1008D8000AD150EA01347FF434AF95EA0C0F7FF463
:1008E80025AF104619462CE795EA0C0F06D152EAB7
:1008F80003353FF4FDAE1046194622E750EA41069B
:1009080018BF52EA43067FF4C5AE50EA41047FF4AB
:100918000DAF52EA43057FF4EBAE12E74FF0FF3C10
:1009280006E000BF4FF0010C02E000BF4FF0010CE1
:100938004DF804CD4FEA410C7FEA6C5C4FEA430C5A
:1009480018BF7FEA6C5C1BD001B050EA410C0CBFA9
:1009580052EA430C91EA030F02BF90EA020F00200B
:10096800704710F1000F91EA030F58BF994208BF72
:1009780090422CBFD8176FEAE37040F0010070472F
:100988004FEA410C7FEA6C5C02D150EA013C07D186
:100998004FEA430C7FEA6C5CD6D152EA033CD3D0D1
:1009A8005DF8040B704700BF8446104662468C46CB
:1009B8001946634600E000BF01B5FFF7B7FF0028FE
:1009C80048BF10F1000F01BD4DF808EDFFF7F4FF27
:1009D8000CBF012000205DF808FB00BF4DF808EDB2
:1009E800FFF7EAFF34BF012000205DF808FB00BFD5
:1009F8004DF808EDFFF7E0FF94BF012000205DF8F7
:100A080008FB00BF4DF808EDFFF7CEFF94BF0120AB
:100A180000205DF808FB00BF4DF808EDFFF7C4FFA4
:100A280034BF012000205DF808FB00BF4FEA410CED
:100A38007FEA6C5C02D150EA013C0AD14FEA430CD0
:100A48007FEA6C5C02D152EA033C02D14FF000000D
:100A580070474FF0010070474A0011D212F500129A
:100A680011D20DD56FF47873B3EB62520ED44FEAFE
:100A7800C12343F0004343EA505323FA02F070477E
:100A88004FF00000704750EA013002D14FF0FF30BC
:100A980070474FF0000070470348044B834202D070
:100AA800034B03B1184770478002002080020020E2
:100AB800000000000548064B1B1AD90F01EBA301E3
:100AC800491002D0034B03B1184770478002002039
:100AD800800200200000000010B5064C237843B9BE
:100AE800FFF7DAFF044B13B10448AFF3008001238A
:100AF800237010BD800200200000000064FE000882
:100B080008B5054B1BB105490548AFF30080BDE8A2
:100B18000840FFF7CFBF00BF00000000840200209C
:100B280064FE000880B485B000AF78607B681B68FD
:100B380003F06003FB60FB68002B04D17B681B6833
:100B480003F01003FB60FB6818461437BD465DF8D8
:100B5800047B704780B483B000AF78607B681B6B00
:100B680018460C37BD465DF8047B704780B483B0E7
:100B780000AF786039607B681A6A3B681A437B6803
:100B88001A6200BF0C37BD465DF8047B704780B41D
:100B980083B000AF786039607B681A6A3B68DB43D2
:100BA8001A407B681A6200BF0C37BD465DF8047BAB
:100BB800704780B483B000AF78607B685B6C43F4A7
:100BC80000427B685A6400BF0C37BD465DF8047B61
:100BD800704780B483B000AF78607B68DB6843F00F
:100BE80001027B68DA6000BF0C37BD465DF8047B04
:100BF800704780B483B000AF78607B68DB6823F00F
:100C080001027B68DA6000BF0C37BD465DF8047BE3
:100C1800704780B483B000AF78607B68DB6803F00E
:100C28000103012B01D1012300E0002318460C37F2
:100C3800BD465DF8047B704780B483B000AF786030
:100C48007B68DB6843F002027B68DA6000BF0C3720
:100C5800BD465DF8047B704780B483B000AF786010
:100C68007B68DB6823F002027B68DA6000BF0C3720
:100C7800BD465DF8047B704780B483B000AF7860F0
:100C88007B68DB6803F00203022B01D1012300E03B
:100C9800002318460C37BD465DF8047B704780B4C6
:100CA80083B000AF78607B68DB6843F004027B6840
:100CB800DA6000BF0C37BD465DF8047B704780B42E
:100CC80083B000AF78607B68DB6823F004027B6840
:100CD800DA6000BF0C37BD465DF8047B704780B40E
:100CE80083B000AF78607B68DB6803F00403042BF3
:100CF80001D1012300E0002318460C37BD465DF8FA
:100D0800047B704780B483B000AF78607B68DB6891
:100D180043F008027B68DA6000BF0C37BD465DF817
:100D2800047B704780B483B000AF78607B68DB6871
:100D380023F008027B68DA6000BF0C37BD465DF817
:100D4800047B704780B483B000AF78607B68DB6851
:100D580003F00803082B01D1012300E00023184603
:100D68000C37BD465DF8047B704780B483B000AF94
:100D780078607B68DB6843F010027B68DA6000BF4C
:100D88000C37BD465DF8047B704780B483B000AF74
:100D980078607B68DB6823F010027B68DA6000BF4C
:100DA8000C37BD465DF8047B704780B483B000AF54
:100DB80078607B68DB6803F01003102B01D10123F6
:100DC80000E0002318460C37BD465DF8047B7047E9
:100DD80080B483B000AF78607B68DB6843F02002A2
:100DE8007B68DA6000BF0C37BD465DF8047B70474E
:100DF80080B483B000AF78607B68DB6823F02002A2
:100E08007B68DA6000BF0C37BD465DF8047B70472D
:100E180080B483B000AF78607B68DB6803F02003A0
:100E2800202B01D1012300E0002318460C37BD46D2
:100E38005DF8047B704780B483B000AF78607B684E
:100E4800DB6843F040027B68DA6000BF0C37BD46C0
:100E58005DF8047B704780B483B000AF78607B682E
:100E6800DB6823F040027B68DA6000BF0C37BD46C0
:100E78005DF8047B704780B483B000AF78607B680E
:100E8800DB6803F04003402B01D1012300E000237D
:100E980018460C37BD465DF8047B704780B483B0B4
:100EA80000AF78607B68DB6843F080027B68DA60BB
:100EB80000BF0C37BD465DF8047B704780B483B033
:100EC80000AF78607B68DB6823F080027B68DA60BB
:100ED80000BF0C37BD465DF8047B704780B483B013
:100EE80000AF78607B68DB6803F08003802B01D15A
:100EF800012300E0002318460C37BD465DF8047B4B
:100F0800704780B582B000AF78600B467B807B88E5
:100F180003F00103002B0CD07B681B681846FFF711
:100F2800AAFF0346012B04D07B681B681846FFF70D
:100F380082FF7B8803F00203002B0CD07B681B68C0
:100F48001846FFF799FE0346012B04D07B681B68FF
:100F58001846FFF771FE7B8803F00403002B0CD0C2
:100F68007B681B681846FFF7BAFE0346012B04D0BE
:100F78007B681B681846FFF792FE7B8803F008031E
:100F8800002B0CD07B681B681846FFF7DBFE034676
:100F9800012B04D07B681B681846FFF7B3FE7B88DB
:100FA80003F01003002B0CD07B681B681846FFF772
:100FB800FCFE0346012B04D07B681B681846FFF72C
:100FC800D4FE7B8803F02003002B0CD07B681B68C1
:100FD8001846FFF71EFE0346012B04D07B681B68EA
:100FE8001846FFF7F6FD7B8803F04003002B0CD072
:100FF8007B681B681846FFF771FF0346012B04D076
:101008007B681B681846FFF749FF7B8803F080035D
:10101800002B0CD07B681B681846FFF7F9FE0346C7
:10102800012B04D07B681B681846FFF7D1FE00BF70
:101038000837BD4680BD80B582B000AF78600B46EA
:101048007B807B8803F00103002B0CD07B681B6836
:101058001846FFF710FF0346012B04D17B681B6875
:101068001846FFF7F8FE7B8803F00203002B0CD02C
:101078007B681B681846FFF7FFFD0346012B04D168
:101088007B681B681846FFF7E7FD7B8803F00403BD
:10109800002B0CD07B681B681846FFF720FE034620
:1010A800012B04D17B681B681846FFF708FE7B8874
:1010B80003F00803002B0CD07B681B681846FFF769
:1010C80041FE0346012B04D17B681B681846FFF7D5
:1010D80029FE7B8803F01003002B0CD07B681B686B
:1010E8001846FFF762FE0346012B04D17B681B6894
:1010F8001846FFF74AFE7B8803F02003002B0CD02C
:101108007B681B681846FFF784FD0346012B04D053
:101118007B681B681846FFF76CFD7B8803F040036B
:10112800002B0CD07B681B681846FFF7D7FE0346D8
:10113800012B04D17B681B681846FFF7BFFE7B882C
:1011480003F08003002B0CD07B681B681846FFF760
:101158005FFE0346012B04D17B681B681846FFF726
:1011680047FE00BF0837BD4680BD000080B582B08D
:1011780000AF78600B46FB70FB78022B06D17B68CA
:101188001B6801211846FFF7F1FC31E07B681B68FA
:10119800194A934213D07B681B68184A93420ED0B1
:1011A8007B681B68164A934209D07B681B68154AFE
:1011B800934204D07B681B68134A934218D1FB788A
:1011C800032B06D17B681B6804211846FFF7CEFC69
:1011D8000EE0FB78042B0BD17B681B6801211846B5
:1011E800FFF7C4FC7B681B6804211846FFF7BEFCA8
:1011F80000BF0837BD4680BD002C014000340140C7
:1012080000400140004401400048014080B582B0E0
:1012180000AF78600B46FB70FB78022B06D17B6829
:101228001B6801211846FFF7B2FC31E07B681B6898
:10123800194A934213D07B681B68184A93420ED010
:101248007B681B68164A934209D07B681B68154A5D
:10125800934204D07B681B68134A934218D1FB78E9
:10126800032B06D17B681B6804211846FFF78FFC07
:101278000EE0FB78042B0BD17B681B680121184614
:10128800FFF785FC7B681B6804211846FFF77FFC85
:1012980000BF0837BD4680BD002C01400034014026
:1012A80000400140004401400048014080B582B040
:1012B80000AF78600B46FB70FB78022B06D17B6889
:1012C8001B6810211846FFF751FC31E07B681B684A
:1012D800194A934213D07B681B68184A93420ED070
:1012E8007B681B68164A934209D07B681B68154ABD
:1012F800934204D07B681B68134A934218D1FB7849
:10130800032B06D17B681B6840211846FFF72EFC8B
:101318000EE0FB78042B0BD17B681B681021184664
:10132800FFF724FC7B681B6840211846FFF71EFC6A
:1013380000BF0837BD4680BD002C01400034014085
:1013480000400140004401400048014080B582B09F
:1013580000AF78600B46FB70FB78022B06D17B68E8
:101368001B6810211846FFF712FC31E07B681B68E8
:10137800194A934213D07B681B68184A93420ED0CF
:101388007B681B68164A934209D07B681B68154A1C
:10139800934204D07B681B68134A934218D1FB78A8
:1013A800032B06D17B681B6840211846FFF7EFFB2B
:1013B8000EE0FB78042B0BD17B681B6810211846C4
:1013C800FFF7E5FB7B681B6840211846FFF7DFFB4A
:1013D80000BF0837BD4680BD002C014000340140E5
:1013E80000400140004401400048014080B582B0FF
:1013F80000AF78600B46FB70FB78022B07D17B6847
:101408001B684FF480711846FFF7B0FB34E07B6827
:101418001B681B4A934213D07B681B68194A934286
:101428000ED07B681B68184A934209D07B681B68FA
:10143800164A934204D07B681B68154A93421BD115
:10144800FB78032B07D17B681B684FF48061184633
:10145800FFF78CFB10E0FB78042B0DD17B681B6831
:101468004FF480711846FFF781FB7B681B684FF4C7
:1014780080611846FFF77AFB00BF0837BD4680BD7C
:10148800002C01400034014000400140004401406C
:101498000048014080B582B000AF78600B46FB7011
:1014A800FB78022B07D17B681B684FF480711846C4
:1014B800FFF76DFB34E07B681B681B4A934213D02F
:1014C8007B681B68194A93420ED07B681B68184AD0
:1014D800934209D07B681B68164A934204D07B6804
:1014E8001B68154A93421BD1FB78032B07D17B68F5
:1014F8001B684FF480611846FFF749FB10E0FB7842
:10150800042B0DD17B681B684FF480711846FFF7D8
:101518003EFB7B681B684FF480611846FFF737FB7A
:1015280000BF0837BD4680BD002C01400034014093
:1015380000400140004401400048014080B582B0AD
:1015480000AF78600B46FB70FB78022B06D17B68F6
:101558001B684FF480511846FFF708FB00BF083797
:10156800BD4680BD80B582B000AF78600B46FB7089
:10157800FB78022B06D17B681B684FF48051184614
:10158800FFF705FB00BF0837BD4680BD80B584B0B6
:1015980000AF78600023FB607B681B68304A934289
:1015A80001D1304BFB607B681A68FB681A60FB68E6
:1015B8001B681846FFF7B6FAB860BB68002B06D060
:1015C800BB68102B03D0FB6801221A7102E0FB688C
:1015D80000221A71FB681B68234A934213D0FB68E8
:1015E8001B68224A93420ED0FB681B68204A93422C
:1015F80009D0FB681B681F4A934204D0FB681B682C
:101608001D4A934204D1FB681B681846FFF7D1FABC
:10161800FB681B68144A934213D0FB681B68134A83
:1016280093420ED0FB681B68114A934209D0FB68AD
:101638001B68104A934204D0FB681B680E4A934209
:1016480008D17B681B681846FFF784FA0346DAB2AC
:10165800FB685A71FB6818461037BD4680BD00BF4D
:10166800000400409C020020002C0140003401408E
:1016780000400140004401400048014080B485B06A
:1016880000AF786039603B68002B03D17B6840333A
:10169800FB6001E0044BFB60FB6818461437BD464D
:1016A8005DF8047B704700BF0C03045080B483B01E
:1016B80000AF78607B68DB6803F44063002B01D1DE
:1016C800012300E0002318460C37BD465DF8047B73
:1016D800704780B483B000AF786039607B681B6B5B
:1016E80023F00F023B681A437B681A6300BF0C376C
:1016F800BD465DF8047B704780B483B000AF786066
:1017080039607B68DB6823F003023B681A437B6817
:10171800DA6000BF0C37BD465DF8047B704780B4C3
:1017280083B000AF78607B68DB6C03F0C003002BEC
:1017380001D1012300E0002318460C37BD465DF8AF
:10174800047B704780B483B000AF78607B689B6887
:1017580023F0004323F03F0343F001027B689A60C3
:1017680000BF0C37BD465DF8047B704780B483B07A
:1017780000AF78607B689B6823F0004323F03F0349
:1017880043F002027B689A6000BF0C37BD465DF8E3
:10179800047B704780B483B000AF78607B689B6837
:1017A80003F00103012B01D1012300E000231846B7
:1017B8000C37BD465DF8047B704780B483B000AF3A
:1017C800786039607B689B6823F0404323F03F03CF
:1017D8003A6802F08042134343F000427B689A6003
:1017E80000BF0C37BD465DF8047B704780B483B0FA
:1017F80000AF78607B689B6803F00043B3F1004F4B
:1018080001D1012300E0002318460C37BD465DF8DE
:10181800047B704780B483B000AF78607B689B68B6
:1018280023F0004323F03F0343F004027B689A60EF
:1018380000BF0C37BD465DF8047B704780B483B0A9
:1018480000AF78607B689B6823F0004323F03F0378
:1018580043F008027B689A6000BF0C37BD465DF80C
:10186800047B704780B483B000AF78607B681B68E6
:1018780003F00803082B01D1012300E000231846D8
:101888000C37BD465DF8047B704780B483B000AF69
:1018980078607B681B6803F01003102B01D10123CB
:1018A80000E0002318460C37BD465DF8047B7047FE
:1018B80080B483B000AF78607B6810221A6000BFE4
:1018C8000C37BD465DF8047B704780B483B000AF29
:1018D80078607B685B6843F008027B685A6000BFE9
:1018E8000C37BD465DF8047B704780B483B000AF09
:1018F80078607B685B6843F040027B685A6000BF91
:101908000C37BD465DF8047B704780B483B000AFE8
:1019180078607B685B6823F008027B685A6000BFC8
:101928000C37BD465DF8047B704780B483B000AFC8
:1019380078607B685B6823F010027B685A6000BFA0
:101948000C37BD465DF8047B704780B483B000AFA8
:1019580078607B685B6823F040027B685A6000BF50
:101968000C37BD465DF8047B704780B483B000AF88
:1019780078607B685B6823F080027B685A6000BFF0
:101988000C37BD465DF8047B704780B483B000AF68
:1019980078607B685B6803F01003102B01D101238A
:1019A80000E0002318460C37BD465DF8047B7047FD
:1019B80080B483B000AF78607B685B6803F0800315
:1019C800802B01D1012300E0002318460C37BD46C7
:1019D8005DF8047B7047000080B485B000AF786084
:1019E80039607B68FB600C4A3B6813441B781A46D5
:1019F800FB6813441B6808493A680A441278114680
:101A0800FA680A4443F00103136000BF1437BD4667
:101A18005DF8047B704700BFE8FE000880B485B01D
:101A280000AF786039607B68FB600C4A3B68134400
:101A38001B781A46FB6813441B6808493A680A442D
:101A480012781146FA680A4423F00103136000BFB4
:101A58001437BD465DF8047B704700BFE8FE0008F8
:101A680080B485B000AF786039607B68FB60084A55
:101A78003B6813441B781A46FB6813441B6803F041
:101A8800200318461437BD465DF8047B704700BF35
:101A9800E8FE000880B487B000AFF860B9607A60EB
:101AA800FB687B610D4ABB6813441B781A467B6947
:101AB80013445B681B0C1B040849BA680A44127873
:101AC80011467A690A4411467A6813434B6000BF8D
:101AD8001C37BD465DF8047B704700BFE8FE000870
:101AE80080B487B000AFF860B9607A603B60FB688B
:101AF8007B613B6A102B14D1174ABB6813441B78CF
:101B08001A467B6913441A467B68D360124ABB683D
:101B180013441B781A467B6913441A463B68936042
:101B280013E00D4ABB6813441B781A467B691344BB
:101B38001A467B689360084ABB6813441B781A46A8
:101B48007B6913441A463B68D36000BF1C37BD4607
:101B58005DF8047B704700BFE8FE000880B487B0DA
:101B680000AFF860B9607A60FB687B61074ABB68C0
:101B780013441B781A467B6913441A467B689360A2
:101B880000BF1C37BD465DF8047B7047E8FE0008BF
:101B980080B483B000AF78607B681B6803F02003D3
:101BA800202B01D1012300E0002318460C37BD4645
:101BB8005DF8047B704780B483B000AF78607B68C1
:101BC80020225A6000BF0C37BD465DF8047B704781
:101BD80080B485B000AF786039607B68FB600C4AE0
:101BE8003B6813441B781A46FB6813441B68084972
:101BF8003A680A4412781146FA680A4443F0020324
:101C0800136000BF1437BD465DF8047B704700BF02
:101C1800E8FE000880B485B000AF786039607B6862
:101C2800FB600C4A3B6813441B781A46FB68134454
:101C38001B6808493A680A4412781146FA680A4447
:101C480043F00803136000BF1437BD465DF8047BFA
:101C5800704700BFE8FE000880B485B000AF786028
:101C680039607B68FB600C4A3B6813441B781A4652
:101C7800FB6813441B6808493A680A4412781146FD
:101C8800FA680A4423F00203136000BF1437BD4604
:101C98005DF8047B704700BFE8FE000880B485B09B
:101CA80000AF786039607B68FB600C4A3B6813447E
:101CB8001B781A46FB6813441B6808493A680A44AB
:101CC80012781146FA680A4423F00403136000BF2F
:101CD8001437BD465DF8047B704700BFE8FE000876
:101CE80080B485B000AF786039607B68FB600C4ACF
:101CF8003B6813441B781A46FB6813441B68084961
:101D08003A680A4412781146FA680A4423F008032C
:101D1800136000BF1437BD465DF8047B704700BFF1
:101D2800E8FE000880B485B000AF786039607B6851
:101D3800FB600A4A3B6813441B781A46FB68134445
:101D48001B6803F00203022B01D1012300E00023EA
:101D580018461437BD465DF8047B7047E8FE000856
:101D680080B584B000AF78600123FB817B681B6974
:101D78001846FFF79BFC0346002B2FD07B685B7A45
:101D8800DBB2022B11D07B685B7ADBB2042B0CD060
:101D98007B685B7ADBB2082B07D07B681B69184627
:101DA800FFF760FD0346012B18D1786800F0F8F8BA
:101DB8000346002B12D17B685B7ADBB2082B03D178
:101DC8007B6801225A7202E07B6820225A727B6883
:101DD8001B691846FFF71EFD0023FB81FB89184687
:101DE8001037BD4680BD80B586B002AFF860B960D7
:101DF8007A603B600021F868FFF740FC03461A460A
:101E08007968B868FFF7AAFE0021F868FFF736FC82
:101E180002463B68002100917968B868FFF760FEC8
:101E2800BA697968B868FFF735FE7968B868FFF766
:101E3800CFFE7968B868FFF7EDFE7968B868FFF7F4
:101E4800CBFD00BF1037BD4680BD80B584B000AF64
:101E5800F860B9607A607968B868FFF7DFFD79687B
:101E6800B868FFF71BFF7968B868FFF739FF79682A
:101E7800B868FFF7F1FE00227968B868FFF70AFE34
:101E880000BF1037BD4680BD80B584B000AF786014
:101E980039600223FB737B68DB79012B0FD17B68E8
:101EA800DA687B681B685B00D118FB7B7A6812686C
:101EB80002FB03F31A4638680DF0C2FF0AE07B689C
:101EC800D968FB7B7A68126802FB03F31A46386804
:101ED8000DF0B6FF00BF1037BD4680BD80B586B097
:101EE80000AFF860B9607A60FB685A69FB689B7953
:101EF80019461046FFF716FF0346DBB2012B37D110
:101F0800FB685A69BB68104698470346012B2FD1D6
:101F1800FB6804225A72FB685A697B681046984726
:101F2800FB685A69FB689B7919461046FFF798FDCC
:101F38000346002B19D1FB685A69FB689B7919463F
:101F48001046FFF76BFDFB685869FB689B791946DB
:101F5800FB681B681A46FFF79DFDFB685A69FB681A
:101F68009B7919461046FFF737FD0123FB7501E001
:101F78000023FB75FB7D18461837BD4680BD000061
:101F880080B500AF034A04490448FFF7A7FF00BF24
:101F980080BD00BFBF1B0008991B00082803002054
:101FA80080B582B000AF78607B681B691846FFF780
:101FB8006CFC0346DBB2012B07D17B681B69184612
:101FC800FFF776FC7B6810225A727B685B7ADBB27B
:101FD800102B0CBF01230023DBB218460837BD467F
:101FE80080BD80B582B000AF78600B46FB70FB788F
:101FF800012B0DD17B681B691846FFF757FB034679
:10200800012B12D07B681B691846FFF703FC0CE014
:102018007B681B691846FFF782FB0346012B04D037
:102028007B681B691846FFF709FC00BF0837BD46E7
:1020380080BD000090B589B002AFF860084611462F
:102048001A4603467B810B463B811346FB800023DF
:102058007B61FB681B693C4A934201D13B4B7B6126
:102068007B69002B6BD0FB681A697B691A617B69F5
:102078000022DA71FB88012B61D03B89002B47D005
:102088007B695B7ADBB2082B42D0FB68DA687B6934
:10209800DA60FB681A687B691A60FB685A697B69B1
:1020A8005A61FB689A797B699A71FB681A797B692E
:1020B8001A717B691B69B96A1846FFF70AFB7B89A5
:1020C800012B21D07B89042B16D17B691B69032145
:1020D8001846FFF711FB7B6918697B6959697B69A9
:1020E8009B791C467B69DA687B691B6800931346F9
:1020F8002246FFF778FE07E07B89022B04D17B6933
:102108001B691846FFF7E1FB7B6908225A7216E043
:102118003B89002B13D17B699B7ADBB2082B0ED04D
:10212800FB685A797B695A717B89022B04D17B69D8
:102138001B691846FFF7D9FB7B6908229A727B69ED
:1021480018461C37BD4690BD0001045028030020E6
:1021580080B582B000AF78607B681B691846FFF7CE
:1021680019FB0346002B04D17B681B691846FFF74F
:10217800E9FA00BF0837BD4680BD80B586B000AF1C
:10218800F8600B467A607B810123FB82FB681B6940
:10219800002B46D07B89012B05D1F868FFF7E0FDBD
:1021A8000346FB823DE07B89042B1FD1FB681B693A
:1021B8001846FFF77BFA0346002B32D0FB68012252
:1021C8005A72FB681B691846FFF724FB00BFFB68BF
:1021D8005B7ADBB2042BFAD17968F868FFF754FE12
:1021E800FB6808225A720023FB821AE07B89022BC3
:1021F80017D1FB685B7ADBB2202B09D0FB685B7ACE
:10220800DBB2042B04D0FB685B7ADBB2102B08D15D
:10221800FB6808225A727968F868FFF735FE0023D0
:10222800FB82FB8A18461837BD4680BD80B582B050
:1022380000AF78600B467B8013463B807B681B6948
:102248001846FFF7A7FA0346002B04D07B681B69E2
:102258001846FFF78BFA7B681B691846FFF7A8FB3F
:102268000346002B04D07B681B691846FFF77DFBEB
:102278007B681B691846FFF788FB0346002B04D0D0
:102288007B681B691846FFF750FB3B88002B35D04D
:102298007B88012B1AD07B88022B05D17B681B69B0
:1022A8001846FFF732FB11E07B88042B0ED17B68C0
:1022B80018697B6859697B689B791A46FFF7C5FDE1
:1022C8007B681B6900211846FFF716FA7B68002215
:1022D800DA607B6800221A607B6800225A617B689A
:1022E80000229A717B6800221A717B681A697B68E0
:1022F8001B7919461046FFF7ECF90AE07B680022C3
:102308005A717B88022B04D17B681B691846FFF73A
:102318001CFB00BF0837BD4680BD000080B584B0F7
:1023280000AF78600B46FB707B681B691846FFF7A7
:1023380031FA0346FB7397F90F30012B04D17B6800
:102348001B691846FFF712FAFB78002B0FD17B6840
:102358001B697F211846FFF730FA00BF7B681B69AD
:102368001846FFF743FA0346012BF7D040E0FB7805
:10237800012B0FD17B681B692C491846FFF71DFA02
:1023880000BF7B681B691846FFF730FA0346012B2C
:10239800F7D02DE07B681B697F211846FFF70DFAFF
:1023A80000BF7B681B691846FFF720FA0346012B1C
:1023B800F7D00023BB8107E000BFBB891BB29BB2EB
:1023C80001339BB21BB2BB81BB891BB29BB2032BEF
:1023D800F2D97B681B6915491846FFF7EEF900BF6B
:1023E8007B681B691846FFF701FA0346012BF7D0F3
:1023F8000023BB8107E000BFBB891BB29BB201333E
:102408009BB21BB2BB81BB891BB29BB2032BF2D917
:1024180097F90F30012B04D17B681B691846FFF729
:1024280091F900BF1037BD4680BD00BF00007F4056
:1024380080B483B000AF78607B681B6843F001020A
:102448007B681A6000BF0C37BD465DF8047B704797
:1024580080B483B000AF78607B681B6823F001020A
:102468007B681A6000BF0C37BD465DF8047B704777
:1024780080B483B000AF786039607B681B6823F054
:1024880004023B681A437B681A6000BF0C37BD46DC
:102498005DF8047B704780B483B000AF78607B68D8
:1024A8001B6803F0040318460C37BD465DF8047B2F
:1024B800704780B483B000AF78607B68DB6A1846E9
:1024C8000C37BD465DF8047B704780B483B000AF1D
:1024D800786039607B683A681A6300BF0C37BD467C
:1024E8005DF8047B704780B483B000AF78603960D2
:1024F8007B683A685A6300BF0C37BD465DF8047BB9
:10250800704780B483B000AF786039607B683A6800
:102518009A6300BF0C37BD465DF8047B704780B4F2
:1025280083B000AF786039607B683A68DA6300BFCF
:102538000C37BD465DF8047B704780B483B000AFAC
:10254800786039607B683A681A6400BF0C37BD460A
:102558005DF8047B704780B483B000AF78607B6817
:102568005B6B18460C37BD465DF8047B704780B43A
:1025780083B000AF78607B689B6B18460C37BD460C
:102588005DF8047B704780B483B000AF78607B68E7
:10259800DB6B18460C37BD465DF8047B704780B48A
:1025A80083B000AF78607B681B6C18460C37BD465B
:1025B8005DF8047B704780B483B000AF78607B68B7
:1025C8005B6943F001027B685A6100BF0C37BD4666
:1025D8005DF8047B704780B483B000AF78607B6897
:1025E8001B6918460C37BD465DF8047B704780B4FC
:1025F80083B000AF786039607B683A689A6100BF41
:102608000C37BD465DF8047B704780B483B000AFDB
:10261800786039607B683A689A6200BF0C37BD46BB
:102628005DF8047B7047000080B584B000AF786027
:1026380087ED000AD7ED007AF5EEC07AF1EE10FAD0
:1026480003D54FF000033B600AE0D7ED007A9FED19
:10265800167AF4EEC77AF1EE10FA01DD134B3B60FF
:102668007B681B681846FFF724FFF8607B681B79B6
:10267800002B0CBF01230023DBB21A46FB6813446E
:1026880007EE903AB8EE677AD7ED007A27EE277A08
:10269800DFED056AC7EE267AFCEEE77A17EE903A88
:1026A80018461037BD4680BD0000C8420000C84229
:1026B80080B582B000AF786039607B681B681846C7
:1026C800FFF749FF02463B68934205D07B681B68C9
:1026D80039681846FFF707FF00BF0837BD4680BDB9
:1026E80080B582B000AF786039607B681B68184697
:1026F800FFF73DFF02463B68934205D07B681B68A5
:1027080039681846FFF7FDFE00BF0837BD4680BD93
:1027180080B582B000AF786039607B681B68184666
:10272800FFF731FF02463B68934205D07B681B6880
:1027380039681846FFF7F3FE00BF0837BD4680BD6D
:1027480080B582B000AF786039607B681B68184636
:10275800FFF725FF02463B68934205D07B681B685C
:1027680039681846FFF7E9FE00BF0837BD4680BD47
:1027780080B584B000AF786087ED000A97ED000A55
:102788007868FFF751FFF860F9687868FFF790FFFD
:1027980000BF1037BD4680BD80B584B000AF7860FB
:1027A80087ED000A97ED000A7868FFF73DFFF860AB
:1027B800F9687868FFF794FF00BF1037BD4680BD01
:1027C80080B584B000AF786087ED000A97ED000A05
:1027D8007868FFF729FFF860F9687868FFF798FFCD
:1027E80000BF1037BD4680BD80B584B000AF7860AB
:1027F80087ED000A97ED000A7868FFF715FFF86083
:10280800F9687868FFF79CFF00BF1037BD4680BDA8
:1028180080B485B000AF78607B681B689A68074B06
:102828001340FB60FB68062B0CBF01230023DBB2BF
:1028380018461437BD465DF8047B70470700010051
:1028480080B584B000AF78600B46FB707B681B686E
:102858001846FFF720FEF860FB78002B1ED07B6837
:102868001B68324A934213D07B681B68304A9342F4
:102878000ED07B681B682F4A934209D07B681B687F
:102888002D4A934204D07B681B682C4A934205D199
:102898007B681B6800211846FFF717FEFB68042BAE
:1028A80011D07B681B6804211846FFF7E1FD7B689F
:1028B8001B681846FFF77FFE7B681B68F968184697
:1028C800FFF7D6FD04E07B681B681846FFF773FE28
:1028D8007B681B681846FFF7ABFDFB78002B20D000
:1028E8007B681B68114A934213D07B681B68104AA7
:1028F80093420ED07B681B680E4A934209D07B68CE
:102908001B680D4A934204D07B681B680B4A9342AC
:1029180007D17B681A687B685B7919461046FFF710
:10292800D4FD00BF1037BD4680BD00BF002C01405C
:10293800003401400040014000440140004801408B
:1029480080B582B000AF78607B681B681846FFF7D7
:102958007FFD00BF0837BD4680BD80B485B000AF9D
:10296800786039607B68012283F8D8203B68D3E916
:1029780000237968C1E902237B6801221A600023D9
:10298800FB600CE07B68D3E902237868F9680231C0
:10299800C9000144C1E90023FB680133FB60FB68FF
:1029A800182BEFDD00BF00BF1437BD465DF8047B70
:1029B800704780B586B000AF87ED040BF860B9604A
:1029C8007A60BB68D3E902017B68D3E90023FDF78D
:1029D800FBFF0346002B05D17B68D3E90023B968C8
:1029E800C1E90223F868BB681033C82219460DF004
:1029F80027FAF968D7E90423C1E93223FB6803F110
:102A0800D000BB681033C02219460DF019FABB6814
:102A180003F11000FB68C833C82219460DF010FAFC
:102A280000BF1837BD4680BD80B485B000AF786060
:102A380039607B68012283F860203B68D3E9002372
:102A48007968C1E902237B6801221A600023FB60D0
:102A58000CE07B68D3E902237868F9680231C90081
:102A68000144C1E90023FB680133FB60FB68092BC3
:102A7800EFDD00BF00BF1437BD465DF8047B70472B
:102A880080B586B000AF87ED040BF860B9607A6056
:102A9800BB68D3E902017B68D3E90023FDF794FF03
:102AA8000346002B05D17B68D3E90023B968C1E947
:102AB8000223F868BB681033502219460DF0C0F99C
:102AC800F968D7E90423C1E91423FB6803F1580026
:102AD800BB681033482219460DF0B2F9BB6803F100
:102AE8001000FB685033502219460DF0A9F900BFB9
:102AF8001837BD4680BD000080B58CB002AF786045
:102B08007B6800221A727B6801225A607B68103346
:102B1800BB6100237B741A4BFB611A4B3B62012398
:102B2800BB74002387F82430022387F82530092353
:102B3800FB6009233B7407F10C000823009304236E
:102B480001220421FFF776FA02467B68DA607B6887
:102B5800DB6802211846FFF7E1FB7B68DB68184653
:102B6800FFF7F6FA7B68DB6801211846FFF739FAA8
:102B78007B6801221A7200BF2837BD4680BD00BF9E
:102B8800000104500000024080B5A6B000AF786094
:102B98001A4BBB6000233B7300237B7307F10803C8
:102BA8001846FEF7F3FC02467B68DA607B68DB6850
:102BB80000211846FEF7A5F97B68DB680221184654
:102BC800FEF7D4FA7B68DB6802211846FEF76EFB35
:102BD8007B68DB681846FFF71BFE034687F89730CB
:102BE80097F89730002B05D17B68DB6800211846E1
:102BF800FFF726FE00BF9837BD4680BD00040040A1
:102C080080B5A6B000AF78601A4BBB6000233B7359
:102C180000237B7307F108031846FEF7B7FC02464A
:102C28007B68DA607B68DB6800211846FEF769F983
:102C38007B68DB6802211846FEF7D8FB7B68DB68F7
:102C480002211846FEF77AFC7B68DB681846FFF716
:102C5800DFFD034687F8973097F89730002B05D1AA
:102C68007B68DB6800211846FFF7EAFD00BF98374C
:102C7800BD4680BD00040040B0B5B2B000AF00232F
:102C8800C7F89C3010E0964AD7F89C301A440023C5
:102C980013709449D7F89C20002321F81230D7F8F4
:102CA8009C300133C7F89C30D7F89C30072BEADDFD
:102CB8008D4A002313608D4A002313608C4BDB6818
:102CC8008C4A04211846FFF758FA8A4BDB898A4A4E
:102CD8001380884B1B88884AD381864B9B89864AF8
:102CE8005380844B5B88844A9381824B5B89824AF8
:102CF8009380804B9B88804A53817E4B1B897E4AF8
:102D0800D3807C4BDB887C4A13810023C7F89C3036
:102D180011E0794AD7F89C3032F813007649D7F891
:102D28009C3003F10802034621F81230D7F89C3092
:102D38000133C7F89C30D7F89C30072BE9DD6E4B80
:102D48001B8A1846FDF75EFB04460D466B4A6C4924
:102D58006C4845EC104BFFF72CFE674B03F5D2632C
:102D6800D3E900236449C1E90A230023C7F89C304A
:102D78001EE0D7F89C3001335F4AD233DB0013449E
:102D8800D3E90023C7E924235B4BD3E90A23D7E916
:102D98002401FDF741FE0346002B04D05649D7E92C
:102DA8002423C1E90A23D7F89C300133C7F89C30A3
:102DB800D7F89C30172BDCDD4F4B5B8A1846FDF7A4
:102DC80021FB04460D46504A5049514845EC104BEA
:102DD800FFF756FE484B03F54D63D3E900234649F8
:102DE800C1E90C230023C7F89C301FE0D7F89C30BA
:102DF8000133414A03F5CD73DB001344D3E90023C3
:102E0800C7E924233C4BD3E90C23D7E92401FDF778
:102E180003FE0346002B04D03749D7E92423C1E930
:102E28000C23D7F89C300133C7F89C30D7F89C3076
:102E3800082BDBDD304B93ED0C7B364A364937489F
:102E4800B0EE470AF0EE670AFFF7B3FD2A4B03F529
:102E58007A63D3E900232849C1E90E230023C7F880
:102E68009C301FE0D7F89C300133234A03F5FA73EE
:102E7800DB001344D3E90023C7E924231E4BD3E91D
:102E88000E23D7E92401FDF7A9FD0346002B04D042
:102E98001949D7E92423C1E90E23D7F89C30013317
:102EA800C7F89C30D7F89C30172BDBDD124B9B8A78
:102EB8001846FDF7A7FA04460D46194A19491A4853
:102EC80045EC104BFFF775FD0B4B03F50263D3E997
:102ED80000230949C1E90C230023C7F89C3045E0C9
:102EE800B0030020640300205C030020600300207E
:102EF800E814002074030020B803002060000020BC
:102F0800E8180020480A002080000020681C0020E3
:102F18008810002098000020181E00205813002058
:102F280068000020C8190020D80B0020D7F89C3072
:102F38000133A84A03F58273DB001344D3E9002365
:102F4800C7E92423A34BD3E90C23D7E92401FDF7D0
:102F580063FD0346002B04D09E49D7E92423C1E929
:102F68000C23D7F89C300133C7F89C30D7F89C3035
:102F7800172BDBDD974BDB8A1846FDF743FA04462F
:102F88000D46954A9549964845EC104BFFF711FDBB
:102F9800904B03F5A063D3E90023C7E9302300234E
:102FA800C7F89C301CE0D7F89C300133894AA0331D
:102FB800DB001344D3E90023C7E92423D7E92423FA
:102FC800D7E93001FDF70AFD0346002B03D0D7E906
:102FD8002423C7E93023D7F89C300133C7F89C3045
:102FE800D7F89C30172BDEDD7A4B1B8B1846FDF784
:102FF80009FA04460D467B4A7B497C4845EC104B50
:10300800FFF7D7FC734BD3E9DC23C7E92E23002352
:10301800C7F89C301CE0D7F89C3001336D4A6E33FA
:10302800DB001344D3E90023C7E92423D7E9242389
:10303800D7E92E01FDF7D2FC0346002B03D0D7E9D0
:103048002423C7E92E23D7F89C300133C7F89C30D6
:10305800D7F89C30172BDEDD5E4B5B8B1846FDF7EF
:10306800D1F904460D46624A6249634845EC104B63
:10307800FFF79FFC574BD3E97823C7E92C2300239C
:10308800C7F89C301CE0D7F89C300133514A3C33D8
:10309800DB001344D3E90023C7E92423D7E9242319
:1030A800D7E92C01FDF79AFC0346002B03D0D7E99A
:1030B8002423C7E92C23D7F89C300133C7F89C3068
:1030C800D7F89C30172BDEDD424B9B8B1846FDF75B
:1030D80099F904460D46494A49494A4845EC104B76
:1030E800FFF7CEFC3B4B03F55763D3E90023C7E951
:1030F8002A230023C7F89C301DE0D7F89C30013301
:10310800344A03F5D773DB001344D3E90023C7E936
:103118002423D7E92423D7E92A01FDF75FFC0346D6
:10312800002B03D0D7E92423C7E92A23D7F89C30FA
:103138000133C7F89C30D7F89C30082BDDDD324AC4
:103148003249334897ED2A0BFFF733FC214B03F53F
:103158006163D3E90023C7E928230023C7F89C301B
:103168001DE0D7F89C3001331A4A03F5E173DB0000
:103178001344D3E90023C7E92423D7E92423D7E953
:103188002801FDF749FC0346002B03D0D7E9242387
:10319800C7E92823D7F89C300133C7F89C30D7F803
:1031A8009C30172BDDDD0B4BDB8B1846FDF72AF91E
:1031B80004460D46174A1849184845EC104BFFF7C6
:1031C800F8FB044BD3E91423C7E92A230023C7F8E3
:1031D8009C3042E0B8030020580000200818002066
:1031E800B8080020500000202817002028070020D9
:1031F800480000204816002098050020880000207C
:10320800D01C00202811002090000020381D00202C
:10321800C811002040000020681500200804002084
:10322800D7F89C300133B64A0A33DB001344D3E99C
:103238000023C7E92423D7E92423D7E92A01FDF786
:10324800CDFB0346002B03D0D7E92423C7E92A2363
:10325800D7F89C300133C7F89C30D7F89C30172B2F
:10326800DEDDA74B93ED0A7BB0EE470AF0EE670A66
:103278000CF0EAFBB0EE407AF0EE607A9FED9E1B10
:10328800B0EE470AF0EE670A0CF0A8FB87ED240BB6
:103298004FF000024FF00003D7E92401FDF79EFB31
:1032A8000346002B10D0D7F89030BB67D7F894307E
:1032B80083F00043FB67D7E91E01FDF7CDFB03460A
:1032C8009BB25B429BB205E0D7E92401FDF7C4FB42
:1032D80003469BB28B4A1380894B93ED0E7BB0EE6D
:1032E800470AF0EE670A0CF0AFFBB0EE407AF0EE5A
:1032F800607A9FED811BB0EE470AF0EE670A0CF08A
:103308006DFB87ED240B4FF000024FF00003D7E967
:103318002401FDF763FB0346002B10D0D7F890304B
:103328003B67D7F8943083F000437B67D7E91C01EB
:10333800FDF792FB03469BB25B429BB205E0D7E9DF
:103348002401FDF789FB03469BB26E4A53806C4B00
:1033580093ED0C7BB0EE470AF0EE670A0CF074FBB5
:10336800B0EE407AF0EE607A9FED631BB0EE470A4C
:10337800F0EE670A0CF032FB87ED240B4FF00002E9
:103388004FF00003D7E92401FDF728FB0346002B83
:1033980010D0D7F89030BB66D7F8943083F000434C
:1033A800FB66D7E91A01FDF757FB03469BB25B4260
:1033B8009BB205E0D7E92401FDF74EFB03469BB21B
:1033C800504A938097ED300B0CF03EFBB0EE407AFC
:1033D800F0EE607A9FED481BB0EE470AF0EE670A00
:1033E8000CF0FCFA87ED240B4FF000024FF00003BD
:1033F800D7E92401FDF7F2FA0346002B10D0D7F8DD
:1034080090303B66D7F8943083F000437B66D7E969
:103418001801FDF721FB03469BB25B429BB205E016
:10342800D7E92401FDF718FB03469BB2354AD38040
:1034380097ED2E0B0CF008FBB0EE407AF0EE607AB8
:103448009FED2D1BB0EE470AF0EE670A0CF0C6FAA6
:1034580087ED240B4FF000024FF00003D7E9240159
:10346800FDF7BCFA0346002B10D0D7F89030BB65A7
:10347800D7F8943083F00043FB65D7E91601FDF7D0
:10348800EBFA03469BB25B429BB205E0D7E9240105
:10349800FDF7E2FA03469BB21A4A138197ED2C0B0B
:1034A8000CF0D2FAB0EE407AF0EE607A9FED121B83
:1034B800B0EE470AF0EE670A0CF090FA87ED240B9D
:1034C8004FF000024FF00003D7E92401FDF786FA18
:1034D8000346002B18D0D7F890303B65D7F89430C6
:1034E80083F000437B65D7E91401FDF7B5FA03467D
:1034F8009BB25B429BB20DE0000000000000F04070
:10350800B803002088030020D7E92401FDF7A4FAB6
:1035180003469BB2A24A538197ED280B0CF094FA0C
:10352800B0EE407AF0EE607A9FED9B1BB0EE470A52
:10353800F0EE670A0CF052FA87ED240B4FF0000208
:103548004FF00003D7E92401FDF748FA0346002BA2
:1035580010D0D7F89030BB64D7F8943083F000438C
:10356800FB64D7E91201FDF777FA03469BB25B4289
:103578009BB205E0D7E92401FDF76EFA03469BB23A
:10358800874A938197ED2A0B0CF05EFAB0EE407AE9
:10359800F0EE607A9FED801BB0EE470AF0EE670A06
:1035A8000CF01CFA87ED240B4FF000024FF00003DB
:1035B800D7E92401FDF712FA0346002B10D0D7F8FB
:1035C80090303B64D7F8943083F000437B64D7E9AC
:1035D8001001FDF741FA03469BB25B429BB205E03E
:1035E800D7E92401FDF738FA03469BB26C4AD38128
:1035F8006C4B5B8D6A4A13826B4B03F5D263D3E93C
:1036080000236949C1E90E230023C7F89C301EE056
:10361800D7F89C300133644AD233DB001344D3E932
:103628000023C7E92423604BD3E90E23D7E92401FB
:10363800FDF7D4F90346002B04D05B49D7E92423CE
:10364800C1E90E23D7F89C300133C7F89C30D7F86E
:103658009C30172BDCDD544B5B8A1846FCF7D2FEF6
:1036680004460D46514A5249524845EC104BFFF763
:10367800A0F94D4B03F53463D3E90023C7E92823A8
:103688000023C7F89C301DE0D7F89C300133464A28
:1036980003F5B473DB001344D3E90023C7E92423FB
:1036A800D7E92423D7E92801FDF7B6F90346002B0B
:1036B80003D0D7E92423C7E92823D7F89C3001335E
:1036C800C7F89C30D7F89C30172BDDDD364B03F557
:1036D8000263D3E900233449C1E90C230023C7F866
:1036E8009C301FE0D7F89C3001332F4A03F58273D2
:1036F800DB001344D3E90023C7E924232A4BD3E989
:103708000C23D7E92401FDF769F90346002B04D0FF
:103718002549D7E92423C1E90C23D7F89C30013384
:10372800C7F89C30D7F89C30172BDBDD1E4B03F510
:10373800A063D3E90023C7E930230023C7F89C30EE
:103748001CE0D7F89C300133174AA033DB00134440
:10375800D3E90023C7E92423D7E92423D7E9300193
:10376800FDF75AF90346002B03D0D7E92423C7E90C
:103778003023D7F89C300133C7F89C30D7F89C30F9
:10378800172BDEDD084BD3E9DC23C7E92E23002302
:10379800C7F89C302DE000BF000000000000F0409A
:1037A8008803002000000020B803002078000020D3
:1037B800881B0020F80E0020D7F89C300133AC4A53
:1037C8006E33DB001344D3E90023C7E92423D7E988
:1037D8002423D7E92E01FDF71FF90346002B03D058
:1037E800D7E92423C7E92E23D7F89C300133C7F83B
:1037F8009C30D7F89C30172BDEDD9D4BD3E978231E
:10380800C7E92C230023C7F89C301CE0D7F89C306C
:103818000133974A3C33DB001344D3E90023C7E95B
:103828002423D7E92423D7E92C01FDF7F5F803462B
:10383800002B03D0D7E92423C7E92C23D7F89C30E1
:103848000133C7F89C30D7F89C30172BDEDD884B46
:103858009B8B1846FCF7D6FD04460D46854A8649DB
:10386800864845EC104BFFF7A4F8814B03F51B6322
:10387800D3E90023C7E92A230023C7F89C301DE0B9
:10388800D7F89C3001337A4A03F59B73DB00134465
:10389800D3E90023C7E92423D7E92423D7E92A0158
:1038A800FDF7BAF80346002B03D0D7E92423C7E96C
:1038B8002A23D7F89C300133C7F89C30D7F89C30BE
:1038C800172BDDDD6A4BD3E914236949C1E90A23C3
:1038D8000023C7F89C301EE0D7F89C300133644AB7
:1038E8000A33DB001344D3E90023C7E92423604BE0
:1038F800D3E90A23D7E92401FDF770F80346002B22
:1039080004D05B49D7E92423C1E90A23D7F89C30BE
:103918000133C7F89C30D7F89C30172BDCDD544BAB
:1039280093ED0E7BB0EE470AF0EE670A0CF08CF8C8
:10393800B0EE407AF0EE607A9FED4B1BB0EE470A8E
:10394800F0EE670A0CF04AF887ED240B4FF00002FE
:103958004FF00003D7E92401FDF740F80346002B98
:1039680010D0D7F89030BB63D7F8943083F0004379
:10397800FB63D7E90E01FDF76FF803469BB25B4284
:103988009BB205E0D7E92401FDF766F803469BB230
:103998003B4A138097ED280B0CF056F8B0EE407AAE
:1039A800F0EE607A9FED301BB0EE470AF0EE670A42
:1039B8000CF014F887ED240B4FF000024FF00003D1
:1039C800D7E92401FDF70AF80346002B10D0D7F8F1
:1039D80090303B63D7F8943083F000437B63D7E99A
:1039E8000C01FDF739F803469BB25B429BB205E038
:1039F800D7E92401FDF730F803469BB2204A5380EB
:103A08001B4B93ED0C7BB0EE470AF0EE670A0CF007
:103A18001BF8B0EE407AF0EE607A9FED131BB0EE23
:103A2800470AF0EE670A0BF0D9FF87ED240B4FF039
:103A380000024FF00003D7E92401FCF7CFFF03464B
:103A4800002B1FD0D7F89030BB62D7F8943083F0A2
:103A58000043FB62D7E90A01FCF7FEFF03469BB26D
:103A68005B429BB214E000BF000000000000F04081
:103A7800B803002070000020A81A0020680D00205C
:103A88009C030020D7E92401FCF7E6FF03469BB21C
:103A9800AD4A938097ED300B0BF0D6FFB0EE407A2D
:103AA800F0EE607A9FEDA61BB0EE470AF0EE670ACB
:103AB8000BF094FF87ED240B4FF000024FF000034A
:103AC800D7E92401FCF78AFF0346002B10D0D7F86A
:103AD80090303B62D7F8943083F000437B62D7E99B
:103AE8000801FCF7B9FF03469BB25B429BB205E0B5
:103AF800D7E92401FCF7B0FF03469BB2924AD38072
:103B080097ED2E0B0BF0A0FFB0EE407AF0EE607A46
:103B18009FED8B1BB0EE470AF0EE670A0BF05EFFD5
:103B280087ED240B4FF000024FF00003D7E9240182
:103B3800FCF754FF0346002B10D0D7F89030BB6138
:103B4800D7F8943083F00043FB61D7E90601FCF70E
:103B580083FF03469BB25B429BB205E0D7E9240191
:103B6800FCF77AFF03469BB2774A138197ED2C0B3B
:103B78000BF06AFFB0EE407AF0EE607A9FED701BB2
:103B8800B0EE470AF0EE670A0BF028FF87ED240B2A
:103B98004FF000024FF00003D7E92401FCF71EFFA5
:103BA8000346002B10D0D7F890303B61D7F89430FB
:103BB80083F000437B61D7E90401FCF74DFF03461E
:103BC8009BB25B429BB205E0D7E92401FCF744FFB6
:103BD80003469BB25C4A538197ED2A0B0BF034FFE6
:103BE800B0EE407AF0EE607A9FED551BB0EE470AD2
:103BF800F0EE670A0BF0F2FE87ED240B4FF000029F
:103C08004FF00003D7E92401FCF7E8FE0346002B38
:103C180010D0D7F89030BB60D7F8943083F00043C9
:103C2800FB60D7E90201FCF717FF03469BB25B4232
:103C38009BB205E0D7E92401FCF70EFF03469BB2CF
:103C4800414A9381414B93ED0A7BB0EE470AF0EE6F
:103C5800670A0BF0F9FEB0EE407AF0EE607A9FED5D
:103C6800381BB0EE470AF0EE670A0BF0B7FE87ED97
:103C7800240B4FF000024FF00003D7E92401FCF7B2
:103C8800ADFE0346002B10D0D7F890303B60D7F834
:103C9800943083F000437B60D7E90001FCF7DCFE39
:103CA80003469BB25B429BB205E0D7E92401FCF7CF
:103CB800D3FE03469BB2244AD381254B9A8D224BCF
:103CC8001A82224B234A1A62214BD3E900014FF092
:103CD80000024FF00003FCF777FE0346002B04D1E7
:103CE8004FF40073C7F89C3002E00023C7F89C30FB
:103CF800164B1B6AD7F89C2011461846FEF777FC2E
:103D0800124B1A6AD7F89C30DB4303F40073194648
:103D18001046FEF77AFC0D4B0E4A1A620C4BD3E99B
:103D280000014FF000024FF00003FCF74DFE034680
:103D3800002B11D14FF48043C7F89C300FE000BF2F
:103D4800000000000000F0409C030020B8030020A1
:103D580000000020001000480023C7F89C30B34B37
:103D68001B6AD7F89C2011461846FEF740FCAF4B5B
:103D78001A6AD7F89C30DB4303F48043194610468F
:103D8800FEF743FCA94BAA4A1A62A84B1B6A0021FA
:103D98001846FEF72CFCA54B1B6A4FF48071184699
:103DA800FEF733FCA14BA24A1A62A04B1B6A002102
:103DB8001846FEF71CFC9D4B1B6A4FF40041184641
:103DC800FEF723FC994B9A4A1A62984B1B6A00210A
:103DD8001846FEF70CFC954B1B6A4FF480511846A9
:103DE800FEF713FC914B934A1A62904B1B6A002111
:103DF8001846FEF7FCFB8D4B1B6A4FF480511846A2
:103E0800FEF703FC894B8A4A1A62884B1B6A002119
:103E18001846FEF7ECFB854B1B6A4FF40051184619
:103E2800FEF7F3FB814B824A1A62804B1B6A002122
:103E38001846FEF7DCFB7D4B1B6A4FF40061184601
:103E4800FEF7E3FB7B48FEF7C6FBC7F88C00784813
:103E5800FEF7C1FBC7F88800774B93F87D303E2BFF
:103E680007D8754B93F87D300133DAB2724B83F87B
:103E78007D20714B93F8783003F02003DBB2002BE0
:103E88000FD16D4A92F8783043F0200382F87830E9
:103E9800694A92F87830022161F3C40382F87830D5
:103EA8008AE1654B93F8783003F01803DBB2082BEE
:103EB80040F02381D7F88C3003F00403002B33D172
:103EC8005D4B93F87830C3F30203DBB2062B02D0C4
:103ED800072B0CD017E0554B002283F84720564A91
:103EE80092F878306FF3020382F8783013E04F4B82
:103EF800002283F84820504A92F878306FF3020382
:103F080082F8783007E04C4A92F878306FF3020371
:103F180082F8783000BF484A92F87830022161F37D
:103F2800C40382F8783047E1434B93F87830C3F301
:103F38000203DBB2013B052B00F2C48001A252F858
:103F480023F000BF653F00088F3F0008BB41000811
:103F5800BB410008BB41000897400008364B0022CF
:103F680083F87D20344A92F87830022161F3020305
:103F780082F878302D4B5A2283F845202B4B5A2251
:103F880083F8442018E12C4BD3E91A012A4BD3E9D2
:103F98001623FCF741FD0346002B4FD0264BD3E9EF
:103FA8001C01254BD3E91823FCF736FD0346002BEB
:103FB80044D0214A92F87830032161F3020382F851
:103FC80078301A4B012283F84720184B012283F8D6
:103FD8004820164B93F945300F3BC7F89C30134BDC
:103FE80093F9453013F1710F03DA6FF07F03C7F8C7
:103FF8009C30D7F89C305AB20C4B83F845200B4BB9
:1040080093F944300F3BC7F89C30084B93F9443080
:1040180013F1710F03DA6FF07F03C7F89C30D7F8FC
:104028009C305AB2014B83F84420C4E0B803002006
:104038000010004800040048E8140020AD4B93F835
:104048007D30312B40F2B780AA4A92F878300121AE
:1040580061F3020382F87830A6494FF000024FF06E
:104068008043C1E91A23A3494FF00002A24BC1E9DA
:104078001623A0494FF000029F4BC1E91C239D491C
:104088004FF000024FF00003C1E9182393E09B4B67
:10409800012283F84720994B93F94430013BC7F834
:1040A8009C30964B93F9443013F1800F03D16FF095
:1040B8007F03C7F89C30D7F89C305AB28F4B83F8EF
:1040C800442079E08D4B012283F848208B4B93F9EB
:1040D8004530013BC7F89C30884B93F9453013F1C4
:1040E800800F03D16FF07F03C7F89C30D7F89C305E
:1040F8005AB2824B83F845205EE0D7F8883003F047
:104108004003002B28D17B4A92F87830012161F3D3
:10411800C40382F87830794B012283F84720774B23
:10412800012283F84620754B012283F84820714B01
:10413800002283F87D206F4A92F87830022161F3DB
:10414800020382F878306D4B5A2283F845206B4B76
:104158005A2283F844202FE0684B93F84730002B0D
:104168000CBF01230023DBB21A46644B83F84720B7
:10417800624B93F84630002B0CBF01230023DBB2BF
:104188001A465E4B83F846205C4B93F84830002B68
:104198000CBF01230023DBB21A46584B83F8482092
:1041A800564B002283F84420544B002283F84520C4
:1041B80002E000BF00E000BF504B93F94530002BF0
:1041C80006DD4E4B93F945204C4B83F8412005E022
:1041D8004A4B93F94520494B83F84020454B1B6CCB
:1041E800464A92F9412007EE902AF8EEE77AB0EEB7
:1041F800670A1846FEF7BCFA3E4B1B6C3F4A92F919
:10420800402007EE902AF8EEE77AB0EE670A1846E3
:10421800FEF7C2FA374B93F87C3087F88730374B74
:1042280093F94430002B04DD324B002283F87C20C4
:1042380003E0304B012283F87C202E4B93F97C302D
:1042480097F987209A4214D097F98730002B02D02B
:10425800012B07D00DE02A4B93F93520274B83F823
:10426800432006E0264B93F93620244B83F842205E
:1042780000BF204B93F97C30002B06D11F4B93F9DC
:1042880044201E4B83F8432005E01C4B93F944203F
:104298001A4B83F84220174B1B6D184A92F943209A
:1042A80007EE902AF8EEE77AB0EE670A1846FEF7AE
:1042B80087FA104B1B6D114A92F9422007EE902A9B
:1042C800F8EEE77AB0EE670A1846FEF78DFA0B4B60
:1042D8000C4A1A620A4BD3E902014FF000024FF070
:1042E8000003FCF771FB0346002B0DD18023C7F8B0
:1042F8009C300CE0E81400200000F03FB8030020D8
:1043080000000020000C00480023C7F89C30654BD3
:104318001B6AD7F89C2011461846FEF768F9614BCE
:104328001A6AD7F89C30DB4303F08003194610461D
:10433800FEF76BF95B4B5C4A1A625A4B93F84730AD
:10434800002B04D04FF40053C7F89C3002E0002340
:10435800C7F89C30534B1B6AD7F89C201146184667
:10436800FEF745F94F4B1A6AD7F89C30DB4303F444
:10437800005319461046FEF748F94A4B4A4A1A6252
:10438800484B93F84630002B04D04FF48043C7F8CD
:104398009C3002E00023C7F89C30424B1B6AD7F8D8
:1043A8009C2011461846FEF722F93E4B1A6AD7F8A8
:1043B8009C30DB4303F4804319461046FEF725F989
:1043C800384B394A1A62374B93F84830002B04D0DF
:1043D8004FF40043C7F89C3002E00023C7F89C3034
:1043E800304B1B6AD7F89C2011461846FEF7FFF899
:1043F8002C4B1A6AD7F89C30DB4303F40043194668
:104408001046FEF702F9274B284A1A62284BD3E9CF
:1044180004014FF000024FF00003FCF7D5FA034601
:10442800002B03D10823C7F89C3002E00023C7F80B
:104438009C301C4B1B6AD7F89C2011461846FEF787
:10444800D6F8184B1A6AD7F89C30DB4303F00803F8
:1044580019461046FEF7D9F800F046FB00F05AFC62
:10446800144BD3F810210132C3F81021D3F81031BE
:104478001846FBF7C7FF0F4BD3E946230D4CD4F87A
:104488002841FCF739F802460B46C4E90023094BDA
:10449800D3F820210132C3F8202100BFC837BD4618
:1044A800B0BD00BFB8030020000800480004004861
:1044B80000000020F81E002080B582B000AF844BB9
:1044C800834A03F59273D360814B814A03F5947351
:1044D800C2F884307E4B7E4A03F58C7393627C4A23
:1044E8007B4BC3F8D0207A4B794A9A60784BDB68CB
:1044F80001221A70764B002283F8FC20744B0022AC
:1045080083F80C21724B734A5A61714B704A03F558
:104518009873C2F828316E496BA3D3E90023C1E927
:10452800462300237B6010E06B4B93F834106B4AF2
:104538007B6813440A461A70674B198D684A7B6872
:1045480022F813107B6801337B607B68072BEBDD57
:10455800614B9B69634A13605F4BDB69624A136076
:1045680000237B6014E05C4BD98D604A7B6822F89D
:104578001310594B198E5E4A7B6822F81310564B5C
:10458800598E5C4A7B6822F813107B6801337B6084
:104598007B68082BE7DD584BFF2283F87C204E4BC5
:1045A8001B6A564A13604C4B5B6A554A13604A4B68
:1045B8001B6A524A5360484B5B6A514A5360464BE8
:1045C8001B6A4E4A9360444B5B6A4D4A936000F005
:1045D8001FFB414B93F937204A4B83F841203E4B50
:1045E80093F93820474B83F840203B4B93F935200B
:1045F800444B83F84320384B93F93620414B83F8DA
:1046080042203D4B00225A603B4B00221A703A4828
:10461800FEF772FA3C493D48FEF79FF93C493D4890
:10462800FEF702FA3C493D48FEF797F93C493D48F8
:10463800FEF793F93C493D48FEF78FF93C493D4860
:10464800FEF78BF93C493D48FEF787F93C493D4860
:10465800FEF7EAF93C493D48FEF77FF93C493D48F9
:10466800FEF77BF93C493D48FEF777F93C493D4860
:10467800FEF773F9204B002283F834201E4B0022EA
:1046880083F83C201C4B01229A633748FEF77CFADA
:10469800194B012283F83C20174B002283F8442051
:1046A800154B002283F84C20134B01229A642F48A3
:1046B800FEF7A6FA104B012283F84C2000BF0837FA
:1046C800BD4680BDAFF300809A9999999999B93FF1
:1046D800F81E002080FE000800000020B003002023
:1046E800640300205C0300206003002074030020A2
:1046F800880300209C030020E814002044030020C5
:1047080050030020B803002060000020E8180020B3
:1047180080000020681C002098000020181E00203F
:1047280068000020C8190020580000200818002040
:1047380050000020281700204800002048160020BC
:1047480088000020D01C002090000020381D002088
:10475800400000206815002078000020881B0020F9
:1047680070000020A81A00201C1500202C1500201D
:1047780080B500AF344B1B78002B11D1324B01228E
:104788001A70314B5B68012B0AD12F4B1B7A002B17
:1047980006D02D4BDB68012204211846FDF746FDA3
:1047A800294B93F83430002B23D1274B012283F86F
:1047B8003420254B9B6B012B1BD1234B93F83C30AA
:1047C800002B16D0204B1B6C1846FEF7B9F81E4B71
:1047D8001B6C00211846FCF72EFC1B4B1B6C02219E
:1047E8001846FCF713FD184B1B6C02211846FCF702
:1047F800ADFD154B93F84430002B23D1124B012209
:1048080083F84420104B9B6C012B1BD10E4B93F863
:104818004C30002B16D00C4B1B6D1846FEF790F849
:10482800094B1B6D00211846FCF705FC064B1B6D58
:1048380002211846FCF72EFE034B1B6D0221184679
:10484800FCF790FE00BF80BDE814002080B489B05A
:1048580000AFF860B9607A60FB68BB610023FB6158
:10486800BB689B087B611B4B1B68B3F5C87F2AD0CC
:104878000023FB6122E0174B1B6817497A6841F84F
:104888002320FB699B00BA691A44124B1B68126803
:10489800114903F5C87341F823200E4B1B680F4AD2
:1048A80012680D4903F5487341F82320094B1B682A
:1048B8000133084A1360FB690133FB61FA697B69BC
:1048C8009A42D8D300E000BF2437BD465DF8047B88
:1048D800704700BF38200020402000203C200020E6
:1048E80080B584B000AF786072B600BF00F060FC9D
:1048F8000346FB6007F10C037A6804211846FFF7AA
:10490800A5FF62B600BF00BF1037BD4680BD0000DE
:1049180080B500AF124B1B785A1CD1B2104A1170E7
:10492800002B09D00F4B01221A600D4B1B78013B5D
:10493800DAB20B4B1A7011E062B600BF02200BF01E
:1049480031F8FEF799F902200BF037F872B600BF7C
:10495800034B1B78013BDAB2014B1A7080BD00BFD4
:10496800043300200033002080B584B000AF7860A5
:104978003960374BFB60374BBB60374B00221A70EE
:10498800364B00221A7001DF06F026FB00F0E0FE2D
:1049980000F02EFF00F08EFF01F054FF01F072FBD3
:1049A80002F09EF901F0BEFF02F04AFA01F00EFD96
:1049B80002F00EFD02F066FC294B1B6800221A600B
:1049C80001200AF0EFFFFFF777FD01200AF0F5FF5D
:1049D80072B600BF97ED030A00F08AFC204B1B68F3
:1049E8001B68002B0CBF01230023DBB21A461B4BAC
:1049F8001A7062B600BF62B600BF15E0184B1B689C
:104A08001B68002B14BF01230023DBB21A46124B8C
:104A18001A70114B1B78DBB2002B05D0114B1B68A9
:104A2800104A23F0010313600C4B1B78DBB2002BF8
:104A3800E4D103200AF0B6FFFFF79AFE03200AF03C
:104A4800BCFF72B600BF002318461037BD4680BDB4
:104A5800CDCCCC3D0000A042053300200633002019
:104A6800F0FE000810E000E080B485B000AF034617
:104A7800FB80B7F90630002B02DBFB88FB8101E0E5
:104A8800FB88FB81B7F90E3018461437BD465DF830
:104A9800047B704780B588B004AF03460A46FB71B3
:104AA8001346BB71FB799BB25B009BB2013399B291
:104AB800BB799AB24FF0FF3302930223019307F1B7
:104AC8000C0300930123074806F078FE3B7B1B028A
:104AD8001AB27B7B1BB213431BB29BB2184610372A
:104AE800BD4680BD3033002080B500AF3B21692032
:104AF800FFF7D0FF03461846FFF7B6FF03461A46EE
:104B080013469B0013445B0007EE903AB8EEE77A31
:104B1800DFED3B6AC7EE267A3A4BC3ED007A3D21BA
:104B28006920FFF7B7FF03461846FFF79DFF0346C6
:104B38001A4613469B0013445B0007EE903AB8EE02
:104B4800E77ADFED2F6AC7EE267A2E4BC3ED017A9E
:104B58003F216920FFF79EFF03461846FFF784FFB1
:104B680003461A4613469B0013445B0007EE903A2F
:104B7800B8EEE77ADFED226AC7EE267A214BC3ED5D
:104B8800027A43216920FFF785FF03461846FFF79D
:104B98006BFF034607EE903AB8EEE77ADFED1A6A44
:104BA800C7EE267A194BC3ED007A45216920FFF735
:104BB80071FF03461846FFF757FF034607EE903A82
:104BC800B8EEE77ADFED106AC7EE267A0F4BC3ED31
:104BD800017A47216920FFF75DFF03461846FFF772
:104BE80043FF034607EE903AB8EEE77ADFED066A30
:104BF800C7EE267A054BC3ED027A00BF80BD00BF21
:104C080000008046440300200000034350030020B6
:104C180080B586B004AF0023FB714FF0FF330293D9
:104C280001230193FB1D009301236B22D2211D4810
:104C380006F0B0FC4FF0FF330293012301930723E2
:104C4800009301231922D221164806F0A3FC4FF045
:104C5800FF330293012301930023009301231C22B5
:104C6800D221104806F096FC4FF0FF33029301233F
:104C780001930023009301231B22D221094806F047
:104C880089FC4FF0FF33029301230193064B0093F5
:104C980001237522D321034806F090FD00BF083791
:104CA800BD4680BD303300200733002080B582B078
:104CB80000AF00237B600FE07B68432B08D07B6844
:104CC800052B05D07B685BB2184607F0E5FA00E0D3
:104CD80000BF7B6801337B607B68EF2BECD900BF9A
:104CE80000BF0837BD4680BD80B582B000AF002345
:104CF8007B6007E07B685BB2184607F0BFFA7B6809
:104D080001337B607B68EF2BF4D900BF00BF083705
:104D1800BD4680BD80B500AF4021AA4806F092FB91
:104D28000346002B14BF01230023DAB2A64B1A70E6
:104D38000421A64806F086FB0346002B14BF012376
:104D48000023DAB2A04B5A704FF40051A04806F085
:104D580079FB0346002B14BF01230023DAB29D4BD5
:104D68001A704FF480419A4806F06CFB0346002BFA
:104D780014BF01230023DAB2964B5A704FF4004156
:104D8800934806F05FFB0346002B14BF0123002362
:104D9800DAB2904B9A704FF480518C4806F052FB6F
:104DA8000346002B14BF01230023DAB28A4B1A7082
:104DB8004FF48071834806F045FB0346002B14BF6F
:104DC80001230023DAB2844B5A704FF400717D48F6
:104DD80006F038FB0346002B14BF01230023DAB288
:104DE8007D4B9A704FF48051764806F02BFB0346B2
:104DF800002B14BF01230023DAB2774BDA704FF48B
:104E08000061704806F01EFB0346002B14BF012307
:104E18000023DAB2704B1A714FF48041694806F0EA
:104E280011FB0346002B14BF01230023DAB26A4B9F
:104E38005A714FF40041634806F004FB0346002B07
:104E480014BF01230023DAB2634B9A714FF4005167
:104E58005C4806F0F7FA0346002B14BF0123002331
:104E6800DAB25D4BDA715D4B5B6B9AB25C4B1A80C0
:104E78005A4B9B6B9AB25A4B5A80584BDB6B9AB27F
:104E8800584B1A80554B1B6C9AB2564B5A80FFF7F9
:104E98000DFF08E04FF400714FF0904006F0D2FA91
:104EA8000346012B07D103214F4803F0C1F80346FD
:104EB800002BEFD10AE000BF08E04FF400714FF07B
:104EC800904006F0BFFA0346012B07D102213E4865
:104ED80003F0AEF80346002BEFD10AE000BF08E06C
:104EE8004FF400714FF0904006F0ACFA0346012BE6
:104EF80007D10321374803F09BF80346002BEFD175
:104F08000AE000BF08E04FF400714FF0904006F04F
:104F180099FA0346012B07D10C21344803F088F88D
:104F28000346002BEFD10AE000BF08E04FF4007100
:104F38004FF0904006F086FA0346012B07D10C216A
:104F48002B4803F075F80346002BEFD10AE000BFA9
:104F580008E04FF400714FF0904006F073FA0346F2
:104F6800012B07D11221234803F062F80346002BD6
:104F7800EFD10AE000BF08E04FF400714FF0904015
:104F880006F060FA0346012B07D112211A4803F0F4
:104F98004FF80346002BEFD10AE000BF08E04FF4BA
:104FA80000714FF0904006F04DFA0346012B07D1EF
:104FB8001221124803F03CF80346002BEFD128E0F9
:104FC80000BF26E000100048083300200004004815
:104FD800000800480C330020103300200004004073
:104FE800203300201C33002094FE000844030020D6
:104FF8005003002074030020880300209C03002035
:105008004FF400714FF0904006F01CFA0346012B54
:1050180007D10821514803F00BF80346002BEFD1C4
:105028000AE000BF08E04FF400714FF0904006F02E
:1050380009FA0346012B07D10421494802F0F8FF79
:105048000346002BEFD10AE000BF08E04FF40071DF
:105058004FF0904006F0F6F90346012B07D10421E2
:10506800404802F0E5FF0346002BEFD10AE000BFFD
:1050780008E04FF400714FF0904006F0E3F9034662
:10508800012B07D10421384802F0D2FF0346002B38
:10509800EFD10AE000BF08E04FF400714FF09040F4
:1050A80006F0D0F90346012B07D108212F4802F05A
:1050B800BFFF0346002BEFD10AE000BF08E04FF422
:1050C80000714FF0904006F0BDF90346012B07D15F
:1050D8001021274802F0ACFF0346002BEFD10AE06D
:1050E80000BF08E04FF400714FF0904006F0AAF9B5
:1050F8000346012B07D104211E4802F099FF0346FD
:10510800002BEFD10AE000BF08E04FF400714FF028
:10511800904006F097F90346012B07D10421164861
:1051280002F086FF0346002BEFD10AE000BF08E03B
:105138004FF400714FF0904006F084F90346012BBC
:1051480007D104210D4802F073FF0346002BEFD16D
:1051580000E000BFFFF7C8FD00BF80BD103300208E
:10516800183300201C33002020330020B003002017
:1051780064030020600300205C03002098FE000800
:1051880080B584B000AF786005F052FFF8607B68A6
:10519800BB6000BF05F04CFF0246FB68D31ABA6833
:1051A8009A42F7D800BF00BF1037BD4680BD000047
:1051B80010B50E4C82B0636A019305F039FF009078
:1051C800626A019B9A4207D3009B01984FF47A7256
:1051D80002FB030002B010BD05F02AFF636A4FF41A
:1051E8007A7202FB003002B010BD00BF002C0140F3
:1051F80080B483B000AF03463960FB7197F907307C
:10520800002B0ADB3B68DAB20C4997F90730120128
:10521800D2B20B4483F800230AE03B68DAB20849AB
:10522800FB7903F00F03043B1201D2B20B441A7648
:1052380000BF0C37BD465DF8047B704700E100E015
:1052480000ED00E080B582B000AF78607B68013B7C
:10525800B3F1807F01D301230FE00A4A7B68013B49
:1052680053600F214FF0FF30FFF7C2FF054B0022BC
:105278009A60044B07221A60002318460837BD4677
:1052880080BD00BF10E000E080B500AFBFF34F8FD6
:1052980000BFBFF36F8F00BF0B4B1A680B4B1B6827
:1052A8009A4202D3084B00221A60074B1B685A1C0B
:1052B80005490A60002B05D172B600BFFFF728FB2D
:1052C80062B600BF00BF80BD243300202833002011
:1052D80080B400AF054B5B68044A43F080535360C9
:1052E80000BFBD465DF8047B704700BF00ED00E0DD
:1052F80080B584B000AF87ED010A234B1B6807EE29
:10530800903AB8EE677AD7ED017A67EE277AFCEE25
:10531800E77A17EE903AFB60FB68B3F1807F18D309
:10532800FB6807EE903AB8EE677ADFED186AC7EEC9
:10533800267AFCEEE77A17EE903A0133144A1360A6
:10534800134B1B68FA68B2FBF3F31846FFF77AFFB2
:1053580005E00F4B00221A60F868FFF773FF0D4B4A
:1053680000221A600C4A0D4B1A600F216FF00400DE
:10537800FFF73EFF0F216FF00100FFF739FF00BF75
:105388001037BD4680BD00BF2C020020FFFF7F4BB9
:105398002833002024330020915200082C330020A9
:1053A800EFF3008001B5EFF3118003B41EF0100F86
:1053B80008BFB0EE400A0A48006803B488B004A0E9
:1053C80006904FF0807007906FF006008646704791
:1053D80003BC8047BFF36F8F00DFFEE700BF00000C
:1053E8002C3300201EF0100F08BFB0EE400A1EF04C
:1053F800040F0CBFEFF30880EFF30980816911F8FF
:10540800020C10B101280DD00BE01EF0100F0CBFDC
:105418001AB008B003BC80F3118803BC80F300887D
:105428000847FEE74EF61451CEF200010A6842F032
:1054380001020A607047F4E700BF00BF80B400AF04
:10544800054B1B68044A43F40023136000BFBD46A4
:105458005DF8047B704700BF0010024080B400AFC5
:10546800054B1B68044A43F48033136000BFBD46F4
:105478005DF8047B704700BF0010024080B400AFA5
:10548800074B1B6803F40033B3F5003F01D1012338
:1054980000E000231846BD465DF8047B704700BF56
:1054A8000010024080B483B000AF7860064B9B6860
:1054B80023F0030204497B6813438B6000BF0C3759
:1054C800BD465DF8047B70470010024080B400AF11
:1054D800044B9B6803F00C031846BD465DF8047B3B
:1054E800704700BF0010024080B483B000AF7860FE
:1054F800064B9B6823F0F00204497B6813438B60DA
:1055080000BF0C37BD465DF8047B704700100240B1
:1055180080B483B000AF7860064B9B6823F4E062E8
:1055280004497B6813438B6000BF0C37BD465DF8A8
:10553800047B70470010024080B483B000AF7860ED
:10554800064B9B6823F4605204497B6813438B60C5
:1055580000BF0C37BD465DF8047B70470010024061
:1055680080B400AF054B1B68044A43F08073136096
:1055780000BFBD465DF8047B704700BF00100240C5
:1055880080B400AF074B1B6803F00073B3F1007FD2
:1055980001D1012300E000231846BD465DF8047BD5
:1055A800704700BF0010024080B485B000AFF860BB
:1055B800B9607A603B600A4BDA680A4B1340F968B5
:1055C800BA6811437A68120211433A680A430449D7
:1055D8001343CB6000BF1437BD465DF8047B7047AA
:1055E800001002408C80FFF980B400AF054BDB68E7
:1055F800044A43F08073D36000BFBD465DF8047B66
:10560800704700BF0010024080B400AF054B1B6814
:10561800044A43F08063136000BFBD465DF8047B15
:10562800704700BF0010024080B400AF074B1B68F2
:1056380003F00063B3F1006F01D1012300E0002300
:105648001846BD465DF8047B704700BF0010024055
:1056580080B485B000AFF860B9607A603B600E4BEB
:10566800DB6823F07302F968BB680B430A491343EC
:10567800CB60094B1B6923F4C00323F4FE437A680B
:1056880011023A680A43044913430B6100BF1437F7
:10569800BD465DF8047B70470010024080B400AF3F
:1056A800054B1B69044A43F48013136100BFBD46D0
:1056B8005DF8047B704700BF0010024080B483B0DF
:1056C80000AF7860064B1B6823F0070204497B682B
:1056D80013430B6000BF0C37BD465DF8047B704771
:1056E8000020024080B400AF044B1B6803F007039E
:1056F8001846BD465DF8047B704700BF0020024095
:1057080080B483B000AF7860064B1B6823F4C06296
:1057180004497B6813430B6000BF0C37BD465DF836
:10572800047B70470070004080B400AF074B5B6992
:1057380003F48063B3F5806F01D1012300E00023F7
:105748001846BD465DF8047B704700BF00700040F6
:1057580080B500AF0420FFF7B1FF00BFFFF7C2FF1D
:105768000346042BFAD14FF40070FFF7C9FF00BFBE
:10577800FFF7DAFF0346002BFAD1FFF76FFE00BFF1
:10578800FFF77CFE0346012BFAD1FFF757FE0023F3
:10579800142200210320FFF707FFFFF725FFFFF77B
:1057A800DFFE00BFFFF7ECFE0346012BFAD1032012
:1057B800FFF778FE00BFFFF789FE03460C2BFAD1EE
:1057C8000020FFF791FE0020FFF7A2FE0020FFF760
:1057D800B3FE064802F03CFD0F2002F0CBFC034666
:1057E800002B01D000F02CF800BF80BD00B4C40429
:1057F80080B500AF00230C2200210320FFF728FF0B
:10580800FFF74CFFFFF700FF00BFFFF70DFF034650
:10581800012BFAD100BF00BF80BD000080B582B067
:1058280000AF78607B681B68044A934201D105F099
:10583800EBFB00BF0837BD4680BD00BF002C014010
:1058480080B400AF72B600BFFEE7000080B485B038
:1058580000AF7860084BDA6C07497B681343CB6468
:10586800054BDA6C7B681340FB60FB6800BF14379C
:10587800BD465DF8047B70470010024080B483B0D9
:1058880000AF786039607B683A689A6100BF0C376E
:10589800BD465DF8047B704780B483B000AF786084
:1058A80039607B683A689A6200BF0C37BD465DF87C
:1058B800047B704780B586B000AF3B4600221A6073
:1058C8005A609A60DA601A615A611020FFF7BEFFC9
:1058D8000420FFF7BBFF8020FFF7B8FF0120FFF788
:1058E800B5FF0220FFF7B2FF0820FFF7AFFF4FF424
:1058F80000516348FFF7C2FF4FF440416048FFF78B
:10590800CBFF4FF47B415F48FFF7C6FF41F2080128
:105918005D48FFF7C1FF80215C48FFF7BDFF40F2FB
:10592800BF433B6003237B6000233B613B46194632
:10593800544802F0E8FD40233B6000237B600123CC
:105948003B613B4619464F4802F0DDFD4FF460438A
:105958003B6001237B600023BB600023FB600023C6
:105968003B613B461946464802F0CDFD41F60F43E0
:105978003B6003237B6000233B613B46194640485C
:1059880002F0C1FD48F207533B6003237B6000230C
:105998003B613B4619464FF0904002F0B4FD0423AA
:1059A8003B6000237B6001233B613B461946364838
:1059B80002F0A9FD4FF47B433B6001237B60032386
:1059C800BB600023FB6000233B613B4619462D4822
:1059D80002F099FD4FF480533B6001237B60032361
:1059E800BB600023FB6000233B613B461946264809
:1059F80002F089FD4EF2D0333B6003237B60002325
:105A08003B613B461946204802F07DFD4FF61F7367
:105A18003B6003237B6000233B613B4619461B48E0
:105A280002F071FD80233B6001237B600023BB6093
:105A38000023FB6000233B613B461946134802F0F4
:105A480062FD08233B6001237B600023BB600023C9
:105A5800FB6000233B613B4619460B4802F053FDAF
:105A680020233B6000237B6000233B613B461946B3
:105A7800054802F048FD00BF1837BD4680BD00BF8D
:105A8800000800480010004800040048000C0048C6
:105A980080B400AF044BDB681B0A03F00703184609
:105AA800BD465DF8047B704700ED00E080B483B02C
:105AB80000AF0346FB7197F90730002B0BDBFB792E
:105AC80003F01F02074997F907305B09012000FA24
