:020000040800F2
:100000000080012039F600089B7D0008A17D0008D2
:10001000A77D0008AD7D0008B37D0008000000004A
:10002000000000000000000000000000E150000897
:10003000B97D0008000000009D500008CD4F000869
:1000400089F6000889F6000889F6000889F6000894
:1000500089F6000889F6000889F6000889F6000884
:1000600089F6000889F6000889F60008C77D0008AF
:10007000891F000889F6000889F6000889F600083B
:10008000D57D0008E37D0008F17D000889F60008B1
:1000900089F6000889F6000889F6000889F6000844
:1000A00089F60008017E000889F6000889F6000834
:1000B00089F6000889F6000889F6000889F6000824
:1000C00089F6000889F6000889F6000889F6000814
:1000D00089F6000889F6000889F6000889F6000804
:1000E00089F6000889F6000889F6000889F60008F4
:1000F00089F6000889F6000889F6000889F60008E4
:1001000089F6000889F6000889F6000889F60008D3
:1001100089F6000889F6000889F6000889F60008C3
:1001200089F6000889F6000889F6000889F60008B3
:1001300089F6000889F6000889F6000889F60008A3
:1001400089F6000889F6000889F60008157E00087F
:1001500089F6000889F6000889F6000889F6000883
:1001600089F6000889F6000889F6000889F6000873
:1001700089F6000889F6000889F6000800000000EA
:0801800089F6000889F6000869
:1001880081F0004102E000BF83F0004330B54FEA40
:1001980041044FEA430594EA050F08BF90EA020FAD
:1001A8001FBF54EA000C55EA020C7FEA645C7FEA40
:1001B800655C00F0E2804FEA5454D4EB5555B8BF63
:1001C8006D420CDD2C4480EA020281EA030382EAD4
:1001D800000083EA010180EA020281EA0303362D66
:1001E80088BF30BD11F0004F4FEA01314FF4801C39
:1001F8004CEA113102D0404261EB410113F0004F4B
:100208004FEA03334CEA133302D0524263EB430301
:1002180094EA050F00F0A780A4F10104D5F1200E9F
:100228000DDB02FA0EFC22FA05F2801841F10001FA
:1002380003FA0EF2801843FA05F359410EE0A5F1CE
:1002480020050EF1200E012A03FA0EFC28BF4CF0FF
:10025800020C43FA05F3C01851EBE37101F00045B5
:1002680007D54FF0000EDCF1000C7EEB00006EEBC2
:100278000101B1F5801F1BD3B1F5001F0CD349084C
:100288005FEA30004FEA3C0C04F101044FEA4452A3
:1002980012F5800F80F09A80BCF1004F08BF5FEA2A
:1002A800500C50F1000041EB045141EA050130BD0A
:1002B8005FEA4C0C404141EB0101013C28BFB1F51C
:1002C800801FE9D291F0000F04BF01460020B1FA67
:1002D80081F308BF2033A3F10B03B3F120020CDA3A
:1002E8000C3208DD02F1140CC2F10C0201FA0CF018
:1002F80021FA02F10CE002F11402D8BFC2F1200C7D
:1003080001FA02F120FA0CFCDCBF41EA0C01904032
:10031800E41AA2BF01EB0451294330BD6FEA04047B
:100328001F3C1CDA0C340EDC04F11404C4F1200266
:1003380020FA04F001FA02F340EA030021FA04F378
:1003480045EA030130BDC4F10C04C4F1200220FACF
:1003580002F001FA04F340EA0300294630BD21FA0D
:1003680004F0294630BD94F0000F83F4801306BFD3
:1003780081F480110134013D4EE77FEA645C18BFC7
:100388007FEA655C29D094EA050F08BF90EA020F5E
:1003980005D054EA000C04BF1946104630BD91EA56
:1003A800030F1EBF0021002030BD5FEA545C05D159
:1003B8004000494128BF41F0004130BD14F5800498
:1003C8003CBF01F5801130BD01F0004545F0FE410C
:1003D80041F470014FF0000030BD7FEA645C1ABF41
:1003E800194610467FEA655C1CBF0B46024650EA78
:1003F800013406BF52EA033591EA030F41F40021A4
:1004080030BD00BF90F0000F04BF0021704730B529
:100418004FF4806404F132044FF000054FF00001FE
:1004280050E700BF90F0000F04BF0021704730B5BF
:100438004FF4806404F1320410F0004548BF404294
:100448004FF000013EE700BF42004FEAE2014FEAE9
:1004580031014FEA02701FBF12F07F4393F07F4FC4
:1004680081F06051704732F07F4208BF704793F0C7
:100478007F4F04BF41F40021704730B54FF46074DA
:1004880001F0004521F000411CE700BF50EA0102DD
:1004980008BF704730B54FF000050AE050EA010286
:1004A80008BF704730B511F0004502D5404261EBF6
:1004B80041014FF4806404F132045FEA915C3FF437
:1004C800D8AE4FF003025FEADC0C18BF03325FEAD4
:1004D800DC0C18BF033202EBDC02C2F1200300FA85
:1004E80003FC20FA02F001FA03FE40EA0E0021FAAA
:1004F80002F11444BDE600BF70B54FF0FF0C4CF498
:10050800E06C1CEA11541DBF1CEA135594EA0C0F49
:1005180095EA0C0F00F0DEF82C4481EA030621EA84
:100528004C5123EA4C5350EA013518BF52EA0335BF
:1005380041F4801143F4801338D0A0FB02CE4FF071
:100548000005E1FB02E506F00042E0FB03E54FF0A1
:100558000006E1FB03569CF0000F18BF4EF0010E99
:10056800A4F1FF04B6F5007F64F5407404D25FEA95
:100578004E0E6D4146EB060642EAC62141EA555148
:100588004FEAC52040EA5E504FEACE2EB4F1FD0C8A
:1005980088BFBCF5E06F1ED8BEF1004F08BF5FEA08
:1005A800500E50F1000041EB045170BD06F00046BA
:1005B80046EA010140EA020081EA0301B4EB5C0467
:1005C800C2BFD4EB0C0541EA045170BD41F480115F
:1005D8004FF0000E013C00F3AB8014F1360FDEBF84
:1005E800002001F0004170BDC4F10004203C35DA60
:1005F8000C341BDC04F11404C4F1200500FA05F3E3
:1006080020FA04F001FA05F240EA020001F0004283
:1006180021F0004110EBD37021FA04F642EB0601F9
:100628005EEA430E08BF20EAD37070BDC4F10C0423
:10063800C4F1200500FA04F320FA05F001FA04F2E7
:1006480040EA020001F0004110EBD37041F10001D3
:100658005EEA430E08BF20EAD37070BDC4F12005DE
:1006680000FA05F24EEA020E20FA04F301FA05F246
:1006780043EA020321FA04F001F0004121FA04F2EE
:1006880020EA020000EBD3705EEA430E08BF20EABE
:10069800D37070BD94F0000F0FD101F000464000F8
:1006A80041EB010111F4801F08BF013CF7D041EA7A
:1006B800060195F0000F18BF704703F0004652007E
:1006C80043EB030313F4801F08BF013DF7D043EA4F
:1006D8000603704794EA0C0F0CEA135518BF95EA05
:1006E8000C0F0CD050EA410618BF52EA4306D1D18C
:1006F80081EA030101F000414FF0000070BD50EAAB
:10070800410606BF1046194652EA430619D094EA34
:100718000C0F02D150EA013613D195EA0C0F05D11E
:1007280052EA03361CBF104619460AD181EA030172
:1007380001F0004141F0FE4141F470014FF000002A
:1007480070BD41F0FE4141F4780170BD70B54FF0C5
:10075800FF0C4CF4E06C1CEA11541DBF1CEA135545
:1007680094EA0C0F95EA0C0F00F0A7F8A4EB050427
:1007780081EA030E52EA03354FEA013100F088801E
:100788004FEA03334FF0805545EA131343EA1263E7
:100798004FEA022245EA111545EA10654FEA00269C
:1007A8000EF000419D4208BF964244F1FD0404F555
:1007B800407402D25B084FEA3202B61A65EB0305B1
:1007C8005B084FEA32024FF480104FF4002CB6EB6E
:1007D800020E75EB030E22BFB61A754640EA0C00EE
:1007E8005B084FEA3202B6EB020E75EB030E22BF2E
:1007F800B61A754640EA5C005B084FEA3202B6EB6F
:10080800020E75EB030E22BFB61A754640EA9C002D
:100818005B084FEA3202B6EB020E75EB030E22BFFD
:10082800B61A754640EADC0055EA060E18D04FEABB
:10083800051545EA16754FEA06164FEAC30343EA5B
:1008480052734FEAC2025FEA1C1CC0D111F4801F28
:100858000BD141EA00014FF000004FF0004CB6E721
:1008680011F4801F04BF01430020B4F1FD0C88BFC0
:10087800BCF5E06F3FF6AFAEB5EB030C04BFB6EBCB
:10088800020C5FEA500C50F1000041EB045170BDBE
:100898000EF0004E4EEA113114EB5C04C2BFD4EBEB
:1008A8000C0541EA045170BD41F480114FF0000E6F
:1008B800013C90E645EA060E8DE60CEA135594EAEB
:1008C8000C0F08BF95EA0C0F3FF43BAF94EA0C0FEE
:1008D8000AD150EA01347FF434AF95EA0C0F7FF463
:1008E80025AF104619462CE795EA0C0F06D152EAB7
:1008F80003353FF4FDAE1046194622E750EA41069B
:1009080018BF52EA43067FF4C5AE50EA41047FF4AB
:100918000DAF52EA43057FF4EBAE12E74FF0FF3C10
:1009280006E000BF4FF0010C02E000BF4FF0010CE1
:100938004DF804CD4FEA410C7FEA6C5C4FEA430C5A
:1009480018BF7FEA6C5C1BD001B050EA410C0CBFA9
:1009580052EA430C91EA030F02BF90EA020F00200B
:10096800704710F1000F91EA030F58BF994208BF72
:1009780090422CBFD8176FEAE37040F0010070472F
:100988004FEA410C7FEA6C5C02D150EA013C07D186
:100998004FEA430C7FEA6C5CD6D152EA033CD3D0D1
:1009A8005DF8040B704700BF8446104662468C46CB
:1009B8001946634600E000BF01B5FFF7B7FF0028FE
:1009C80048BF10F1000F01BD4DF808EDFFF7F4FF27
:1009D8000CBF012000205DF808FB00BF4DF808EDB2
:1009E800FFF7EAFF34BF012000205DF808FB00BFD5
:1009F8004DF808EDFFF7E0FF94BF012000205DF8F7
:100A080008FB00BF4DF808EDFFF7CEFF94BF0120AB
:100A180000205DF808FB00BF4DF808EDFFF7C4FFA4
:100A280034BF012000205DF808FB00BF4FEA410CED
:100A38007FEA6C5C02D150EA013C0AD14FEA430CD0
:100A48007FEA6C5C02D152EA033C02D14FF000000D
:100A580070474FF0010070474A0011D212F500129A
:100A680011D20DD56FF47873B3EB62520ED44FEAFE
:100A7800C12343F0004343EA505323FA02F070477E
:100A88004FF00000704750EA013002D14FF0FF30BC
:100A980070474FF0000070470348044B834202D070
:100AA800034B03B1184770477802002078020020F2
:100AB800000000000548064B1B1AD90F01EBA301E3
:100AC800491002D0034B03B1184770477802002041
:100AD800780200200000000010B5064C237843B9C6
:100AE800FFF7DAFF044B13B10448AFF3008001238A
:100AF800237010BD78020020000000005CFB000895
:100B080008B5054B1BB105490548AFF30080BDE8A2
:100B18000840FFF7CFBF00BF000000007C020020A4
:100B28005CFB000880B485B000AF78607B681B6808
:100B380003F06003FB60FB68002B04D17B681B6833
:100B480003F01003FB60FB6818461437BD465DF8D8
:100B5800047B704780B483B000AF78607B681B6B00
:100B680018460C37BD465DF8047B704780B483B0E7
:100B780000AF786039607B681A6A3B681A437B6803
:100B88001A6200BF0C37BD465DF8047B704780B41D
:100B980083B000AF786039607B681A6A3B68DB43D2
:100BA8001A407B681A6200BF0C37BD465DF8047BAB
:100BB800704780B483B000AF78607B685B6C43F4A7
:100BC80000427B685A6400BF0C37BD465DF8047B61
:100BD800704780B483B000AF78607B68DB6843F00F
:100BE80001027B68DA6000BF0C37BD465DF8047B04
:100BF800704780B483B000AF78607B68DB6823F00F
:100C080001027B68DA6000BF0C37BD465DF8047BE3
:100C1800704780B483B000AF78607B68DB6803F00E
:100C28000103012B01D1012300E0002318460C37F2
:100C3800BD465DF8047B704780B483B000AF786030
:100C48007B68DB6843F002027B68DA6000BF0C3720
:100C5800BD465DF8047B704780B483B000AF786010
:100C68007B68DB6823F002027B68DA6000BF0C3720
:100C7800BD465DF8047B704780B483B000AF7860F0
:100C88007B68DB6803F00203022B01D1012300E03B
:100C9800002318460C37BD465DF8047B704780B4C6
:100CA80083B000AF78607B68DB6843F004027B6840
:100CB800DA6000BF0C37BD465DF8047B704780B42E
:100CC80083B000AF78607B68DB6823F004027B6840
:100CD800DA6000BF0C37BD465DF8047B704780B40E
:100CE80083B000AF78607B68DB6803F00403042BF3
:100CF80001D1012300E0002318460C37BD465DF8FA
:100D0800047B704780B483B000AF78607B68DB6891
:100D180043F008027B68DA6000BF0C37BD465DF817
:100D2800047B704780B483B000AF78607B68DB6871
:100D380023F008027B68DA6000BF0C37BD465DF817
:100D4800047B704780B483B000AF78607B68DB6851
:100D580003F00803082B01D1012300E00023184603
:100D68000C37BD465DF8047B704780B483B000AF94
:100D780078607B68DB6843F010027B68DA6000BF4C
:100D88000C37BD465DF8047B704780B483B000AF74
:100D980078607B68DB6823F010027B68DA6000BF4C
:100DA8000C37BD465DF8047B704780B483B000AF54
:100DB80078607B68DB6803F01003102B01D10123F6
:100DC80000E0002318460C37BD465DF8047B7047E9
:100DD80080B483B000AF78607B68DB6843F02002A2
:100DE8007B68DA6000BF0C37BD465DF8047B70474E
:100DF80080B483B000AF78607B68DB6823F02002A2
:100E08007B68DA6000BF0C37BD465DF8047B70472D
:100E180080B483B000AF78607B68DB6803F02003A0
:100E2800202B01D1012300E0002318460C37BD46D2
:100E38005DF8047B704780B483B000AF78607B684E
:100E4800DB6843F040027B68DA6000BF0C37BD46C0
:100E58005DF8047B704780B483B000AF78607B682E
:100E6800DB6823F040027B68DA6000BF0C37BD46C0
:100E78005DF8047B704780B483B000AF78607B680E
:100E8800DB6803F04003402B01D1012300E000237D
:100E980018460C37BD465DF8047B704780B483B0B4
:100EA80000AF78607B68DB6843F080027B68DA60BB
:100EB80000BF0C37BD465DF8047B704780B483B033
:100EC80000AF78607B68DB6823F080027B68DA60BB
:100ED80000BF0C37BD465DF8047B704780B483B013
:100EE80000AF78607B68DB6803F08003802B01D15A
:100EF800012300E0002318460C37BD465DF8047B4B
:100F0800704780B582B000AF78600B467B807B88E5
:100F180003F00103002B0CD07B681B681846FFF711
:100F2800AAFF0346012B04D07B681B681846FFF70D
:100F380082FF7B8803F00203002B0CD07B681B68C0
:100F48001846FFF799FE0346012B04D07B681B68FF
:100F58001846FFF771FE7B8803F00403002B0CD0C2
:100F68007B681B681846FFF7BAFE0346012B04D0BE
:100F78007B681B681846FFF792FE7B8803F008031E
:100F8800002B0CD07B681B681846FFF7DBFE034676
:100F9800012B04D07B681B681846FFF7B3FE7B88DB
:100FA80003F01003002B0CD07B681B681846FFF772
:100FB800FCFE0346012B04D07B681B681846FFF72C
:100FC800D4FE7B8803F02003002B0CD07B681B68C1
:100FD8001846FFF71EFE0346012B04D07B681B68EA
:100FE8001846FFF7F6FD7B8803F04003002B0CD072
:100FF8007B681B681846FFF771FF0346012B04D076
:101008007B681B681846FFF749FF7B8803F080035D
:10101800002B0CD07B681B681846FFF7F9FE0346C7
:10102800012B04D07B681B681846FFF7D1FE00BF70
:101038000837BD4680BD80B582B000AF78600B46EA
:101048007B807B8803F00103002B0CD07B681B6836
:101058001846FFF710FF0346012B04D17B681B6875
:101068001846FFF7F8FE7B8803F00203002B0CD02C
:101078007B681B681846FFF7FFFD0346012B04D168
:101088007B681B681846FFF7E7FD7B8803F00403BD
:10109800002B0CD07B681B681846FFF720FE034620
:1010A800012B04D17B681B681846FFF708FE7B8874
:1010B80003F00803002B0CD07B681B681846FFF769
:1010C80041FE0346012B04D17B681B681846FFF7D5
:1010D80029FE7B8803F01003002B0CD07B681B686B
:1010E8001846FFF762FE0346012B04D17B681B6894
:1010F8001846FFF74AFE7B8803F02003002B0CD02C
:101108007B681B681846FFF784FD0346012B04D053
:101118007B681B681846FFF76CFD7B8803F040036B
:10112800002B0CD07B681B681846FFF7D7FE0346D8
:10113800012B04D17B681B681846FFF7BFFE7B882C
:1011480003F08003002B0CD07B681B681846FFF760
:101158005FFE0346012B04D17B681B681846FFF726
:1011680047FE00BF0837BD4680BD000080B582B08D
:1011780000AF78600B46FB70FB78022B06D17B68CA
:101188001B6801211846FFF7F1FC31E07B681B68FA
:10119800194A934213D07B681B68184A93420ED0B1
:1011A8007B681B68164A934209D07B681B68154AFE
:1011B800934204D07B681B68134A934218D1FB788A
:1011C800032B06D17B681B6804211846FFF7CEFC69
:1011D8000EE0FB78042B0BD17B681B6801211846B5
:1011E800FFF7C4FC7B681B6804211846FFF7BEFCA8
:1011F80000BF0837BD4680BD002C014000340140C7
:1012080000400140004401400048014080B582B0E0
:1012180000AF78600B46FB70FB78022B06D17B6829
:101228001B6801211846FFF7B2FC31E07B681B6898
:10123800194A934213D07B681B68184A93420ED010
:101248007B681B68164A934209D07B681B68154A5D
:10125800934204D07B681B68134A934218D1FB78E9
:10126800032B06D17B681B6804211846FFF78FFC07
:101278000EE0FB78042B0BD17B681B680121184614
:10128800FFF785FC7B681B6804211846FFF77FFC85
:1012980000BF0837BD4680BD002C01400034014026
:1012A80000400140004401400048014080B582B040
:1012B80000AF78600B46FB70FB78022B06D17B6889
:1012C8001B6810211846FFF751FC31E07B681B684A
:1012D800194A934213D07B681B68184A93420ED070
:1012E8007B681B68164A934209D07B681B68154ABD
:1012F800934204D07B681B68134A934218D1FB7849
:10130800032B06D17B681B6840211846FFF72EFC8B
:101318000EE0FB78042B0BD17B681B681021184664
:10132800FFF724FC7B681B6840211846FFF71EFC6A
:1013380000BF0837BD4680BD002C01400034014085
:1013480000400140004401400048014080B582B09F
:1013580000AF78600B46FB70FB78022B06D17B68E8
:101368001B6810211846FFF712FC31E07B681B68E8
:10137800194A934213D07B681B68184A93420ED0CF
:101388007B681B68164A934209D07B681B68154A1C
:10139800934204D07B681B68134A934218D1FB78A8
:1013A800032B06D17B681B6840211846FFF7EFFB2B
:1013B8000EE0FB78042B0BD17B681B6810211846C4
:1013C800FFF7E5FB7B681B6840211846FFF7DFFB4A
:1013D80000BF0837BD4680BD002C014000340140E5
:1013E80000400140004401400048014080B582B0FF
:1013F80000AF78600B46FB70FB78022B07D17B6847
:101408001B684FF480711846FFF7B0FB34E07B6827
:101418001B681B4A934213D07B681B68194A934286
:101428000ED07B681B68184A934209D07B681B68FA
:10143800164A934204D07B681B68154A93421BD115
:10144800FB78032B07D17B681B684FF48061184633
:10145800FFF78CFB10E0FB78042B0DD17B681B6831
:101468004FF480711846FFF781FB7B681B684FF4C7
:1014780080611846FFF77AFB00BF0837BD4680BD7C
:10148800002C01400034014000400140004401406C
:101498000048014080B582B000AF78600B46FB7011
:1014A800FB78022B07D17B681B684FF480711846C4
:1014B800FFF76DFB34E07B681B681B4A934213D02F
:1014C8007B681B68194A93420ED07B681B68184AD0
:1014D800934209D07B681B68164A934204D07B6804
:1014E8001B68154A93421BD1FB78032B07D17B68F5
:1014F8001B684FF480611846FFF749FB10E0FB7842
:10150800042B0DD17B681B684FF480711846FFF7D8
:101518003EFB7B681B684FF480611846FFF737FB7A
:1015280000BF0837BD4680BD002C01400034014093
:1015380000400140004401400048014080B582B0AD
:1015480000AF78600B46FB70FB78022B06D17B68F6
:101558001B684FF480511846FFF708FB00BF083797
:10156800BD4680BD80B582B000AF78600B46FB7089
:10157800FB78022B06D17B681B684FF48051184614
:10158800FFF705FB00BF0837BD4680BD80B584B0B6
:1015980000AF78600023FB607B681B68304A934289
:1015A80001D1304BFB607B681A68FB681A60FB68E6
:1015B8001B681846FFF7B6FAB860BB68002B06D060
:1015C800BB68102B03D0FB6801221A7102E0FB688C
:1015D80000221A71FB681B68234A934213D0FB68E8
:1015E8001B68224A93420ED0FB681B68204A93422C
:1015F80009D0FB681B681F4A934204D0FB681B682C
:101608001D4A934204D1FB681B681846FFF7D1FABC
:10161800FB681B68144A934213D0FB681B68134A83
:1016280093420ED0FB681B68114A934209D0FB68AD
:101638001B68104A934204D0FB681B680E4A934209
:1016480008D17B681B681846FFF784FA0346DAB2AC
:10165800FB685A71FB6818461037BD4680BD00BF4D
:101668000004004094020020002C01400034014096
:1016780000400140004401400048014080B485B06A
:1016880000AF786039603B68002B03D17B6840333A
:10169800FB6001E0044BFB60FB6818461437BD464D
:1016A8005DF8047B704700BF0C03045080B483B01E
:1016B80000AF78607B68DB6803F44063002B01D1DE
:1016C800012300E0002318460C37BD465DF8047B73
:1016D800704780B483B000AF786039607B681B6B5B
:1016E80023F00F023B681A437B681A6300BF0C376C
:1016F800BD465DF8047B704780B483B000AF786066
:1017080039607B68DB6823F003023B681A437B6817
:10171800DA6000BF0C37BD465DF8047B704780B4C3
:1017280083B000AF78607B68DB6C03F0C003002BEC
:1017380001D1012300E0002318460C37BD465DF8AF
:10174800047B704780B483B000AF78607B689B6887
:1017580023F0004323F03F0343F001027B689A60C3
:1017680000BF0C37BD465DF8047B704780B483B07A
:1017780000AF78607B689B6823F0004323F03F0349
:1017880043F002027B689A6000BF0C37BD465DF8E3
:10179800047B704780B483B000AF78607B689B6837
:1017A80003F00103012B01D1012300E000231846B7
:1017B8000C37BD465DF8047B704780B483B000AF3A
:1017C800786039607B689B6823F0404323F03F03CF
:1017D8003A6802F08042134343F000427B689A6003
:1017E80000BF0C37BD465DF8047B704780B483B0FA
:1017F80000AF78607B689B6803F00043B3F1004F4B
:1018080001D1012300E0002318460C37BD465DF8DE
:10181800047B704780B483B000AF78607B689B68B6
:1018280023F0004323F03F0343F004027B689A60EF
:1018380000BF0C37BD465DF8047B704780B483B0A9
:1018480000AF78607B689B6823F0004323F03F0378
:1018580043F008027B689A6000BF0C37BD465DF80C
:10186800047B704780B483B000AF78607B681B68E6
:1018780003F00803082B01D1012300E000231846D8
:101888000C37BD465DF8047B704780B483B000AF69
:1018980078607B681B6803F01003102B01D10123CB
:1018A80000E0002318460C37BD465DF8047B7047FE
:1018B80080B483B000AF78607B6810221A6000BFE4
:1018C8000C37BD465DF8047B704780B483B000AF29
:1018D80078607B685B6843F008027B685A6000BFE9
:1018E8000C37BD465DF8047B704780B483B000AF09
:1018F80078607B685B6843F040027B685A6000BF91
:101908000C37BD465DF8047B704780B483B000AFE8
:1019180078607B685B6823F008027B685A6000BFC8
:101928000C37BD465DF8047B704780B483B000AFC8
:1019380078607B685B6823F010027B685A6000BFA0
:101948000C37BD465DF8047B704780B483B000AFA8
:1019580078607B685B6823F040027B685A6000BF50
:101968000C37BD465DF8047B704780B483B000AF88
:1019780078607B685B6823F080027B685A6000BFF0
:101988000C37BD465DF8047B704780B483B000AF68
:1019980078607B685B6803F01003102B01D101238A
:1019A80000E0002318460C37BD465DF8047B7047FD
:1019B80080B483B000AF78607B685B6803F0800315
:1019C800802B01D1012300E0002318460C37BD46C7
:1019D8005DF8047B7047000080B485B000AF786084
:1019E80039607B68FB600C4A3B6813441B781A46D5
:1019F800FB6813441B6808493A680A441278114680
:101A0800FA680A4443F00103136000BF1437BD4667
:101A18005DF8047B704700BFCCFB000880B485B03C
:101A280000AF786039607B68FB600C4A3B68134400
:101A38001B781A46FB6813441B6808493A680A442D
:101A480012781146FA680A4423F00103136000BFB4
:101A58001437BD465DF8047B704700BFCCFB000817
:101A680080B485B000AF786039607B68FB60084A55
:101A78003B6813441B781A46FB6813441B6803F041
:101A8800200318461437BD465DF8047B704700BF35
:101A9800CCFB000880B487B000AFF860B9607A600A
:101AA800FB687B610D4ABB6813441B781A467B6947
:101AB80013445B681B0C1B040849BA680A44127873
:101AC80011467A690A4411467A6813434B6000BF8D
:101AD8001C37BD465DF8047B704700BFCCFB00088F
:101AE80080B487B000AFF860B9607A603B60FB688B
:101AF8007B613B6A102B14D1174ABB6813441B78CF
:101B08001A467B6913441A467B68D360124ABB683D
:101B180013441B781A467B6913441A463B68936042
:101B280013E00D4ABB6813441B781A467B691344BB
:101B38001A467B689360084ABB6813441B781A46A8
:101B48007B6913441A463B68D36000BF1C37BD4607
:101B58005DF8047B704700BFCCFB000880B487B0F9
:101B680000AFF860B9607A60FB687B61074ABB68C0
:101B780013441B781A467B6913441A467B689360A2
:101B880000BF1C37BD465DF8047B7047CCFB0008DE
:101B980080B483B000AF78607B681B6803F02003D3
:101BA800202B01D1012300E0002318460C37BD4645
:101BB8005DF8047B704780B483B000AF78607B68C1
:101BC80020225A6000BF0C37BD465DF8047B704781
:101BD80080B485B000AF786039607B68FB600C4AE0
:101BE8003B6813441B781A46FB6813441B68084972
:101BF8003A680A4412781146FA680A4443F0020324
:101C0800136000BF1437BD465DF8047B704700BF02
:101C1800CCFB000880B485B000AF786039607B6881
:101C2800FB600C4A3B6813441B781A46FB68134454
:101C38001B6808493A680A4412781146FA680A4447
:101C480043F00803136000BF1437BD465DF8047BFA
:101C5800704700BFCCFB000880B485B000AF786047
:101C680039607B68FB600C4A3B6813441B781A4652
:101C7800FB6813441B6808493A680A4412781146FD
:101C8800FA680A4423F00203136000BF1437BD4604
:101C98005DF8047B704700BFCCFB000880B485B0BA
:101CA80000AF786039607B68FB600C4A3B6813447E
:101CB8001B781A46FB6813441B6808493A680A44AB
:101CC80012781146FA680A4423F00403136000BF2F
:101CD8001437BD465DF8047B704700BFCCFB000895
:101CE80080B485B000AF786039607B68FB600C4ACF
:101CF8003B6813441B781A46FB6813441B68084961
:101D08003A680A4412781146FA680A4423F008032C
:101D1800136000BF1437BD465DF8047B704700BFF1
:101D2800CCFB000880B485B000AF786039607B6870
:101D3800FB600A4A3B6813441B781A46FB68134445
:101D48001B6803F00203022B01D1012300E00023EA
:101D580018461437BD465DF8047B7047CCFB000875
:101D680080B584B000AF78600123FB817B681B6974
:101D78001846FFF79BFC0346002B2FD07B685B7A45
:101D8800DBB2022B11D07B685B7ADBB2042B0CD060
:101D98007B685B7ADBB2082B07D07B681B69184627
:101DA800FFF760FD0346012B18D1786800F0F8F8BA
:101DB8000346002B12D17B685B7ADBB2082B03D178
:101DC8007B6801225A7202E07B6820225A727B6883
:101DD8001B691846FFF71EFD0023FB81FB89184687
:101DE8001037BD4680BD80B586B002AFF860B960D7
:101DF8007A603B600021F868FFF740FC03461A460A
:101E08007968B868FFF7AAFE0021F868FFF736FC82
:101E180002463B68002100917968B868FFF760FEC8
:101E2800BA697968B868FFF735FE7968B868FFF766
:101E3800CFFE7968B868FFF7EDFE7968B868FFF7F4
:101E4800CBFD00BF1037BD4680BD80B584B000AF64
:101E5800F860B9607A607968B868FFF7DFFD79687B
:101E6800B868FFF71BFF7968B868FFF739FF79682A
:101E7800B868FFF7F1FE00227968B868FFF70AFE34
:101E880000BF1037BD4680BD80B584B000AF786014
:101E980039600223FB737B68DB79012B0FD17B68E8
:101EA800DA687B681B685B00D118FB7B7A6812686C
:101EB80002FB03F31A4638680DF03EFE0AE07B6821
:101EC800D968FB7B7A68126802FB03F31A46386804
:101ED8000DF032FE00BF1037BD4680BD80B586B01C
:101EE80000AFF860B9607A60FB685A69FB689B7953
:101EF80019461046FFF716FF0346DBB2012B37D110
:101F0800FB685A69BB68104698470346012B2FD1D6
:101F1800FB6804225A72FB685A697B681046984726
:101F2800FB685A69FB689B7919461046FFF798FDCC
:101F38000346002B19D1FB685A69FB689B7919463F
:101F48001046FFF76BFDFB685869FB689B791946DB
:101F5800FB681B681A46FFF79DFDFB685A69FB681A
:101F68009B7919461046FFF737FD0123FB7501E001
:101F78000023FB75FB7D18461837BD4680BD000061
:101F880080B500AF034A04490448FFF7A7FF00BF24
:101F980080BD00BFBF1B0008991B0008200300205C
:101FA80080B582B000AF78607B681B691846FFF780
:101FB8006CFC0346DBB2012B07D17B681B69184612
:101FC800FFF776FC7B6810225A727B685B7ADBB27B
:101FD800102B0CBF01230023DBB218460837BD467F
:101FE80080BD80B582B000AF78600B46FB70FB788F
:101FF800012B0DD17B681B691846FFF757FB034679
:10200800012B12D07B681B691846FFF703FC0CE014
:102018007B681B691846FFF782FB0346012B04D037
:102028007B681B691846FFF709FC00BF0837BD46E7
:1020380080BD000090B589B002AFF860084611462F
:102048001A4603467B810B463B811346FB800023DF
:102058007B61FB681B693C4A934201D13B4B7B6126
:102068007B69002B6BD0FB681A697B691A617B69F5
:102078000022DA71FB88012B61D03B89002B47D005
:102088007B695B7ADBB2082B42D0FB68DA687B6934
:10209800DA60FB681A687B691A60FB685A697B69B1
:1020A8005A61FB689A797B699A71FB681A797B692E
:1020B8001A717B691B69B96A1846FFF70AFB7B89A5
:1020C800012B21D07B89042B16D17B691B69032145
:1020D8001846FFF711FB7B6918697B6959697B69A9
:1020E8009B791C467B69DA687B691B6800931346F9
:1020F8002246FFF778FE07E07B89022B04D17B6933
:102108001B691846FFF7E1FB7B6908225A7216E043
:102118003B89002B13D17B699B7ADBB2082B0ED04D
:10212800FB685A797B695A717B89022B04D17B69D8
:102138001B691846FFF7D9FB7B6908229A727B69ED
:1021480018461C37BD4690BD0001045020030020EE
:1021580080B582B000AF78607B681B691846FFF7CE
:1021680019FB0346002B04D17B681B691846FFF74F
:10217800E9FA00BF0837BD4680BD80B586B000AF1C
:10218800F8600B467A607B810123FB82FB681B6940
:10219800002B46D07B89012B05D1F868FFF7E0FDBD
:1021A8000346FB823DE07B89042B1FD1FB681B693A
:1021B8001846FFF77BFA0346002B32D0FB68012252
:1021C8005A72FB681B691846FFF724FB00BFFB68BF
:1021D8005B7ADBB2042BFAD17968F868FFF754FE12
:1021E800FB6808225A720023FB821AE07B89022BC3
:1021F80017D1FB685B7ADBB2202B09D0FB685B7ACE
:10220800DBB2042B04D0FB685B7ADBB2102B08D15D
:10221800FB6808225A727968F868FFF735FE0023D0
:10222800FB82FB8A18461837BD4680BD80B582B050
:1022380000AF78600B467B8013463B807B681B6948
:102248001846FFF7A7FA0346002B04D07B681B69E2
:102258001846FFF78BFA7B681B691846FFF7A8FB3F
:102268000346002B04D07B681B691846FFF77DFBEB
:102278007B681B691846FFF788FB0346002B04D0D0
:102288007B681B691846FFF750FB3B88002B35D04D
:102298007B88012B1AD07B88022B05D17B681B69B0
:1022A8001846FFF732FB11E07B88042B0ED17B68C0
:1022B80018697B6859697B689B791A46FFF7C5FDE1
:1022C8007B681B6900211846FFF716FA7B68002215
:1022D800DA607B6800221A607B6800225A617B689A
:1022E80000229A717B6800221A717B681A697B68E0
:1022F8001B7919461046FFF7ECF90AE07B680022C3
:102308005A717B88022B04D17B681B691846FFF73A
:102318001CFB00BF0837BD4680BD000080B584B0F7
:1023280000AF78600B46FB707B681B691846FFF7A7
:1023380031FA0346FB7397F90F30012B04D17B6800
:102348001B691846FFF712FAFB78002B0FD17B6840
:102358001B697F211846FFF730FA00BF7B681B69AD
:102368001846FFF743FA0346012BF7D040E0FB7805
:10237800012B0FD17B681B692C491846FFF71DFA02
:1023880000BF7B681B691846FFF730FA0346012B2C
:10239800F7D02DE07B681B697F211846FFF70DFAFF
:1023A80000BF7B681B691846FFF720FA0346012B1C
:1023B800F7D00023BB8107E000BFBB891BB29BB2EB
:1023C80001339BB21BB2BB81BB891BB29BB2032BEF
:1023D800F2D97B681B6915491846FFF7EEF900BF6B
:1023E8007B681B691846FFF701FA0346012BF7D0F3
:1023F8000023BB8107E000BFBB891BB29BB201333E
:102408009BB21BB2BB81BB891BB29BB2032BF2D917
:1024180097F90F30012B04D17B681B691846FFF729
:1024280091F900BF1037BD4680BD00BF00007F4056
:1024380080B483B000AF78607B681B6843F001020A
:102448007B681A6000BF0C37BD465DF8047B704797
:1024580080B483B000AF78607B681B6823F001020A
:102468007B681A6000BF0C37BD465DF8047B704777
:1024780080B483B000AF786039607B681B6823F054
:1024880004023B681A437B681A6000BF0C37BD46DC
:102498005DF8047B704780B483B000AF78607B68D8
:1024A8001B6803F0040318460C37BD465DF8047B2F
:1024B800704780B483B000AF78607B68DB6A1846E9
:1024C8000C37BD465DF8047B704780B483B000AF1D
:1024D800786039607B683A681A6300BF0C37BD467C
:1024E8005DF8047B704780B483B000AF78603960D2
:1024F8007B683A685A6300BF0C37BD465DF8047BB9
:10250800704780B483B000AF786039607B683A6800
:102518009A6300BF0C37BD465DF8047B704780B4F2
:1025280083B000AF786039607B683A68DA6300BFCF
:102538000C37BD465DF8047B704780B483B000AFAC
:10254800786039607B683A681A6400BF0C37BD460A
:102558005DF8047B704780B483B000AF78607B6817
:102568005B6B18460C37BD465DF8047B704780B43A
:1025780083B000AF78607B689B6B18460C37BD460C
:102588005DF8047B704780B483B000AF78607B68E7
:10259800DB6B18460C37BD465DF8047B704780B48A
:1025A80083B000AF78607B681B6C18460C37BD465B
:1025B8005DF8047B704780B483B000AF78607B68B7
:1025C8005B6943F001027B685A6100BF0C37BD4666
:1025D8005DF8047B704780B483B000AF78607B6897
:1025E8001B6918460C37BD465DF8047B704780B4FC
:1025F80083B000AF786039607B683A689A6100BF41
:102608000C37BD465DF8047B704780B483B000AFDB
:10261800786039607B683A689A6200BF0C37BD46BB
:102628005DF8047B7047000080B584B000AF786027
:1026380087ED000AD7ED007AF5EEC07AF1EE10FAD0
:1026480003D54FF000033B600AE0D7ED007A9FED19
:10265800167AF4EEC77AF1EE10FA01DD134B3B60FF
:102668007B681B681846FFF724FFF8607B681B79B6
:10267800002B0CBF01230023DBB21A46FB6813446E
:1026880007EE903AB8EE677AD7ED007A27EE277A08
:10269800DFED056AC7EE267AFCEEE77A17EE903A88
:1026A80018461037BD4680BD0000C8420000C84229
:1026B80080B582B000AF786039607B681B681846C7
:1026C800FFF749FF02463B68934205D07B681B68C9
:1026D80039681846FFF707FF00BF0837BD4680BDB9
:1026E80080B582B000AF786039607B681B68184697
:1026F800FFF73DFF02463B68934205D07B681B68A5
:1027080039681846FFF7FDFE00BF0837BD4680BD93
:1027180080B582B000AF786039607B681B68184666
:10272800FFF731FF02463B68934205D07B681B6880
:1027380039681846FFF7F3FE00BF0837BD4680BD6D
:1027480080B582B000AF786039607B681B68184636
:10275800FFF725FF02463B68934205D07B681B685C
:1027680039681846FFF7E9FE00BF0837BD4680BD47
:1027780080B584B000AF786087ED000A97ED000A55
:102788007868FFF751FFF860F9687868FFF790FFFD
:1027980000BF1037BD4680BD80B584B000AF7860FB
:1027A80087ED000A97ED000A7868FFF73DFFF860AB
:1027B800F9687868FFF794FF00BF1037BD4680BD01
:1027C80080B584B000AF786087ED000A97ED000A05
:1027D8007868FFF729FFF860F9687868FFF798FFCD
:1027E80000BF1037BD4680BD80B584B000AF7860AB
:1027F80087ED000A97ED000A7868FFF715FFF86083
:10280800F9687868FFF79CFF00BF1037BD4680BDA8
:1028180080B485B000AF78607B681B689A68074B06
:102828001340FB60FB68062B0CBF01230023DBB2BF
:1028380018461437BD465DF8047B70470700010051
:1028480080B584B000AF78600B46FB707B681B686E
:102858001846FFF720FEF860FB78002B1ED07B6837
:102868001B68324A934213D07B681B68304A9342F4
:102878000ED07B681B682F4A934209D07B681B687F
:102888002D4A934204D07B681B682C4A934205D199
:102898007B681B6800211846FFF717FEFB68042BAE
:1028A80011D07B681B6804211846FFF7E1FD7B689F
:1028B8001B681846FFF77FFE7B681B68F968184697
:1028C800FFF7D6FD04E07B681B681846FFF773FE28
:1028D8007B681B681846FFF7ABFDFB78002B20D000
:1028E8007B681B68114A934213D07B681B68104AA7
:1028F80093420ED07B681B680E4A934209D07B68CE
:102908001B680D4A934204D07B681B680B4A9342AC
:1029180007D17B681A687B685B7919461046FFF710
:10292800D4FD00BF1037BD4680BD00BF002C01405C
:10293800003401400040014000440140004801408B
:1029480080B582B000AF78607B681B681846FFF7D7
:102958007FFD00BF0837BD4680BD80B485B000AF9D
:10296800786039607B68012283F8D8203B68D3E916
:1029780000237968C1E902237B6801221A600023D9
:10298800FB600CE07B68D3E902237868F9680231C0
:10299800C9000144C1E90023FB680133FB60FB68FF
:1029A800182BEFDD00BF00BF1437BD465DF8047B70
:1029B800704780B586B000AF87ED040BF860B9604A
:1029C8007A60BB68D3E902017B68D3E90023FDF78D
:1029D800FBFF0346002B05D17B68D3E90023B968C8
:1029E800C1E90223F868BB681033C82219460DF004
:1029F800A3F8F968D7E90423C1E93223FB6803F196
:102A0800D000BB681033C02219460DF095F8BB689A
:102A180003F11000FB68C833C82219460DF08CF882
:102A280000BF1837BD4680BD80B485B000AF786060
:102A380039607B68012283F860203B68D3E9002372
:102A48007968C1E902237B6801221A600023FB60D0
:102A58000CE07B68D3E902237868F9680231C90081
:102A68000144C1E90023FB680133FB60FB68092BC3
:102A7800EFDD00BF00BF1437BD465DF8047B70472B
:102A880080B586B000AF87ED040BF860B9607A6056
:102A9800BB68D3E902017B68D3E90023FDF794FF03
:102AA8000346002B05D17B68D3E90023B968C1E947
:102AB8000223F868BB681033502219460DF03CF821
:102AC800F968D7E90423C1E91423FB6803F1580026
:102AD800BB681033482219460DF02EF8BB6803F185
:102AE8001000FB685033502219460DF025F800BF3E
:102AF8001837BD4680BD000080B58CB002AF786045
:102B08007B6800221A727B6801225A607B68103346
:102B1800BB6100237B741A4BFB611A4B3B62012398
:102B2800BB74002387F82430022387F82530092353
:102B3800FB6009233B7407F10C000823009304236E
:102B480001220421FFF776FA02467B68DA607B6887
:102B5800DB6802211846FFF7E1FB7B68DB68184653
:102B6800FFF7F6FA7B68DB6801211846FFF739FAA8
:102B78007B6801221A7200BF2837BD4680BD00BF9E
:102B8800000104500000024080B5A6B000AF786094
:102B98001A4BBB6000233B7300237B7307F10803C8
:102BA8001846FEF7F3FC02467B68DA607B68DB6850
:102BB80000211846FEF7A5F97B68DB680221184654
:102BC800FEF7D4FA7B68DB6802211846FEF76EFB35
:102BD8007B68DB681846FFF71BFE034687F89730CB
:102BE80097F89730002B05D17B68DB6800211846E1
:102BF800FFF726FE00BF9837BD4680BD00040040A1
:102C080080B5A6B000AF78601A4BBB6000233B7359
:102C180000237B7307F108031846FEF7B7FC02464A
:102C28007B68DA607B68DB6800211846FEF769F983
:102C38007B68DB6802211846FEF7D8FB7B68DB68F7
:102C480002211846FEF77AFC7B68DB681846FFF716
:102C5800DFFD034687F8973097F89730002B05D1AA
:102C68007B68DB6800211846FFF7EAFD00BF98374C
:102C7800BD4680BD00040040B0B5B2B000AF00232F
:102C8800C7F89C3010E0954AD7F89C301A440023C6
:102C980013709349D7F89C20002321F81230D7F8F5
:102CA8009C300133C7F89C30D7F89C30072BEADDFD
:102CB8008C4A002313608C4A002313608B4BDB681B
:102CC8008B4A04211846FFF758FA894BDB89894A51
:102CD8001382874B1B88874AD383854B9B89854AF8
:102CE8005382834B5B88834A9383814B5B89814AF8
:102CF80093827F4B9B887F4A53837D4B1B897D4AF8
:102D0800D3827B4BDB887B4A13830023C7F89C3034
:102D18000FE0784AD7F89C30083332F813307549F9
:102D2800D7F89C2021F81230D7F89C300133C7F827
:102D38009C30D7F89C30072BEBDD6E4B1B88184670
:102D4800FDF760FB04460D466B4A6C496C4845EC40
:102D5800104BFFF72EFE674B03F5D26353E90223AE
:102D68006449C1E90A230023C7F89C301EE0D7F85C
:102D78009C3001335F4AD133DB001344D3E900238D
:102D8800C7E924235B4BD3E90A23D7E92401FDF7DC
:102D980043FE0346002B04D05649D7E92423C1E952
:102DA8000A23D7F89C300133C7F89C30D7F89C30F9
:102DB800172BDCDD4F4B5B881846FDF723FB0446D9
:102DC8000D46504A5049514845EC104BFFF758FE04
:102DD800484B03F54D6353E902234649C1E90C23E7
:102DE8000023C7F89C301FE0D7F89C300133414AD4
:102DF80003F29913DB001344D3E90023C7E9242322
:102E08003C4BD3E90C23D7E92401FDF705FE034623
:102E1800002B04D03749D7E92423C1E90C23D7F87C
:102E28009C300133C7F89C30D7F89C30082BDBDD89
:102E3800304B93ED0C7B364A36493748B0EE470A9B
:102E4800F0EE670AFFF7B5FD2A4B03F57A6353E9FD
:102E580002232849C1E90E230023C7F89C301FE04C
:102E6800D7F89C300133234A03F2F313DB001344F1
:102E7800D3E90023C7E924231E4BD3E90E23D7E95E
:102E88002401FDF7ABFD0346002B04D01949D7E90F
:102E98002423C1E90E23D7F89C300133C7F89C30AE
:102EA800D7F89C30172BDBDD124B9B881846FDF7B3
:102EB800A9FA04460D46194A19491A4845EC104B17
:102EC800FFF777FD0B4B03F5026353E9022309492A
:102ED800C1E90C230023C7F89C3045E0A803002073
:102EE8005C0300205403002058030020D81400205D
:102EF8006C030020B003002058000020B818002000
:102F0800380A002078000020381C002078100020A3
:102F180090000020E81D00204813002060000020D9
:102F280098190020C80B0020D7F89C300133A84A14
:102F380003F20313DB001344D3E90023C7E9242376
:102F4800A34BD3E90C23D7E92401FDF765FD03461C
:102F5800002B04D09E49D7E92423C1E90C23D7F8D4
:102F68009C300133C7F89C30D7F89C30172BDBDD39
:102F7800974BDB881846FDF745FA04460D46954AF7
:102F88009549964845EC104BFFF713FD904B03F518
:102F9800A06353E90223C7E930230023C7F89C3014
:102FA8001CE0D7F89C300133894A9F33DB00134477
:102FB800D3E90023C7E92423D7E92423D7E930013B
:102FC800FDF70CFD0346002B03D0D7E92423C7E9FE
:102FD8003023D7F89C300133C7F89C30D7F89C30A1
:102FE800172BDEDD7A4B1B891846FDF70BFA0446D2
:102FF8000D467B4A7B497C4845EC104BFFF7D9FCD2
:10300800734BD3E9DA23C7E92E230023C7F89C3092
:103018001CE0D7F89C3001336D4A6D33DB00134454
:10302800D3E90023C7E92423D7E92423D7E92E01CC
:10303800FDF7D4FC0346002B03D0D7E92423C7E9C6
:103048002E23D7F89C300133C7F89C30D7F89C3032
:10305800172BDEDD5E4B5B891846FDF7D3F9044676
:103068000D46624A6249634845EC104BFFF7A1FCE4
:10307800574BD3E97623C7E92C230023C7F89C30A4
:103088001CE0D7F89C300133514A3B33DB00134432
:10309800D3E90023C7E92423D7E92423D7E92C015E
:1030A800FDF79CFC0346002B03D0D7E92423C7E98E
:1030B8002C23D7F89C300133C7F89C30D7F89C30C4
:1030C800172BDEDD424B9B891846FDF79BF904461A
:1030D8000D46494A49494A4845EC104BFFF7D0FC90
:1030E8003B4B03F5576353E90223C7E92A2300231F
:1030F800C7F89C301DE0D7F89C300133344A03F2FE
:10310800AD13DB001344D3E90023C7E92423D7E92F
:103118002423D7E92A01FDF761FC0346002B03D0DD
:10312800D7E92423C7E92A23D7F89C300133C7F805
:103138009C30D7F89C30082BDDDD324A32493348C1
:1031480097ED2A0BFFF735FC214B03F5616353E933
:103158000223C7E928230023C7F89C301DE0D7F8CD
:103168009C3001331A4A03F2C113DB001344D3E93C
:103178000023C7E92423D7E92423D7E92801FDF749
:103188004BFC0346002B03D0D7E92423C7E92823A7
:10319800D7F89C300133C7F89C30D7F89C30172BF0
:1031A800DDDD0B4BDB891846FDF72CF904460D468F
:1031B800174A1849184845EC104BFFF7FAFB044B1F
:1031C800D3E91223C7E92A230023C7F89C3042E039
:1031D800B003002050000020D8170020A8080020C5
:1031E80048000020F81600201807002040000020A2
:1031F800181600208805002080000020A01C002050
:103208001811002088000020081D0020B811002097
:103218003800002038150020F8030020D7F89C302B
:103228000133B74A0933DB001344D3E90023C7E964
:103238002423D7E92423D7E92A01FDF7CFFB034646
:10324800002B03D0D7E92423C7E92A23D7F89C30D9
:103258000133C7F89C30D7F89C30172BDEDDA84B1C
:1032680093ED0A7BB0EE470AF0EE670A0CF068FAB5
:10327800B0EE407AF0EE607A9FED9F1BB0EE470A01
:10328800F0EE670A0CF024FA87ED240B4FF00002E9
:103298004FF00003D7E92401FDF7A0FB0346002BFC
:1032A80010D0D7F89030BB67D7F8943083F000433C
:1032B800FB67D7E91E01FDF7CFFB03469BB25B42D4
:1032C8009BB205E0D7E92401FDF7C6FB03469BB294
:1032D8008C4A13808A4B93ED0E7BB0EE470AF0EED2
:1032E800670A0CF02DFAB0EE407AF0EE607A9FEDA6
:1032F800821BB0EE470AF0EE670A0CF0E9F987ED99
:10330800240B4FF000024FF00003D7E92401FDF72A
:1033180065FB0346002B10D0D7F890303B67D7F8F1
:10332800943083F000437B67D7E91C01FDF794FBD9
:1033380003469BB25B429BB205E0D7E92401FDF747
:103348008BFB03469BB26F4A53806D4B93ED0C7B0E
:10335800B0EE470AF0EE670A0CF0F2F9B0EE407AE8
:10336800F0EE607A9FED641BB0EE470AF0EE670A54
:103378000CF0AEF987ED240B4FF000024FF000037C
:10338800D7E92401FDF72AFB0346002B10D0D7F814
:103398009030BB66D7F8943083F00043FB66D7E9DA
:1033A8001A01FDF759FB03469BB25B429BB205E04D
:1033B800D7E92401FDF750FB03469BB2514A93809D
:1033C80097ED300B0CF0BCF9B0EE407AF0EE607A75
:1033D8009FED491BB0EE470AF0EE670A0CF078F94A
:1033E80087ED240B4FF000024FF00003D7E92401CA
:1033F800FDF7F4FA0346002B10D0D7F890303B665F
:10340800D7F8943083F000437B66D7E91801FDF7BD
:1034180023FB03469BB25B429BB205E0D7E924013C
:10342800FDF71AFB03469BB2364AD38097ED2E0B65
:103438000CF086F9B0EE407AF0EE607A9FED2E1B24
:10344800B0EE470AF0EE670A0CF042F987ED240B5C
:103458004FF000024FF00003D7E92401FDF7BEFA50
:103468000346002B10D0D7F89030BB65D7F89430BE
:1034780083F00043FB65D7E91601FDF7EDFA034633
:103488009BB25B429BB205E0D7E92401FDF7E4FA61
:1034980003469BB21B4A138197ED2C0B0CF050F995
:1034A800B0EE407AF0EE607A9FED131BB0EE470A5B
:1034B800F0EE670A0CF00CF987ED240B4FF00002D0
:1034C8004FF00003D7E92401FDF788FA0346002BE3
:1034D8001AD0D7F890303B65D7F8943083F0004382
:1034E8007B65D7E91401FDF7B7FA03469BB25B4247
:1034F8009BB20FE0AFF30080000000000000F04036
:10350800B003002080030020D7E92401FDF7A4FAC6
:1035180003469BB2A24A538197ED280B0CF010F991
:10352800B0EE407AF0EE607A9FED9B1BB0EE470A52
:10353800F0EE670A0CF0CCF887ED240B4FF0000290
:103548004FF00003D7E92401FDF748FA0346002BA2
:1035580010D0D7F89030BB64D7F8943083F000438C
:10356800FB64D7E91201FDF777FA03469BB25B4289
:103578009BB205E0D7E92401FDF76EFA03469BB23A
:10358800874A938197ED2A0B0CF0DAF8B0EE407A6F
:10359800F0EE607A9FED801BB0EE470AF0EE670A06
:1035A8000CF096F887ED240B4FF000024FF0000363
:1035B800D7E92401FDF712FA0346002B10D0D7F8FB
:1035C80090303B64D7F8943083F000437B64D7E9AC
:1035D8001001FDF741FA03469BB25B429BB205E03E
:1035E800D7E92401FDF738FA03469BB26C4AD38128
:1035F8006C4B5B8C6A4A13826B4B03F5D26353E9BD
:1036080002236949C1E90E230023C7F89C301EE054
:10361800D7F89C300133644AD133DB001344D3E933
:103628000023C7E92423604BD3E90E23D7E92401FB
:10363800FDF7D4F90346002B04D05B49D7E92423CE
:10364800C1E90E23D7F89C300133C7F89C30D7F86E
:103658009C30172BDCDD544B5B881846FCF7D2FEF8
:1036680004460D46514A5249524845EC104BFFF763
:10367800A0F94D4B03F5346353E90223C7E9282326
:103688000023C7F89C301DE0D7F89C300133464A28
:1036980003F26713DB001344D3E90023C7E92423AB
:1036A800D7E92423D7E92801FDF7B6F90346002B0B
:1036B80003D0D7E92423C7E92823D7F89C3001335E
:1036C800C7F89C30D7F89C30172BDDDD364B03F557
:1036D800026353E902233449C1E90C230023C7F8E4
:1036E8009C301FE0D7F89C3001332F4A03F20313B4
:1036F800DB001344D3E90023C7E924232A4BD3E989
:103708000C23D7E92401FDF769F90346002B04D0FF
:103718002549D7E92423C1E90C23D7F89C30013384
:10372800C7F89C30D7F89C30172BDBDD1E4B03F510
:10373800A06353E90223C7E930230023C7F89C306C
:103748001CE0D7F89C300133174A9F33DB00134441
:10375800D3E90023C7E92423D7E92423D7E9300193
:10376800FDF75AF90346002B03D0D7E92423C7E90C
:103778003023D7F89C300133C7F89C30D7F89C30F9
:10378800172BDEDD084BD3E9DA23C7E92E23002304
:10379800C7F89C302DE000BF000000000000F0409A
:1037A8008003002000000020B003002070000020EB
:1037B800581B0020E80E0020D7F89C300133AC4A93
:1037C8006D33DB001344D3E90023C7E92423D7E989
:1037D8002423D7E92E01FDF71FF90346002B03D058
:1037E800D7E92423C7E92E23D7F89C300133C7F83B
:1037F8009C30D7F89C30172BDEDD9D4BD3E9762320
:10380800C7E92C230023C7F89C301CE0D7F89C306C
:103818000133974A3B33DB001344D3E90023C7E95C
:103828002423D7E92423D7E92C01FDF7F5F803462B
:10383800002B03D0D7E92423C7E92C23D7F89C30E1
:103848000133C7F89C30D7F89C30172BDEDD884B46
:103858009B891846FCF7D6FD04460D46854A8649DD
:10386800864845EC104BFFF7A4F8814B03F51B6322
:1038780053E90223C7E92A230023C7F89C301DE037
:10388800D7F89C3001337A4A03F23513DB0013442E
:10389800D3E90023C7E92423D7E92423D7E92A0158
:1038A800FDF7BAF80346002B03D0D7E92423C7E96C
:1038B8002A23D7F89C300133C7F89C30D7F89C30BE
:1038C800172BDDDD6A4BD3E912236949C1E90A23C5
:1038D8000023C7F89C301EE0D7F89C300133644AB7
:1038E8000933DB001344D3E90023C7E92423604BE1
:1038F800D3E90A23D7E92401FDF770F80346002B22
:1039080004D05B49D7E92423C1E90A23D7F89C30BE
:103918000133C7F89C30D7F89C30172BDCDD544BAB
:1039280093ED0E7BB0EE470AF0EE670A0BF008FF46
:10393800B0EE407AF0EE607A9FED4B1BB0EE470A8E
:10394800F0EE670A0BF0C4FE87ED240B4FF000027F
:103958004FF00003D7E92401FDF740F80346002B98
:1039680010D0D7F89030BB63D7F8943083F0004379
:10397800FB63D7E90E01FDF76FF803469BB25B4284
:103988009BB205E0D7E92401FDF766F803469BB230
:103998003B4A138097ED280B0BF0D2FEB0EE407A2D
:1039A800F0EE607A9FED301BB0EE470AF0EE670A42
:1039B8000BF08EFE87ED240B4FF000024FF0000352
:1039C800D7E92401FDF70AF80346002B10D0D7F8F1
:1039D80090303B63D7F8943083F000437B63D7E99A
:1039E8000C01FDF739F803469BB25B429BB205E038
:1039F800D7E92401FDF730F803469BB2204A5380EB
:103A08001B4B93ED0C7BB0EE470AF0EE670A0BF008
:103A180097FEB0EE407AF0EE607A9FED131BB0EEA1
:103A2800470AF0EE670A0BF053FE87ED240B4FF0C0
:103A380000024FF00003D7E92401FCF7CFFF03464B
:103A4800002B1FD0D7F89030BB62D7F8943083F0A2
:103A58000043FB62D7E90A01FCF7FEFF03469BB26D
:103A68005B429BB214E000BF000000000000F04081
:103A7800B003002068000020781A0020580D0020AC
:103A880094030020D7E92401FCF7E6FF03469BB224
:103A9800894A938097ED300B0BF052FEB0EE407AD6
:103AA800F0EE607A9FED821BB0EE470AF0EE670AEF
:103AB8000BF00EFE87ED240B4FF000024FF00003D1
:103AC800D7E92401FCF78AFF0346002B10D0D7F86A
:103AD80090303B62D7F8943083F000437B62D7E99B
:103AE8000801FCF7B9FF03469BB25B429BB205E0B5
:103AF800D7E92401FCF7B0FF03469BB26E4AD38096
:103B080097ED2E0B0BF01CFEB0EE407AF0EE607ACB
:103B18009FED671BB0EE470AF0EE670A0BF0D8FD81
:103B280087ED240B4FF000024FF00003D7E9240182
:103B3800FCF754FF0346002B10D0D7F89030BB6138
:103B4800D7F8943083F00043FB61D7E90601FCF70E
:103B580083FF03469BB25B429BB205E0D7E9240191
:103B6800FCF77AFF03469BB2534A138197ED2C0B5F
:103B78000BF0E6FDB0EE407AF0EE607A9FED4C1B5C
:103B8800B0EE470AF0EE670A0BF0A2FD87ED240BB2
:103B98004FF000024FF00003D7E92401FCF71EFFA5
:103BA8000346002B10D0D7F890303B61D7F89430FB
:103BB80083F000437B61D7E90401FCF74DFF03461E
:103BC8009BB25B429BB205E0D7E92401FCF744FFB6
:103BD80003469BB2384A538197ED2A0B0BF0B0FD90
:103BE800B0EE407AF0EE607A9FED311BB0EE470AF6
:103BF800F0EE670A0BF06CFD87ED240B4FF0000226
:103C08004FF00003D7E92401FCF7E8FE0346002B38
:103C180010D0D7F89030BB60D7F8943083F00043C9
:103C2800FB60D7E90201FCF717FF03469BB25B4232
:103C38009BB205E0D7E92401FCF70EFF03469BB2CF
:103C48001D4A93811D4B93ED0A7BB0EE470AF0EEB7
:103C5800670A0BF075FDB0EE407AF0EE607A9FEDE2
:103C6800141BB0EE470AF0EE670A0BF031FD87ED42
:103C7800240B4FF000024FF00003D7E92401FCF7B2
:103C8800ADFE0346002B1BD0D7F890303B60D7F829
:103C9800943083F000437B60D7E90001FCF7DCFE39
:103CA80003469BB25B429BB210E000BFAFF30080BB
:103CB800000000000000F04094030020B003002042
:103CC800D7E92401FCF7C8FE03469BB2B44AD38166
:103CD800B44B9A8CB24B1A82B34BB44A1A62B24BA9
:103CE8001B6A00211846FEF782FCAF4B1B6A4FF493
:103CF80000711846FEF789FCAB4BAC4A1A62AA4B16
:103D08001B6A00211846FEF772FCA74B1B6A4FF48A
:103D180080411846FEF779FCA34BA44A1A62A24BCD
:103D28001B6A00211846FEF762FC9F4B1B6A4FF482
:103D380080711846FEF769FC9B4B9C4A1A629A4BA5
:103D48001B6A00211846FEF752FC974B1B6A4FF47A
:103D580000411846FEF759FC934B944A1A62924B5D
:103D68001B6A00211846FEF742FC8F4B1B6A4FF472
:103D780080511846FEF749FC8B4B8D4A1A628A4BD4
:103D88001B6A00211846FEF732FC874B1B6A4FF46A
:103D980080511846FEF739FC834B844A1A62824BDD
:103DA8001B6A00211846FEF722FC7F4B1B6A4FF462
:103DB80000511846FEF729FC7B4B7C4A1A627A4B65
:103DC8001B6A00211846FEF712FC774B1B6A4FF45A
:103DD80000611846FEF719FC7548FEF7FCFBC7F8AA
:103DE8008C007248FEF7F7FBC7F88800714B93F810
:103DF8005930062B07D86F4B93F859300133DAB294
:103E08006C4B83F859206B4B93F8543003F0100334
:103E1800DBB2002B0ED1674A92F8543043F01003FE
:103E280082F85430634A92F8543043F0030382F81E
:103E38005430C2E05F4B93F85430C3F30103DBB254
:103E4800012B02D0022B6ED076E0D7F88C3003F02D
:103E58000403002B1BD1574A92F854306FF38303A5
:103E680082F85430534A92F85430022161F3010326
:103E780082F854304C4B002283F846204A4B0022EB
:103E880083F84420484B002283F8452094E0494BAE
:103E980093F8543003F00C03DBB2042B21D1424BCE
:103EA8004B2283F84420404B4B2283F84520414B5A
:103EB80093F85930042B7FD93E4B002283F85920C0
:103EC8003C4A92F85430022161F3830382F854305B
:103ED800354BB52283F84420334BB52283F845206F
:103EE8006AE0314BB52283F844202F4BB52283F882
:103EF8004520304B93F85930042B5DD92D4B0022C7
:103F080083F859202B4A92F85430012161F3830336
:103F180082F85430244B4B2283F84420224B4B2206
:103F280083F8452048E0204B002283F844201E4BAC
:103F3800002283F8452040E0D7F8883003F040039A
:103F4800002B20D11B4A92F85430012161F3010360
:103F580082F85430144B012283F84620154B002276
:103F680083F85920134A92F85430012161F38303EE
:103F780082F854300C4B4B2283F844200A4B4B22D6
:103F880083F8452019E0084B93F84630002B0CBF06
:103F980001230023DBB21A46034B83F846200CE0CA
:103FA8009403002000000020B00300200010004807
:103FB80000040048D814002000BF944B93F9453002
:103FC800002B06DD914B93F94520904B83F8412057
:103FD80005E08E4B93F945208C4B83F840208C4BA1
:103FE8001B6C8A4A92F9412007EE902AF8EEE77A8C
:103FF800B0EE670A1846FEF7BBFB854B1B6C834A7D
:1040080092F9402007EE902AF8EEE77AB0EE670AB8
:104018001846FEF7C1FB7E4B93F8583087F8873077
:104028007A4B93F94430002B04DD794B002283F856
:10403800582003E0764B012283F85820744B93F9FB
:10404800583097F987209A4214D097F98730002B77
:1040580002D0012B07D00DE06E4B93F92D206B4B4E
:1040680083F8432006E06B4B93F92E20674B83F8C7
:10407800422000BF664B93F95830002B06D1634BA2
:1040880093F94420614B83F8432005E05F4B93F993
:1040980044205E4B83F842205D4B1B6D5B4A92F9CE
:1040A800432007EE902AF8EEE77AB0EE670A184642
:1040B800FEF786FB564B1B6D544A92F9422007EED9
:1040C800902AF8EEE77AB0EE670A1846FEF78CFBFE
:1040D8004E4B514A1A624F4BD3E900014FF0000290
:1040E8004FF00003FCF770FC0346002B03D180233C
:1040F800C7F89C3002E00023C7F89C30434B1B6A8A
:10410800D7F89C2011461846FEF771FA3F4B1A6AF9
:10411800D7F89C30DB4303F0800319461046FEF7BE
:1041280074FA3A4B3D4A1A62384B1B6A002118460A
:10413800FEF75DFA354B1B6A4FF400511846FEF73F
:1041480064FA324B354A1A62304B93F84630002BEA
:1041580004D04FF48043C7F89C3002E00023C7F82E
:104168009C302A4B1B6AD7F89C2011461846FEF74C
:104178003EFA264B1A6AD7F89C30DB4303F4804397
:1041880019461046FEF741FA204B244A1A621F4B83
:104198001B6A00211846FEF72AFA1C4B1B6A4FF4CB
:1041A80000411846FEF731FA184B1D4A1A62194B9E
:1041B800D3E902014FF000024FF00003FCF704FCC2
:1041C8000346002B03D10823C7F89C3002E00023E4
:1041D800C7F89C300D4B1B6AD7F89C20114618462F
:1041E800FEF705FA094B1A6AD7F89C30DB4303F04F
:1041F800080319461046FEF708FA00F0EFFA00F037
:1042080003FC00BFC837BD46B0BD00BFB0030020E7
:10421800D814002000000020000C004800080048C6
:104228000004004880B582B000AF00237B6010E036
:10423800664B93F82C10664A7B6813440A461A703A
:10424800624B198C634A7B6822F813107B68013330
:104258007B607B68072BEBDD5C4B1B695E4A136058
:104268005A4B5B695D4A136000237B6014E0574B2F
:10427800D98C5B4A7B6822F81310544B198D594A24
:104288007B6822F81310514B598D574A7B6822F8E6
:1042980013107B6801337B607B68082BE7DD534B89
:1042A800FF2283F85820494B9B69514A1360474BBA
:1042B800DB69504A1360454B9B694D4A5360434B39
:1042C800DB694C4A5360414B9B69494A93603F4BB9
:1042D800DB69484A936000F015FB3C4B93F92F20AB
:1042E800454B83F84120394B93F93020424B83F8F2
:1042F8004020364B93F92D203F4B83F84320334B16
:1043080093F92E203C4B83F84220384B00225A6008
:10431800364B00221A703548FEF7EEFB374938480D
:10432800FEF71BFB37493848FEF77EFB374938480C
:10433800FEF713FB37493848FEF70FFB3749384873
:10434800FEF70BFB37493848FEF707FB3749384873
:10435800FEF703FB37493848FEF766FB374938480C
:10436800FEF7FBFA37493848FEF7F7FA3749384875
:10437800FEF7F3FA37493848FEF7EFFA1B4B0022ED
:1043880083F83420194B002283F83C20174B012274
:104398009A633248FEF7F8FB144B012283F83C205D
:1043A800124B002283F84420104B002283F84C2043
:1043B8000E4B01229A642A48FEF722FC0B4B01227D
:1043C80083F84C2000BF0837BD4680BD00000020A0
:1043D800A80300205C030020540300205803002099
:1043E8006C0300208003002094030020D8140020D0
:1043F8003C03002048030020B003002058000020A0
:10440800B818002078000020381C002090000020F8
:10441800E81D0020600000209819002050000020AE
:10442800D817002048000020F8160020400000207F
:104438001816002080000020A01C00208800002002
:10444800081D0020380000203815002070000020CA
:10445800581B002068000020781A00200C15002046
:104468001C15002080B500AF344B1B78002B11D1F0
:10447800324B01221A70314B5B68012B0AD12F4B4A
:104488001B7A002B06D02D4BDB680122042118462D
:10449800FDF7CCFE294B93F83430002B23D1274B62
:1044A800012283F83420254B9B6B012B1BD1234B16
:1044B80093F83C30002B16D0204B1B6C1846FEF7A7
:1044C8003FFA1E4B1B6C00211846FCF7B4FD1B4B32
:1044D8001B6C02211846FCF799FE184B1B6C022135
:1044E8001846FCF733FF154B93F84430002B23D1C3
:1044F800124B012283F84420104B9B6C012B1BD1DB
:104508000E4B93F84C30002B16D00C4B1B6D1846F5
:10451800FEF716FA094B1B6D00211846FCF78BFDB8
:10452800064B1B6D02211846FCF7B4FF034B1B6DAD
:1045380002211846FDF716F800BF80BDD8140020E8
:1045480080B489B000AFF860B9607A60FB68BB617D
:104558000023FB61BB689B087B611B4B1B68B3F5A1
:10456800C87F2AD00023FB6122E0174B1B6817493C
:104578007A6841F82320FB699B00BA691A44124BF8
:104588001B681268114903F5C87341F823200E4BC4
:104598001B680F4A12680D4903F5487341F8232038
:1045A800094B1B680133084A1360FB690133FB613F
:1045B800FA697B699A42D8D300E000BF2437BD4628
:1045C8005DF8047B704700BFCC1E0020D41E00207D
:1045D800D01E002080B584B000AF786072B600BFEE
:1045E80000F060FC0346FB6007F10C037A680421C5
:1045F8001846FFF7A5FF62B600BF00BF1037BD46DB
:1046080080BD000080B500AF124B1B785A1CD1B298
:10461800104A1170002B09D00F4B01221A600D4B64
:104628001B78013BDAB20B4B1A7011E062B600BF7F
:1046380002200BF031F8FEF71FFB02200BF037F8D1
:1046480072B600BF034B1B78013BDAB2014B1A70FC
:1046580080BD00BF983100209431002080B584B01F
:1046680000AF78603960374BFB60374BBB60374B26
:1046780000221A70364B00221A7001DF06F026FB62
:1046880000F0E0FE00F02EFF00F08EFF01F054FF76
:1046980001F072FB02F09EF901F0BEFF02F04AFA47
:1046A80001F00EFD02F00EFD02F066FC294B1B68BE
:1046B80000221A6001200AF0EFFFFFF7B3FD012086
:1046C8000AF0F5FF72B600BF97ED030A00F08AFC06
:1046D800204B1B681B68002B0CBF01230023DBB297
:1046E8001A461B4B1A7062B600BF62B600BF15E0CF
:1046F800184B1B681B68002B14BF01230023DBB277
:104708001A46124B1A70114B1B78DBB2002B05D0DE
:10471800114B1B68104A23F0010313600C4B1B78E4
:10472800DBB2002BE4D103200AF0B6FFFFF79AFEB4
:1047380003200AF0BCFF72B600BF002318461037EA
:10474800BD4680BDCDCCCC3D0000A04299310020B3
:104758009A310020D4FB000810E000E080B485B056
:1047680000AF0346FB80B7F90630002B02DBFB885D
:10477800FB8101E0FB88FB81B7F90E30184614373E
:10478800BD465DF8047B704780B588B004AF03462A
:104798000A46FB711346BB71FB799BB25B009BB267
:1047A800013399B2BB799AB24FF0FF3302930223D7
:1047B800019307F10C0300930123074806F078FEE4
:1047C8003B7B1B021AB27B7B1BB213431BB29BB20F
:1047D80018461037BD4680BDC431002080B500AFF3
:1047E8003B216920FFF7D0FF03461846FFF7B6FFC5
:1047F80003461A4613469B0013445B0007EE903AA3
:10480800B8EEE77ADFED3B6AC7EE267A3A4BC3ED9E
:10481800007A3D216920FFF7B7FF03461846FFF7E6
:104828009DFF03461A4613469B0013445B0007EEA0
:10483800903AB8EEE77ADFED2F6AC7EE267A2E4B6C
:10484800C3ED017A3F216920FFF79EFF0346184612
:10485800FFF784FF03461A4613469B0013445B0088
:1048680007EE903AB8EEE77ADFED226AC7EE267ACD
:10487800214BC3ED027A43216920FFF785FF0346E8
:104888001846FFF76BFF034607EE903AB8EEE77A53
:10489800DFED1A6AC7EE267A194BC3ED007A452177
:1048A8006920FFF771FF03461846FFF757FF0346D5
:1048B80007EE903AB8EEE77ADFED106AC7EE267A8F
:1048C8000F4BC3ED017A47216920FFF75DFF0346CF
:1048D8001846FFF743FF034607EE903AB8EEE77A2B
:1048E800DFED066AC7EE267A054BC3ED027A00BFF4
:1048F80080BD00BF000080463C0300200000034349
:104908004803002080B586B004AF0023FB714FF048
:10491800FF33029301230193FB1D009301236B22B4
:10492800D2211D4806F0B0FC4FF0FF33029301235B
:1049380001930723009301231922D221164806F078
:10494800A3FC4FF0FF33029301230193002300934C
:1049580001231C22D221104806F096FC4FF0FF33A9
:104968000293012301930023009301231B22D221E8
:10497800094806F089FC4FF0FF33029301230193A5
:10498800064B009301237522D321034806F090FDBE
:1049980000BF0837BD4680BDC43100209B310020D0
:1049A80080B582B000AF00237B600FE07B68432BAB
:1049B80008D07B68052B05D07B685BB2184607F0EA
:1049C800E5FA00E000BF7B6801337B607B68EF2B72
:1049D800ECD900BF00BF0837BD4680BD80B582B0A6
:1049E80000AF00237B6007E07B685BB2184607F0E6
:1049F800BFFA7B6801337B607B68EF2BF4D900BF7B
:104A080000BF0837BD4680BD80B500AF4021AA4829
:104A180006F092FB0346002B14BF01230023DAB2F1
:104A2800A64B1A700421A64806F086FB0346002B05
:104A380014BF01230023DAB2A04B5A704FF400517F
:104A4800A04806F079FB0346002B14BF012300237E
:104A5800DAB29D4B1A704FF480419A4806F06CFB0D
:104A68000346002B14BF01230023DAB2964B5A7079
:104A78004FF40041934806F05FFB0346002B14BF38
:104A880001230023DAB2904B9A704FF480518C487E
:104A980006F052FB0346002B14BF01230023DAB2B1
:104AA8008A4B1A704FF48071834806F045FB034621
:104AB800002B14BF01230023DAB2844B5A704FF441
:104AC80000717D4806F038FB0346002B14BF012314
:104AD8000023DAB27D4B9A704FF48051764806F085
:104AE8002BFB0346002B14BF01230023DAB2774BBC
:104AF800DA704FF40061704806F01EFB0346002B85
:104B080014BF01230023DAB2704B1A714FF48041AD
:104B1800694806F011FB0346002B14BF012300234C
:104B2800DAB26A4B5A714FF40041634806F004FB4D
:104B38000346002B14BF01230023DAB2634B9A719A
:104B48004FF400515C4806F0F7FA0346002B14BFF7
:104B580001230023DAB25D4BDA715D4B5B6B9AB2CD
:104B68005C4B1A805A4B9B6B9AB25A4B5A80584BE3
:104B7800DB6B9AB2584B1A80554B1B6C9AB2564B4A
:104B88005A80FFF70DFF08E04FF400714FF0904096
:104B980006F0D2FA0346012B07D103214F4803F050
:104BA800C1F80346002BEFD10AE000BF08E04FF43C
:104BB80000714FF0904006F0BFFA0346012B07D171
:104BC80002213E4803F0AEF80346002BEFD10AE07D
:104BD80000BF08E04FF400714FF0904006F0ACFAC7
:104BE8000346012B07D10321374803F09BF80346FE
:104BF800002BEFD10AE000BF08E04FF400714FF03E
:104C0800904006F099FA0346012B07D10C2134484D
:104C180003F088F80346002BEFD10AE000BF08E054
:104C28004FF400714FF0904006F086FA0346012BCE
:104C380007D10C212B4803F075F80346002BEFD160
:104C48000AE000BF08E04FF400714FF0904006F012
:104C580073FA0346012B07D11221234803F062F8A7
:104C68000346002BEFD10AE000BF08E04FF40071C3
:104C78004FF0904006F060FA0346012B07D112214D
:104C88001A4803F04FF80346002BEFD10AE000BFA3
:104C980008E04FF400714FF0904006F04DFA0346DB
:104CA800012B07D11221124803F03CF80346002BD0
:104CB800EFD128E000BF26E0001000489C3100201A
:104CC8000004004800080048A0310020A43100205A
:104CD80000040040B4310020B031002078FB000807
:104CE8003C030020480300206C03002080030020C0
:104CF800940300204FF400714FF0904006F01CFA26
:104D08000346012B07D10821514803F00BF803464D
:104D1800002BEFD10AE000BF08E04FF400714FF01C
:104D2800904006F009FA0346012B07D104214948AF
:104D380002F0F8FF0346002BEFD10AE000BF08E0BD
:104D48004FF400714FF0904006F0F6F90346012B3E
:104D580007D10421404802F0E5FF0346002BEFD1BC
:104D68000AE000BF08E04FF400714FF0904006F0F1
:104D7800E3F90346012B07D10421384802F0D2FF9A
:104D88000346002BEFD10AE000BF08E04FF40071A2
:104D98004FF0904006F0D0F90346012B07D10821C7
:104DA8002F4802F0BFFF0346002BEFD10AE000BFF7
:104DB80008E04FF400714FF0904006F0BDF903464B
:104DC800012B07D11021274802F0ACFF0346002B26
:104DD800EFD10AE000BF08E04FF400714FF09040B7
:104DE80006F0AAF90346012B07D104211E4802F058
:104DF80099FF0346002BEFD10AE000BF08E04FF40B
:104E080000714FF0904006F097F90346012B07D147
:104E18000421164802F086FF0346002BEFD10AE072
:104E280000BF08E04FF400714FF0904006F084F99D
:104E38000346012B07D104210D4802F073FF0346F6
:104E4800002BEFD100E000BFFFF7C8FD00BF80BD19
:104E5800A4310020AC310020B0310020B431002052
:104E6800A80300205C0300205803002054030020FE
:104E78007CFB000880B584B000AF786005F052FF75
:104E8800F8607B68BB6000BF05F04CFF0246FB681A
:104E9800D31ABA689A42F7D800BF00BF1037BD4688
:104EA80080BD000010B50E4C82B0636A019305F016
:104EB80039FF0090626A019B9A4207D3009B0198D0
:104EC8004FF47A7202FB030002B010BD05F02AFF0E
:104ED800636A4FF47A7202FB003002B010BD00BF63
:104EE800002C014080B483B000AF03463960FB71E9
:104EF80097F90730002B0ADB3B68DAB20C4997F9BF
:104F080007301201D2B20B4483F800230AE03B6851
:104F1800DAB20849FB7903F00F03043B1201D2B25D
:104F28000B441A7600BF0C37BD465DF8047B70470A
:104F380000E100E000ED00E080B582B000AF7860ED
:104F48007B68013BB3F1807F01D301230FE00A4A5C
:104F58007B68013B53600F214FF0FF30FFF7C2FF22
:104F6800054B00229A60044B07221A60002318465A
:104F78000837BD4680BD00BF10E000E080B500AF37
:104F8800BFF34F8F00BFBFF36F8F00BF0B4B1A6883
:104F98000B4B1B689A4202D3084B00221A60074B3E
:104FA8001B685A1C05490A60002B05D172B600BF60
:104FB800FFF728FB62B600BF00BF80BDB8310020F4
:104FC800BC31002080B400AF054B5B68044A43F055
:104FD8008053536000BFBD465DF8047B704700BF37
:104FE80000ED00E080B584B000AF87ED010A234BE7
:104FF8001B6807EE903AB8EE677AD7ED017A67EE4C
:10500800277AFCEEE77A17EE903AFB60FB68B3F17B
:10501800807F18D3FB6807EE903AB8EE677ADFED29
:10502800186AC7EE267AFCEEE77A17EE903A013353
:10503800144A1360134B1B68FA68B2FBF3F3184663
:10504800FFF77AFF05E00F4B00221A60F868FFF7B8
:1050580073FF0D4B00221A600C4A0D4B1A600F218A
:105068006FF00400FFF73EFF0F216FF00100FFF71C
:1050780039FF00BF1037BD4680BD00BF24020020A5
:10508800FFFF7F4BBC310020B8310020854F00085E
:10509800C0310020EFF3008001B5EFF3118003B4B5
:1050A8001EF0100F08BFB0EE400A0A48006803B4AB
:1050B80088B004A006904FF0807007906FF006004B
:1050C8008646704703BC8047BFF36F8F00DFFEE75B
:1050D80000BF0000C03100201EF0100F08BFB0EE66
:1050E800400A1EF0040F0CBFEFF30880EFF30980AD
:1050F800816911F8020C10B101280DD00BE01EF0E7
:10510800100F0CBF1AB008B003BC80F3118803BCA1
:1051180080F300880847FEE74EF61451CEF20001EE
:105128000A6842F001020A607047F4E700BF00BF56
:1051380080B400AF054B1B68044A43F40023136096
:1051480000BFBD465DF8047B704700BF00100240F9
:1051580080B400AF054B1B68044A43F480331360E6
:1051680000BFBD465DF8047B704700BF00100240D9
:1051780080B400AF074B1B6803F40033B3F5003F5E
:1051880001D1012300E000231846BD465DF8047BE9
:10519800704700BF0010024080B483B000AF786051
:1051A800064B9B6823F0030204497B6813438B601A
:1051B80000BF0C37BD465DF8047B70470010024005
:1051C80080B400AF044B9B6803F00C031846BD463F
:1051D8005DF8047B704700BF0010024080B483B0C4
:1051E80000AF7860064B9B6823F0F00204497B68A7
:1051F80013438B6000BF0C37BD465DF8047B7047D6
:105208000010024080B483B000AF7860064B9B6802
:1052180023F4E06204497B6813438B6000BF0C37BA
:10522800BD465DF8047B70470010024080B483B02F
:1052380000AF7860064B9B6823F4605204497B6892
:1052480013438B6000BF0C37BD465DF8047B704785
:105258000010024080B400AF054B1B68044A43F0BD
:105268008073136000BFBD465DF8047B704700BFC4
:105278000010024080B400AF074B1B6803F00073B6
:10528800B3F1007F01D1012300E000231846BD4699
:105298005DF8047B704700BF0010024080B485B001
:1052A80000AFF860B9607A603B600A4BDA680A4B75
:1052B8001340F968BA6811437A68120211433A68D0
:1052C8000A4304491343CB6000BF1437BD465DF859
:1052D800047B7047001002408C80FFF980B400AF57
:1052E800054BDB68044A43F08073D36000BFBD46BA
:1052F8005DF8047B704700BF0010024080B400AF27
:10530800054B1B68044A43F08063136000BFBD4629
:105318005DF8047B704700BF0010024080B400AF06
:10532800074B1B6803F00063B3F1006F01D1012341
:1053380000E000231846BD465DF8047B704700BFB7
:105348000010024080B485B000AFF860B9607A60A0
:105358003B600E4BDB6823F07302F968BB680B43B4
:105368000A491343CB60094B1B6923F4C00323F498
:10537800FE437A6811023A680A43044913430B61F1
:1053880000BF1437BD465DF8047B7047001002402B
:1053980080B400AF054B1B69044A43F480131361C2
:1053A80000BFBD465DF8047B704700BF0010024097
:1053B80080B483B000AF7860064B1B6823F0070207
:1053C80004497B6813430B6000BF0C37BD465DF88A
:1053D800047B70470020024080B400AF044B1B6878
:1053E80003F007031846BD465DF8047B704700BF0D
:1053F8000020024080B483B000AF7860064B1B6881
:1054080023F4C06204497B6813430B6000BF0C3768
:10541800BD465DF8047B70470070004080B400AF63
:10542800074B5B6903F48063B3F5806F01D10123F7
:1054380000E000231846BD465DF8047B704700BFB6
:105448000070004080B500AF0420FFF7B1FF00BF37
:10545800FFF7C2FF0346042BFAD14FF40070FFF7A1
:10546800C9FF00BFFFF7DAFF0346002BFAD1FFF7A9
:105478006FFE00BFFFF77CFE0346012BFAD1FFF752
:1054880057FE0023142200210320FFF707FFFFF730
:1054980025FFFFF7DFFE00BFFFF7ECFE0346012BF9
:1054A800FAD10320FFF778FE00BFFFF789FE034615
:1054B8000C2BFAD10020FFF791FE0020FFF7A2FE87
:1054C8000020FFF7B3FE064802F03CFD0F2002F073
:1054D800CBFC0346002B01D000F02CF800BF80BDA8
:1054E80000B4C40480B500AF00230C2200210320BF
:1054F800FFF728FFFFF74CFFFFF700FF00BFFFF79C
:105508000DFF0346012BFAD100BF00BF80BD00008C
:1055180080B582B000AF78607B681B68044A93420C
:1055280001D105F0EBFB00BF0837BD4680BD00BFC9
:10553800002C014080B400AF72B600BFFEE7000047
:1055480080B485B000AF7860084BDA6C07497B6897
:105558001343CB64054BDA6C7B681340FB60FB6834
:1055680000BF1437BD465DF8047B70470010024049
:1055780080B483B000AF786039607B683A689A611C
:1055880000BF0C37BD465DF8047B704780B483B01C
:1055980000AF786039607B683A689A6200BF0C3760
:1055A800BD465DF8047B704780B586B000AF3B46CA
:1055B80000221A605A609A60DA601A615A611020F3
:1055C800FFF7BEFF0420FFF7BBFF8020FFF7B8FFFF
:1055D8000120FFF7B5FF0220FFF7B2FF0820FFF711
:1055E800AFFF4FF400516348FFF7C2FF4FF440414B
:1055F8006048FFF7CBFF4FF47B415F48FFF7C6FFDA
:1056080041F208015D48FFF7C1FF80215C48FFF7C0
:10561800BDFF40F2BF433B6003237B6000233B6137
:105628003B461946544802F0E8FD40233B600023FE
:105638007B6001233B613B4619464F4802F0DDFD84
:105648004FF460433B6001237B600023BB60002371
:10565800FB6000233B613B461946464802F0CDFDFE
:1056680041F60F433B6003237B6000233B613B46CD
:105678001946404802F0C1FD48F207533B60032336
:105688007B6000233B613B4619464FF0904002F097
:10569800B4FD04233B6000237B6001233B613B4650
:1056A8001946364802F0A9FD4FF47B433B600123BD
:1056B8007B600323BB600023FB6000233B613B4608
:1056C80019462D4802F099FD4FF480533B600123A1
:1056D8007B600323BB600023FB6000233B613B46E8
:1056E8001946264802F089FD4EF2D0333B60032369
:1056F8007B6000233B613B461946204802F07DFD54
:105708004FF61F733B6003237B6000233B613B46DE
:1057180019461B4802F071FD80233B6001237B6022
:105728000023BB600023FB6000233B613B46194616
:10573800134802F062FD08233B6001237B600023CD
:10574800BB600023FB6000233B613B4619460B48C6
:1057580002F053FD20233B6000237B6000233B6164
:105768003B461946054802F048FD00BF1837BD46BC
:1057780080BD00BF00080048001000480004004831
:10578800000C004880B400AF044BDB681B0A03F030
:1057980007031846BD465DF8047B704700ED00E03E
:1057A80080B483B000AF0346FB7197F90730002B34
:1057B8000BDBFB7903F01F02074997F907305B09F8
:1057C800012000FA02F241F8232000BF0C37BD4641
:1057D8005DF8047B704700BF00E100E080B483B04F
:1057E80000AF03463960FB7197F90730002B0ADBDD
:1057F8003B68DAB20C4997F907301201D2B20B4470
:1058080083F800230AE03B68DAB20849FB7903F021
:105818000F03043B1201D2B20B441A7600BF0C37B7
:10582800BD465DF8047B704700E100E000ED00E054
:1058380080B489B000AFF860B9607A60FB6803F0A3
:105848000703FB61FB69C3F10703042B28BF04238B
:10585800BB61FB690433062B02D9FB69033B00E0FB
:1058680000237B614FF0FF32BB6902FA03F3DA438E
:10587800BB681A407B699A404FF0FF317B6901FA97
:1058880003F3D9437B680B40134318462437BD46BE
:105898005DF8047B704780B483B000AF78603960EE
:1058A8007B689B6823F0E0723B681A437B689A60C8
:1058B80000BF0C37BD465DF8047B704780B487B0E5
:1058C80000AFF860B9607A60FB6830331A46BB688D
:1058D8001B0A9B0003F00C0313447B617B691A6865
:1058E800BB6803F01F031F2101FA03F3DB431A40CF
:1058F8007B689B0E03F01F01BB6803F01F0301FACE
:1059080003F31A437B691A6000BF1C37BD465DF874
:10591800047B704780B487B000AFF860B9607A60E4
:10592800FB6814331A46BB685B0E9B0003F0040344
:1059380013447B617B691A68BB681B0D03F01F0366
:10594800072101FA03F3DB431A40BB681B0D03F080
:105958001F03796801FA03F31A437B691A6000BFD1
:105968001C37BD465DF8047B7047000080B485B0E5
:1059780000AFF860B9607A60FB68D3F8B020BB6804
:10598800C3F31203DB431A407B6803F0180308498A
:10599800D940BB680B40C3F312031A43FB68C3F832
:1059A800B02000BF1437BD465DF8047B704700BFC8
:1059B800FFFF070080B483B000AF786039607B6870
:1059C8001B6923F4806323F003033A681A437B6856
:1059D8001A6100BF0C37BD465DF8047B704780B480
:1059E80083B000AF786039607B681B6923F400726C
:1059F8003B681A437B681A6100BF0C37BD465DF8E7
:105A0800047B704780B485B000AFF860B9607A60F5
:105A1800FB681B6923F4FE727968BB680B431A4361
:105A2800FB681A6100BF1437BD465DF8047B7047F8
:105A380080B483B000AF78607B689B6823F0204314
:105A480023F03F037A68936000BF0C37BD465DF8CA
:105A5800047B704780B483B000AF78607B689B6834
:105A680023F0104323F03F0343F080527B689A6091
:105A780000BF0C37BD465DF8047B704780B487B023
:105A880000AFF860B9607A60FB687B610E4ABB685A
:105A980013441B781A467B6913441B6823F480431C
:105AA80023F010030849BA680A44127811467A6943
:105AB8000A4411467A6813430B6000BF1C37BD4681
:105AC8005DF8047B704700BFD8FB000880B487B03E
